:020000040800F2
:1000000000000824651900087D1500088315000804
:10001000891500088F1500089515000800000000DC
:1000200000000000000000000000000051CF0008A8
:100030009B1500080000000021D200086D96000802
:10004000B5190008B5190008B5190008B519000858
:10005000B5190008B5190008B5190008B519000848
:10006000B5190008B5190008B5190008B519000838
:10007000B5190008B5190008B5190008B519000828
:10008000B5190008B5190008B5190008B519000818
:10009000B5190008B5190008B5190008B519000808
:1000A000B5190008B5190008B5190008B5190008F8
:1000B000B5190008B5190008B5190008B5190008E8
:1000C000B5190008B5190008B5190008B5190008D8
:1000D000B5190008B5190008B5190008B5190008C8
:1000E000B5190008B519000800000000B51900088E
:1000F000B5190008B5190008B5190008B5190008A8
:10010000B5190008B5190008B5190008B519000897
:10011000B5190008B5190008A9150008BD15000893
:10012000B5190008B5190008B5190008B519000877
:10013000B5190008B5190008B5190008B519000867
:1001400000000000000000000000000000000000AF
:10015000B5190008B5190008B5190008B519000847
:10016000B5190008B5190008B5190008B519000837
:10017000B5190008B5190008B5190008B519000827
:10018000B5190008B5190008B5190008B519000817
:10019000B5190008B5190008B5190008B519000807
:1001A000B5190008B5190008B5190008B5190008F7
:1001B000B5190008B5190008B5190008B5190008E7
:1001C000B5190008B5190008B5190008B5190008D7
:1001D000B5190008D1150008B5190008B5190008AF
:1001E000B5190008B5190008B5190008B5190008B7
:1001F000B5190008B5190008B5190008B5190008A7
:10020000B5190008B5190008B5190008B519000896
:10021000B5190008B5190008B5190008B519000886
:10022000B5190008B5190008B5190008000000004C
:10023000B5190008B519000800000000B51900083C
:10024000B5190008B5190008B5190008B519000856
:10025000B5190008B5190008B5190008B519000846
:10026000B5190008B5190008B5190008B519000836
:10027000B5190008B5190008B519000800000000FC
:10028000B5190008B5190008B519000800000000EC
:0802900000000000B519000890
:1002A00010B5054C237833B9044B13B10448AFF3B0
:1002B00000800123237010BDF8020024000000001C
:1002C000F041010808B5034B1BB103490348AFF3E4
:1002D000008008BD00000000FC020024F04101087D
:1002E00001F0FF01102A2BDB10F0070F08D010F8E7
:1002F000013B013A8B422DD010F0070F42B3F6D1EB
:10030000F0B441EA012141EA014122F007047FF003
:1003100000070023F0E80256083C85EA010586EA5A
:10032000010685FA47F5A3FA87F586FA47F6A5FA96
:1003300087F68EB9EED1F0BC01F0FF0102F00702A2
:1003400032B110F8013B013A83EA010313B1F8D14D
:100350000020704701387047002D06BF354603382E
:10036000073815F0010F07D1013015F4807F02BF67
:10037000013015F4C03F0130F0BC0138704700BFB8
:10038000034613F8012B002AFBD1181A01387047D5
:1003900081F0004102E000BF83F0004330B54FEA36
:1003A00041044FEA430594EA050F08BF90EA020FA3
:1003B0001FBF54EA000C55EA020C7FEA645C7FEA36
:1003C000655C00F0E2804FEA5454D4EB5555B8BF59
:1003D0006D420CDD2C4480EA020281EA030382EACA
:1003E000000083EA010180EA020281EA0303362D5C
:1003F00088BF30BD11F0004F4FEA01314FF4801C2F
:100400004CEA113102D0404261EB410113F0004F40
:100410004FEA03334CEA133302D0524263EB4303F7
:1004200094EA050F00F0A780A4F10104D5F1200E95
:100430000DDB02FA0EFC22FA05F2801841F10001F0
:1004400003FA0EF2801843FA05F359410EE0A5F1C4
:1004500020050EF1200E012A03FA0EFC28BF4CF0F5
:10046000020C43FA05F3C01851EBE37101F00045AB
:1004700007D54FF0000EDCF1000C7EEB00006EEBB8
:100480000101B1F5801F1BD3B1F5001F0CD3490842
:100490005FEA30004FEA3C0C04F101044FEA445299
:1004A00012F5800F80F09A80BCF1004F08BF5FEA20
:1004B000500C50F1000041EB045141EA050130BD00
:1004C0005FEA4C0C404141EB0101013C28BFB1F512
:1004D000801FE9D291F0000F04BF01460020B1FA5D
:1004E00081F308BF2033A3F10B03B3F120020CDA30
:1004F0000C3208DD02F1140CC2F10C0201FA0CF00E
:1005000021FA02F10CE002F11402D8BFC2F1200C72
:1005100001FA02F120FA0CFCDCBF41EA0C01904028
:10052000E41AA2BF01EB0451294330BD6FEA040471
:100530001F3C1CDA0C340EDC04F11404C4F120025C
:1005400020FA04F001FA02F340EA030021FA04F36E
:1005500045EA030130BDC4F10C04C4F1200220FAC5
:1005600002F001FA04F340EA0300294630BD21FA03
:1005700004F0294630BD94F0000F83F4801306BFC9
:1005800081F480110134013D4EE77FEA645C18BFBD
:100590007FEA655C29D094EA050F08BF90EA020F54
:1005A00005D054EA000C04BF1946104630BD91EA4C
:1005B000030F1EBF0021002030BD5FEA545C05D14F
:1005C0004000494128BF41F0004130BD14F580048E
:1005D0003CBF01F5801130BD01F0004545F0FE4102
:1005E00041F470014FF0000030BD7FEA645C1ABF37
:1005F000194610467FEA655C1CBF0B46024650EA6E
:10060000013406BF52EA033591EA030F41F4002199
:1006100030BD00BF90F0000F04BF0021704730B51F
:100620004FF4806404F132044FF000054FF00001F4
:1006300050E700BF90F0000F04BF0021704730B5B5
:100640004FF4806404F1320410F0004548BF40428A
:100650004FF000013EE700BF42004FEAE2014FEADF
:1006600031014FEA02701FBF12F07F4393F07F4FBA
:1006700081F06051704732F07F4208BF704793F0BD
:100680007F4F04BF41F40021704730B54FF46074D0
:1006900001F0004521F000411CE700BF50EA0102D3
:1006A00008BF704730B54FF000050AE050EA01027C
:1006B00008BF704730B511F0004502D5404261EBEC
:1006C00041014FF4806404F132045FEA915C3FF42D
:1006D000D8AE4FF003025FEADC0C18BF03325FEACA
:1006E000DC0C18BF033202EBDC02C2F1200300FA7B
:1006F00003FC20FA02F001FA03FE40EA0E0021FAA0
:1007000002F11444BDE600BF08B502460B4643ECB7
:10071000172BB5EEC07BF1EE10FA03D4BDE808400C
:1007200000F00AB8B1EE477B51EC170B00F004F86B
:10073000404261EB410108BD9FED0B6B41EC170B93
:100740009FED0B5B27EE066BBCEEC66BB8EE464B1F
:10075000A4EE457BFCEEC77B16EE101A17EE900A4E
:10076000704700BFAFF30080000000000000F03DC4
:10077000000000000000F04180B5CAB000AF07F5EE
:100780009473A3F58E73186007F59473A3F59073B3
:10079000196007F59473A3F592731A60002387F824
:1007A00027314FF0FF33C7F820310023C7F81C3141
:1007B00007F59473A3F59073D7F81C211B689A4230
:1007C0003DD207F59473A3F58E731A68D7F81C31E0
:1007D00013441B783B2B07D107F59473A3F5907353
:1007E000D7F81C211A602AE0D7F82021D7F81C314D
:1007F0009A421ED907F59473A3F58E731A68D7F839
:100800001C3113441B782A2B05D1D7F81C31013336
:10081000C7F820310DE007F59473A3F58E731A68BD
:10082000D7F81C3113441A7897F82731534087F8CA
:100830002731D7F81C310133C7F81C31B8E707F569
:100840009473A3F590731B68B3F5807F06D907F501
:100850009473A3F590734FF480721A6007F5947344
:10086000A3F5907207F59473A3F58E7307F1180042
:10087000126819680EF000FD07F59473A3F59073E4
:10088000D7F820211B689A4234BF0123002387F840
:100890001B3197F81B31002B1BD007F11802D7F83A
:1008A0002031134407F11402194918460FF0D2FD04
:1008B00097F8272107F59473A3F58A731B689A426A
:1008C00021D107F59473A3F59073D7F82021013A4D
:1008D0001A6007F59473A3F5887207F59473A3F56E
:1008E00090731B68134400221A7007F59473A3F5E4
:1008F000927207F59473A3F5907307F118001268CC
:1009000019680DF09DFF07F59477BD4680BD00BFC7
:100910000842010880B586B000AFF860B9607A601F
:10092000BB685A1EBA60002B14BF01230023DBB240
:10093000002B3DD0204B1B68FF2B05D91F4B0022FD
:100940001A701D4B00221A60FB685A1CFA601B7853
:10095000FB75FB7D0D2B05D0FB7D0A2B02D0FB7DAB
:10096000212B01D1012300E00023BB75BB7D002BAF
:1009700011D0124B1B78002B06D00F4B1B687A68E6
:1009800019460F48FFF7F8FE0B4B00221A600B4B7D
:1009900001221A70C4E7094B1B78002BC0D0064B0C
:1009A0001B685A1C04490A600549FA7DCA54B7E716
:1009B00000BF1837BD4680BD140400240000002489
:1009C0001403002480B584B000AF7860084B1B6826
:1009D0004FF0FF31184608F0E3FFF860FB68002B8A
:1009E000F4D1044801F0F2FC652001F043F9EDE791
:1009F000440400248C27002480B500AF4FF000028F
:100A00000C4B0D480FF090FB0C4A00210C4808F0ED
:100A100091FE03460B4A13600B4B1B78DBB283F04D
:100A20000103DBB2002B03D0012008F015FFF3E730
:100A300000BF80BD0000F03F18420108904401084B
:100A40004D0A0008180400242004002480B582B058
:100A500000AF7860044B01221A7000F03FF94FF4A8
:100A60007A7008F0F9FEFAE72004002490B585B00A
:100A700000AFF860B9607A60074B1868064B1B68D6
:100A80001B681C687A680023B968A0477B68184611
:100A90001437BD4690BD00BF0400002480B483B06D
:100AA00000AF7860044A7B681A607B6818460C3790
:100AB000BD465DF8047B70470045010880B483B0F3
:100AC00000AF7860044A7B681A607B6818460C3770
:100AD000BD465DF8047B70471045010880B582B0C3
:100AE00000AF786039607B681846FFF7E7FF054A7A
:100AF0007B681A607B683A685A607B6818460837DA
:100B0000BD4680BDF444010880B586B000AFF860F2
:100B1000B9607A607B68402B02D94FF0FF332DE03B
:100B2000FB685B681B680A21184608F039FF03461A
:100B3000002B14BF01230023DBB2002B04D0114B88
:100B40009B6801330F4A93607B689BB21946B86873
:100B50000DF0AEF90346FB75FB7D002B08D0FB685A
:100B60005B681B68184608F06DFF4FF0FF3305E027
:100B7000044B5B680133034A53600023184618375F
:100B8000BD4680BD2804002480B582B000AF7860E7
:100B900039607B681846FFF781FF054A7B681A6059
:100BA0007B683A685A607B6818460837BD4680BD46
:100BB000E444010880B586B000AFF860B9607A609F
:100BC0003B607B68002B2AD07B68402B28BF4023EA
:100BD0007B61FB685868FB685B681B681B687A6808
:100BE000B96898470346002B14BF01230023DBB2EA
:100BF000002B02D04FF0FF3312E0BA687B69134438
:100C0000BB607A687B69D31A7B603B68002BD8D0C5
:100C10003B681A687B691A443B681A60D1E7002375
:100C200018461837BD4680BD80B483B000AF7860E9
:100C30004FF0FF3318460C37BD465DF8047B704714
:100C400080B584B000AF7860114B1B684FF0FF3166
:100C5000184608F0A5FEF860FB68002BF4D10D4B98
:100C60001B6801330B4A13600B4B1B7A002BEBD034
:100C7000094B00221A72084B1B68074A5168074A41
:100C80001846FFF747FE06480DF036F8DCE700BFD0
:100C90004804002428040024080000243C04002404
:100CA0009814002480B582B000AF78603960094A9A
:100CB0007B681360074A3B685360064B01221A7237
:100CC000054B1B68184608F0BDFE00BF0837BD463F
:100CD00080BD00BF080000244804002480B500AF98
:100CE000044A0021044808F025FD0346034A136026
:100CF00000BF80BDB8440108410C00082404002452
:100D000080B582B000AF786039607B68012B0CD170
:100D10003B684FF6FF72934207D106490648FFF73A
:100D2000DDFE05490548FFF72FFF00BF0837BD4628
:100D300080BD00BF4C040024340400243C04002483
:100D400080B500AF4FF6FF710120FFF7D9FF80BDDE
:100D500090B597B000AF294B07F148040FCB84E85A
:100D60000F0007F148031A460021012008F08FFD0B
:100D70000346234A1360234B07F138040FCB84E862
:100D80000F0007F138031A460021012008F07FFD0B
:100D900003461D4A13601D4B07F128040FCB84E85E
:100DA0000F0007F128031A460121012008F06FFD0A
:100DB0000346174A13603B1D2422002118460EF0FB
:100DC00083FA144B7B604FF40073BB612023FB61FB
:100DD0003B1D1A460021104808F0ACFC03460F4AA0
:100DE00013600F4A00210F4808F0A4FC03460E4A86
:100DF000136000BF5C37BD4690BD00BF6442010870
:100E00004404002474420108480400248442010878
:100E10004C04002458420108C50900081C040024A1
:100E2000184501082D0E00085004002480B582B03A
:100E300000AF78600BF010FF0CF016F8044B1B6845
:100E400018460AF0F5F800BF0837BD4680BD00BF60
:100E50005004002480B487B000AF284BD3F8E030B2
:100E6000264A43F00103C2F8E030244BD3F8E030C7
:100E700003F001037B617B69204BD3F8E0301F4A0C
:100E800043F00203C2F8E0301C4BD3F8E03003F02B
:100E900002033B613B69194BD3F8E030174A43F03A
:100EA0000403C2F8E030154BD3F8E03003F004033C
:100EB000FB60FB68114BD3F8E030104A43F080032D
:100EC000C2F8E0300D4BD3F8E03003F08003BB6094
:100ED000BB680A4BD3F8E030084A43F02003C2F85D
:100EE000E030064BD3F8E03003F020037B607B68F2
:100EF00000BF1C37BD465DF8047B704700440258B4
:100F000080B586B000AF4FF000637B614FF00053B7
:100F10003B614FF48062796938690EF0ADF93F4B5F
:100F20004FF000529A6000F017F93C4B5B6903F4F4
:100F30000033002B1BD1BFF34F8F00BFBFF36F8F68
:100F400000BF364B0022C3F85022BFF34F8F00BFC3
:100F5000BFF36F8F00BF314B5B69304A43F40033FE
:100F60005361BFF34F8F00BFBFF36F8F00E000BF2F
:100F70002A4B5B6903F48033002B38D1274B0022C6
:100F8000C3F88420BFF34F8F00BF244BD3F88030C9
:100F9000FB60FB685B0BC3F30E03BB60FB68DB0805
:100FA000C3F309037B60BB685A0143F6E073134047
:100FB0007A68920719491343C1F860327B685A1E58
:100FC0007A60002BEFD1BB685A1EBA60002BE5D1C6
:100FD000BFF34F8F00BF114B5B69104A43F480335E
:100FE0005361BFF34F8F00BFBFF36F8F00E000BFAF
:100FF00000F0E2FC0CF094FF00F012F8FFF72AFF7B
:1010000000F04CF900F038FC00F0E8FB08F048FB79
:10101000FFF79EFE08F068FBFEE700BF00ED00E072
:1010200080B59CB000AF07F124034C220021184684
:101030000EF04AF93B1D2022002118460EF044F91B
:10104000022002F023FB00233B60314BDB6A304A75
:1010500023F00103D3622E4BDB6A03F001033B60F4
:101060002C4B9B692B4A43F440439361294B9B696A
:1010700003F440433B603B6800BF264B9B6903F48D
:101080000053B3F5005FF8D121237B624FF4A02316
:10109000BB620123FB630223BB640223FB640523C1
:1010A0003B65A0237B650223BB650223FB6502230E
:1010B0003B6608237B660023BB660023FB6607F1C3
:1010C0002403184602F0E6FB0346002B01D000F093
:1010D000DFF83F237B600323BB600023FB60082312
:1010E0003B6140237B614023BB614FF48063FB6124
:1010F00040233B623B1D0221184603F025F80346BE
:10110000002B01D000F0C4F800BF7037BD4680BD91
:10111000000400580048025880B400AF034B00227E
:101120001A6000BFBD465DF8047B7047440500248B
:1011300080B400AF034B1B681846BD465DF8047BC6
:10114000704700BF4405002480B483B000AF7860CE
:10115000396072B600BFFEE780B584B000AF3B4691
:1011600000221A605A609A60DA6000F091FD012353
:101170003B7000237B704FF010537B6012233B7257
:1011800000237B720123BB720323FB7200233B739A
:1011900000237B730123BB730123FB733B4618467B
:1011A00000F0AEFD01237B704FF0C0437B601B233A
:1011B0003B720023BB720023BB733B46184600F012
:1011C0009FFD02237B704FF040537B6010233B72E6
:1011D0000123BB730023FB733B46184600F090FDD0
:1011E00003237B70184B7B603B46184600F088FD5C
:1011F00004237B70154B7B600E233B723B461846E5
:1012000000F07EFD05237B704FF060537B600F2361
:101210003B723B46184600F073FD06237B704FF08F
:1012200010437B6018233B720123BB720123FB73C5
:101230003B46184600F064FD042000F041FD00BF6D
:101240001037BD4680BD00BF0000023000000430F2
:1012500080B582B000AF78607B681B68094A934212
:1012600004D1094B1B680133074A13607B681B6874
:10127000064A934201D100F0DBFB00BF0837BD46B0
:1012800080BD00BF00140040440500240010004051
:1012900080B400AF72B600BFFEE7000080B500AFBB
:1012A000124B134A1A60114B01225A600F4B202235
:1012B0009A600E4B1022DA600C4B00221A610B4B25
:1012C0004FF480725A61094B00229A61074B002249
:1012D000DA61064B00221A62044802F021FA034642
:1012E000002B01D0FFF7D4FF00BF80BD48050024CC
:1012F0000050005280B5BCB000AF786007F1DC034D
:1013000000221A605A609A60DA601A6107F11803C5
:10131000C022002118460DF0D7FF7B681B684E4A9B
:10132000934240F094804FF000724FF00003C7E901
:10133000062300237B6607F11803184603F0BCFA66
:101340000346002B01D0FFF7A3FF444BD3F8D43062
:10135000424A43F48043C2F8D430404BD3F8D430EF
:1013600003F480437B617B693C4BD3F8E0303B4A1C
:1013700043F00203C2F8E030384BD3F8E03003F01A
:1013800002033B613B69354BD3F8E030334A43F00D
:101390002003C2F8E030314BD3F8E03003F02003F3
:1013A000FB60FB684023C7F8DC300223C7F8E0305D
:1013B0000023C7F8E4300323C7F8E8300A23C7F84E
:1013C000EC3007F1DC031946254800F0DDFCC023B2
:1013D000C7F8DC300223C7F8E0300023C7F8E43058
:1013E0000323C7F8E8300923C7F8EC3007F1DC0322
:1013F00019461C4800F0C8FC4FF44073C7F8DC30B5
:101400000223C7F8E0300023C7F8E4300323C7F80D
:10141000E8300A23C7F8EC3007F1DC03194611481D
:1014200000F0B2FC0423C7F8DC300223C7F8E03038
:101430000023C7F8E4300323C7F8E8300923C7F8CE
:10144000EC3007F1DC031946054800F09DFC00BFB5
:10145000F037BD4680BD00BF005000520044025826
:10146000000402580014025880B582B000AF0C4B43
:10147000D3F8F4300A4A43F00203C2F8F430084BC0
:10148000D3F8F43003F002037B607B6800220F2165
:101490006FF0010000F0D4FB00BF0837BD4680BDEF
:1014A0000044025880B590B000AF78607B680F2B85
:1014B00027D800227968362000F0C2FB362000F0E1
:1014C000D9FB294A7B681360284BD3F8E830274AB8
:1014D00043F01003C2F8E830244BD3F8E83003F0AF
:1014E0001003FB60FB6807F1100207F114031146BB
:1014F000184603F09FF9BB6ABB63BB6B002B06D198
:1015000001E001232BE003F07FF9F86304E003F02E
:101510007BF903465B00FB63FB6B154AA2FB0323CD
:101520009B0C013B7B63134B134A1A60114B40F237
:10153000E732DA600F4A7B6B53600E4B00221A6170
:101540000C4B00229A600B4804F024FD0346002B4C
:1015500004D1084804F076FD034600E00123184654
:101560004037BD4680BD00BF200000240044025823
:1015700083DE1B43940500240010004080B400AFBC
:10158000FEE780B400AFFEE780B400AFFEE780B4B2
:1015900000AFFEE780B400AFFEE780B400AF00BF4D
:1015A000BD465DF8047B704780B500AF024804F08B
:1015B000C1FD00BF80BD00BF9405002480B500AF11
:1015C000024804F0B7FD00BF80BD00BF2C06002418
:1015D00080B500AF024800F0F9FE00BF80BD00BF3B
:1015E0008C27002480B400AF01231846BD465DF867
:1015F000047B704780B582B000AF786039600DF031
:10160000F7FC034616221A604FF0FF3318460837DE
:10161000BD4680BD80B582B000AF78604FF0FF312D
:101620007868FFF7E7FFFEE780B586B000AFF860A7
:10163000B9607A6000237B610AE0AFF30080014665
:10164000BB685A1CBA60CAB21A707B6901337B61ED
:101650007A697B689A42F0DB7B6818461837BD468A
:1016600080BD80B483B000AF78604FF0FF33184680
:101670000C37BD465DF8047B704780B483B000AF83
:10168000786039603B684FF400525A600023184676
:101690000C37BD465DF8047B704780B483B000AF63
:1016A0007860012318460C37BD465DF8047B70470F
:1016B00080B485B000AFF860B9607A600023184646
:1016C0001437BD465DF8047B7047000080B400AF5E
:1016D000374BD3F88830364A43F47003C2F8883069
:1016E000344B1B6803F00F03062B07D8314B1B68E4
:1016F00023F00F032F4A43F0070313602E4B1B68A0
:101700002D4A43F0010313602B4B00221A612A4B30
:101710001A682949294B13400B60264B1B6803F0BC
:101720000803002B07D0234B1B6823F00F03214A2B
:1017300043F007031360204B00229A611E4B0022E6
:10174000DA611D4B00221A621B4B1D4A9A621A4B2A
:101750001C4ADA62184B1C4A1A63174B00225A6360
:10176000154B194A9A63144B0022DA63124B164A3E
:101770001A64114B00225A640F4B1B680E4A23F463
:10178000802313600C4B00221A66104B1A68104B12
:101790001340B3F1005F02D20E4B01221A600E4BD0
:1017A00043F2D2021A6000BFBD465DF8047B704769
:1017B00000ED00E000200052004402587FEDF6EA00
:1017C000000202020000FF01800201010010005C23
:1017D0000000FFFF088100510040005280B588B032
:1017E00000AF07F1100300221A605A609A60DA60B5
:1017F0003B1D00221A605A609A601D4B1D4A1A60F8
:101800001B4B00225A601A4B00229A60184B4FF66D
:10181000FF72DA60164B00221A61154B00229A61A2
:10182000134804F0B7FB0346002B01D0FFF730FD4F
:101830004FF480533B6107F1100319460C4804F044
:1018400099FD0346002B01D0FFF722FD00237B60AA
:101850000023FB603B1D1946054804F0E3FF0346E7
:10186000002B01D0FFF714FD00BF2037BD4680BD1F
:10187000E00500240004004080B584B000AF3B1DAB
:1018800000221A605A609A60144B154A1A60134B72
:10189000C7225A60114B00229A60104B3122DA6045
:1018A0000E4B00229A610D4804F074FB0346002B96
:1018B00001D0FFF7EDFC00237B600023FB603B1DA4
:1018C0001946064804F0AEFF0346002B01D0FFF78F
:1018D000DFFC00BF1037BD4680BD00BF2C060024D2
:1018E0000014004080B584B000AF78607B681B684E
:1018F000194A93420FD1194BD3F8E830174A43F0F5
:101900000203C2F8E830154BD3F8E83003F00203C5
:10191000FB60FB681BE07B681B68114A934216D191
:101920000E4BD3F8E8300D4A43F02003C2F8E830FC
:101930000A4BD3F8E83003F02003BB60BB680022F9
:101940000521372000F07CF9372000F093F900BF23
:101950001037BD4680BD00BF00040040004402585F
:1019600000140040DFF834D0FFF7B0FE0C480D49FA
:101970000D4A002302E0D458C4500433C4188C42EA
:10198000F9D30A4A0A4C002301E013600432A24250
:10199000FBD30DF029FCFFF7B3FA704700000824D1
:1019A00000000024F8020024804A0108F802002404
:1019B000C0320024FEE7000080B582B000AF0320F3
:1019C00000F033F902F076FD0246154B9B691B0AC5
:1019D00003F00F031349CB5C03F01F0322FA03F358
:1019E0007B600F4B9B6903F00F030E4AD35C03F03F
:1019F0001F037A6822FA03F30B4A13600B4A7B68D1
:101A000013600F20FFF74EFD0346002B01D001238A
:101A100002E0FFF729FD002318460837BD4680BDC8
:101A2000004402583C4501081C0000241800002412
:101A300080B400AF064B1B781A46064B1B68134454
:101A4000044A136000BFBD465DF8047B704700BFC9
:101A5000240000247806002480B400AF034B1B68E8
:101A60001846BD465DF8047B704700BF7806002429
:101A700080B584B000AF7860FFF7EEFFB8607B6898
:101A8000FB60FB68B3F1FF3F05D00A4B1B781A4699
:101A9000FB681344FB6000BFFFF7DEFF0246BB6834
:101AA000D31AFA689A42F7D800BF00BF1037BD4674
:101AB00080BD00BF2400002480B400AF034B1B682E
:101AC0001B0C1846BD465DF8047B70470010005C97
:101AD00080B485B000AF78607B6803F00703FB60DB
:101AE0000B4BDB68BB60BA684FF6FF031340BB606B
:101AF000FB681A02BB681A43064B1343BB60044AD7
:101B0000BB68D36000BF1437BD465DF8047B7047E7
:101B100000ED00E00000FA0580B400AF044BDB6884
:101B20001B0A03F007031846BD465DF8047B7047A7
:101B300000ED00E080B483B000AF0346FB80B7F94E
:101B40000630002B0BDBFB8803F01F020749B7F9B7
:101B500006305B09012000FA02F241F8232000BFA1
:101B60000C37BD465DF8047B704700BF00E100E024
:101B700080B483B000AF03463960FB80B7F906300C
:101B8000002B0ADB3B68DAB20C49B7F906301201C8
:101B9000D2B20B4483F800230AE03B68DAB208496A
:101BA000FB8803F00F03043B1201D2B20B441A76F8
:101BB00000BF0C37BD465DF8047B704700E100E0D4
:101BC00000ED00E080B489B000AFF860B9607A60E1
:101BD000FB6803F00703FB61FB69C3F10703042BF8
:101BE00028BF0423BB61FB690433062B02D9FB69C0
:101BF000033B00E000237B614FF0FF32BB6902FA38
:101C000003F3DA43BB681A407B699A404FF0FF3117
:101C10007B6901FA03F3D9437B680B4013431846F1
:101C20002437BD465DF8047B704780B582B000AFB5
:101C300078607868FFF74CFF00BF0837BD4680BD6D
:101C400080B586B000AF0346B9607A60FB81FFF7CC
:101C500063FF78617A68B9687869FFF7B3FF024675
:101C6000B7F90E3011461846FFF782FF00BF18374C
:101C7000BD4680BD80B582B000AF0346FB80B7F99A
:101C800006301846FFF756FF00BF0837BD4680BD37
:101C900080B400AFBFF35F8F00BF074B5B6A064A9B
:101CA00023F480335362054B00225A6000BFBD46C7
:101CB0005DF8047B704700BF00ED00E090ED00E0B0
:101CC00080B483B000AF78600B4A7B6843F00103B7
:101CD00053600A4B5B6A094A43F480335362BFF393
:101CE0004F8F00BFBFF36F8F00BF00BF0C37BD46E3
:101CF0005DF8047B704700BF90ED00E000ED00E070
:101D000080B483B000AF78607B685A781D4B9A60CE
:101D10007B681B78002B29D01A4A7B685B68D360EC
:101D20007B681B7B1A077B68DB7A1B061A437B6880
:101D30009B7ADB041A437B685B7B9B041A437B68BA
:101D40009B7B5B041A437B68DB7B1B041A437B6829
:101D50005B7A1B021A437B681B7A5B0013437A6829
:101D600012781146074A0B43136105E0054B002228
:101D7000DA60044B00221A6100BF0C37BD465DF8E3
:101D8000047B704790ED00E080B489B000AF7860CC
:101D900039600023FB61894B7B6194E13B681A68E1
:101DA0000121FB6901FA03F313403B613B69002BFE
:101DB00000F086813B685B6803F00303012B05D0CC
:101DC0003B685B6803F00303022B30D17B689B68A0
:101DD000BB61FB695B00032202FA03F3DB43BA69D0
:101DE0001340BB613B68DA68FB695B0002FA03F3EE
:101DF000BA691343BB617B68BA699A607B685B68A8
:101E0000BB610122FB6902FA03F3DB43BA691340A9
:101E1000BB613B685B681B0903F00102FB6902FAC6
:101E200003F3BA691343BB617B68BA695A603B68C4
:101E30005B6803F00303032B17D07B68DB68BB618F
:101E4000FB695B00032202FA03F3DB43BA69134028
:101E5000BB613B689A68FB695B0002FA03F3BA69ED
:101E60001343BB617B68BA69DA603B685B6803F067
:101E70000303022B23D1FB69DA087B68083253F88D
:101E80002230BB61FB6903F007039B000F2202FABB
:101E900003F3DB43BA691340BB613B681A69FB6912
:101EA00003F007039B0002FA03F3BA691343BB6113
:101EB000FB69DA087B680832B96943F822107B684D
:101EC0001B68BB61FB695B00032202FA03F3DB437F
:101ED000BA691340BB613B685B6803F00302FB69AE
:101EE0005B0002FA03F3BA691343BB617B68BA690A
:101EF0001A603B685B6803F44033002B00F0E0801D
:101F00002F4BD3F8F4302E4A43F00203C2F8F430DA
:101F10002B4BD3F8F43003F00203FB60FB68294A33
:101F2000FB699B08023352F82330BB61FB6903F065
:101F300003039B000F2202FA03F3DB43BA69134049
:101F4000BB617B68204A934252D07B681F4A934210
:101F500031D07B681E4A93422BD07B681D4A934246
:101F600025D07B681C4A93421FD07B681B4A934252
:101F700019D07B681A4A934213D07B68194A93425E
:101F80000DD07B68184A934207D07B68174A93426A
:101F900001D109232DE00A232BE0082329E00723A0
:101FA00027E0062325E0052323E0042321E0032383
:101FB0001FE002231DE001231BE000BF800000584A
:101FC000004402580004005800000258000402585F
:101FD00000080258000C0258001002580014025861
:101FE00000180258001C0258002002580024025811
:101FF0000023FA6902F0030292009340BA69134386
:10200000BB613849FB699B080233BA6941F8232058
:102010004FF0B0431B68BB613B69DB43BA691340B7
:10202000BB613B685B6803F48013002B03D0BA6983
:102030003B691343BB614FF0B042BB6913604FF083
:10204000B0435B68BB613B69DB43BA691340BB616A
:102050003B685B6803F40013002B03D0BA693B694B
:102060001343BB614FF0B042BB6953607B695B684F
:10207000BB613B69DB43BA691340BB613B685B688A
:1020800003F40033002B03D0BA693B691343BB61EF
:102090007B69BA695A607B691B68BB613B69DB433A
:1020A000BA691340BB613B685B6803F48033002B63
:1020B00003D0BA693B691343BB617B69BA691A6093
:1020C000FB690133FB613B681A68FB6922FA03F381
:1020D000002B7FF463AE00BF00BF2437BD465DF820
:1020E000047B70470004005880B483B000AF786070
:1020F0000B467B8013467B707B78002B03D07A885D
:102100007B689A6103E07B881A047B689A6100BF50
:102110000C37BD465DF8047B7047F0B58FB00AAF51
:1021200078607B68002B01D1012316E17B681B6876
:10213000BB607B6893F8BD34DBB2002B06D17B68B3
:10214000002283F8BC2478680BF024FF7B6803220C
:1021500083F8BD24BB68DB6B03F48073002B02D1D2
:102160007B680022DA607B681B68184604F027FD54
:102170007B681B683B607E686D4606F110040FCCDF
:102180000FC50FCC0FC594E8030085E80300331D8D
:102190000ECB386804F0F2FB0346002B05D07B68B9
:1021A000022283F8BD240123D7E07B681B6800214D
:1021B000184604F015FD0023FB734AE0FA7B7968AA
:1021C0001346DB0013449B000B443D3301221A707D
:1021D000FA7B79681346DB0013449B000B443C33C5
:1021E000FA7B1A70FA7BFB7B98B279681346DB00A6
:1021F00013449B000B44563302461A80FA7B7968DD
:102200001346DB0013449B000B44403300221A703A
:10221000FA7B79681346DB0013449B000B4444337C
:1022200000221A60FA7B79681346DB0013449B0096
:102230000B44483300221A60FA7B79681346DB00AE
:1022400013449B000B444C3300221A60FB7B013388
:10225000FB73FA7B7B685B689A42AFD30023FB7306
:1022600044E0FA7B79681346DB0013449B000B447F
:1022700003F27D2300221A70FA7B79681346DB0093
:1022800013449B000B4403F51F73FA7B1A70FA7B0F
:1022900079681346DB0013449B000B4403F520735D
:1022A00000221A70FA7B79681346DB0013449B0006
:1022B0000B4403F5217300221A60FA7B79681346F8
:1022C000DB0013449B000B4403F5227300221A60C9
:1022D000FA7B79681346DB0013449B000B4403F53B
:1022E000237300221A60FB7B0133FB73FA7B7B684C
:1022F0005B689A42B5D37B681B683B607E686D461D
:1023000006F110040FCC0FC50FCC0FC594E80300E5
:1023100085E80300331D0ECB386804F0ADFC03469E
:10232000002B05D07B68022283F8BD24012314E032
:102330007B68002283F838207B68012283F8BD2463
:102340007B685B6A012B02D1786801F06FF97B68CA
:102350001B68184605F0EFFC002318461437BD46ED
:10236000F0BD80B584B000AF78607B681B68FB600F
:102370007B6893F8BC34012B01D1022322E07B68F7
:10238000012283F8BC24FB68DB6B03F48073002B11
:1023900009D17B689B6A012B05D1FB689B6B43F4D9
:1023A0008032FB689A637B681B68184604F0F6FB72
:1023B0007B681B68184605F09DFC7B68002283F84B
:1023C000BC24002318461037BD4680BD90B58DB0A3
:1023D00000AF78607B681B683B623B6AFB617B688F
:1023E0001B68184605F05BFD0346002B40F0B784E0
:1023F0007B681B68184605F0BFFC0346002B00F005
:10240000AD84FB6903F500639B681B0AC3F30D02EF
:102410007B68C3F8FC247B681B68184605F0ACFC9D
:10242000034603F00203022B07D17B681B685A693D
:102430007B681B6802F002025A617B681B681846C1
:1024400005F09AFC034603F01003102B61D17B6862
:102450001B689A697B681B6822F010029A613B6ACC
:102460001B6ABB61BB6903F00F021346DB00134418
:102470009B0003F51E737A68134404337B61BB69C8
:102480005B0C03F00F03022B24D1BA6947F6F073FB
:102490001340002B35D07B69D968BB691B099BB2FF
:1024A000C3F30A039BB21A46386A05F0D1FA7B6976
:1024B000DA68BB691B09C3F30A031A447B69DA6053
:1024C0007B695A69BB691B09C3F30A031A447B6918
:1024D0005A6116E0BB695B0C03F00F03062B10D1A9
:1024E0007B6803F2C44308221946386A05F0B0FA43
:1024F0007B695A69BB691B09C3F30A031A447B69E8
:102500005A617B681B689A697B681B6842F01002FD
:102510009A617B681B68184605F02EFC034603F49D
:102520000023B3F5002F40F0A78000237B627B6877
:102530001B68184605F033FCB86299E0BB6A03F0EB
:102540000103002B00F08E807B681B687A6AD2B290
:102550001146184605F057FC38613B6903F001034A
:10256000002B0CD07B6A5A01FB69134403F53063DE
:102570001A4601239360796A786800F0D1FE3B69BE
:1025800003F00803002B0CD07B6A5A01FB6913444B
:1025900003F530631A4608239360796A786800F07F
:1025A000A7FF3B6903F01003002B08D07B6A5A0198
:1025B000FB69134403F530631A46102393603B69AB
:1025C00003F00203002B30D03B6A5B6903F0800309
:1025D000802B09D1FB6903F500635B68FA6902F59A
:1025E000006243F4806353607A6A1346DB0013444D
:1025F0009B0003F51E737A68134404337B617B6987
:10260000DB78012B08D17B690022DA707B6ADBB2B0
:10261000194678680BF0ECFD7B6A5A01FB6913449C
:1026200003F530631A46022393603B6903F02003ED
:10263000002B08D07B6A5A01FB69134403F5306311
:102640001A46202393603B6903F40053002B09D002
:102650007B6A5A01FB69134403F530631A464FF451
:10266000005393607B6A01337B62BB6A5B08BB6289
:10267000BB6A002B7FF462AF7B681B68184605F0CD
:102680007BFB034603F48023B3F5802F40F0DB800F
:102690007B681B68184605F09CFBB86200237B62D0
:1026A000CDE0BB6A03F00103002B00F0C2807B6821
:1026B0001B687A6AD2B21146184605F0C2FB38612F
:1026C0003B6903F00103002B57D07B6A03F00F0333
:1026D000012202FA03F3FB60FB6903F500635A6B06
:1026E000FB68DB43F96901F5006113404B637B6ACA
:1026F0005A01FB69134403F510631A4601239360E2
:102700007B68DB68012B32D179687A6A1346DB007B
:1027100013449B000B444833196878687A6A13465F
:10272000DB0013449B00034444331B68194478685E
:102730007A6A1346DB0013449B0003444833196054
:102740007B6A002B13D179687A6A1346DB00134445
:102750009B000B444C331B68002B08D17B68186826
:102760007B6803F2C4431A46012105F0CBFB7B6A68
:10277000DBB2194678680BF0B2FC3B6903F0080342
:10278000002B08D07B6A5A01FB69134403F51063E0
:102790001A46082393603B6903F01003002B08D00E
:1027A0007B6A5A01FB69134403F510631A46102330
:1027B00093603B6903F04003002B08D07B6A5A0109
:1027C000FB69134403F510631A46402393603B6989
:1027D00003F00203002B23D0796A386A04F0AAFBC5
:1027E0007A6A1346DB0013449B0038337A6813443B
:1027F00004337B617B69DB78012B08D17B69002284
:10280000DA707B6ADBB2194678680BF003FD7B6AED
:102810005A01FB69134403F510631A4602239360BF
:102820003B6903F08003002B03D0796A786800F0DD
:10283000EAFC7B6A01337B62BB6A5B08BB62BB6AF2
:10284000002B7FF42EAF7B681B68184605F094FAC6
:10285000034603F00043B3F1004F22D1FB6903F5B7
:1028600000635B68FA6902F5006223F001035360BC
:102870007B6893F8F434012B08D17B68002283F83D
:10288000F4240021786800F0F5FE02E078680BF08F
:10289000A1FC7B681B685A697B681B6802F00042D8
:1028A0005A617B681B68184605F066FA034603F414
:1028B0000063B3F5006F12D1FB6903F500639B68F9
:1028C00003F00103012B02D178680BF05DFC7B68FB
:1028D0001B685A697B681B6802F400625A617B6856
:1028E0001B68184605F048FA034603F00063B3F18D
:1028F000006F21D17B681B685A697B681B6802F0F6
:1029000000625A617B6893F8F434002B11D17B6824
:10291000012283F8F4247B681B685B6D9B0803F03D
:102920000F027B68C3F8F8240121786800F0A2FE4A
:1029300002E078680BF028FC7B681B68184605F0FD
:102940001BFA034603F48053B3F5805F40F0B78071
:10295000FB6903F500635B68FA6902F5006223F026
:10296000010353607B681B681021184604F0E2FAEB
:102970000023FB6246E0FB6A5A01FB69134403F53E
:1029800010631A464FF67F339360FB6A5A01FB6966
:10299000134403F510631B68FA6A5101FA690A448B
:1029A00002F5106223F400131360FB6A5A01FB69FD
:1029B000134403F530631A464FF67F339360FB6A86
:1029C0005A01FB69134403F530631B68FA6A51012D
:1029D000FA690A4402F5306223F400131360FB6ABB
:1029E0005A01FB69134403F530631B68FA6A51010D
:1029F000FA690A4402F5306243F000631360FB6A2F
:102A00000133FB627B685B68FA6A9A42B3D3FB6965
:102A100003F50063DB69FA6902F5006243F0011314
:102A2000D3617B681B6B002B16D0FB6903F5006339
:102A3000D3F88430FA6902F5006243F00B03C2F860
:102A40008430FB6903F500635B6CFA6902F5006290
:102A500043F00B03536415E0FB6903F500635A6907
:102A6000FB6903F50063194642F22B0313434B61E4
:102A7000FB6903F500631B69FA6902F5006243F024
:102A80000B031361FB6903F500631B68FA6902F528
:102A9000006223F4FE6313607B6818687B68DB6860
:102AA000D9B27B6803F2C4431A4605F02BFA7B685F
:102AB0001B685A697B681B6802F480525A617B6804
:102AC0001B68184605F058F9034603F40053B3F5A4
:102AD000005F24D17B681B68184605F0EFF97B681E
:102AE0001B68184604F0A3FA03461A467B681A616D
:102AF0007B681C6801F058FE01467B681B69DBB2ED
:102B00001A46204603F0A8FF78680BF011FB7B689B
:102B10001B685A697B681B6802F400525A617B6823
:102B20001B68184605F028F9034603F00803082B34
:102B30000AD178680BF0EDFA7B681B685A697B68EC
:102B40001B6802F008025A617B681B68184605F092
:102B500013F9034603F08003802B22D13B6A9B6963
:102B600023F080023B6A9A6101237B6214E079685A
:102B70007A6A1346DB0013449B000B4403F27F2365
:102B80001B78012B05D17B6ADBB21946786800F00F
:102B900009FB7B6A01337B627B685B687A6A9A42D5
:102BA000E5D37B681B68184605F0E6F8034603F496
:102BB0008013B3F5801F3BD101237B622BE07B6A3E
:102BC0005A01FB69134403F510631B68BB61796804
:102BD0007A6A1346DB0013449B000B4440331B7896
:102BE000012B15D1BB69002B12DA79687A6A13467A
:102BF000DB0013449B000B443F3301221A707B6AB5
:102C0000DBB263F07F03DBB21946786800F0CAFAE2
:102C10007B6A01337B627B685B687A6A9A42CED3B7
:102C20007B681B685A697B681B6802F480125A61D2
:102C30007B681B68184605F09FF8034603F40013F1
:102C4000B3F5001F55D101237B6245E07B6A5A0131
:102C5000FB69134403F530631B68BB6179687A6ACA
:102C60001346DB0013449B000B4403F520731B78D1
:102C7000012B2ED1BB69002B2BDABB6903F4803208
:102C80007B68D3F8FC3403F001039A4221D17968C0
:102C90007A6A1346DB0013449B000B4403F27F2344
:102CA00001221A703B6A9B6943F080023B6A9A6179
:102CB0003B6A5B6903F08003002B0AD1FB6903F5D3
:102CC00000635B68FA6902F5006243F400735360C5
:102CD00007E07B6A01337B627B685B687A6A9A42B1
:102CE000B4D37B681B685A697B681B6802F40012C6
:102CF0005A617B681B68184605F03EF8034603F0EE
:102D00008043B3F1804F0AD178680BF095FA7B6865
:102D10001B685A697B681B6802F080425A617B68B5
:102D20001B68184605F028F8034603F00403042B3B
:102D300015D17B681B685B68BB61BB6903F004034A
:102D4000002B02D078680BF085FA7B681B68596805
:102D50007B681B68BA690A435A6000E000BF3437D9
:102D6000BD4690BD80B582B000AF78600B46FB7069
:102D70007B6893F8BC34012B01D1022313E07B68FC
:102D8000012283F8BC247B68FA7883F838207B68BA
:102D90001B68FA781146184604F086FF7B6800220B
:102DA00083F8BC24002318460837BD4680BD80B593
:102DB00084B000AF7860084611461A460346FB709F
:102DC0000B463B801346BB700023FB7297F9033020
:102DD000002B0FDAFB7803F00F021346DB001344DD
:102DE0009B0038337A6813440433FB60FB6801228C
:102DF0005A700FE0FB7803F00F021346DB00134418
:102E00009B0003F51E737A6813440433FB60FB6870
:102E100000225A70FB7803F00F03DAB2FB681A70D5
:102E20003A88FB689A60FB68BA781A71FB685B782D
:102E3000002B04D0FB681B789AB2FB685A83BB78DE
:102E4000022B02D1FB6800225A717B6893F8BC34D4
:102E5000012B01D102230EE07B68012283F8BC2400
:102E60007B681B68F968184604F006F97B68002245
:102E700083F8BC24FB7A18461037BD4680BD80B568
:102E800084B000AF78600B46FB7097F90330002BDD
:102E90000FDAFB7803F00F021346DB0013449B00AC
:102EA00038337A6813440433FB60FB6801225A709C
:102EB0000FE0FB7803F00F021346DB0013449B0086
:102EC00003F51E737A6813440433FB60FB68002229
:102ED0005A70FB7803F00F03DAB2FB681A707B6854
:102EE00093F8BC34012B01D102230EE07B68012250
:102EF00083F8BC247B681B68F968184604F044F921
:102F00007B68002283F8BC24002318461037BD4696
:102F100080BD80B586B000AFF8607A603B600B463C
:102F2000FB72FB7A03F00F021346DB0013449B0095
:102F300003F51E73FA68134404337B617B697A6876
:102F4000DA607B693A681A617B6900225A617B69A1
:102F500000225A70FB7A03F00F03DAB27B691A7011
:102F6000FB68DB68012B02D17A687B69DA61FB6858
:102F70001868FB68DB68DBB21A46796904F0E0F98F
:102F8000002318461837BD4680BD80B483B000AF1B
:102F900078600B46FB70FB7803F00F0279681346EC
:102FA000DB0013449B000B4403F524731B68184695
:102FB0000C37BD465DF8047B704780B586B000AF26
:102FC000F8607A603B600B46FB72FB7A03F00F02FD
:102FD0001346DB0013449B003833FA681344043370
:102FE0007B617B697A68DA607B693A681A617B6920
:102FF00000225A617B6901225A70FB7A03F00F03A9
:10300000DAB27B691A70FB68DB68012B02D17A683F
:103010007B69DA61FB681868FB68DB68DBB21A461B
:10302000796904F08DF9002318461837BD4680BD34
:1030300080B584B000AF78600B46FB70FB7803F07E
:103040000F027B685B689A4201D9012350E097F92F
:103050000330002B0FDAFB7803F00F021346DB007E
:1030600013449B0038337A6813440433FB60FB68D5
:1030700001225A700DE0FA781346DB0013449B00DE
:1030800003F51E737A6813440433FB60FB68002267
:103090005A70FB6801229A70FB7803F00F03DAB2D2
:1030A000FB681A707B6893F8BC34012B01D10223B2
:1030B0001EE07B68012283F8BC247B681B68F968EA
:1030C000184604F01DFDFB7803F00F03002B0AD116
:1030D0007B6818687B68DB68D9B27B6803F2C443FD
:1030E0001A4604F00FFF7B68002283F8BC240023FB
:1030F00018461037BD4680BD80B584B000AF7860FB
:103100000B46FB70FB7803F00F027B685B689A420A
:1031100001D9012342E097F90330002B0FDAFB7845
:1031200003F00F021346DB0013449B0038337A6828
:1031300013440433FB60FB6801225A700FE0FB78F4
:1031400003F00F021346DB0013449B0003F51E73CC
:103150007A6813440433FB60FB6800225A70FB68F2
:1031600000229A70FB7803F00F03DAB2FB681A7042
:103170007B6893F8BC34012B01D102230EE07B68FD
:10318000012283F8BC247B681B68F968184604F0A8
:1031900025FD7B68002283F8BC24002318461037E5
:1031A000BD4680BD80B584B000AF78600B46FB7033
:1031B00097F90330002B0CDAFB7803F00F0213466B
:1031C000DB0013449B0038337A6813440433FB60FC
:1031D0000CE0FB7803F00F021346DB0013449B0066
:1031E00003F51E737A6813440433FB607B681B6825
:1031F000F968184604F044FB0346FB72FB7A184654
:103200001037BD4680BD80B58AB002AF78603960A6
:103210007B681B687B617B693B613A681346DB0016
:1032200013449B0038337A6813440433FB60FB6813
:103230005A69FB681B699A4201D901236CE0FB685B
:103240001A69FB685B69D31AFB61FB689B68FA69C2
:103250009A4202D9FB689B68FB61FB6903339B08B8
:10326000BB612BE0FB681A69FB685B69D31AFB61E1
:10327000FB689B68FA699A4202D9FB689B68FB610C
:10328000FB6903339B08BB61FB68D9683B68DAB212
:10329000FB6998B27B68DB68DBB200930346786910
:1032A00004F098FBFB68DA68FB691A44FB68DA6093
:1032B000FB685A69FB691A44FB685A613B685A010A
:1032C0003B69134403F510639B699BB2BA699A4248
:1032D00009D8FB685A69FB681B699A4203D2FB68EC
:1032E0001B69002BBED1FB681A69FB685B699A42B7
:1032F00011D83B6803F00F03012202FA03F3BB600D
:103300003B6903F500635A6BBB68DB43396901F520
:10331000006113404B63002318462037BD4680BD33
:1033200080B588B000AF786039607B681B68FB614E
:10333000FB69BB61FB693C3304331B687B613B6801
:103340005A01BB69134403F530639B683B617B689A
:10335000DB68012B7BD13B6903F00803002B15D000
:103360007B69614A934240F2B9803B6903F40043B0
:10337000002B00F0B3803B685A01BB69134403F58E
:1033800030631A464FF400439360A7E03B6903F0B3
:103390002003002B09D03B685A01BB69134403F595
:1033A00030631A462023936098E03B6903F02803BA
:1033B000002B40F093807B694B4A93420FD93B69C5
:1033C00003F40043002B0AD03B685A01BB69134445
:1033D00003F530631A464FF4004393607EE03A6889
:1033E0001346DB0013449B0003F51E737A681344F5
:1033F0000433FB60FB681A6A3B685901BB690B44E4
:1034000003F530631B69C3F31203D21AFB685A61D8
:103410003B68002B14D1FB681B69002B09D17B682A
:1034200018687B6803F2C4431A46012104F06AFD60
:1034300006E0FB68DA68FB685B691A44FB68DA60DF
:103440003B68DBB2194678680AF02EFE46E07B69DD
:10345000264A934224D13B6903F40043002B0AD04F
:103460003B685A01BB69134403F530631A464FF4B5
:103470000043936032E03B6903F02003002B08D047
:103480003B685A01BB69134403F530631A46202395
:1034900093603B68DBB2194678680AF005FE1DE0D0
:1034A0003B68002B14D179683A681346DB0013445B
:1034B0009B000B4403F523731B68002B08D17B682A
:1034C00018687B6803F2C4431A46002104F01AFD11
:1034D0003B68DBB2194678680AF0E6FD002318461F
:1034E0002037BD4680BD00BF0A30544F0A31544FCB
:1034F00080B586B000AF786039607B681B687B61FF
:103500007B693B617B693C3304331B68FB603B6830
:103510005A013B69134403F530639B68BB60FB6849
:10352000154A93420ED9BB6803F40043002B09D01F
:103530003B685A013B69134403F530631A464FF464
:103540000043936078680AF09DFDFB680A4A934245
:103550000CD97B68DB68012B08D17B6818687B6815
:1035600003F2C4431A46012104F0CCFC00231846A0
:103570001837BD4680BD00BF0A30544F80B485B0B7
:1035800000AF78600B46FB7013463B807B681B687E
:103590005B6ABB60FB78002B07D13B8819047B6812
:1035A0001B68BA680A439A6228E07B681B689B6ABA
:1035B0001B0CBA681344BB600023FB730DE07B68EF
:1035C0001A68FB7B40339B0013445B681B0CBA6892
:1035D0001344BB60FB7B0133FB73FA7BFB78013B3D
:1035E0009A42ECD33B8818047B681968FB78013B4E
:1035F000BA68024340339B000B445A6000231846CC
:103600001437BD465DF8047B704780B483B000AFCB
:1036100078600B467B807B681B687A885A6200233F
:1036200018460C37BD465DF8047B704780B485B002
:1036300000AF78607B681B68FB607B680122C3F881
:1036400000257B68002283F8F424FB689B6943F023
:103650000062FB689A61FB685A6D054B1343FA6878
:103660005365002318461437BD465DF8047B704748
:103670000300001080B483B000AF78600B46FB708D
:1036800000BF0C37BD465DF8047B704780B584B041
:1036900000AF7860194BDB6803F00403042B0AD0F9
:1036A000164BDB6803F007037A689A4201D00123C6
:1036B0001FE000231DE0114BDB6823F007020F49D8
:1036C0007B681343CB60FEF7C7F9F86009E0FEF7AB
:1036D000C3F90246FB68D31AB3F57A7F01D90123F7
:1036E00007E0064B5B6803F40053B3F5005FEED1CF
:1036F000002318461037BD4680BD00BF0048025861
:1037000080B400AF054BDB68044A43F08073D3609C
:1037100000BFBD465DF8047B704700BF00480258FB
:1037200080B586B002AF7860FEF796F9F8607B68E6
:10373000002B01D101235FE07B6893F84130DBB2BD
:10374000002B07D17868FDF7D5FD41F28831786804
:1037500000F05AF87B681B681B6823F4F8517B68FB
:103760009B68013B1A027B681B680A431A607B68EE
:103770009B6C0093FB6800222021786800F052F8CF
:103780000346FB72FB7A002B35D17B681B681A68F5
:103790001B4B13407A68526811067A68D26811434D
:1037A0007A68D26911437A68126A11437A6812689A
:1037B0000B4313607B681B685A68124B13407A688E
:1037C000126911047A68526911437A689269114347
:1037D0007A6812680B4353607B681B681A687B68C1
:1037E0001B6842F001021A607B6800225A647B6801
:1037F000012283F84120FB7A18461037BD4680BD70
:103800002FFFFF00FEF8E0FF80B483B000AF7860C8
:1038100039607B683A689A6400BF0C37BD465DF832
:10382000047B704780B584B000AFF860B9603B603E
:103830001346FB711AE0BB69B3F1FF3F16D0FEF7E8
:103840000BF902463B68D31ABA699A4202D3BB69A4
:10385000002B0BD1FB68042283F84120FB685B6CD2
:1038600043F00102FB685A6401230EE0FB681B6809
:103870009A68BB681340002B14BF01230023DBB2FE
:103880001A46FB799A42D6D1002318461037BD4616
:1038900080BD000080B58CB000AF78607B68002BE5
:1038A00002D1012300F048BC7B681B6803F00103D0
:1038B000002B00F08880994B1B6903F03803FB62F2
:1038C000964B9B6ABB62FB6A102B07D0FB6A182BD6
:1038D00011D1BB6A03F00303022B0CD18F4B1B6881
:1038E00003F40033002B6DD07B685B68002B69D13B
:1038F000012300F021BC7B685B68B3F5803F06D1F3
:10390000864B1B68854A43F4803313602EE07B6846
:103910005B68002B0CD1814B1B68804A23F48033F9
:1039200013607E4B1B687D4A23F4802313601DE0E7
:103930007B685B68B3F5A02F0CD1784B1B68774A86
:1039400043F480231360754B1B68744A43F480333F
:1039500013600BE0714B1B68704A23F480331360D3
:103960006E4B1B686D4A23F4802313607B685B6891
:10397000002B13D0FEF770F8786208E0FEF76CF8C1
:1039800002467B6AD31A642B01D90323D4E3634B29
:103990001B6803F40033002BF0D014E0FEF75CF852
:1039A000786208E0FEF758F802467B6AD31A642B67
:1039B00001D90323C0E3594B1B6803F40033002BE8
:1039C000F0D100E000BF7B681B6803F00203002B0E
:1039D00000F0CA80514B1B6903F038033B624F4B28
:1039E0009B6AFB613B6A002B07D03B6A182B56D1C0
:1039F000FB6903F00303002B51D1484B1B6803F014
:103A00000403002B05D07B68DB68002B01D1012368
:103A100092E3424B1B6823F019027B68DB683F4945
:103A200013430B60FEF718F8786208E0FEF714F80D
:103A300002467B6AD31A022B01D903237CE3374B5E
:103A40001B6803F00403002BF0D0FEF735F80346A3
:103A500041F20302934217D87B681B69402B08D1BF
:103A60002E4B5B6823F47C332C4A43F400335360C1
:103A70007AE02A4B5B6823F47C327B681B691B036A
:103A8000264913434B606FE0244B5B6823F0FE42F2
:103A90007B681B691B06214913434B6064E07B680C
:103AA000DB68002B47D01D4B1B6823F019027B6895
:103AB000DB681A4913430B60FDF7CEFF786208E01C
:103AC000FDF7CAFF02467B6AD31A022B01D90323F2
:103AD00032E3124B1B6803F00403002BF0D0FDF718
:103AE000EBFF034641F20302934219D87B681B693E
:103AF000402B08D1094B5B6823F47C33074A43F41D
:103B00000033536030E0054B5B6823F47C327B6804
:103B10001B691B03014913434B6025E00044025815
:103B20009A4B5B6823F0FE427B681B691B06974932
:103B300013434B6018E0954B1B68944A23F0010334
:103B40001360FDF789FF786208E0FDF785FF024604
:103B50007B6AD31A022B01D90323EDE28B4B1B683E
:103B600003F00403002BF0D17B681B6803F0100303
:103B7000002B00F0A980854B1B6903F03803BB6163
:103B8000824B9B6A7B61BB69082B07D0BB69182BF2
:103B90003AD17B6903F00303012B35D17B4B1B68C2
:103BA00003F48073002B05D07B68DB69802B01D088
:103BB0000123C1E2FDF780FF034641F20302934275
:103BC00017D87B681B6A202B08D1704B5B6823F0E9
:103BD000F8436E4A43F08043536075E06B4B5B687B
:103BE00023F0F8427B681B6A9B06684913434B60CD
:103BF0006AE0664BDB6823F07C527B681B6A1B061D
:103C000062491343CB605FE07B68DB69002B42D0E5
:103C10005E4B1B685D4A43F080031360FDF71CFF99
:103C2000786208E0FDF718FF02467B6AD31A022B80
:103C300001D9032380E2554B1B6803F48073002BEA
:103C4000F0D0FDF739FF034641F20302934217D843
:103C50007B681B6A202B08D14C4B5B6823F0F84330
:103C60004A4A43F0804353602EE0484B5B6823F0A0
:103C7000F8427B681B6A9B06444913434B6023E070
:103C8000424BDB6823F07C527B681B6A1B063F4972
:103C90001343CB6018E03D4B1B683C4A23F0800384
:103CA0001360FDF7D9FE786208E0FDF7D5FE024605
:103CB0007B6AD31A022B01D903233DE2334B1B68E5
:103CC00003F48073002BF0D17B681B6803F00803BA
:103CD000002B36D07B685B69002B19D02B4B5B6FB8
:103CE0002A4A43F001035367FDF7B6FE786208E005
:103CF000FDF7B2FE02467B6AD31A022B01D90323D9
:103D00001AE2224B5B6F03F00203002BF0D018E0A5
:103D10001E4B5B6F1D4A23F001035367FDF79CFEAA
:103D2000786208E0FDF798FE02467B6AD31A022B00
:103D300001D9032300E2154B5B6F03F00203002B54
:103D4000F0D17B681B6803F02003002B39D07B681F
:103D50009B69002B1CD00D4B1B680C4A43F480530D
:103D60001360FDF779FE786208E0FDF775FE024604
:103D70007B6AD31A022B01D90323DDE1034B1B68B5
:103D800003F40053002BF0D01BE000BF00440258A6
:103D90009B4B1B689A4A23F480531360FDF75CFE2B
:103DA000786208E0FDF758FE02467B6AD31A022BC0
:103DB00001D90323C0E1924B1B6803F40053002B8D
:103DC000F0D17B681B6803F00403002B00F08180B6
:103DD0008C4B1B688B4A43F480731360FDF73CFEE9
:103DE000786208E0FDF738FE02467B6AD31A642B3E
:103DF00001D90323A0E1834B1B6803F48073002BDC
:103E0000F0D07B689B68012B06D17D4B1B6F7C4AF1
:103E100043F0010313672DE07B689B68002B0CD1F6
:103E2000774B1B6F764A23F001031367744B1B6FAC
:103E3000734A23F0040313671CE07B689B68052B1F
:103E40000CD16F4B1B6F6E4A43F0040313676C4B2E
:103E50001B6F6B4A43F0010313670BE0684B1B6F4A
:103E6000674A23F001031367654B1B6F644A23F015
:103E7000040313677B689B68002B15D0FDF7ECFDEE
:103E800078620AE0FDF7E8FD02467B6AD31A41F248
:103E90008832934201D903234EE1594B1B6F03F043
:103EA0000203002BEED014E0FDF7D6FD78620AE0A5
:103EB000FDF7D2FD02467B6AD31A41F28832934263
:103EC00001D9032338E14E4B1B6F03F00203002B93
:103ED000EED17B685B6A002B00F02D81484B1B699B
:103EE00003F03803182B00F0BD807B685B6A022B5F
:103EF00040F09E80424B1B68414A23F08073136060
:103F0000FDF7AAFD786208E0FDF7A6FD02467B6A90
:103F1000D31A022B01D903230EE1394B1B6803F09E
:103F20000073002BF0D1364B9A6A374B13407A68F6
:103F3000916A7A68D26A12010A43314913438B624B
:103F40007B681B6B013BC3F308027B685B6B013B27
:103F50005B029BB21A437B689B6B013B1B0403F41F
:103F6000FE031A437B68DB6B013B1B0603F0FE4339
:103F7000234913430B63224BDB6A214A23F00103DD
:103F8000D3621F4B5A6B214B13407A68926CD2005C
:103F90001B4913434B631A4BDB6A23F00C027B680B
:103FA0001B6C17491343CB62154BDB6A23F00202EB
:103FB0007B685B6C12491343CB62114BDB6A104A7E
:103FC00043F48033D3620E4BDB6A0D4A43F4003373
:103FD000D3620B4BDB6A0A4A43F48023D362084B5B
:103FE000DB6A074A43F00103D362054B1B68044AAE
:103FF00043F080731360FDF72FFD786211E000BF7E
:1040000000440258004802580CFCFFFF0700FFFF65
:10401000FDF722FD02467B6AD31A022B01D9032346
:104020008AE0474B1B6803F00073002BF0D082E05E
:10403000434B1B68424A23F080731360FDF70CFD6D
:10404000786208E0FDF708FD02467B6AD31A022B6E
:1040500001D9032370E03A4B1B6803F00073002B77
:10406000F0D168E0364B9B6A3B61354B1B6BFB60C4
:104070007B685B6A012B31D03B6903F003027B68EC
:104080009B6A9A422AD13B691B0903F03F027B6875
:10409000DB6A9A4222D1FB68C3F308027B681B6B80
:1040A000013B9A421AD1FB685B0A03F07F027B68EE
:1040B0005B6B013B9A4211D1FB681B0C03F07F0242
:1040C0007B689B6B013B9A4208D1FB681B0E03F097
:1040D0007F027B68DB6B013B9A4201D001232BE01E
:1040E000174B5B6BDB08C3F30C033B617B689B6C7A
:1040F0003A699A421FD0124BDB6A114A23F001033E
:10410000D362FDF7A9FC786200BFFDF7A5FC02466B
:104110007B6A9342F9D00A4B5A6B0A4B13407A6878
:10412000926CD200064913434B63054BDB6A044A89
:1041300043F00103D362002318463037BD4680BDEB
:10414000004402580700FFFF80B586B000AF7860DA
:1041500039607B68002B01D101239CE18A4B1B68ED
:1041600003F00F033A689A4210D9874B1B6823F07B
:104170000F0285493B6813430B60834B1B6803F0B8
:104180000F033A689A4201D0012384E17B681B68DF
:1041900003F00403002B10D07B681A697B4B9B69EA
:1041A00003F070039A4208D9784B9B6923F07002A0
:1041B0007B681B69754913438B617B681B6803F03F
:1041C0000803002B10D07B685A69704BDB6903F041
:1041D00070039A4208D96D4BDB6923F070027B684B
:1041E0005B696A491343CB617B681B6803F010036A
:1041F000002B10D07B689A69644BDB6903F4E063A1
:104200009A4208D9614BDB6923F4E0627B689B69C1
:104210005E491343CB617B681B6803F02003002BCE
:1042200010D07B68DA69594B1B6A03F070039A421D
:1042300008D9564B1B6A23F070027B68DB6953492F
:1042400013430B627B681B6803F00203002B10D042
:104250007B68DA684D4B9B6903F00F039A4208D9DB
:104260004A4B9B6923F00F027B68DB684749134385
:104270008B617B681B6803F00103002B55D0434B17
:104280009B6923F470627B689B68404913438B6190
:104290007B685B68022B07D13C4B1B6803F400333F
:1042A000002B21D10123F6E07B685B68032B07D14B
:1042B000364B1B6803F00073002B15D10123EAE095
:1042C0007B685B68012B07D1304B1B6803F480735C
:1042D000002B09D10123DEE02C4B1B6803F0040303
:1042E000002B01D10123D6E0284B1B6923F00702E4
:1042F0007B685B68254913430B61FDF7ADFB786173
:104300000AE0FDF7A9FB02467B69D31A41F2883225
:10431000934201D90323BEE01C4B1B6903F0380212
:104320007B685B68DB009A42EBD17B681B6803F01B
:104330000203002B10D07B68DA68144B9B6903F0F2
:104340000F039A4208D2114B9B6923F00F027B683E
:10435000DB680E4913438B610B4B1B6803F00F03A3
:104360003A689A4214D2084B1B6823F00F020649A0
:104370003B6813430B60044B1B6803F00F033A6860
:104380009A4205D0012386E00020005200440258E2
:104390007B681B6803F00403002B10D07B681A694C
:1043A0003F4B9B6903F070039A4208D23C4B9B69D8
:1043B00023F070027B681B69394913438B617B686A
:1043C0001B6803F00803002B10D07B685A69344B3C
:1043D000DB6903F070039A4208D2314BDB6923F0AA
:1043E00070027B685B692E491343CB617B681B6855
:1043F00003F01003002B10D07B689A69284BDB690F
:1044000003F4E0639A4208D2254BDB6923F4E062AF
:104410007B689B6922491343CB617B681B6803F06F
:104420002003002B10D07B68DA691D4B1B6A03F058
:1044300070039A4208D21A4B1B6A23F070027B6801
:10444000DB69174913430B6200F034F80246144B42
:104450009B691B0A03F00F031249CB5C03F01F0397
:1044600022FA03F33B610E4B9B6903F00F030D4AE5
:10447000D35C03F01F033A6922FA03F30A4A13607C
:104480000A4A3B6913600A4B1B681846FDF70AF895
:104490000346FB73FB7B18461837BD4680BD00BF43
:1044A000004402583C4501081C0000241800002468
:1044B0002000002480B489B000AFB34B1B6903F027
:1044C0003803182B00F2558101A252F823F000BFE7
:1044D0003545000873470008734700087347000814
:1044E00073470008734700087347000873470008C4
:1044F0005B450008734700087347000873470008CE
:1045000073470008734700087347000873470008A3
:1045100061450008734700087347000873470008A7
:104520007347000873470008734700087347000883
:1045300067450008944B1B6803F02003002B09D04B
:10454000914B1B68DB0803F00303904A22FA03F344
:10455000BB6111E18D4BBB610EE18D4BBB610BE18A
:104560008C4BBB6108E1884B9B6A03F003037B61C2
:10457000854B9B6A1B0903F03F033B61824BDB6A5F
:1045800003F00103FB60804B5B6BDB08C3F30C03A0
:10459000FA6802FB03F307EE903AF8EE677AC7ED8C
:1045A000027A3B69002B00F0E1807B69022B00F06E
:1045B00083807B69022B00F2A1807B69002B03D0F2
:1045C0007B69012B56D099E06F4B1B6803F02003E9
:1045D000002B2DD06C4B1B68DB0803F003036B4AE8
:1045E00022FA03F37B607B6807EE903AF8EE676A85
:1045F0003B6907EE903AF8EE677A86EEA77A624B4F
:104600001B6BC3F3080307EE903AF8EE676A97ED69
:10461000026ADFED615AC6EE257A76EEA77AF7EEEA
:10462000006A77EEA67A67EE277AC7ED077A87E009
:104630003B6907EE903AF8EE677ADFED586A86EE4E
:10464000A77A514B1B6BC3F3080307EE903AF8EEC1
:10465000676A97ED026ADFED505AC6EE257A76EE6C
:10466000A77AF7EE006A77EEA67A67EE277AC7EDAB
:10467000077A65E03B6907EE903AF8EE677ADFED7E
:10468000486A86EEA77A404B1B6BC3F3080307EE1C
:10469000903AF8EE676A97ED026ADFED3F5AC6EE90
:1046A000257A76EEA77AF7EE006A77EEA67A67EEBD
:1046B000277AC7ED077A43E03B6907EE903AF8EEB8
:1046C000677ADFED386A86EEA77A2F4B1B6BC3F350
:1046D000080307EE903AF8EE676A97ED026ADFED9D
:1046E0002E5AC6EE257A76EEA77AF7EE006A77EEB6
:1046F000A67A67EE277AC7ED077A21E03B6907EED5
:10470000903AF8EE677ADFED266A86EEA77A1E4BBE
:104710001B6BC3F3080307EE903AF8EE676A97ED58
:10472000026ADFED1D5AC6EE257A76EEA77AF7EE1D
:10473000006A77EEA67A67EE277AC7ED077A00BFA0
:10474000114B1B6B5B0A03F07F0301333B603B683B
:1047500007EE903AB8EE677AD7ED076AC6EE877A29
:10476000FCEEE77A17EE903ABB6105E00023BB61EF
:1047700002E0074BBB6100BFBB6918462437BD464A
:104780005DF8047B704700BF004402580090D003DE
:1047900000093D0040787D01000000460024744C73
:1047A0000024744A20BCBE4B80B582B000AFFFF736
:1047B00081FE0246104B9B691B0A03F00F030F4951
:1047C000CB5C03F01F0322FA03F37B600A4B9B6967
:1047D00003F00F03094AD35C03F01F037A6822FA3F
:1047E00003F3074A1360074A7B681360044B1B6896
:1047F00018460837BD4680BD004402583C450108B4
:104800001C0000241800002480B500AFFFF7CCFF87
:104810000246064BDB691B0903F007030449CB5C26
:1048200003F01F0322FA03F3184680BD0044025828
:104830003C45010880B483B000AF786039607B6884
:104840003F221A601A4B1B6903F007027B685A600B
:10485000174B9B6903F470627B689A60144B9B69E9
:1048600003F00F027B68DA60114B9B6903F0700262
:104870007B681A610E4BDB6903F070027B685A613A
:104880000B4BDB6903F4E0627B689A61084B1B6A9F
:1048900003F070027B68DA61064B1B6803F00F02BD
:1048A0003B681A6000BF0C37BD465DF8047B70475B
:1048B00000440258002000522DE9B04FCAB000AFAA
:1048C000C7F81401002387F82731002387F8263121
:1048D000D7F81431D3E9002302F00064002554EA2C
:1048E000050349D0D7F814319B6EB3F5401F2FD084
:1048F000B3F5401F28D8B3F5001F1AD0B3F5001F39
:1049000022D8002B03D0B3F5801F07D01CE0B84B92
:10491000DB6AB74A43F40033D3621AE0D7F81431A4
:1049200008330221184601F0D1F9034687F82731F0
:104930000FE0D7F8143128330221184601F078FA35
:10494000034687F8273104E0012387F8273100E088
:1049500000BF97F82731002B0AD1A54B1B6D23F41C
:104960004011D7F814319B6EA14A0B43136503E045
:1049700097F8273187F82631D7F81431D3E9002387
:1049800002F480784FF0000958EA090347D0D7F8BD
:1049900014319B6D042B2AD801A252F823F000BFDA
:1049A000B5490008C3490008D9490008F74900087B
:1049B000F74900088E4BDB6A8D4A43F40033D3621B
:1049C0001AE0D7F8143108330021184601F07EF9B7
:1049D000034687F827310FE0D7F814312833002138
:1049E000184601F025FA034687F8273104E0012331
:1049F00087F8273100E000BF97F82731002B0AD154
:104A00007B4B1B6D23F00701D7F814319B6D784A5F
:104A10000B43136503E097F8273187F82631D7F861
:104A20001431D3E9002302F4007A4FF0000B5AEA64
:104A30000B034CD0D7F81431DB6DB3F5807F30D049
:104A4000B3F5807F29D8C02B2DD0C02B25D8802B43
:104A500018D0802B21D8002B02D0402B07D01CE08F
:104A6000634BDB6A624A43F40033D3621CE0D7F83D
:104A7000143108330021184601F028F9034687F85D
:104A8000273111E0D7F8143128330021184601F0FE
:104A9000CFF9034687F8273106E0012387F827314D
:104AA00002E000BF00E000BF97F82731002B0AD1D9
:104AB0004F4B1B6D23F4E071D7F81431DB6D4C4A7A
:104AC0000B43136503E097F8273187F82631D7F8B1
:104AD0001431D3E9002302F48063C7F808310023BE
:104AE000C7F80C31D7E942120B46134353D0D7F81D
:104AF0001431D3F8A830B3F5000F35D0B3F5000F5B
:104B00002ED8B3F5C00F31D0B3F5C00F28D8B3F508
:104B1000800F1AD0B3F5800F22D8002B03D0B3F545
:104B2000001F07D01CE0324BDB6A314A43F40033EC
:104B3000D3621CE0D7F8143108330021184601F085
:104B4000C5F8034687F8273111E0D7F81431283328
:104B50000021184601F06CF9034687F8273106E07A
:104B6000012387F8273102E000BF00E000BF97F87B
:104B70002731002B0BD11E4B9B6D23F46001D7F81E
:104B80001431D3F8A8301A4A0B43936503E097F821
:104B9000273187F82631D7F81431D3E9002302F4FE
:104BA0000063C7F800310023C7F80431D7E9401289
:104BB0000B46134356D0D7F81431D3F8AC30B3F1C9
:104BC000806F38D0B3F1806F31D8B3F1407F34D0EB
:104BD000B3F1407F2BD8B3F1007F1DD0B3F1007F3C
:104BE00025D8002B06D0B3F1807F0AD01FE000BF8C
:104BF00000440258A24BDB6AA14A43F40033D3625B
:104C00001CE0D7F8143108330021184601F05EF893
:104C1000034687F8273111E0D7F8143128330021F3
:104C2000184601F005F9034687F8273106E001230D
:104C300087F8273102E000BF00E000BF97F8273176
:104C4000002B0BD18E4B9B6D23F0E061D7F8143114
:104C5000D3F8AC308A4A0B43936503E097F82731C9
:104C600087F82631D7F81431D3E9002302F0007316
:104C7000C7F8F8300023C7F8FC30D7E93E120B46DE
:104C800013433AD0D7F81431DB6C302B1FD0302BC4
:104C900019D8202B0CD0202B15D8002B19D0102B75
:104CA00011D1774BDB6A764A43F40033D36211E0CB
:104CB000D7F8143108330221184601F007F80346EB
:104CC00087F8273106E0012387F8273102E000BF8B
:104CD00000E000BF97F82731002B0AD1684BDB6C4E
:104CE00023F03001D7F81431DB6C654A0B43D364F1
:104CF00003E097F8273187F82631D7F81431D3E944
:104D0000002302F48053C7F8F0300023C7F8F430D2
:104D1000D7E93C120B46134351D0D7F814311B6E20
:104D2000B3F5804F35D0B3F5804F2ED8B3F5405F43
:104D300031D0B3F5405F28D8B3F5005F1AD0B3F592
:104D4000005F22D8002B03D0B3F5805F07D01CE0B2
:104D50004B4BDB6A4A4A43F40033D3621CE0D7F87A
:104D6000143108330021184600F0B0FF034687F8DD
:104D7000273111E0D7F8143128330021184601F00B
:104D800057F8034687F8273106E0012387F82731D3
:104D900002E000BF00E000BF97F82731002B0AD1E6
:104DA000374B1B6D23F4E041D7F814311B6E344AA6
:104DB0000B43136503E097F8273187F82631D7F8BE
:104DC0001431D3E9002302F40053C7F8E83000237C
:104DD000C7F8EC30D7E93A120B46134356D0D7F850
:104DE00014315B6EB3F5A02F33D0B3F5A02F2CD8C0
:104DF000B3F5802F2FD0B3F5802F26D8B3F5403FE1
:104E00002BD0B3F5403F20D8B3F5003F12D0B3F517
:104E1000003F1AD8002B22D0B3F5803F15D1D7F828
:104E2000143108330121184600F050FF034687F87B
:104E3000273115E0D7F8143128330121184600F046
:104E4000F7FF034687F827310AE0012387F8273167
:104E500006E000BF04E000BF02E000BF00E000BFCA
:104E600097F82731002B0DD1054B1B6D23F4E02162
:104E7000D7F814315B6E024A0B43136506E000BF9E
:104E80000044025897F8273187F82631D7F81431B3
:104E9000D3E9002302F48043C7F8E0300023C7F8C9
:104EA000E430D7E938120B46134355D0D7F8143104
:104EB000D3F8B030B3F1A04F33D0B3F1A04F2CD81A
:104EC000B3F1804F2FD0B3F1804F26D8B3F1405FBC
:104ED0002BD0B3F1405F20D8B3F1005F12D0B3F113
:104EE000005F1AD8002B22D0B3F1805F15D1D7F81C
:104EF000143108330121184600F0E8FE034687F814
:104F0000273115E0D7F8143128330121184600F075
:104F10008FFF034687F827310AE0012387F82731FE
:104F200006E000BF04E000BF02E000BF00E000BFF9
:104F300097F82731002B0BD1A34B9B6D23F0E04159
:104F4000D7F81431D3F8B0309F4A0B43936503E090
:104F500097F8273187F82631D7F81431D3E90023A1
:104F600002F40043C7F8D8300023C7F8DC30D7E993
:104F700036120B46134337D0D7F814311B6FB3F1F9
:104F8000005F0ED0B3F1005F16D8002B18D0B3F13C
:104F9000805F11D18C4BDB6A8B4A43F40033D362C0
:104FA0000FE0D7F8143108330121184600F08EFEC7
:104FB000034687F8273104E0012387F8273100E012
:104FC00000BF97F82731002B0AD17F4B1B6D23F0D0
:104FD0004051D7F814311B6F7B4A0B43136503E034
:104FE00097F8273187F82631D7F81431D3E9002311
:104FF00002F08073C7F8D0300023C7F8D430D7E967
:1050000034120B46134339D0D7F814319B6C032B61
:105010001CD801A252F823F055500008295000086E
:105020003750000855500008674BDB6A664A43F466
:105030000033D3620FE0D7F8143108330221184649
:1050400000F044FE034687F8273104E0012387F887
:10505000273100E000BF97F82731002B0AD15A4BC7
:10506000DB6C23F00301D7F814319B6C564A0B43D9
:10507000D36403E097F8273187F82631D7F8143145
:10508000D3E9002302F48003C7F8C8300023C7F82F
:10509000CC30D7E932120B46134300F09F804B4BC4
:1050A0001B684A4A43F480731360FCF7D5FCC7F8C9
:1050B00020010BE0FCF7D0FC0246D7F82031D31AD0
:1050C000642B03D9032387F8273105E03F4B1B6886
:1050D00003F48073002BEDD097F82731002B79D1A2
:1050E000394B1A6FD7F81431D3F8B430534003F466
:1050F0004073002B15D0344B1B6F23F44073C7F85B
:105100001C31314B1B6F304A43F4803313672E4BF5
:105110001B6F2D4A23F4803313672B4AD7F81C31B9
:105120001367D7F81431D3F8B430B3F5807F18D1B2
:10513000FCF792FCC7F820010DE0FCF78DFC02465D
:10514000D7F82031D21A41F288339A4203D9032387
:1051500087F8273105E01C4B1B6F03F00203002B7F
:10516000EBD097F82731002B29D1D7F81431D3F899
:10517000B43003F44073B3F5407F0ED1124B1B697A
:1051800023F47C51D7F81431D3F8B4301A09104BFA
:1051900013400D4A0B43136105E00B4B1B690A4A90
:1051A00023F47C531361084B196FD7F81431D3F8EB
:1051B000B430C3F30B03044A0B4313670EE097F8B4
:1051C000273187F8263109E0004402580048025888
:1051D000CFFFFF0097F8273187F82631D7F8143131
:1051E000D3E9002302F00103C7F8C0300023C7F859
:1051F000C430D7E930120B46134300F08980D7F84A
:105200001431DB6F282B6BD801A252F823F000BFBA
:10521000E9520008E1520008E1520008E15200089A
:10522000E1520008E1520008E1520008E152000892
:10523000B5520008E1520008E1520008E1520008AE
:10524000E1520008E1520008E1520008E152000872
:10525000CB520008E1520008E1520008E152000878
:10526000E1520008E1520008E1520008E152000852
:10527000E9520008E1520008E1520008E15200083A
:10528000E1520008E1520008E1520008E152000832
:10529000E9520008E1520008E1520008E15200081A
:1052A000E1520008E1520008E1520008E152000812
:1052B000E9520008D7F8143108330121184600F0EC
:1052C00005FD034687F827310FE0D7F8143128335E
:1052D0000121184600F0ACFD034687F8273104E0B1
:1052E000012387F8273100E000BF97F82731002B12
:1052F0000AD1BF4B5B6D23F03801D7F81431DB6F57
:10530000BB4A0B43536503E097F8273187F82631F2
:10531000D7F81431D3E9002302F00203C7F8B830FC
:105320000023C7F8BC30D7E92E120B46134341D0F7
:10533000D7F814319B6F052B24D801A252F823F023
:105340008D530008595300086F5300088D5300080F
:105350008D5300088D530008D7F81431083301210C
:10536000184600F0B3FC034687F827310FE0D7F862
:10537000143128330121184600F05AFD034687F8FE
:10538000273104E0012387F8273100E000BF97F8B8
:105390002731002B0AD1964B5B6D23F00701D7F81C
:1053A00014319B6F924A0B43536503E097F8273102
:1053B00087F82631D7F81431D3E9002302F004032B
:1053C000C7F8B0300023C7F8B430D7E92C120B4629
:1053D000134344D0D7F81431D3F89430052B25D893
:1053E00001A252F823F000BF355400080154000810
:1053F0001754000835540008355400083554000887
:10540000D7F8143108330121184600F05FFC034639
:1054100087F827310FE0D7F81431283301211846D7
:1054200000F006FD034687F8273104E0012387F8E2
:10543000273100E000BF97F82731002B0BD16C4BD0
:105440009B6D23F00701D7F81431D3F89430684AE4
:105450000B43936503E097F8273187F82631D7F897
:105460001431D3E9002302F02003C7F8A830002349
:10547000C7F8AC30D7E92A120B46134355D0D7F8FA
:105480001431D3F89030B3F1A04F33D0B3F1A04F23
:105490002CD8B3F1804F2FD0B3F1804F26D8B3F181
:1054A000405F2BD0B3F1405F20D8B3F1005F12D042
:1054B000B3F1005F1AD8002B22D0B3F1805F15D171
:1054C000D7F8143108330021184600F0FFFB0346DB
:1054D00087F8273115E0D7F8143128330221184610
:1054E00000F0A6FC034687F827310AE0012387F87D
:1054F000273106E000BF04E000BF02E000BF00E08B
:1055000000BF97F82731002B0BD1394B5B6D23F08F
:10551000E041D7F81431D3F89030354A0B43536546
:1055200003E097F8273187F82631D7F81431D3E90B
:10553000002302F04003C7F8A0300023C7F8A430CE
:10554000D7E928120B46134358D0D7F81431D3F8B3
:105550009C30B3F5A05F33D0B3F5A05F2CD8B3F582
:10556000805F2FD0B3F5805F26D8B3F5406F2BD086
:10557000B3F5406F20D8B3F5006F12D0B3F5006FCC
:105580001AD8002B22D0B3F5806F15D1D7F814317B
:1055900008330021184600F099FB034687F82731AD
:1055A00015E0D7F8143128330221184600F040FCEA
:1055B000034687F827310AE0012387F8273106E000
:1055C00000BF04E000BF02E000BF00E000BF97F8AA
:1055D0002731002B0ED1064B9B6D23F4E051D7F8F9
:1055E0001431D3F89C30024A0B43936506E000BFA8
:1055F0000044025897F8273187F82631D7F814313C
:10560000D3E9002302F08003C7F898300023C7F8DD
:105610009C30D7E926120B46134355D0D7F81431E6
:10562000D3F8A030B3F5204F33D0B3F5204F2CD8AA
:10563000B3F5004F2FD0B3F5004F26D8B3F5C04FC8
:105640002BD0B3F5C04F20D8B3F5804F12D0B3F5AF
:10565000804F1AD8002B22D0B3F5005F15D1D7F8B0
:10566000143108330021184600F030FB034687F858
:10567000273115E0D7F8143128330221184600F0FD
:10568000D7FB034687F827310AE0012387F8273143
:1056900006E000BF04E000BF02E000BF00E000BF82
:1056A00097F82731002B0BD1A14B9B6D23F4604160
:1056B000D7F81431D3F8A0309D4A0B43936503E02B
:1056C00097F8273187F82631D7F81431D3E900232A
:1056D00002F00803C7F890300023C7F89430D7E9E8
:1056E00024120B4613431ED0D7F81431D3F884305C
:1056F000B3F5805F0CD1D7F8143128330221184656
:1057000000F096FB0346002B02D0012387F82631D8
:10571000874B5B6D23F44051D7F81431D3F88430B4
:10572000834A0B435365D7F81431D3E9002302F0C1
:105730001003C7F888300023C7F88C30D7E922124D
:105740000B4613431ED0D7F81431D3F89830B3F575
:10575000807F0CD1D7F8143128330221184600F08D
:1057600067FB0346002B02D0012387F82631704BDC
:105770009B6D23F44071D7F81431D3F898306C4AFC
:105780000B439365D7F81431D3E9002302F40023C7
:10579000C7F880300023C7F88430D7E920120B46C1
:1057A00013433ED0D7F81431D3F8A430B3F5003FFB
:1057B00022D0B3F5003F1BD8002B03D0B3F5803FB8
:1057C0000BD015E0D7F8143108330021184600F04B
:1057D0007DFA034687F827310FE0D7F814312833D4
:1057E0000221184600F024FB034687F8273104E025
:1057F000012387F8273100E000BF97F82731002BFD
:105800000BD14B4B9B6D23F44031D7F81431D3F8B7
:10581000A430474A0B43936503E097F8273187F894
:105820002631D7F81431D3E9002302F48023BB6773
:105830000023FB67D7E91E120B4613433BD0D7F872
:105840001431D3F88830B3F5401F1FD0B3F5401F93
:1058500018D8B3F5801F03D0B3F5001F07D011E0AF
:10586000334BDB6A324A43F40033D3620FE0D7F89C
:10587000143128330121184600F0DAFA034687F87C
:10588000273104E0012387F8273100E000BF97F8B3
:105890002731002B0BD1264B5B6D23F44011D7F839
:1058A0001431D3F88830224A0B43536503E097F84C
:1058B000273187F82631D7F81431D3E9002302F4D1
:1058C00080333B6700237B67D7E91C120B461343E9
:1058D00034D0D7F814311B6D002B03D0B3F5803FC3
:1058E00007D011E0124BDB6A114A43F40033D36254
:1058F0000EE0D7F8143108330221184600F0E6F91B
:10590000034687F8273103E0012387F8273100BFDA
:1059100097F82731002B0DD1054BDB6C23F4803138
:10592000D7F814311B6D024A0B43D36406E000BF65
:105930000044025897F8273187F82631D7F81431F8
:10594000D3E9002302F00053BB660023FB66D7E9CE
:105950001A120B4613430CD0D7F814312833022106
:10596000184600F065FA0346002B02D0012387F8A1
:105970002631D7F81431D3E9002302F400333B6613
:1059800000237B66D7E918120B46134338D0D7F8AB
:105990001431D3F88030B3F5407F18D0B3F5407F91
:1059A00011D8B3F5007F14D0B3F5007F0BD8002BCE
:1059B00011D0B3F5807F06D1C34BDB6AC24A43F4F2
:1059C0000033D36208E0012387F8273104E000BFE9
:1059D00002E000BF00E000BF97F82731002B0BD199
:1059E000B94B5B6D23F44071D7F81431D3F8803094
:1059F000B54A0B43536503E097F8273187F8263102
:105A0000D7F81431D3E9002302F48013BB650023D7
:105A1000FB65D7E916120B46134309D0AA4B1B6D41
:105A200023F00041D7F814315B6FA74A0B4313658D
:105A3000D7F81431D3E9002302F080533B650023EB
:105A40007B65D7E914120B4613430AD09E4B1B69A2
:105A500023F48041D7F81431D3F8B8309A4A0B4375
:105A60001361D7F81431D3E9002302F40013BB64A7
:105A70000023FB64D7E912120B46134309D0924B63
:105A80001B6D23F08071D7F81431DB6E8E4A0B4307
:105A90001365D7F81431D3E9002302F080433B6447
:105AA00000237B64D7E910120B4613430ED0864BBC
:105AB0001B69854A23F400431361834B1969D7F8A6
:105AC0001431D3F8BC30804A0B431361D7F814313A
:105AD000D3E9002302F00043BB630023FB63D7E953
