:020000040800F2
:10000000000002205D310008712D0008772D0008E6
:100010007D2D0008832D0008892D000800000000B8
:1000200000000000000000000000000051FA00087D
:100030008F2D00080000000021FD000825C10008E8
:10004000AD310008AD310008AD310008AD31000818
:10005000AD310008AD310008AD310008AD31000808
:10006000AD310008AD310008AD310008AD310008F8
:10007000AD310008AD310008AD310008AD310008E8
:10008000AD310008AD310008AD310008AD310008D8
:10009000AD310008AD310008AD310008AD310008C8
:1000A000AD310008AD310008AD310008AD310008B8
:1000B000AD310008AD310008AD310008AD310008A8
:1000C000AD310008AD310008AD310008AD31000898
:1000D000AD310008AD310008AD310008AD31000888
:1000E000AD310008AD31000800000000AD3100085E
:1000F000AD310008AD310008AD310008AD31000868
:10010000AD310008AD310008AD310008AD31000857
:10011000AD310008AD3100089D2D0008B52D000857
:10012000AD310008AD310008AD310008AD31000837
:10013000AD310008AD310008AD310008AD31000827
:1001400000000000000000000000000000000000AF
:10015000AD310008AD310008AD310008AD31000807
:10016000AD310008AD310008AD310008AD310008F7
:10017000AD310008AD310008AD310008AD310008E7
:10018000AD310008AD310008AD310008AD310008D7
:10019000AD310008AD310008AD310008AD310008C7
:1001A000AD310008AD310008AD310008AD310008B7
:1001B000AD310008AD310008AD310008AD310008A7
:1001C000AD310008AD310008AD310008AD31000897
:1001D000AD310008C92D0008AD310008AD3100086F
:1001E000AD310008AD310008AD310008AD31000877
:1001F000AD310008AD310008AD310008AD31000867
:10020000AD310008AD310008AD310008AD31000856
:10021000AD310008AD310008AD310008AD31000846
:10022000AD310008AD310008AD310008000000001C
:10023000AD310008AD31000800000000AD3100080C
:10024000AD310008AD310008AD310008AD31000816
:10025000AD310008AD310008AD310008AD31000806
:10026000AD310008AD310008AD310008AD310008F6
:10027000AD310008AD310008AD31000800000000CC
:10028000AD310008AD310008AD31000800000000BC
:0802900000000000AD31000880
:1002A00010B5054C237833B9044B13B10448AFF3B0
:1002B00000800123237010BD780F00200000000093
:1002C00024F8050808B5034B1BB103490348AFF3F5
:1002D000008008BD000000007C0F002024F8050805
:1002E00001F0FF01102A2BDB10F0070F08D010F8E7
:1002F000013B013A8B422DD010F0070F42B3F6D1EB
:10030000F0B441EA012141EA014122F007047FF003
:1003100000070023F0E80256083C85EA010586EA5A
:10032000010685FA47F5A3FA87F586FA47F6A5FA96
:1003300087F68EB9EED1F0BC01F0FF0102F00702A2
:1003400032B110F8013B013A83EA010313B1F8D14D
:100350000020704701387047002D06BF354603382E
:10036000073815F0010F07D1013015F4807F02BF67
:10037000013015F4C03F0130F0BC0138704700BFB8
:1003800010F8012B11F8013B012A28BF9A42F7D03F
:10039000D01A7047034613F8012B002AFBD1181A14
:1003A0000138704781F0004102E000BF83F0004354
:1003B00030B54FEA41044FEA430594EA050F08BF00
:1003C00090EA020F1FBF54EA000C55EA020C7FEAC4
:1003D000645C7FEA655C00F0E2804FEA5454D4EB41
:1003E0005555B8BF6D420CDD2C4480EA020281EA0B
:1003F000030382EA000083EA010180EA020281EA43
:100400000303362D88BF30BD11F0004F4FEA013194
:100410004FF4801C4CEA113102D0404261EB4101A3
:1004200013F0004F4FEA03334CEA133302D0524229
:1004300063EB430394EA050F00F0A780A4F10104E5
:10044000D5F1200E0DDB02FA0EFC22FA05F280181F
:1004500041F1000103FA0EF2801843FA05F3594105
:100460000EE0A5F120050EF1200E012A03FA0EFC84
:1004700028BF4CF0020C43FA05F3C01851EBE371AE
:1004800001F0004507D54FF0000EDCF1000C7EEBCB
:1004900000006EEB0101B1F5801F1BD3B1F5001F09
:1004A0000CD349085FEA30004FEA3C0C04F1010428
:1004B0004FEA445212F5800F80F09A80BCF1004F51
:1004C00008BF5FEA500C50F1000041EB045141EAD3
:1004D000050130BD5FEA4C0C404141EB0101013C9C
:1004E00028BFB1F5801FE9D291F0000F04BF01468B
:1004F0000020B1FA81F308BF2033A3F10B03B3F15D
:1005000020020CDA0C3208DD02F1140CC2F10C02EC
:1005100001FA0CF021FA02F10CE002F11402D8BF4A
:10052000C2F1200C01FA02F120FA0CFCDCBF41EA16
:100530000C019040E41AA2BF01EB0451294330BDE5
:100540006FEA04041F3C1CDA0C340EDC04F11404C2
:10055000C4F1200220FA04F001FA02F340EA030099
:1005600021FA04F345EA030130BDC4F10C04C4F1DF
:10057000200220FA02F001FA04F340EA03002946BF
:1005800030BD21FA04F0294630BD94F0000F83F409
:10059000801306BF81F480110134013D4EE77FEAEC
:1005A000645C18BF7FEA655C29D094EA050F08BF38
:1005B00090EA020F05D054EA000C04BF1946104619
:1005C00030BD91EA030F1EBF0021002030BD5FEA5D
:1005D000545C05D14000494128BF41F0004130BD85
:1005E00014F580043CBF01F5801130BD01F00045D9
:1005F00045F0FE4141F470014FF0000030BD7FEA4C
:10060000645C1ABF194610467FEA655C1CBF0B4646
:10061000024650EA013406BF52EA033591EA030F5D
:1006200041F4002130BD00BF90F0000F04BF002155
:10063000704730B54FF4806404F132044FF0000588
:100640004FF0000150E700BF90F0000F04BF002101
:10065000704730B54FF4806404F1320410F0004567
:1006600048BF40424FF000013EE700BF42004FEA62
:10067000E2014FEA31014FEA02701FBF12F07F43DF
:1006800093F07F4F81F06051704732F07F4208BF96
:10069000704793F07F4F04BF41F40021704730B59D
:1006A0004FF4607401F0004521F000411CE700BFE9
:1006B00050EA010208BF704730B54FF000050AE06C
:1006C00050EA010208BF704730B511F0004502D56D
:1006D000404261EB41014FF4806404F132045FEA6F
:1006E000915C3FF4D8AE4FF003025FEADC0C18BF18
:1006F00003325FEADC0C18BF033202EBDC02C2F10A
:10070000200300FA03FC20FA02F001FA03FE40EA9B
:100710000E0021FA02F11444BDE600BF53B94AB9F4
:10072000002908BF00281CBF4FF0FF314FF0FF30F9
:1007300000F0AEB9ADF1080C6DE904CE00F040F860
:10074000DDF804E0DDE9022304B0704708B5024695
:100750000B4643EC172BB5EEC07BF1EE10FA03D439
:10076000BDE8084000F00CB8B1EE477B51EC170B28
:1007700000F006F8404261EB410108BD00000000B6
:100780009FED0B6B41EC170B9FED0B5B27EE066BA0
:10079000BCEEC66BB8EE464BA4EE457BFCEEC77BC9
:1007A00016EE101A17EE900A704700BFAFF30080E4
:1007B000000000000000F03D000000000000F041DB
:1007C0002DE9F047089D04468E46002B4DD18A4204
:1007D000944669D9B2FA82F252B101FA02F3C2F137
:1007E000200120FA01F10CFA02FC41EA030E9440C8
:1007F0004FEA1C48210CBEFBF8F61FFA8CF708FBE9
:1008000016E341EA034306FB07F199420AD91CEBC0
:10081000030306F1FF3080F01F81994240F21C81F2
:10082000023E63445B1AA4B2B3FBF8F008FB10333A
:1008300044EA034400FB07F7A7420AD91CEB04046F
:1008400000F1FF3380F00A81A74240F2078164443F
:10085000023840EA0640E41B00261DB1D4400023C4
:10086000C5E900433146BDE8F0878B4209D9002D28
:1008700000F0EF800026C5E9000130463146BDE8B2
:10088000F087B3FA83F6002E4AD18B4202D382421C
:1008900000F2F980841A61EB030301209E46002DCB
:1008A000E0D0C5E9004EDDE702B9FFDEB2FA82F220
:1008B000002A40F09280A1EB0C014FEA1C471FFA7E
:1008C0008CFE0126200CB1FBF7F307FB131140EA65
:1008D00001410EFB03F0884208D91CEB010103F132
:1008E000FF3802D2884200F2CB804346091AA4B2F4
:1008F000B1FBF7F007FB101144EA01440EFB00FEC8
:10090000A64508D91CEB040400F1FF3102D2A6452C
:1009100000F2BB800846A4EB0E0440EA03409CE7CB
:10092000C6F12007B34022FA07FC4CEA030C20FA78
:1009300007F401FA06F31C43F9404FEA1C4900FA98
:1009400006F3B1FBF9F8200C1FFA8CFE09FB181115
:1009500040EA014108FB0EF0884202FA06F20BD988
:100960001CEB010108F1FF3A80F08880884240F2D8
:100970008580A8F102086144091AA4B2B1FBF9F01C
:1009800009FB101144EA014100FB0EFE8E4508D917
:100990001CEB010100F1FF346CD28E456AD902389C
:1009A000614440EA0840A0FB0294A1EB0E01A14281
:1009B000C846A64656D353D05DB1B3EB080261EBEF
:1009C0000E0101FA07F722FA06F3F1401F43C5E9C9
:1009D000007100263146BDE8F087C2F12003D840FF
:1009E0000CFA02FC21FA03F3914001434FEA1C4741
:1009F0001FFA8CFEB3FBF7F007FB10360B0C43EA33
:100A0000064300FB0EF69E4204FA02F408D91CEBE2
:100A1000030300F1FF382FD29E422DD902386344E0
:100A20009B1B89B2B3FBF7F607FB163341EA034180
:100A300006FB0EF38B4208D91CEB010106F1FF38CF
:100A400016D28B4214D9023E6144C91A46EA0046C6
:100A500038E72E46284605E70646E3E61846F8E658
:100A60004B45A9D2B9EB020864EB0C0E0138A3E7A1
:100A70004646EAE7204694E74046D1E7D0467BE782
:100A8000023B614432E7304609E76444023842E7FA
:100A9000704700BF80B5CAB000AF07F59473A3F5E7
:100AA0008E73186007F59473A3F59073196007F5BA
:100AB0009473A3F592731A60002387F827314FF0DF
:100AC000FF33C7F820310023C7F81C3107F59473B2
:100AD000A3F59073D7F81C211B689A423DD207F505
:100AE0009473A3F58E731A68D7F81C3113441B78DE
:100AF0003B2B07D107F59473A3F59073D7F81C210E
:100B00001A602AE0D7F82021D7F81C319A421ED962
:100B100007F59473A3F58E731A68D7F81C31134444
:100B20001B782A2B05D1D7F81C310133C7F82031A7
:100B30000DE007F59473A3F58E731A68D7F81C318E
:100B400013441A7897F82731534087F82731D7F89C
:100B50001C310133C7F81C31B8E707F59473A3F5CE
:100B600090731B68B3F5807F06D907F59473A3F5DE
:100B700090734FF480721A6007F59473A3F5907226
:100B800007F59473A3F58E7307F1180012681968BE
:100B900059F0BAFE07F59473A3F59073D7F82021A6
:100BA0001B689A4234BF0123002387F81B3197F852
:100BB0001B31002B1BD007F11802D7F8203113444A
:100BC00007F11402194918465BF0E8F897F8272155
:100BD00007F59473A3F58A731B689A4221D107F530
:100BE0009473A3F59073D7F82021013A1A6007F5A2
:100BF0009473A3F5887207F59473A3F590731B683B
:100C0000134400221A7007F59473A3F5927207F546
:100C10009473A3F5907307F118001268196810F027
:100C20008FFB07F59477BD4680BD00BF40F80508EF
:100C300080B584B000AF7860084B1B684FF0FF317F
:100C400018460BF009FCF860FB68002BF4D104484F
:100C500003F073FB652002F009FCEDE708110020AA
:100C60008035002080B500AF0A4A00210A480BF009
:100C7000BDFA0346094A1360094B1B78DBB283F0C7
:100C80000103DBB2002B03D001200BF041FBF3E7A3
:100C900000BF80BD2C3C0608A50C0008940F002066
:100CA0009C0F002080B582B000AF7860044B012219
:100CB0001A7000F01FF94FF47A700BF029FBFAE775
:100CC0009C0F002090B585B000AFF860B9607A60E5
:100CD000074B1868064B1B681B681C687A68002362
:100CE000B968A0477B6818461437BD4690BD00BF61
:100CF0000004002080B483B000AF7860044A7B68B1
:100D00001A607B6818460C37BD465DF8047B704757
:100D10009C3C060880B483B000AF7860044A7B68CE
:100D20001A607B6818460C37BD465DF8047B704737
:100D3000AC3C060880B582B000AF786039607B6853
:100D40001846FFF7E7FF054A7B681A607B683A6838
:100D50005A607B6818460837BD4680BD903C06083F
:100D600080B586B000AFF860B9607A60FB685B68F8
:100D70001B680A2118460BF06FFB0346002B14BFBB
:100D800001230023DBB2002B04D0114B9B680133FD
:100D90000F4A93607B689BB21946B8680FF008FE53
:100DA0000346FB75FB7D002B08D0FB685B681B6866
:100DB00018460BF0A3FB4FF0FF3305E0044B5B68D4
:100DC0000133034A5360002318461837BD4680BDDF
:100DD000A40F002080B582B000AF786039607B68D6
:100DE0001846FFF787FF054A7B681A607B683A68F8
:100DF0005A607B6818460837BD4680BD803C0608AF
:100E000080B584B000AFF860B9607A603B60FB6881
:100E10005868FB685B681B681B687A68B968984704
:100E20000346002B14BF01230023DBB2002B02D0AA
:100E30004FF0FF3300E0002318461037BD4680BD59
:100E400080B483B000AF78604FF0FF3318460C37A2
:100E5000BD465DF8047B704780B584B000AF786014
:100E6000114B1B684FF0FF3118460BF0F5FAF86094
:100E7000FB68002BF4D10D4B1B6801330B4A136048
:100E80000B4B1B7A002BEBD0094B00221A72084B3C
:100E90001B68074A5168074A1846FFF7FBFD0648DA
:100EA0000FF0AAFCDCE700BF0C110020A40F00200B
:100EB00004040020B80F00208C22002080B582B0EE
:100EC00000AF78603960094A7B681360074A3B6865
:100ED0005360064B01221A72054B1B6818460BF033
:100EE0000DFB00BF0837BD4680BD00BF04040020D5
:100EF0000C11002080B500AF044A002104480BF01B
:100F000075F90346034A136000BF80BD543C0608D0
:100F1000590E0008A00F002080B582B000AF7860A5
:100F200039607B68012B0CD13B684FF6FF7293420E
:100F300007D106490648FFF7FDFE05490548FFF7BA
:100F400049FF00BF0837BD4680BD00BF101100201B
:100F5000B00F0020B80F002080B500AF4FF6FF7132
:100F60000120FFF7D9FF80BD80B500AF184B1B688B
:100F7000002B01D059F04CFB4FF46133002215498E
:100F8000154840F057FD154840F012FD134B4FF443
:100F9000F0721A80114B4FF4F0725A800F4A137C92
:100FA00043F0020313740D4B0D4A5A610B4B0D4A6B
:100FB0009A610A4B0C4ADA62084B074ADA60074822
:100FC00040F054FD0346024A136000BF80BD00BFDD
:100FD00010100020000000C018100020C00F0020DA
:100FE00055100008ED0F00089911000880B483B077
:100FF00000AF786039603B68B3F9023023F0070333
:101000001AB23B685A803B68B3F9003023F00703FB
:101010001AB23B681A803B68B3F906309BB223F0E2
:1010200007039BB207339BB21AB23B68DA803B6876
:10103000B3F904309BB223F007039BB207339BB292
:101040001AB23B689A8000BF0C37BD465DF8047B3E
:101050007047000090B58FB002AFF860B9607A6059
:10106000BB68B3F90030FB62BB68B3F90430BB6204
:10107000BB68B3F902307B62BB68B3F906303B62F0
:10108000BB6A002B79DB3B6A002B78DBFB6AB3F58C
:10109000F07F76DA7B6AB3F5F07F74DA3C4A7B68DE
:1010A00013603C4B0022C3F88420BFF34F8F00BF76
:1010B000384BD3F88030FB61FB695B0BC3F30E0345
:1010C000BB61FB69DB08C3F309037B61BB695A01A0
:1010D00043F6E07313407A6992072E491343C1F82F
:1010E00074327B695A1E7A61002BEFD1BB695A1E9C
:1010F000BA61002BE5D1BFF34F8F00BFBFF36F8FF5
:1011000000BF00BFBFF34F8F00BFBFF36F8F00BFA3
:10111000204B0022C3F85022BFF34F8F00BFBFF314
:101120006F8F00BF00BFBB68B3F9003098B2BB68D7
:10113000B3F9023099B2BB68B3F904309AB2BB6814
:10114000B3F900309BB2D31A9BB201339CB2BB6897
:10115000B3F906309AB2BB68B3F902309BB2D31A26
:101160009BB201339AB27B6800931346224600F08B
:1011700089FBF86840F014FE06E000BF04E000BF01
:1011800002E000BF00E000BF3437BD4690BD00BFA5
:101190001410002000ED00E080B487B000AF78604C
:1011A0001B4B0022C3F88420BFF34F8F00BF184BA6
:1011B000D3F880307B617B695B0BC3F30E033B612B
:1011C0007B69DB08C3F30903FB603B695A0143F603
:1011D000E0731340FA6892070D491343C1F8743263
:1011E000FB685A1EFA60002BEFD13B695A1E3A6128
:1011F000002BE5D1BFF34F8F00BFBFF36F8F00BF50
:1012000000BF00BF1C37BD465DF8047B704700BFC0
:1012100000ED00E080B400AF00BFBD465DF8047B88
:101220007047000080B582B000AF0346FB8000220B
:1012300008210F4802F066FCFB88FB80B91D4FF0C7
:10124000FF3301220B4807F01BF80346002B14BFA5
:1012500001230023DBB2002B01D001F051FB01225E
:101260000821034802F04EFC00BF0837BD4680BD90
:10127000001802580013002080B582B000AF03466A
:10128000FB8000220821114802F03CFCFB8843F45B
:1012900080739BB2FB80B91D4FF0FF3301220C48D5
:1012A00006F0EEFF0346002B14BF01230023DBB240
:1012B000002B01D001F024FB01220821034802F099
:1012C00021FC00BF0837BD4680BD00BF0018025892
:1012D0000013002080B500AF01224FF48071FD485B
:1012E00002F010FC0A2001F0BFFF00224FF48071D1
:1012F000F84802F007FC142001F0B6FF01224FF479
:101300008071F44802F0FEFB782001F0ADFFFF2071
:10131000FFF788FF7720FFF7AFFF0120FFF7ACFF53
:101320000020FFF7A9FF0020FFF7A6FF1320FFF71B
:10133000A3FFEF20FFF776FF0820FFF79DFFFF20B8
:10134000FFF770FF7720FFF797FF0120FFF794FF6B
:101350000020FFF791FF0020FFF78EFF1020FFF71E
:101360008BFFC020FFF75EFFE920FFF785FF03201A
:10137000FFF782FFC120FFF755FF1020FFF77CFF2A
:101380000C20FFF779FFC220FFF74CFF0120FFF789
:1013900073FF0A20FFF770FFC320FFF743FF02200F
:1013A000FFF76AFFCC20FFF73DFF1020FFF764FF37
:1013B000CD20FFF737FF0820FFF75EFFB020FFF7D3
:1013C00031FF0D20FFF758FF1420FFF755FF9C2039
:1013D000FFF752FF0B20FFF74FFF1020FFF74CFFE6
:1013E0000620FFF749FF0820FFF746FF0920FFF717
:1013F00043FF0820FFF740FF2220FFF73DFF0220B8
:10140000FFF73AFF4F20FFF737FF0E20FFF734FFBB
:101410006620FFF731FF2D20FFF72EFF1F20FFF77B
:101420002BFFB120FFF7FEFE0020FFF725FF17205E
:10143000FFF722FF9E20FFF71FFF0F20FFF71CFF83
:101440001120FFF719FF0620FFF716FF0C20FFF70A
:1014500013FF0820FFF710FF0820FFF70DFF2620DD
:10146000FFF70AFF0420FFF707FF5120FFF704FFF3
:101470001020FFF701FF6A20FFF7FEFE3320FFF781
:10148000FBFE1B20FFF7F8FEFF20FFF7CBFE7720C7
:10149000FFF7F2FE0120FFF7EFFE0020FFF7ECFE62
:1014A0000020FFF7E9FE1120FFF7E6FEB020FFF76E
:1014B000B9FE3020FFF7E0FEB120FFF7B3FE472072
:1014C000FFF7DAFEB220FFF7ADFE8420FFF7D4FE6F
:1014D000B320FFF7A7FE8020FFF7CEFEB520FFF771
:1014E000A1FE4E20FFF7C8FEB720FFF79BFE852028
:1014F000FFF7C2FEB820FFF795FE2020FFF7BCFEE5
:10150000C120FFF78FFE7820FFF7B6FEC220FFF75D
:1015100089FE7820FFF7B0FED020FFF783FE8820F9
:10152000FFF7AAFEE020FFF77DFE0020FFF7A4FEF4
:101530000020FFF7A1FE0220FFF79EFEE120FFF74B
:1015400071FE0620FFF798FEA020FFF795FE082009
:10155000FFF792FEA020FFF78FFE0520FFF78CFE1D
:10156000A020FFF789FE0720FFF786FEA020FFF7E7
:1015700083FE0020FFF780FE4420FFF77DFE44201D
:10158000FFF77AFEE220FFF74DFE3020FFF774FEF2
:101590003020FFF771FE4420FFF76EFE4420FFF776
:1015A0006BFE6E20FFF768FEA020FFF765FE0020AF
:1015B000FFF762FE0020FFF75FFE6E20FFF75CFE84
:1015C000A020FFF759FE0020FFF756FE0020FFF78E
:1015D00053FEE320FFF726FE0020FFF74DFE00201C
:1015E000FFF74AFE3320FFF747FE3320FFF744FEA4
:1015F000E420FFF717FE4420FFF73EFE4420FFF7EC
:101600003BFEE520FFF70EFE0D20FFF735FE6920BB
:10161000FFF732FE0A20FFF72FFEA020FFF72CFE77
:101620000F20FFF729FE6B20FFF726FE0A20FFF7A9
:1016300023FEA020FFF720FE0920FFF71DFE6520F6
:10164000FFF71AFE0A20FFF717FEA020FFF714FE8F
:101650000B20FFF711FE6720FFF70EFE0A20FFF7B1
:101660000BFEA020FFF708FEE620FFF7DBFD0020C1
:10167000FFF702FE0020FFF7FFFD3320FFF7FCFD20
:101680003320FFF7F9FDE720FFF7CCFD4420FFF7FB
:10169000F3FD4420FFF7F0FDE820FFF7C3FD0C2029
:1016A000FFF7EAFD6820FFF7E7FD0A20FFF7E4FDFA
:1016B000A020FFF7E1FD0E20FFF7DEFD6A20FFF717
:1016C000DBFD0A20FFF7D8FDA020FFF7D5FD08209D
:1016D00002E000BF00200258FFF7CEFD6420FFF7B4
:1016E000CBFD0A20FFF7C8FDA020FFF7C5FD0A20AB
:1016F000FFF7C2FD6620FFF7BFFD0A20FFF7BCFD24
:10170000A020FFF7B9FDE920FFF78CFD3620FFF799
:10171000B3FD0020FFF7B0FDEB20FFF783FD0020B5
:10172000FFF7AAFD0120FFF7A7FDE420FFF7A4FDC6
:10173000E420FFF7A1FD4420FFF79EFD8820FFF77E
:101740009BFD4020FFF798FDED20FFF76BFDFF208C
:10175000FFF792FD4520FFF78FFD6720FFF78CFD17
:10176000FA20FFF789FD0120FFF786FD2B20FFF708
:1017700083FDCF20FFF780FDFF20FFF77DFDFF20D9
:10178000FFF77AFDFC20FFF777FDB220FFF774FD2D
:101790001020FFF771FDAF20FFF76EFD7620FFF7F9
:1017A0006BFD5420FFF768FDFF20FFF765FDEF207C
:1017B000FFF738FD1020FFF75FFD0D20FFF75CFD00
:1017C0000420FFF759FD0820FFF756FD3F20FFF7E3
:1017D00053FD1F20FFF750FD3A20FFF723FD662041
:1017E000FFF74AFD1120FFF71DFD782001F03CFDB9
:1017F0002920FFF717FD3520FFF714FD0020FFF724
:101800003BFD4FF07F4000F003F800BF80BD00BFFC
:1018100080B483B000AF7860184B1B68174A23F080
:1018200001031360154B4FF440321A60134B022230
:101830005A63124B00221A64104B4FF01052DA63B5
:101840000E4B0F4A5A640D4A7B6893630B4B1B681F
:101850000A4A43F001031360084B1B6803F00103BD
:10186000002B14BF01230023DBB2002B00D0F3E7D1
:1018700000BF0C37BD465DF8047B70470010005276
:10188000E001E00190B482B000AF04460846114682
:101890001A462346FB800346BB800B467B801346DB
:1018A0003B80204B1B681F4A23F0010313601D4B34
:1018B00000221A601B4B0222DA611A4B00221A61C5
:1018C0007B88C3F5F072174B1A64164A3B69D360E4
:1018D000BA8813461B019B1A5B011A46FB88134406
:1018E00003F190535A000F4BDA637B881A043B884C
:1018F0001A430C4B5A640B4B1B680A4A43F0010312
:101900001360084B1B6803F00103002B14BF012375
:101910000023DBB2002B00D0F3E700BF0837BD4641
:1019200090BC70470010005280B588B000AF78605E
:1019300039600023FB610123FB6010233B6101231D
:101940007B610023BB6107F10C034FF48052194601
:10195000786806F013FB012001F086FC0223FB608F
:1019600010233B6101237B610023BB6107F10C0362
:101970004FF480521946786806F000FB0323FB60A1
:1019800010233B6108237B610023BB6107F10C033B
:101990004FF480521946786806F0F0FA40F231238D
:1019A000FB610423FB6010233B6101237B61FB6926
:1019B000BB6107F10C034FF480521946786806F0BA
:1019C000DDFA3968786806F00EFB00BF2037BD46A7
:1019D00080BD80B588B000AF786039600023FB61BE
:1019E0000123FB6008233B6101237B610023BB6172
:1019F00007F10C034FF480521946786806F0BEFADE
:101A0000012001F031FC0223FB6008233B6101232C
:101A10007B610023BB6107F10C034FF48052194630
:101A2000786806F0ABFA0323FB6008233B610823C8
:101A30007B610023BB6107F10C034FF48052194610
:101A4000786806F09BFA40F23123FB610423FB60C7
:101A500008233B6101237B61FB69BB6107F10C0338
:101A60004FF480521946786806F088FA3968786829
:101A700006F0B9FA00BF2037BD4680BD80B58CB0F6
:101A800002AF786000237B6200237B8464485AF0B5
:101A900075F864485AF072F801F0DAFBF861002337
:101AA0007B627B6AB3F1807F0AD27B6A5A007B68D3
:101AB00013447A6A92B21A807B6A01337B62F0E740
:101AC00001F0C6FBB861BA69FB69D31A7B617B6917
:101AD00007EE903AB8EE677ADFED536AC6EE877A82
:101AE0009FED527A67EE877AC7ED047AD7ED047AD4
:101AF000B7EEE77A8DED007B7A6920214C4859F0EA
:101B0000B7FF01F0A5FBF86100237B627B6AB3F1AC
:101B1000807F09D27B6A5A007B6813441B887B84D0
:101B20007B6A01337B62F1E701F092FBB861BA692D
:101B3000FB69D31A7B617B6907EE903AB8EE677A4E
:101B4000DFED396AC6EE877A9FED387A67EE877ADD
:101B5000C7ED047AD7ED047AB7EEE77A8DED007B16
:101B60007A692021334859F083FF2D485AF006F84E
:101B700031485AF003F800237B627B6AB3F1807F1F
:101B800013D27B6A5A007B6813441B887B847B6A70
:101B90009BB27A8C9A4204D0284859F0EFFF012377
:101BA0003AE07B6A01337B62E7E7254859F0E6FFBC
:101BB00000237B627B6AFE2B09D87A687B6A134418
:101BC0007A6AD2B21A707B6A01337B62F2E71D48EF
:101BD00059F0D4FF00237B627B6AFE2B15D87A680C
:101BE0007B6A13441B78FB737B6ADBB2FA7B9A42F5
:101BF00007D0154859F0C2FF144859F0BFFF012320
:101C00000AE07B6A01337B62E6E7114859F0B6FFD0
:101C1000104859F0B3FF002318462837BD4680BD51
:101C200060F80508C8F805080000004200007A4482
:101C3000E0F8050840F9050890F90508A8F9050835
:101C4000C4F9050808FA050834FA050860FA050819
:101C500080FA0508A0FA050880B500AF194B1A4AAA
:101C60001A60184B00225A60164B02229A60154BDC
:101C70000022DA60134B00225A64124B02229A644B
:101C8000104B0022DA640F4B00221A650D4B002224
:101C90005A650C4B00229A650A4B0022DA65094806
:101CA00001F06EFC0346002B01D000F029FE01215B
:101CB000044801F0C9FC0346002B01D000F020FECF
:101CC00000BF80BD341000200010005280B485B0E9
:101CD00000AF78607B681B680B4A93420ED10B4BB8
:101CE000D3F8D430094A43F01003C2F8D430074B7C
:101CF000D3F8D43003F01003FB60FB6800BF143747
:101D0000BD465DF8047B7047001000520044025845
:101D100080B588B000AF3B1D00221A605A609A60FF
:101D2000DA601A615A619A61434B444A1A60424B25
:101D300000225A60404B01229A603F4B0822DA6031
:101D40003D4B10221A613C4B40225A613A4B4FF4F2
:101D5000C0729A61384B0022DA61374B4FF400624F
:101D60001A62354B4FF480525A62334B4FF4005293
:101D70009A6202237B600723BB600423FB60062377
:101D80003B6102237B610223BB610223FB613B1D9C
:101D90001946294806F0B6F80346002B01D000F09A
:101DA000AFFD274B254A1A60254B01225A60244B70
:101DB00001229A60224B0822DA60214B10221A611C
:101DC0001F4B40225A611E4B4FF4C0729A611C4B4C
:101DD0000022DA611A4B4FF400621A62184B4FF47A
:101DE00080525A62164B4FF400529A6202237B6073
:101DF0000723BB600423FB6006233B6102237B6156
:101E00000223BB610223FB613B1D19460C4806F00F
:101E100079F80346002B01D000F072FD40F2FA2160
:101E20000548FFF781FD40F2FA210548FFF7D1FD93
:101E300000BF2037BD4680BD9C10002040410052AD
:101E4000D010002080B5B8B000AF07F1CC0300225D
:101E50001A605A609A60DA601A61514B1B68002B55
:101E600040F099804E4B01221A6007F10803C0220E
:101E70000021184658F070FD4FF080724FF00003BB
:101E8000C7E9022300233B6507F10803184604F065
:101E9000CBFC0346002B01D000F032FD414BD3F8C0
:101EA000D430404A43F48053C2F8D4303D4BD3F889
:101EB000D43003F480537B607B684FF68373C7F89C
:101EC000CC300223C7F8D0300023C7F8D430032326
:101ED000C7F8D8300C23C7F8DC3007F1CC0319461B
:101EE000314801F05FFC48F23713C7F8CC300223C9
:101EF000C7F8D0300023C7F8D4300323C7F8D83050
:101F00000C23C7F8DC3007F1CC031946274801F051
:101F100049FC4CF20373C7F8CC300223C7F8D03029
:101F20000023C7F8D4300323C7F8D8300C23C7F8F0
:101F3000DC3007F1CC0319461D4801F033FC4FF6A5
:101F40003F03C7F8CC300223C7F8D0300023C7F8CE
:101F5000D4300323C7F8D8300C23C7F8DC3007F19E
:101F6000CC031946134801F01DFCEC23C7F8CC3014
:101F70000223C7F8D0300023C7F8D4300323C7F8B2
:101F8000D8300C23C7F8DC3007F1CC0319460A48D7
:101F900001F008FC00E000BFE037BD4680BD00BF97
:101FA0000411002000440258001002580018025882
:101FB000000C025800140258001C025880B582B070
:101FC00000AF7860FFF73EFF00BF0837BD4680BD19
:101FD00090B597B000AF294B07F148040FCB84E8C8
:101FE0000F0007F148031A46002101200AF0ABF95F
:101FF0000346234A1360234B07F138040FCB84E8D0
:102000000F0007F138031A46002101200AF09BF95E
:1020100003461D4A13601D4B07F128040FCB84E8CB
:102020000F0007F128031A46012101200AF08BF95D
:102030000346174A13603B1D24220021184658F01E
:102040008BFC144B7B604FF40073BB612023FB615E
:102050003B1D1A46002110480AF0C8F803460F4AF3
:1020600013600F4A00210F480AF0C0F803460E4AD9
:10207000136000BF5C37BD4690BD00BFE0FA0508A5
:1020800008110020F0FA05080C11002000FB0508DB
:1020900010110020D4FA0508310C0008980F002018
:1020A000B43C0608AD2000081411002080B582B0B1
:1020B00000AF78600DF02CFB0DF03CFC044B1B686E
:1020C00018460BF011FD00BF0837BD4680BD00BFAC
:1020D0001411002080B58EB000AF07F12403002258
:1020E0001A605A609A60DA601A61594BD3F8E0308E
:1020F000574A43F01003C2F8E030554BD3F8E030B4
:1021000003F010033B623B6A514BD3F8E030504A76
:1021100043F00103C2F8E0304D4BD3F8E03003F058
:102120000103FB61FB694A4BD3F8E030484A43F0B6
:102130000203C2F8E030464BD3F8E03003F002036C
:10214000BB61BB69424BD3F8E030414A43F04003E6
:10215000C2F8E0303E4BD3F8E03003F040037B613F
:102160007B693B4BD3F8E030394A43F00803C2F8AF
:10217000E030374BD3F8E03003F008033B613B69B4
:10218000334BD3F8E030324A43F48073C2F8E03086
:102190002F4BD3F8E03003F48073FB60FB682C4BCB
:1021A000D3F8E0302A4A43F08003C2F8E030284BED
:1021B000D3F8E03003F08003BB60BB68244BD3F856
:1021C000E030234A43F00403C2F8E030204BD3F858
:1021D000E03003F004037B607B681D4BD3F8E030F4
:1021E0001B4A43F02003C2F8E030194BD3F8E0302B
:1021F00003F020033B603B6800224FF480711548D8
:1022000001F080FC00220821134801F07BFC4FF410
:1022100080737B621123BB620023FB6200233B635C
:1022200007F1240319460B4801F0BCFA08237B622E
:102230000123BB620023FB6200233B6307F12403FD
:102240001946054801F0AEFA00BF3837BD4680BDDB
:1022500000440258002002580018025880B58EB081
:1022600000AF3B1D34220021184658F075FB3A4B55
:102270003A4A1A60384B00225A60374B00229A6063
:10228000354B0022DA60344B00221A61324B0922AE
:102290005A61314B05229A612F4B1D22DA612E4B78
:1022A0000F221A622C4B40F2FD125A622A4B40F266
:1022B000EF129A62284B40F20722DA62264B40F274
:1022C000F9121A63244B002283F83420224B002297
:1022D00083F83520204B002283F836201E4801F079
:1022E0002BFC0346002B01D000F00AFB00237B608F
:1022F0004FF4F073BB600023FB604FF4F0733B615D
:1023000002237B61FF23BB610023FB614FF48063E9
:102310003B6205237B624FF01053BB624FF4F073B6
:10232000FB624FF4F0733B63002387F834300023E3
:1023300087F83530002387F836303B1D00221946D8
:10234000054801F0C9FC0346002B01D000F0D8FA83
:1023500000BF3837BD4680BD081200200010005075
:1023600080B58CB000AF786007F11C0300221A60C2
:102370005A609A60DA601A617B681B684B4A934224
:1023800040F08F804A4BD3F8E430494A43F00803C9
:10239000C2F8E430464BD3F8E43003F00803BB61E5
:1023A000BB69434BD3F8E030414A43F04003C2F8E5
:1023B000E0303F4BD3F8E03003F040037B617B69B2
:1023C0003B4BD3F8E0303A4A43F48073C2F8E03034
:1023D000374BD3F8E03003F480733B613B69344BF7
:1023E000D3F8E030324A43F08003C2F8E030304B9B
:1023F000D3F8E03003F08003FB60FB682C4BD3F88C
:10240000E0302B4A43F02003C2F8E030284BD3F8E9
:10241000E03003F02003BB60BB684FF40C63FB614A
:1024200002233B6200237B620023BB620E23FB621C
:1024300007F11C0319461F4801F0B4F940F2F76395
:10244000FB6102233B6200237B620023BB620E23FD
:10245000FB6207F11C031946174801F0A3F94FF47A
:102460007E43FB6102233B6200237B620023BB624D
:102470000E23FB6207F11C031946104801F092F984
:102480004FF48063FB6102233B6200237B620023E5
:10249000BB620E23FB6207F11C031946084801F0DA
:1024A00081F900BF3037BD4680BD00BF001000502D
:1024B000004402580018025800200258001C02581C
:1024C0000014025880B586B000AF4FF000637B6106
:1024D0004FF000533B614FF480627969386958F0DE
:1024E00013FA444B4FF000529A6000F051F9414BFF
:1024F0005B6903F40033002B1BD1BFF34F8F00BF88
:10250000BFF36F8F00BF3B4B0022C3F85022BFF3D5
:102510004F8F00BFBFF36F8F00BF364B5B69354AEB
:1025200043F400335361BFF34F8F00BFBFF36F8F8E
:1025300000E000BF2F4B5B6903F48033002B38D1E0
:102540002C4B0022C3F88420BFF34F8F00BF294BD0
:10255000D3F88030FB60FB685B0BC3F30E03BB60FA
:10256000FB68DB08C3F309037B60BB685A0143F6D1
:10257000E07313407A6892071E491343C1F8603232
:102580007B685A1E7A60002BEFD1BB685A1EBA6076
:10259000002BE5D1BFF34F8F00BF164B5B69154A87
:1025A00043F480335361BFF34F8F00BFBFF36F8F8E
:1025B00000E000BF00F0FCFD0EF032FA00F01CF865
:1025C00000F096F8FFF786FD00F0A0F900F050FD4E
:1025D00000F000FDFFF79CFBFFF740FE00F07CFAE7
:1025E000FFF73AFB09F0B8FDFFF7F2FC09F0D8FD60
:1025F000FEE700BF00ED00E080B59CB000AF07F142
:1026000024034C220021184658F0A6F93B1D202235
:102610000021184658F0A0F9022002F0EFFF002335
:102620003B60314BDB6A304A23F00103D3622E4B0F
:10263000DB6A03F001033B602C4B9B692B4A43F49C
:1026400040439361294B9B6903F440433B603B68E3
:1026500000BF264B9B6903F40053B3F5005FF8D12C
:1026600021237B624FF4A023BB620123FB6302237F
:10267000BB640223FB6405233B65A0237B65022327
:10268000BB650223FB6502233B6608237B660023B0
:10269000BB660023FB6607F12403184603F0B2F87B
:1026A0000346002B01D000F02BF93F237B6003236E
:1026B000BB600023FB6008233B6140237B61402318
:1026C000BB614FF48063FB6140233B623B1D0221F1
:1026D000184603F0F1FC0346002B01D000F010F97E
:1026E00000BF7037BD4680BD000400580048025846
:1026F00080B5B0B000AF3B46C0220021184658F06C
:102700002BF9124A4FF00003C7E900231923BB62DB
:10271000F023FB6202233B6305237B630F23BB6330
:102720000023FB6300233B6400237B644FF40053CE
:102730003B663B46184604F077F80346002B01D071
:1027400000F0DEF800BFC037BD4680BD001000209D
:1027500080B400AF034B00221A6000BFBD465DF895
:10276000047B7047B012002080B400AF034B1B689D
:102770001846BD465DF8047B704700BFB0120020CC
:1027800080B483B000AF7860396072B600BFFEE7F6
:1027900080B584B000AF3B4600221A605A609A6050
:1027A000DA6000F071FE01233B7000237B704FF074
:1027B00010537B6012233B7200237B720123BB7298
:1027C0000323FB7200233B7300237B730123BB7342
:1027D0000123FB733B46184600F08EFE01237B70FD
:1027E0004FF0C0437B601B233B720023BB7200236E
:1027F000BB733B46184600F07FFE02237B704FF010
:1028000040537B6010233B720123BB730023FB7397
:102810003B46184600F070FE03237B70264B7B601E
:102820003B46184600F068FE04237B70234B7B6018
:102830000E233B723B46184600F05EFE05237B707C
:102840004FF060537B600F233B723B46184600F00D
:1028500053FE06237B704FF010437B6018233B72BE
:102860000123BB720123FB733B46184600F044FE74
:1028700007237B704FF040437B600023BB72002333
:10288000FB733B46184600F037FE08237B704FF081
:1028900050437B603B46184600F02EFE4FF08043CD
:1028A0007B603B46184600F027FE042000F004FE43
:1028B00000BF1037BD4680BD00000230000004306C
:1028C00080B582B000AF78607B681B68094A93428C
:1028D00004D1094B1B680133074A13607B681B68EE
:1028E000064A934201D100F09FFC00BF0837BD4665
:1028F00080BD00BF00140040B01200200010004056
:1029000080B400AF72B600BFFEE7000080B500AF34
:10291000124B134A1A60114B01225A600F4B2022AE
:102920009A600E4B1022DA600C4B00221A610B4B9E
:102930004FF480725A61094B00229A61074B0022C2
:10294000DA61064B00221A62044802F0A1FE034637
:10295000002B01D0FFF7D4FF00BF80BDB4120020D0
:102960000050005280B5BCB000AF786007F1DC03C6
:1029700000221A605A609A60DA601A6107F118033F
:10298000C0220021184657F0E7FF7B681B684E4ABB
:10299000934240F094804FF000724FF00003C7E97B
:1029A000062300237B6607F11803184603F03CFF5B
:1029B0000346002B01D0FFF7A3FF444BD3F8D430DC
:1029C000424A43F48043C2F8D430404BD3F8D43069
:1029D00003F480437B617B693C4BD3F8E0303B4A96
:1029E00043F00203C2F8E030384BD3F8E03003F094
:1029F00002033B613B69354BD3F8E030334A43F087
:102A00002003C2F8E030314BD3F8E03003F020036C
:102A1000FB60FB684023C7F8DC300223C7F8E030D6
:102A20000023C7F8E4300323C7F8E8300A23C7F8C7
:102A3000EC3007F1DC031946254800F0B3FEC02353
:102A4000C7F8DC300223C7F8E0300023C7F8E430D1
:102A50000323C7F8E8300923C7F8EC3007F1DC039B
:102A600019461C4800F09EFE4FF44073C7F8DC3056
:102A70000223C7F8E0300023C7F8E4300323C7F887
:102A8000E8300A23C7F8EC3007F1DC031946114897
:102A900000F088FE0423C7F8DC300223C7F8E030DA
:102AA0000023C7F8E4300323C7F8E8300923C7F848
:102AB000EC3007F1DC031946054800F073FE00BF57
:102AC000F037BD4680BD00BF0050005200440258A0
:102AD000000402580014025880B500AF284B294A60
:102AE0001A60274B4FF480025A60254B4FF4003296
:102AF0009A60234B0822DA60214B4FF000721A6172
:102B00001F4B00225A611E4B4FF080629A611C4B92
:102B10004FF04052DA611A4B00221A62184B002221
:102B20005A62174B00229A62154B0022DA62144B4C
:102B30004FF080425A63124B00229A63104B0022DE
:102B4000DA630F4B00221A640D4B00225A640C4BBF
:102B500000229A640A4B0022DA64094B00221A65AB
:102B6000074B00225A65064B00229A65044805F07F
:102B700063FA0346002B01D0FFF7C2FE00BF80BD01
:102B8000001300200038004080B58AB000AF7860A4
:102B900007F1140300221A605A609A60DA601A6121
:102BA0007B681B68294A93424CD1294BD3F8E83003
:102BB000274A43F48043C2F8E830254BD3F8E83085
:102BC00003F480433B613B69214BD3F8E030204A5A
:102BD00043F48073C2F8E0301D4BD3F8E03003F4C7
:102BE0008073FB60FB681A4BD3F8E030184A43F05F
:102BF0000803C2F8E030164BD3F8E03003F00803C6
:102C0000BB60BB6808237B610223BB610023FB61BF
:102C100000233B6205237B6207F1140319460D482C
:102C200000F0C0FD08237B610223BB610023FB6130
:102C300000233B6205237B6207F114031946064813
:102C400000F0B0FD00BF2837BD4680BD0038004011
:102C50000044025800200258000C025880B582B08F
:102C600000AF0C4BD3F8F4300A4A43F00203C2F829
:102C7000F430084BD3F8F43003F002037B607B6838
:102C800000220F216FF0010000F0D6FB00BF0837D3
:102C9000BD4680BD0044025880B590B000AF78605A
:102CA0007B680F2B27D800227968362000F0C4FB00
:102CB000362000F0DBFB294A7B681360284BD3F8F1
:102CC000E830274A43F01003C2F8E830244BD3F829
:102CD000E83003F01003FB60FB6807F1100207F116
:102CE00014031146184603F05DFDBB6ABB63BB6B62
:102CF000002B06D101E001232BE003F03DFDF8633A
:102D000004E003F039FD03465B00FB63FB6B154AEF
:102D1000A2FB03239B0C013B7B63134B134A1A60FA
:102D2000114B40F2E732DA600F4A7B6B53600E4B77
:102D300000221A610C4B00229A600B4805F085FDB9
:102D40000346002B04D1084805F0D6FD034600E0F9
:102D5000012318464037BD4680BD00BF1C0400203B
:102D60000044025883DE1B438813002000100040FB
:102D700080B400AFFEE780B400AFFEE780B400AFE0
:102D8000FEE780B400AFFEE780B400AFFEE780B49A
:102D900000AF00BFBD465DF8047B704780B500AF53
:102DA000034805F021FE01203FF04AF800BF80BD36
:102DB0008813002080B500AF024805F015FE00BF63
:102DC00080BD00BF2014002080B500AF024801F094
:102DD000B4FA00BF80BD00BF8035002080B400AFD2
:102DE00001231846BD465DF8047B704780B582B06C
:102DF00000AF7860396057F031FC034616221A6044
:102E00004FF0FF3318460837BD4680BD80B582B00D
:102E100000AF78604FF0FF317868FFF7E7FFFEE71B
:102E200080B586B000AFF860B9607A6000237B613E
:102E30000AE0AFF300800146BB685A1CBA60CAB210
:102E40001A707B6901337B617A697B689A42F0DB97
:102E50007B6818461837BD4680BD80B483B000AF8C
:102E600078604FF0FF3318460C37BD465DF8047BA1
:102E7000704780B483B000AF786039603B684FF42E
:102E800000525A60002318460C37BD465DF8047B9B
:102E9000704780B483B000AF7860012318460C37C8
:102EA000BD465DF8047B704780B485B000AFF86024
:102EB000B9607A60002318461437BD465DF8047B7C
:102EC0007047000080B400AF374BD3F88830364AE3
:102ED00043F47003C2F88830344B1B6803F00F03CF
:102EE000062B07D8314B1B6823F00F032F4A43F002
:102EF000070313602E4B1B682D4A43F00103136038
:102F00002B4B00221A612A4B1A682949294B13407E
:102F10000B60264B1B6803F00803002B07D0234BE4
:102F20001B6823F00F03214A43F007031360204B73
:102F300000229A611E4B0022DA611D4B00221A62A8
:102F40001B4B1D4A9A621A4B1C4ADA62184B1C4AE8
:102F50001A63174B00225A63154B194A9A63144B94
:102F60000022DA63124B164A1A64114B00225A648B
:102F70000F4B1B680E4A23F4802313600C4B002276
:102F80001A66104B1A68104B1340B3F1005F02D25F
:102F90000E4B01221A600E4B43F2D2021A6000BFA0
:102FA000BD465DF8047B704700ED00E00020005254
:102FB000004402587FEDF6EA000202020000FF0121
:102FC000800201010010005C0000FFFF0881005139
:102FD0000040005280B588B000AF07F11003002216
:102FE0001A605A609A60DA603B1D00221A605A60CB
:102FF0009A601D4B1D4A1A601B4B00225A601A4BE7
:1030000000229A60184B4FF6FF72DA60164B0022CE
:103010001A61154B00229A61134805F016FC03460D
:10302000002B01D0FFF76CFC4FF480533B6107F19C
:10303000100319460C4805F0F7FD0346002B01D09C
:10304000FFF75EFC00237B600023FB603B1D1946FD
:10305000054806F041F80346002B01D0FFF750FC6D
:1030600000BF2037BD4680BDD413002000040040BF
:1030700080B584B000AF3B1D00221A605A609A6090
:10308000144B154A1A60134BC7225A60114B002289
:103090009A60104B3122DA600E4B00229A610D4883
:1030A00005F0D3FB0346002B01D0FFF729FC0023DA
:1030B0007B600023FB603B1D1946064806F00CF8B8
:1030C0000346002B01D0FFF71BFC00BF1037BD46A5
:1030D00080BD00BF201400200014004080B584B0E3
:1030E00000AF78607B681B68194A93420FD1194B77
:1030F000D3F8E830174A43F00203C2F8E830154B22
:10310000D3F8E83003F00203FB60FB681BE07B6848
:103110001B68114A934216D10E4BD3F8E8300D4A82
:1031200043F02003C2F8E8300A4BD3F8E83003F04C
:103130002003BB60BB6800220521372000F07CF92A
:10314000372000F093F900BF1037BD4680BD00BFA7
:10315000000400400044025800140040DFF834D05E
:10316000FFF7B0FE0C480D490D4A002302E0D45889
:10317000C4500433C4188C42F9D30A4A0A4C0023C1
:1031800001E013600432A242FBD357F075FBFFF756
:1031900099F970470000022000040020780F0020F9
:1031A00044DC0708780F002050070120FEE70000EC
:1031B00080B582B000AF032000F033F903F032F99C
:1031C0000246154B9B691B0A03F00F031349CB5CA6
:1031D00003F01F0322FA03F37B600F4B9B6903F09C
:1031E0000F030E4AD35C03F01F037A6822FA03F33D
:1031F0000B4A13600B4A7B6813600F20FFF74CFDEE
:103200000346002B01D0012302E0FFF727FD002336
:1032100018460837BD4680BD00440258D83C060811
:10322000180400201404002080B400AF064B1B7863
:103230001A46064B1B681344044A136000BFBD4680
:103240005DF8047B704700BF200400206C14002050
:1032500080B400AF034B1B681846BD465DF8047B85
:10326000704700BF6C14002080B584B000AF786058
:10327000FFF7EEFFB8607B68FB60FB68B3F1FF3FD0
:1032800005D00A4B1B781A46FB681344FB6000BF4D
:10329000FFF7DEFF0246BB68D31AFA689A42F7D8F6
:1032A00000BF00BF1037BD4680BD00BF2004002016
:1032B00080B400AF034B1B681B0C1846BD465DF87D
:1032C000047B70470010005C80B485B000AF78606C
:1032D0007B6803F00703FB600B4BDB68BB60BA68DD
:1032E0004FF6FF031340BB60FB681A02BB681A432A
:1032F000064B1343BB60044ABB68D36000BF14375E
:10330000BD465DF8047B704700ED00E00000FA0563
:1033100080B400AF044BDB681B0A03F007031846B8
:10332000BD465DF8047B704700ED00E080B483B0DB
:1033300000AF0346FB80B7F90630002B0BDBFB88A0
:1033400003F01F020749B7F906305B09012000FAB4
:1033500002F241F8232000BF0C37BD465DF8047B24
:10336000704700BF00E100E080B483B000AF0346C7
:103370003960FB80B7F90630002B0ADB3B68DAB214
:103380000C49B7F906301201D2B20B4483F800237E
:103390000AE03B68DAB20849FB8803F00F03043BFC
:1033A0001201D2B20B441A7600BF0C37BD465DF84D
:1033B000047B704700E100E000ED00E080B489B0DC
:1033C00000AFF860B9607A60FB6803F00703FB6147
:1033D000FB69C3F10703042B28BF0423BB61FB690E
:1033E0000433062B02D9FB69033B00E000237B6119
:1033F0004FF0FF32BB6902FA03F3DA43BB681A40AD
:103400007B699A404FF0FF317B6901FA03F3D9439E
:103410007B680B40134318462437BD465DF8047B98
:10342000704780B582B000AF78607868FFF74CFFD6
:1034300000BF0837BD4680BD80B586B000AF0346EB
:10344000B9607A60FB81FFF763FF78617A68B968D9
:103450007869FFF7B3FF0246B7F90E3011461846F8
:10346000FFF782FF00BF1837BD4680BD80B582B030
:1034700000AF0346FB80B7F906301846FFF756FF4A
:1034800000BF0837BD4680BD80B400AFBFF35F8F7B
:1034900000BF074B5B6A064A23F480335362054B37
:1034A00000225A6000BFBD465DF8047B704700BF34
:1034B00000ED00E090ED00E080B483B000AF7860F4
:1034C0000B4A7B6843F0010353600A4B5B6A094A6D
:1034D00043F480335362BFF34F8F00BFBFF36F8F4E
:1034E00000BF00BF0C37BD465DF8047B704700BFCE
:1034F00090ED00E000ED00E080B483B000AF7860B4
:103500007B685A781D4B9A607B681B78002B29D00A
:103510001A4A7B685B68D3607B681B7B1A077B68F1
:10352000DB7A1B061A437B689B7ADB041A437B68B1
:103530005B7B9B041A437B689B7B5B041A437B6821
:10354000DB7B1B041A437B685B7A1B021A437B6894
:103550001B7A5B0013437A6812781146074A0B43C3
:10356000136105E0054B0022DA60044B00221A616A
:1035700000BF0C37BD465DF8047B704790ED00E05E
:1035800080B582B000AF78607B68002B01D1012349
:103590004FE07B6893F86130DBB2002B06D17B688B
:1035A000002283F860207868FEF790FB7B68022297
:1035B00083F861207B681B681A68204B13407A6887
:1035C00051687A68D26911437A6812680B431360B4
:1035D0007B681B685A6B1A4B13407A6891687A684B
:1035E000926911437A6812680B4353637B681B68C6
:1035F0001A6C144B13407A68D1687A6812680B43CE
:1036000013647B681B685B6B23F440117B681B6948
:103610001A057B685B695B051A437B681B680A4374
:103620005A637B6800225A667B68012283F8612016
:10363000002318460837BD4680BD00BFBFFFF8FF16
:10364000F8FEFFFF0000FFFF80B487B000AF786096
:1036500039607B685B68B3F5403F3B68012B7B6852
:1036600093F86030012B01D1022392E07B680122A4
:1036700083F860207B68022283F861203A68134651
:10368000DB009B1A9B0028337A681344FB60FB68BD
:103690005A68FB689B681B041A43FB681B691B057F
:1036A0001A43FB685B695B0513433B613C4B7B61E1
:1036B000FB685B680A2B03D0FB685B68092B07D1AA
:1036C000FB68DB6803F07F433A6913433B6105E025
:1036D000FB68DB681B063A6913433B613B68002BC0
:1036E00020D17B681B685A6A7B69DB4302EA0301CD
:1036F0007B681B683A690A435A627B681B68FA68F0
:1037000012689A61FB685B680A2B03D0FB685B68F0
:10371000092B35D1FB68DA687B681B6822F07F4291
:103720009A622DE0FB685B680B2B09D1FB689B69F3
:103730009B043A6913433B617B6943F440237B61FB
:103740007B681B68DA697B69DB4302EA03017B68FB
:103750001B683A690A43DA617B681B68FA68126879
:103760001A61FB685B680A2B03D0FB685B68092B56
:1037700006D1FB68DA687B681B6822F07F421A6218
:103780007B68012283F861207B68002283F8602037
:10379000002318461C37BD465DF8047B704700BF08
:1037A0000F0033FF80B489B000AF78603960002328
:1037B000FB61894B7B6194E13B681A680121FB69DD
:1037C00001FA03F313403B613B69002B00F0868153
:1037D0003B685B6803F00303012B05D03B685B6823
:1037E00003F00303022B30D17B689B68BB61FB694C
:1037F0005B00032202FA03F3DB43BA691340BB61A7
:103800003B68DA68FB695B0002FA03F3BA691343A9
:10381000BB617B68BA699A607B685B68BB610122A7
:10382000FB6902FA03F3DB43BA691340BB613B68EF
:103830005B681B0903F00102FB6902FA03F3BA6932
:103840001343BB617B68BA695A603B685B6803F0ED
:103850000303032B17D07B68DB68BB61FB695B004C
:10386000032202FA03F3DB43BA691340BB613B68EE
:103870009A68FB695B0002FA03F3BA691343BB6100
:103880007B68BA69DA603B685B6803F00303022B6C
:1038900023D1FB69DA087B68083253F82230BB6118
:1038A000FB6903F007039B000F2202FA03F3DB43DB
:1038B000BA691340BB613B681A69FB6903F00703EF
:1038C0009B0002FA03F3BA691343BB61FB69DA0890
:1038D0007B680832B96943F822107B681B68BB61BA
:1038E000FB695B00032202FA03F3DB43BA6913406E
:1038F000BB613B685B6803F00302FB695B0002FA93
:1039000003F3BA691343BB617B68BA691A603B6809
:103910005B6803F44033002B00F0E0802F4BD3F8BA
:10392000F4302E4A43F00203C2F8F4302B4BD3F8A4
:10393000F43003F00203FB60FB68294AFB699B0833
:10394000023352F82330BB61FB6903F003039B0091
:103950000F2202FA03F3DB43BA691340BB617B68B1
:10396000204A934252D07B681F4A934231D07B68F1
:103970001E4A93422BD07B681D4A934225D07B6818
:103980001C4A93421FD07B681B4A934219D07B6824
:103990001A4A934213D07B68194A93420DD07B6830
:1039A000184A934207D07B68174A934201D10923F2
:1039B0002DE00A232BE0082329E0072327E0062334
:1039C00025E0052323E0042321E003231FE0022355
:1039D0001DE001231BE000BF800000580044025896
:1039E0000004005800000258000402580008025861
:1039F000000C025800100258001402580018025817
:103A0000001C025800200258002402580023FA69C2
:103A100002F0030292009340BA691343BB61384934
:103A2000FB699B080233BA6941F823204FF0B04389
:103A30001B68BB613B69DB43BA691340BB613B68F0
:103A40005B6803F48013002B03D0BA693B6913430E
:103A5000BB614FF0B042BB6913604FF0B0435B688D
:103A6000BB613B69DB43BA691340BB613B685B6880
:103A700003F40013002B03D0BA693B691343BB6105
:103A80004FF0B042BB6953607B695B68BB613B69C7
:103A9000DB43BA691340BB613B685B6803F40033E6
:103AA000002B03D0BA693B691343BB617B69BA69D8
:103AB0005A607B691B68BB613B69DB43BA69134091
:103AC000BB613B685B6803F48033002B03D0BA69A9
:103AD0003B691343BB617B69BA691A60FB690133B7
:103AE000FB613B681A68FB6922FA03F3002B7FF441
:103AF00063AE00BF00BF2437BD465DF8047B70474E
:103B00000004005880B483B000AF78600B467B801F
:103B100013467B707B78002B03D07A887B689A6190
:103B200003E07B881A047B689A6100BF0C37BD46AE
:103B30005DF8047B7047000080B584B000AF78600A
:103B40007B68002B01D10123BFE07B6893F8A13093
:103B5000DBB2002B06D17B68002283F8A0207868B6
:103B6000FEF7FEFB7B68022283F8A1207B681B68BE
:103B70009A697B681B6822F070429A617B681B68B7
:103B800099697B685A687B689B681A437B68DB6825
:103B90001A437B681B691A437B681B680A439A6156
:103BA0007B681B6899687B681A684A4B0B40936076
:103BB0007B685B691B04FB607B681B6899687B689A
:103BC0009A69FB681A437B681B680A439A607B68A2
:103BD0001B68D9687B681A683E4B0B40D3607B68D2
:103BE000DB691B04FB607B681B68D9687B681A6A09
:103BF000FB681A437B681B680A43DA607B681B68B2
:103C000019697B681A68334B0B4013617B685B6AE8
:103C10001B04FB607B681B6819697B689A6AFB68F8
:103C20001A437B681B680A431A617B681B685969E1
:103C30007B681A68274B0B4053617B68DB6A1B0467
:103C4000FB607B681B6859697B681A6BFB681A43C9
:103C50007B681B680A435A617B6893F835301B0206
:103C6000FB607B6893F836301B04BB607B681B6885
:103C7000DA6A7B681B6802F07F42DA627B681B6845
:103C8000D96ABA68FB6813437A6892F834201A43F9
:103C90007B681B680A43DA627B681B685A6B7B6827
:103CA0001B6842F006025A637B681B689A697B684E
:103CB0001B6842F001029A617B680022C3F8A420CD
:103CC0007B68012283F8A120002318461037BD46E7
:103CD00080BD00BF00F800F0B0B584B000AFF86060
:103CE000B9607A60FB6893F8A030012B01D1022300
:103CF0002CE0FB68012283F8A020FB68022283F8F5
:103D0000A120FA687B68342101FB03F3134403F11B
:103D10003802BB6814461D460FCD0FC40FCD0FC42B
:103D20000FCD0FC42B6823607A68B968F86800F07B
:103D300011F8FB681B6801225A62FB68012283F8B4
:103D4000A120FB68002283F8A0200023184610372A
:103D5000BD46B0BD80B489B000AFF860B9607A608C
:103D6000BB685A68FB681B68DB681B0CC3F30B035A
:103D700013441B04FB61FB681B681A467B68DB016C
:103D8000134484335B68FA68126811467A68D2017A
:103D90000A44843203F470435360BB681A68FB68BA
:103DA0001B68DB681B0CC3F30B0313445A1CFB6832
:103DB0001B6819467B68DB010B4484331946FB6999
:103DC00013434B60BB68DA68FB681B68DB68C3F3AE
:103DD0000A0313441B04FB61FB681B681A467B68DB
:103DE000DB01134484339B68FA68126811467A68D1
:103DF000D2010A44843203F470439360BB689A682A
:103E0000FB681B68DB68C3F30A0313445A1CFB6896
:103E10001B6819467B68DB010B4484331946FB6938
:103E200013438B60FB681B681A467B68DB011344F5
:103E300084331B69FA68126811467A68D2010A4411
:103E4000843223F007031361FB681B681A467B6802
:103E5000DB01134484331A46BB681B691361BB68DA
:103E600093F831301B02FB61BB6893F832301B04BE
:103E7000BB61BB689B691B067B61FB681B681A46BC
:103E80007B68DB01134484339B69FB681B681A461B
:103E90007B68DB01134484331A4600239361BB68BB
:103EA00093F830301A46FB691A43BB691A43FB6822
:103EB0001B6819467B68DB010B44843319467B6918
:103EC00013438B61FB681B681A467B68DB01134454
:103ED00084335B69FA68126811467A68D2010A4431
:103EE000843223F0FF035361FB681B681A467B682A
:103EF000DB01134484331A46BB685B695361FB687A
:103F00001B681A467B68DB0113448433DA69FB685B
:103F10001B6819467B68DB010B4484331946584BF8
:103F20001340CB61BB68DA69BB681B6AF968096832
:103F300008467968C901014484311343CB61FB68A9
:103F40001B681A467B68DB01134484339B6AFB6859
:103F50001B681A467B68DB01134484331A4600232E
:103F60009362FB681B681A467B68DB011344843349
:103F70001A46BB685B6A9362BB681B69002B02D15F
:103F80000423FB611BE0BB681B69012B02D10323E7
:103F9000FB6114E0BB681B69042B0BD0BB681B6979
:103FA000022B07D0BB681B69032B03D0BB681B69BE
:103FB000072B02D10223FB6101E00123FB61FB68B7
:103FC0001B681A467B68DB0113448433DB6AFA689A
:103FD000126811467A68D2010A44843203F0E02361
:103FE000D362BB689B6AFA6902FB03F31A04BB68DD
:103FF0005968BB681B68CB1AF96901FB03F30733E7
:10400000F968096808467968C90101448431134395
:10401000CB62FB681B681A467B68DB011344843360
:104020001A6BFB681B6819467B68DB010B44843301
:104030001946144B13400B63FB681B681A467B68D8
:10404000DB01134484331A46BB68DB6A1363FB68E5
:104050001B681A467B68DB01134484331B68FA68CB
:10406000126811467A68D2010A44843243F001038F
:10407000136000BF2437BD465DF8047B704700BF66
:10408000F8F8FFFF00F8FFFFF0B58FB00AAF7860D7
:104090007B68002B01D1012316E17B681B68BB60A4
:1040A0007B6893F8BD34DBB2002B06D17B6800221D
:1040B00083F8BC2478680CF0EDFC7B68032283F85D
:1040C000BD24BB68DB6B03F48073002B02D17B68DB
:1040D0000022DA607B681B68184605F0CCFA7B6822
:1040E0001B683B607E686D4606F110040FCC0FC55F
:1040F0000FCC0FC594E8030085E80300331D0ECBF9
:10410000386805F097F90346002B05D07B6802223A
:1041100083F8BD240123D7E07B681B680021184683
:1041200005F0BAFA0023FB734AE0FA7B796813467C
:10413000DB0013449B000B443D3301221A70FA7BD1
:1041400079681346DB0013449B000B443C33FA7B35
:104150001A70FA7BFB7B98B279681346DB00134434
:104160009B000B44563302461A80FA7B796813464B
:10417000DB0013449B000B44403300221A70FA7B8F
:1041800079681346DB0013449B000B444433002240
:104190001A60FA7B79681346DB0013449B000B44DA
:1041A000483300221A60FA7B79681346DB00134417
:1041B0009B000B444C3300221A60FB7B0133FB73E2
:1041C000FA7B7B685B689A42AFD30023FB7344E0C1
:1041D000FA7B79681346DB0013449B000B4403F21F
:1041E0007D2300221A70FA7B79681346DB001344A2
:1041F0009B000B4403F51F73FA7B1A70FA7B7968F6
:104200001346DB0013449B000B4403F5207300228C
:104210001A70FA7B79681346DB0013449B000B4449
:1042200003F5217300221A60FA7B79681346DB00DC
:1042300013449B000B4403F5227300221A60FA7B9F
:1042400079681346DB0013449B000B4403F523738A
:1042500000221A60FB7B0133FB73FA7B7B685B688F
:104260009A42B5D37B681B683B607E686D4606F159
:1042700010040FCC0FC50FCC0FC594E8030085E8E0
:104280000300331D0ECB386805F052FA0346002BAD
:1042900005D07B68022283F8BD24012314E07B68EB
:1042A000002283F838207B68012283F8BD247B68D4
:1042B0005B6A012B02D1786801F070F97B681B689A
:1042C000184606F094FA002318461437BD46F0BD90
:1042D00080B584B000AF78607B681B68FB607B684A
:1042E00093F8BC34012B01D1022322E07B68012228
:1042F00083F8BC24FB68DB6B03F48073002B09D1CB
:104300007B689B6A012B05D1FB689B6B43F4803271
:10431000FB689A637B681B68184605F09BF97B680D
:104320001B68184606F042FA7B68002283F8BC241A
:10433000002318461037BD4680BD90B58DB000AF44
:1043400078607B681B683B623B6AFB617B681B682B
:10435000184606F000FB0346002B40F0B7847B684C
:104360001B68184606F064FA0346002B00F0AD8483
:10437000FB6903F500639B681B0AC3F30D027B68AE
:10438000C3F8FC247B681B68184606F051FA034604
:1043900003F00203022B07D17B681B685A697B6814
:1043A0001B6802F002025A617B681B68184606F01F
:1043B0003FFA034603F01003102B61D17B681B68A2
:1043C0009A697B681B6822F010029A613B6A1B6A3B
:1043D000BB61BB6903F00F021346DB0013449B0073
:1043E00003F51E737A68134404337B61BB695B0C6D
:1043F00003F00F03022B24D1BA6947F6F073134080
:10440000002B35D07B69D968BB691B099BB2C3F30C
:104410000A039BB21A46386A06F076F87B69DA68B6
:10442000BB691B09C3F30A031A447B69DA607B6921
:104430005A69BB691B09C3F30A031A447B695A61B1
:1044400016E0BB695B0C03F00F03062B10D17B68F1
:1044500003F2C44308221946386A06F055F87B690E
:104460005A69BB691B09C3F30A031A447B695A6181
:104470007B681B689A697B681B6842F010029A612E
:104480007B681B68184606F0D3F9034603F4002343
:10449000B3F5002F40F0A78000237B627B681B6888
:1044A000184606F0D8F9B86299E0BB6A03F0010338
:1044B000002B00F08E807B681B687A6AD2B21146AE
:1044C000184606F0FCF938613B6903F00103002B44
:1044D0000CD07B6A5A01FB69134403F530631A461A
:1044E00001239360796A786800F0D2FE3B6903F09B
:1044F0000803002B0CD07B6A5A01FB69134403F5B7
:1045000030631A4608239360796A786800F0A8FF40
:104510003B6903F01003002B08D07B6A5A01FB694A
:10452000134403F530631A46102393603B6903F08C
:104530000203002B30D03B6A5B6903F08003802BC1
:1045400009D1FB6903F500635B68FA6902F5006253
:1045500043F4806353607A6A1346DB0013449B0084
:1045600003F51E737A68134404337B617B69DB783F
:10457000012B08D17B690022DA707B6ADBB2194615
:1045800078680CF0B5FB7B6A5A01FB69134403F5AC
:1045900030631A46022393603B6903F02003002B2B
:1045A00008D07B6A5A01FB69134403F530631A464D
:1045B000202393603B6903F40053002B09D07B6AEE
:1045C0005A01FB69134403F530631A464FF4005354
:1045D00093607B6A01337B62BB6A5B08BB62BB6A28
:1045E000002B7FF462AF7B681B68184606F020F949
:1045F000034603F48023B3F5802F40F0DB807B6813
:104600001B68184606F041F9B86200237B62CDE0D2
:10461000BB6A03F00103002B00F0C2807B681B68BB
:104620007A6AD2B21146184606F067F938613B69DA
:1046300003F00103002B57D07B6A03F00F03012224
:1046400002FA03F3FB60FB6903F500635A6BFB6836
:10465000DB43F96901F5006113404B637B6A5A0142
:10466000FB69134403F510631A46012393607B68CA
:10467000DB68012B32D179687A6A1346DB00134478
:104680009B000B444833196878687A6A1346DB004C
:1046900013449B00034444331B68194478687A6AC6
:1046A0001346DB0013449B000344483319607B6AC4
:1046B000002B13D179687A6A1346DB0013449B0000
:1046C0000B444C331B68002B08D17B6818687B684F
:1046D00003F2C4431A46012106F070F97B6ADBB28B
:1046E000194678680CF07BFA3B6903F00803002B4D
:1046F00008D07B6A5A01FB69134403F510631A461C
:10470000082393603B6903F01003002B08D07B6AF9
:104710005A01FB69134403F510631A461023936092
:104720003B6903F04003002B08D07B6A5A01FB6908
:10473000134403F510631A46402393603B6903F06A
:104740000203002B23D0796A386A05F04FF97A6AA0
:104750001346DB0013449B0038337A681344043358
:104760007B617B69DB78012B08D17B690022DA70E1
:104770007B6ADBB2194678680CF0CCFA7B6A5A0186
:10478000FB69134403F510631A46022393603B69E7
:1047900003F08003002B03D0796A786800F0EAFC0C
:1047A0007B6A01337B62BB6A5B08BB62BB6A002B1E
:1047B0007FF42EAF7B681B68184606F039F8034675
:1047C00003F00043B3F1004F22D1FB6903F500630E
:1047D0005B68FA6902F5006223F0010353607B68AD
:1047E00093F8F434012B08D17B68002283F8F42479
:1047F0000021786800F0F6FE02E078680CF06AFAB2
:104800007B681B685A697B681B6802F000425A612A
:104810007B681B68184606F00BF8034603F4006338
:10482000B3F5006F12D1FB6903F500639B6803F0D9
:104830000103012B02D178680CF026FA7B681B6813
:104840005A697B681B6802F400625A617B681B68C6
:10485000184605F0EDFF034603F00063B3F1006F67
:1048600021D17B681B685A697B681B6802F0006273
:104870005A617B6893F8F434002B11D17B680122D4
:1048800083F8F4247B681B685B6D9B0803F00F02C0
:104890007B68C3F8F8240121786800F0A3FE02E0E9
:1048A00078680CF0F1F97B681B68184605F0C0FFCA
:1048B000034603F48053B3F5805F40F0B780FB6993
:1048C00003F500635B68FA6902F5006223F00103F7
:1048D00053607B681B681021184605F087F8002399
:1048E000FB6246E0FB6A5A01FB69134403F510635F
:1048F0001A464FF67F339360FB6A5A01FB691344F3
:1049000003F510631B68FA6A5101FA690A4402F55B
:10491000106223F400131360FB6A5A01FB6913440D
:1049200003F530631A464FF67F339360FB6A5A01F2
:10493000FB69134403F530631B68FA6A5101FA6995
:104940000A4402F5306223F400131360FB6A5A0133
:10495000FB69134403F530631B68FA6A5101FA6975
:104960000A4402F5306243F000631360FB6A0133CE
:10497000FB627B685B68FA6A9A42B3D3FB6903F512
:104980000063DB69FA6902F5006243F00113D36149
:104990007B681B6B002B16D0FB6903F50063D3F813
:1049A0008430FA6902F5006243F00B03C2F88430E8
:1049B000FB6903F500635B6CFA6902F5006243F082
:1049C0000B03536415E0FB6903F500635A69FB6947
:1049D00003F50063194642F22B0313434B61FB6955
:1049E00003F500631B69FA6902F5006243F00B03EB
:1049F0001361FB6903F500631B68FA6902F5006245
:104A000023F4FE6313607B6818687B68DB68D9B2A7
:104A10007B6803F2C4431A4605F0D0FF7B681B682D
:104A20005A697B681B6802F480525A617B681B6874
:104A3000184605F0FDFE034603F40053B3F5005F8E
:104A400024D17B681B68184605F094FF7B681B68BF
:104A5000184605F048F803461A467B681A617B68D9
:104A60001C6801F059FE01467B681B69DBB21A46DF
:104A7000204604F04DFD78680CF0DAF87B681B687E
:104A80005A697B681B6802F400525A617B681B6894
:104A9000184605F0CDFE034603F00803082B0AD1A3
:104AA00078680CF0B6F87B681B685A697B681B68ED
:104AB00002F008025A617B681B68184605F0B8FED0
:104AC000034603F08003802B22D13B6A9B6923F0CD
:104AD00080023B6A9A6101237B6214E079687A6AFA
:104AE0001346DB0013449B000B4403F27F231B7827
:104AF000012B05D17B6ADBB21946786800F009FB0F
:104B00007B6A01337B627B685B687A6A9A42E5D391
:104B10007B681B68184605F08BFE034603F4801380
:104B2000B3F5801F3BD101237B622BE07B6A5A01E6
:104B3000FB69134403F510631B68BB6179687A6AEB
:104B40001346DB0013449B000B4440331B78012BBE
:104B500015D1BB69002B12DA79687A6A1346DB003B
:104B600013449B000B443F3301221A707B6ADBB273
:104B700063F07F03DBB21946786800F0CAFA7B6AFB
:104B800001337B627B685B687A6A9A42CED37B682A
:104B90001B685A697B681B6802F480125A617B6843
:104BA0001B68184605F044FE034603F40013B3F5F2
:104BB000001F55D101237B6245E07B6A5A01FB69E6
:104BC000134403F530631B68BB6179687A6A134646
:104BD000DB0013449B000B4403F520731B78012B6F
:104BE0002ED1BB69002B2BDABB6903F480327B68C2
:104BF000D3F8FC3403F001039A4221D179687A6A30
:104C00001346DB0013449B000B4403F27F23012275
:104C10001A703B6A9B6943F080023B6A9A613B6A67
:104C20005B6903F08003002B0AD1FB6903F5006385
:104C30005B68FA6902F5006243F40073536007E0B1
:104C40007B6A01337B627B685B687A6A9A42B4D381
:104C50007B681B685A697B681B6802F400125A6102
:104C60007B681B68184605F0E3FD034603F08043AC
:104C7000B3F1804F0AD178680CF05EF87B681B684E
:104C80005A697B681B6802F080425A617B681B6826
:104C9000184605F0CDFD034603F00403042B15D19F
:104CA0007B681B685B68BB61BB6903F00403002B76
:104CB00002D078680CF04EF87B681B6859687B68F6
:104CC0001B68BA690A435A6000E000BF3437BD462A
:104CD00090BD80B582B000AF78600B46FB707B68FA
:104CE00093F8BC34012B01D1022313E07B6801222D
:104CF00083F8BC247B68FA7883F838207B681B68CB
:104D0000FA781146184605F02BFD7B68002283F8DF
:104D1000BC24002318460837BD4680BD80B584B04A
:104D200000AF7860084611461A460346FB700B46F2
:104D30003B801346BB700023FB7297F90330002BB6
:104D40000FDAFB7803F00F021346DB0013449B00DD
:104D500038337A6813440433FB60FB6801225A70CD
:104D60000FE0FB7803F00F021346DB0013449B00B7
:104D700003F51E737A6813440433FB60FB6800225A
:104D80005A70FB7803F00F03DAB2FB681A703A88A6
:104D9000FB689A60FB68BA781A71FB685B78002B35
:104DA00004D0FB681B789AB2FB685A83BB78022B4D
:104DB00002D1FB6800225A717B6893F8BC34012B46
:104DC00001D102230EE07B68012283F8BC247B68BA
:104DD0001B68F968184604F0ABFE7B68002283F874
:104DE000BC24FB7A18461037BD4680BD80B584B020
:104DF00000AF78600B46FB7097F90330002B0FDA99
:104E0000FB7803F00F021346DB0013449B0038339A
:104E10007A6813440433FB60FB6801225A700FE088
:104E2000FB7803F00F021346DB0013449B0003F5ED
:104E30001E737A6813440433FB60FB6800225A70C7
:104E4000FB7803F00F03DAB2FB681A707B6893F803
:104E5000BC34012B01D102230EE07B68012283F8D0
:104E6000BC247B681B68F968184604F0E9FE7B687F
:104E7000002283F8BC24002318461037BD4680BDAD
:104E800080B586B000AFF8607A603B600B46FB727D
:104E9000FB7A03F00F021346DB0013449B0003F57B
:104EA0001E73FA68134404337B617B697A68DA60A5
:104EB0007B693A681A617B6900225A617B6900222A
:104EC0005A70FB7A03F00F03DAB27B691A70FB6841
:104ED000DB68012B02D17A687B69DA61FB681868AC
:104EE000FB68DB68DBB21A46796904F085FF0023B2
:104EF00018461837BD4680BD80B483B000AF7860D7
:104F00000B46FB70FB7803F00F0279681346DB0059
:104F100013449B000B4403F524731B6818460C379D
:104F2000BD465DF8047B704780B586B000AFF86081
:104F30007A603B600B46FB72FB7A03F00F0213466C
:104F4000DB0013449B003833FA68134404337B615D
:104F50007B697A68DA607B693A681A617B6900224A
:104F60005A617B6901225A70FB7A03F00F03DAB2AF
:104F70007B691A70FB68DB68012B02D17A687B6958
:104F8000DA61FB681868FB68DB68DBB21A4679698E
:104F900004F032FF002318461837BD4680BD80B5A7
:104FA00084B000AF78600B46FB70FB7803F00F0213
:104FB0007B685B689A4201D9012350E097F903307E
:104FC000002B0FDAFB7803F00F021346DB001344CB
:104FD0009B0038337A6813440433FB60FB6801227A
:104FE0005A700DE0FA781346DB0013449B0003F57A
:104FF0001E737A6813440433FB60FB6800225A7006
:10500000FB6801229A70FB7803F00F03DAB2FB68A9
:105010001A707B6893F8BC34012B01D102231EE087
:105020007B68012283F8BC247B681B68F9681846FA
:1050300005F0C2FAFB7803F00F03002B0AD17B685E
:1050400018687B68DB68D9B27B6803F2C4431A46F0
:1050500005F0B4FC7B68002283F8BC2400231846CA
:105060001037BD4680BD80B584B000AF78600B4678
:10507000FB70FB7803F00F027B685B689A4201D9F2
:10508000012342E097F90330002B0FDAFB7803F09D
:105090000F021346DB0013449B0038337A68134435
:1050A0000433FB60FB6801225A700FE0FB7803F0C9
:1050B0000F021346DB0013449B0003F51E737A684E
:1050C00013440433FB60FB6800225A70FB68002223
:1050D0009A70FB7803F00F03DAB2FB681A707B68F2
:1050E00093F8BC34012B01D102230EE07B6801222E
:1050F00083F8BC247B681B68F968184605F0CAFA77
:105100007B68002283F8BC24002318461037BD4674
:1051100080BD80B584B000AF78600B46FB7097F916
:105120000330002B0CDAFB7803F00F021346DB0090
:1051300013449B0038337A6813440433FB600CE05B
:10514000FB7803F00F021346DB0013449B0003F5CA
:105150001E737A6813440433FB607B681B68F9682C
:10516000184605F0E9F80346FB72FB7A184610373B
:10517000BD4680BD80B58AB002AF786039607B687B
:105180001B687B617B693B613A681346DB00134413
:105190009B0038337A6813440433FB60FB685A6918
:1051A000FB681B699A4201D901236CE0FB681A690C
:1051B000FB685B69D31AFB61FB689B68FA699A42DA
:1051C00002D9FB689B68FB61FB6903339B08BB61E9
:1051D0002BE0FB681A69FB685B69D31AFB61FB680B
:1051E0009B68FA699A4202D9FB689B68FB61FB697C
:1051F00003339B08BB61FB68D9683B68DAB2FB6983
:1052000098B27B68DB68DBB200930346786905F0EF
:105210003DF9FB68DA68FB691A44FB68DA60FB68F1
:105220005A69FB691A44FB685A613B685A013B6939
:10523000134403F510639B699BB2BA699A4209D87B
:10524000FB685A69FB681B699A4203D2FB681B69B9
:10525000002BBED1FB681A69FB685B699A4211D8C2
:105260003B6803F00F03012202FA03F3BB603B69C2
:1052700003F500635A6BBB68DB43396901F50061D4
:1052800013404B63002318462037BD4680BD000005
:1052900080B588B000AF786039607B681B68FB61BF
:1052A000FB69BB61FB693C3304331B687B613B6872
:1052B0005A01BB69134403F530639B683B617B680B
:1052C000DB68012B7BD13B6903F00803002B15D071
:1052D0007B69614A934240F2B9803B6903F4004321
:1052E000002B00F0B3803B685A01BB69134403F5FF
:1052F00030631A464FF400439360A7E03B6903F024
:105300002003002B09D03B685A01BB69134403F505
:1053100030631A462023936098E03B6903F028032A
:10532000002B40F093807B694B4A93420FD93B6935
:1053300003F40043002B0AD03B685A01BB691344B5
:1053400003F530631A464FF4004393607EE03A68F9
:105350001346DB0013449B0003F51E737A68134465
:105360000433FB60FB681A6A3B685901BB690B4454
:1053700003F530631B69C3F31203D21AFB685A6149
:105380003B68002B14D1FB681B69002B09D17B689B
:1053900018687B6803F2C4431A46012105F00EFB2E
:1053A00006E0FB68DA68FB685B691A44FB68DA6050
:1053B0003B68DBB2194678680BF0F6FB46E07B6988
:1053C000264A934224D13B6903F40043002B0AD0C0
:1053D0003B685A01BB69134403F530631A464FF426
:1053E0000043936032E03B6903F02003002B08D0B8
:1053F0003B685A01BB69134403F530631A46202306
:1054000093603B68DBB2194678680BF0CDFB1DE07A
:105410003B68002B14D179683A681346DB001344CB
:105420009B000B4403F523731B68002B08D17B689A
:1054300018687B6803F2C4431A46002105F0BEFADF
:105440003B68DBB2194678680BF0AEFB00231846C8
:105450002037BD4680BD00BF0A30544F0A31544F3B
:1054600080B586B000AF786039607B681B687B616F
:105470007B693B617B693C3304331B68FB603B68A1
:105480005A013B69134403F530639B68BB60FB68BA
:10549000154A93420ED9BB6803F40043002B09D090
:1054A0003B685A013B69134403F530631A464FF4D5
:1054B0000043936078680BF065FBFB680A4A9342EF
:1054C0000CD97B68DB68012B08D17B6818687B6886
:1054D00003F2C4431A46012105F070FA002318466E
:1054E0001837BD4680BD00BF0A30544F80B485B028
:1054F00000AF78600B46FB7013463B807B681B68EF
:105500005B6ABB60FB78002B07D13B8819047B6882
:105510001B68BA680A439A6228E07B681B689B6A2A
:105520001B0CBA681344BB600023FB730DE07B685F
:105530001A68FB7B40339B0013445B681B0CBA6802
:105540001344BB60FB7B0133FB73FA7BFB78013BAD
:105550009A42ECD33B8818047B681968FB78013BBE
:10556000BA68024340339B000B445A60002318463C
:105570001437BD465DF8047B704780B483B000AF3C
:1055800078600B467B807B681B687A885A620023B0
:1055900018460C37BD465DF8047B704780B485B073
:1055A00000AF78607B681B68FB607B680122C3F8F2
:1055B00000257B68002283F8F424FB689B6943F094
:1055C0000062FB689A61FB685A6D054B1343FA68E9
:1055D0005365002318461437BD465DF8047B7047B9
:1055E0000300001080B483B000AF78600B46FB70FE
:1055F00000BF0C37BD465DF8047B704780B584B0B2
:1056000000AF7860194BDB6803F00403042B0AD069
:10561000164BDB6803F007037A689A4201D0012336
:105620001FE000231DE0114BDB6823F007020F4948
:105630007B681343CB60FDF70BFEF86009E0FDF7D4
:1056400007FE0246FB68D31AB3F57A7F01D901231E
:1056500007E0064B5B6803F40053B3F5005FEED13F
:10566000002318461037BD4680BD00BF00480258D1
:1056700080B400AF054BDB68044A43F08073D3600D
:1056800000BFBD465DF8047B704700BF004802586C
:1056900080B586B002AF7860FDF7DAFDF8607B6810
:1056A000002B01D101235FE07B6893F84130DBB22E
:1056B000002B07D17868FDF755F941F288317868F9
:1056C00000F05AF87B681B681B6823F4F8517B686C
:1056D0009B68013B1A027B681B680A431A607B685F
:1056E0009B6C0093FB6800222021786800F052F840
:1056F0000346FB72FB7A002B35D17B681B681A6866
:105700001B4B13407A68526811067A68D2681143BD
:105710007A68D26911437A68126A11437A6812680A
:105720000B4313607B681B685A68124B13407A68FE
:10573000126911047A68526911437A6892691143B7
:105740007A6812680B4353607B681B681A687B6831
:105750001B6842F001021A607B6800225A647B6871
:10576000012283F84120FB7A18461037BD4680BDE0
:105770002FFFFF00FEF8E0FF80B483B000AF786039
:1057800039607B683A689A6400BF0C37BD465DF8A3
:10579000047B704780B584B000AFF860B9603B60AF
:1057A0001346FB711AE0BB69B3F1FF3F16D0FDF75A
:1057B0004FFD02463B68D31ABA699A4202D3BB69CD
:1057C000002B0BD1FB68042283F84120FB685B6C43
:1057D00043F00102FB685A6401230EE0FB681B687A
:1057E0009A68BB681340002B14BF01230023DBB26F
:1057F0001A46FB799A42D6D1002318461037BD4687
:1058000080BD000080B58CB000AF78607B68002B55
:1058100002D1012300F048BC7B681B6803F0010340
:10582000002B00F08880994B1B6903F03803FB6262
:10583000964B9B6ABB62FB6A102B07D0FB6A182B46
:1058400011D1BB6A03F00303022B0CD18F4B1B68F1
:1058500003F40033002B6DD07B685B68002B69D1AB
:10586000012300F021BC7B685B68B3F5803F06D163
:10587000864B1B68854A43F4803313602EE07B68B7
:105880005B68002B0CD1814B1B68804A23F480336A
:1058900013607E4B1B687D4A23F4802313601DE058
:1058A0007B685B68B3F5A02F0CD1784B1B68774AF7
:1058B00043F480231360754B1B68744A43F48033B0
:1058C00013600BE0714B1B68704A23F48033136044
:1058D0006E4B1B686D4A23F4802313607B685B6802
:1058E000002B13D0FDF7B4FC786208E0FDF7B0FCA4
:1058F00002467B6AD31A642B01D90323D4E3634B9A
:105900001B6803F40033002BF0D014E0FDF7A0FC7B
:10591000786208E0FDF79CFC02467B6AD31A642B90
:1059200001D90323C0E3594B1B6803F40033002B58
:10593000F0D100E000BF7B681B6803F00203002B7E
:1059400000F0CA80514B1B6903F038033B624F4B98
:105950009B6AFB613B6A002B07D03B6A182B56D130
:10596000FB6903F00303002B51D1484B1B6803F084
:105970000403002B05D07B68DB68002B01D10123D9
:1059800092E3424B1B6823F019027B68DB683F49B6
:1059900013430B60FDF75CFC786208E0FDF758FCF0
:1059A00002467B6AD31A022B01D903237CE3374BCF
:1059B0001B6803F00403002BF0D0FDF779FC0346CD
:1059C00041F20302934217D87B681B69402B08D130
:1059D0002E4B5B6823F47C332C4A43F40033536032
:1059E0007AE02A4B5B6823F47C327B681B691B03DB
:1059F000264913434B606FE0244B5B6823F0FE4263
:105A00007B681B691B06214913434B6064E07B687C
:105A1000DB68002B47D01D4B1B6823F019027B6805
:105A2000DB681A4913430B60FDF712FC786208E04B
:105A3000FDF70EFC02467B6AD31A022B01D9032321
:105A400032E3124B1B6803F00403002BF0D0FDF788
:105A50002FFC034641F20302934219D87B681B696D
:105A6000402B08D1094B5B6823F47C33074A43F48D
:105A70000033536030E0054B5B6823F47C327B6875
:105A80001B691B03014913434B6025E00044025886
:105A90009A4B5B6823F0FE427B681B691B069749A3
:105AA00013434B6018E0954B1B68944A23F00103A5
:105AB0001360FDF7CDFB786208E0FDF7C9FB0246F5
:105AC0007B6AD31A022B01D90323EDE28B4B1B68AF
:105AD00003F00403002BF0D17B681B6803F0100374
