:020000040800F2
:1000000000000824B1100008B50D0008B70D000865
:10001000B90D0008BB0D0008BD0D00080000000070
:10002000000000000000000000000000517C0008FB
:10003000BF0D000800000000E17C0008457D0008BD
:1000400025110008251100082511000825110008B8
:1000500025110008251100082511000825110008A8
:10006000251100082511000825110008C10D000800
:10007000CD0D0008251100082511000825110008E4
:100080002511000825110008251100082511000878
:10009000251100082511000825110008D90D0008B8
:1000A0002511000825110008251100082511000858
:1000B0002511000825110008ED0D00082511000884
:1000C0002511000825110008251100082511000838
:1000D000F90D0008050E000825110008251100087B
:1000E0002511000825110008000000002511000856
:1000F0002511000825110008251100082511000808
:1001000025110008251100082511000825110008F7
:1001100025110008251100082511000825110008E7
:10012000110E00081D0E00082511000825110008F9
:1001300025110008251100082511000825110008C7
:1001400000000000000000000000000000000000AF
:1001500025110008251100082511000825110008A7
:100160002511000825110008251100082511000897
:100170002511000825110008251100082511000887
:100180002511000825110008251100082511000877
:100190002511000825110008251100082511000867
:1001A0002511000825110008251100082511000857
:1001B0002511000825110008251100082511000847
:1001C0002511000825110008251100082511000837
:1001D0002511000825110008251100082511000827
:1001E0002511000825110008251100082511000817
:1001F0002511000825110008251100082511000807
:1002000025110008251100082511000825110008F6
:1002100025110008251100082511000825110008E6
:100220002511000825110008251100080000000014
:100230002511000825110008000000002511000804
:1002400025110008251100082511000825110008B6
:1002500025110008251100082511000825110008A6
:100260002511000825110008251100082511000896
:1002700025110008251100082511000800000000C4
:1002800025110008251100082511000800000000B4
:08029000000000002511000828
:1002A00010B5054C237833B9044B13B10448AFF3B0
:1002B00000800123237010BD78000024000000009E
:1002C0003497000808B5034B1BB103490348AFF34B
:1002D000008008BD000000007C0000243497000866
:1002E000034613F8012B002AFBD1181A0138704776
:1002F00001F0FF01102A2BDB10F0070F08D010F8D7
:10030000013B013A8B422DD010F0070F42B3F6D1DA
:10031000F0B441EA012141EA014122F007047FF0F3
:1003200000070023F0E80256083C85EA010586EA4A
:10033000010685FA47F5A3FA87F586FA47F6A5FA86
:1003400087F68EB9EED1F0BC01F0FF0102F0070292
:1003500032B110F8013B013A83EA010313B1F8D13D
:100360000020704701387047002D06BF354603381E
:10037000073815F0010F07D1013015F4807F02BF57
:10038000013015F4C03F0130F0BC0138704700BFA8
:1003900053B94AB9002908BF00281CBF4FF0FF31EC
:1003A0004FF0FF3000F074B9ADF1080C6DE904CEE8
:1003B00000F006F8DDF804E0DDE9022304B0704740
:1003C0002DE9F047089D04468E46002B4DD18A4208
:1003D000944669D9B2FA82F252B101FA02F3C2F13B
:1003E000200120FA01F10CFA02FC41EA030E9440CC
:1003F0004FEA1C48210CBEFBF8F61FFA8CF708FBED
:1004000016E341EA034306FB07F199420AD91CEBC4
:10041000030306F1FF3080F01F81994240F21C81F6
:10042000023E63445B1AA4B2B3FBF8F008FB10333E
:1004300044EA034400FB07F7A7420AD91CEB040473
:1004400000F1FF3380F00A81A74240F20781644443
:10045000023840EA0640E41B00261DB1D4400023C8
:10046000C5E900433146BDE8F0878B4209D9002D2C
:1004700000F0EF800026C5E9000130463146BDE8B6
:10048000F087B3FA83F6002E4AD18B4202D3824220
:1004900000F2F980841A61EB030301209E46002DCF
:1004A000E0D0C5E9004EDDE702B9FFDEB2FA82F224
:1004B000002A40F09280A1EB0C014FEA1C471FFA82
:1004C0008CFE0126200CB1FBF7F307FB131140EA69
:1004D00001410EFB03F0884208D91CEB010103F136
:1004E000FF3802D2884200F2CB804346091AA4B2F8
:1004F000B1FBF7F007FB101144EA01440EFB00FECC
:10050000A64508D91CEB040400F1FF3102D2A64530
:1005100000F2BB800846A4EB0E0440EA03409CE7CF
:10052000C6F12007B34022FA07FC4CEA030C20FA7C
:1005300007F401FA06F31C43F9404FEA1C4900FA9C
:1005400006F3B1FBF9F8200C1FFA8CFE09FB181119
:1005500040EA014108FB0EF0884202FA06F20BD98C
:100560001CEB010108F1FF3A80F08880884240F2DC
:100570008580A8F102086144091AA4B2B1FBF9F020
:1005800009FB101144EA014100FB0EFE8E4508D91B
:100590001CEB010100F1FF346CD28E456AD90238A0
:1005A000614440EA0840A0FB0294A1EB0E01A14285
:1005B000C846A64656D353D05DB1B3EB080261EBF3
:1005C0000E0101FA07F722FA06F3F1401F43C5E9CD
:1005D000007100263146BDE8F087C2F12003D84003
:1005E0000CFA02FC21FA03F3914001434FEA1C4745
:1005F0001FFA8CFEB3FBF7F007FB10360B0C43EA37
:10060000064300FB0EF69E4204FA02F408D91CEBE6
:10061000030300F1FF382FD29E422DD902386344E4
:100620009B1B89B2B3FBF7F607FB163341EA034184
:1006300006FB0EF38B4208D91CEB010106F1FF38D3
:1006400016D28B4214D9023E6144C91A46EA0046CA
:1006500038E72E46284605E70646E3E61846F8E65C
:100660004B45A9D2B9EB020864EB0C0E0138A3E7A5
:100670004646EAE7204694E74046D1E7D0467BE786
:10068000023B614432E7304609E76444023842E7FE
:10069000704700BF1E4B07B5D3F8D82005210B20AB
:1006A00042F00202C3F8D820D3F8D82002F00202A8
:1006B0000092009AD3F8D82042F00102C3F8D82063
:1006C0000022D3F8D83003F001030193019B00F01E
:1006D00083FD0B2000F0B2FD002205210C2000F06C
:1006E0007BFD0C2000F0AAFD00220621382000F03E
:1006F00073FD382000F0A2FD00220621392000F011
:100700006BFD392003B05DF804EB00F097BD00BF2E
:100710000044025808B507F093FD012005F0CCFC19
:10072000FBE708B507F0E2FD012005F0C5FCFBE79B
:10073000034B0360034B0B604FF4807313607047EF
:10074000241A00242416002470B5114C8EB007F032
:10075000CFFC26466D461C340FCE0FC596E8070029
:1007600085E807000021684605F07EFC094B07ADCF
:1007700018600FCC0FC594E8070085E8070000213A
:1007800007A805F071FC044B18600EB070BD00BFE7
:10079000909A000820160024580500242DE9F047FF
:1007A00014228AB000215D4E0DEB0200DFF8748147
:1007B00008F0D6FA5A4B30460A21D3F8E02001243B
:1007C000DFF86491002542F0040203274FF0020A8B
:1007D000C3F8E020D3F8E02002F004020092009A6F
:1007E000D3F8E02042F08002C3F8E020D3F8E02004
:1007F00002F080020192019AD3F8E02042F0010257
:10080000C3F8E020D3F8E02002F001020292029A3D
:10081000D3F8E02042F00202C3F8E020D3F8E02051
:1008200002F002020392039AD3F8E02042F0100291
:10083000C3F8E0200122D3F8E03003F01003049362
:10084000049B01F0AFFF40460122022101F0AAFF04
:10085000304600224FF4407101F0A4FF00224846C8
:10086000012101F09FFF0A2305A93046CDE9053497
:10087000CDE9075701F0AAFE05A94046CDF81CA016
:10088000CDE9054501F0A2FE05A94046CDE905A444
:10089000CDE9075701F09AFE042305A940460794C5
:1008A0004FF48818CDE9053501F090FE402305A9E5
:1008B00030460794CDE9053801F088FE802305A96C
:1008C00030460795CDE9053801F080FE4FF480737E
:1008D00005A93046CDE90534CDE9074701F076FE9C
:1008E0004FF4007305A93046CDE90534CDE907552D
:1008F00001F06CFE05A94846CDE90544CDE907574E
:1009000001F064FE2A460521172000F065FC17203F
:1009100000F094FC0AB0BDE8F08700BF0008025860
:1009200000440258000002580010025830B59DB033
:100930004C22002109A808F013FA2022002101A866
:1009400008F00EFA022001F047FF00230093264B27
:10095000DA6A22F00102DA62DB6A03F00103009333
:10096000224B9A6942F440429A619A6902F44042E9
:100970000092009A9A699104FCD51D4A40250224F0
:1009800009A8936A23F003039362012320220994A8
:100990001294CDE90C350023CDE913324FF4C8721F
:1009A0001B93CDE915240422CDE91744CDE9192381
:1009B00001F036FF08B172B6FEE703233F22039031
:1009C000214601A80695CDE901230823CDE9043588
:1009D0004FF48063CDE9073502F054FA08B172B6DE
:1009E000FEE71DB030BD00BF0004005800480258AB
:1009F0000044025810251FB500212A4668460124EC
:100A000008F0AEF900F028FC4FF01052474B684652
:100A1000ADF80040CDE90123454B039300F03AFCCB
:100A2000022368468DF808508DF801304FF040538E
:100A3000019300238DF80A30ADF80E3000F02AFC47
:100A4000032368468DF80E4004248DF80130394B9D
:100A5000019300F01FFC384B68468DF8014001936C
:100A60000E238DF8083000F015FC052368468DF83C
:100A700001304FF0605301930F238DF8083000F0E0
:100A800009FC204600F0F6FB2C4B5A6912F40032A8
:100A900011D1BFF34F8FBFF36F8FC3F85022BFF355
:100AA0004F8FBFF36F8F5A6942F400325A61BFF320
:100AB0004F8FBFF36F8F214A536913F4803323D1D3
:100AC000C2F88430BFF34F8FD2F8803043F6E07421
:100AD000C3F3C900C3F34E335B0103EA04060146C6
:100AE00046EA81750139C2F86052F9D2203B13F110
:100AF000200FF2D1BFF34F8F536943F4803353611A
:100B0000BFF34F8FBFF36F8F00F00EFBFFF70EFFA9
:100B1000FFF744FEFFF7BEFD00F006FA00F01CF8F8
:100B2000FFF712FE05F09BFAFEE700BF120001037B
:100B300000000101000002300000043000ED00E080
:100B40000268034B9A4201D100F01CBB704700BF02
:100B50000008004072B6FEE708B516484FF480035F
:100B6000154A4FF08061C0E9002300230722C0E945
:100B700002324FF00072C0E904234FF04052C0E946
:100B800006124FF08042C0E90833C0E90A33C0E9D9
:100B90000D23C0E90F33C0E91133C0E91333C0E9B5
:100BA000153303F0E7FA18B1BDE80840FFF7D2BFEC
:100BB00008BD00BFD81B00240038004070B5B6B097
:100BC00006461422002102A808F0CAF8BC2200211F
:100BD00007A808F0C5F832683D4B9A4275D14FF42A
:100BE000805220234FF0A00E07A81E92CDE90723C4
:100BF0000223CDE909E3CDE90B3340230D9302F045
:100C0000C7FB08B1FFF7A6FF324B4FF46040002549
:100C100002A9D3F8E820304C42F48042C3F8E8201F
:100C2000D3F8E82002F480420092009AD3F8E02042
:100C300042F00202C3F8E020D3F8E03003F00203F0
:100C40000193019B0223CDE9020303232348CDE94D
:100C500004530523069301F0B9FC2723DFF888C06D
:100C60002046C4E900C34FF48063C4E90255C4E9D7
:100C70000435C4E90655C4E9085500F0C7FC08B1BD
:100C8000FFF768FF164A2823F4674021A663154C36
:100C9000C4E9002300234FF480622046C4E9021314
:100CA000C4E90423C4E90633C4E9083300F0AEFC08
:100CB00008B1FFF74FFF242000220521B467A66387
:100CC00000F08AFA242000F0B9FA36B070BD00BFF7
:100CD0000038004000440258E81A0024000402587A
:100CE00028040240601B0024100402400A4B82B01A
:100CF0000F216FF00100D3F8F42042F00202C3F894
:100D0000F4200022D3F8F43003F002030193019B96
:100D100002B000F061BA00BF004402580F2810B5BD
:100D200004468AB002D901200AB010BD0146002253
:100D30001E2000F051FA1E2000F080FA184B694680
:100D400002A81C60174BD3F8E82042F00402C3F855
:100D5000E820D3F8E83003F004030193019B02F08C
:100D6000FDF9079BC3B902F0D5F90F4C0F4B236077
:100D700040F2E733E3600E4BB0FBF3F001380023A1
:100D8000606020462361A36004F060FA0028CAD1A5
:100D9000204604F003F9C7E702F0BCF94000E4E79D
:100DA0000C00002400440258601C0024000800408D
:100DB00040420F00FEE7FEE7FEE7FEE7FEE7704772
:100DC000014801F05BB900BFB01C0024014801F0EC
:100DD00055B900BF281D0024402008B501F0F0FCE3
:100DE0008020BDE8084001F0EBBC0000014804F0A1
:100DF00017B900BF601C0024014803F0B7BF00BF53
:100E0000D81B0024014804F04BBB00BFA01D0024E8
:100E1000014801F033B900BFE81A0024014801F08D
:100E20002DB900BF601B00240B4A0346116810B5A2
:100E300009B90A491160106809490A4C0344091BA1
:100E40008B4206D907F052FF0C2303604FF0FF30AE
:100E500010BD1360FCE700BFAC1C002460C100247F
:100E60000000082400100000254AD2F8883043F41E
:100E70007003C2F88830234A136803F00F03062B6F
:100E800005D8136823F00F0343F0070313601E4BCC
:100E90001A6842F001021A6000221A611B4A19689E
:100EA0000A4018491A600A68120705D50A6822F034
:100EB0000F0242F007020A60002215499A61DA61C6
:100EC0001A6299621349D962134919635A63996383
:100ED000DA6319645A64196821F4802119601A666A
:100EE0000E4B1B681B0C1B04B3F1005F03D20C4BB1
:100EF0000122C3F808210B4B43F2D2021A6070475B
:100F000000ED00E000200052004402587FEDF6EAB8
:100F1000000202020000FF01800201010010005CDB
:100F2000008000510040005208B517484FF4E133EB
:100F3000164AC0E9002300230C22C0E902330361F2
:100F4000C0E90523C0E90733C0E9093304F04AFFCB
:100F500008B1FFF7FFFD4FF000410B4805F00EF818
:100F600008B1FFF7F7FD4FF00061074805F02AF8D8
:100F700008B1FFF7EFFD044804F0DDFF18B1BDE84C
:100F80000840FFF7E7BD08BDA01D00240010014088
:100F900070B5B6B005461422002102A807F0E0FEA5
:100FA000BC22002107A807F0DBFE2A68394B9A42D1
:100FB0006ED1012307A8079302F0EAF908B1FFF701
:100FC000C9FD354B4FF4C060002602A9D3F8F020CC
:100FD000324C42F01002C3F8F020D3F8F02002F0B7
:100FE00010020092009AD3F8E02042F00102C3F808
:100FF000E020D3F8E03003F001030193019B0223CA
:10100000CDE9020303232648CDE9046307230693B1
:1010100001F0DCFA2923DFF894C04FF4807E2046EB
:10102000A6616662C4E900C34FF48063C4E9043674
:101030004FF40033C4E90266C4E907E300F0E6FABE
:1010400008B1FFF787FD174A2A23EC674021A56303
:10105000154CC4E9002300234FF480622046C4E904
:1010600004234FF40032C4E90213C4E90633C4E98F
:10107000082300F0CBFA08B1FFF76CFD2520002211
:101080000521AC67A56300F0A7F8252000F0D6F88D
:1010900036B070BD0010014000440258B01C00245E
:1010A0000000025828000240281D002410000240C1
:1010B000DFF84CD013481449144A0A448A4204D039
:1010C00050F8043B41F8043BF8E7FFF7CDFE104829
:1010D0001049114A002302E0D458C4500433C41804
:1010E0008C42F9D30D4A0E4C002301E01360043208
:1010F000A242FBD307F000FEFFF77CFC7047000024
:101100000000082458970008000000003803000081
:101110000000002478000024049E000878000024C9
:101120005CC10024FEE7000010B5032000F042F887
:1011300001F008FE0F49104A8B69C3F30323D35C07
:1011400003F01F03D8408B6903F00F03D35C0B4AF5
:1011500003F01F0320FA03F31360094B186000200B
:10116000FFF7DCFD044618B9FFF7C0FD204610BDAF
:101170000124FBE700440258DB9A00080400002425
:1011800000000024034A044B11681B780B441360D1
:10119000704700BF301E002408000024014B18686F
:1011A000704700BF301E0024014B1868000C7047C8
:1011B0000010005C07490302CA6803F4E06322F4EC
:1011C000E0621204120C134343F0BF6343F4003394
:1011D000CB60704700ED00E0164B30B5DC68C4F31F
:1011E0000224C4F10705231D042D28BF0425062B66
:1011F0004FF0FF338CBF033C002403FA05F50028B1
:1012000003FA04F321EA050122EA030201FA04F1D8
:1012100041EA02034FEA0313DBB206DB00F1604050
:1012200000F5614080F8003330BD00F00F00024A45
:101230001354F9E700ED00E014ED00E0002808DBAE
:101240000123420900F01F0003FA00F0014B43F8AC
:101250002200704700E100E0BFF35F8F044B5A6A41
:1012600022F480325A620022C3F89420704700BFF3
:1012700000ED00E0064B40F00100C3F894005A6A0C
:1012800042F480325A62BFF34F8FBFF36F8F7047C3
:1012900000ED00E04378144A10B5C2F898300178A8
:1012A000E9B14368C2F89C30C37A047B1B0643EA69
:1012B00004730B43817A43EAC143417B43EA814390
:1012C000817B43EA4143C17B43EA0143417A43EADC
:1012D0000123017A43EA4103C2F8A03010BDC2F8ED
:1012E0009C10C2F8A010F9E700ED00E0F0B5DFF8BF
:1012F0007CC10468876D644545D0594DAC4242D0ED
:101300001835AC423FD01835AC423CD01835AC4211
:1013100039D01835AC4236D01835AC4233D01835F8
:10132000AC4230D005F55675AC422CD01835AC42E5
:1013300029D01835AC4226D01835AC4223D0183508
:10134000AC4220D01835AC421DD01835AC421AD072
:101350001835AC4217D0434DAC4214D01435AC42D2
:1013600011D01435AC420ED01435AC420BD014352C
:10137000AC4208D01435AC4205D01435AC4202D092
:101380001435AC4267D1D0E919566E60C56E15B1FF
:10139000D0E91C566E60644537D0314DAC4234D034
:1013A0001835AC4231D01835AC422ED01835AC428D
:1013B0002BD01835AC4228D01835AC4225D0183582
:1013C000AC4222D005F55675AC421ED01835AC4261
:1013D0001BD01835AC4218D01835AC4215D0183592
:1013E000AC4212D01835AC420FD01835AC420CD0FC
:1013F0001835AC4209D01B4DAC4217D1C56D05F074
:101400001F060125B5407D6009E0C56D05F01F068A
:101410003F25B540BD60256825F4802525606360C3
:101420008368402B18D1A260E16014E00E4DAC42FD
:10143000E4D01435AC42E1D01435AC42DED01435E2
:10144000AC42DBD01435AC42D8D01435AC42D5D048
:101450001435AC42D2D0F0BDA160E260FBE700BF22
:1014600028000240085402581C5402581000024040
:101470000368244A934210B532D0183293422FD0D9
:10148000183293422CD01832934229D0183293420A
:1014900026D01832934223D01832934220D01832EB
:1014A00093421DD002F55672934219D018329342DE
:1014B00016D01832934213D01832934210D01832FB
:1014C00093420DD0183293420AD01832934207D07B
:1014D0001832934204D023F0FF038365806D10BD62
:1014E000D9B21822084C23F47F73103923F0030378
:1014F0005F29B1FBF2F202F0070288BF0433A25C5D
:10150000C265EAE710000240EB9A000802681F4932
:10151000D3B28A4224D014318A4221D014318A4273
:101520001ED014318A421BD014318A4218D0143193
:101530008A4215D014318A4212D014318A420FD017
:101540001821103BB3FBF1F311491144A8291AD912
:1015500003F1805202F50242920002660D4A0AE04F
:101560001422083BB3FBF2F303F1B05202F516422A
:1015700092000266084A03F01F034266012202FA43
:1015800003F3836670470833E2E700BF085402584C
:10159000F0FBFDBF80080240805802580279511EBE
:1015A000072910B521D80368134CA3421ED0143468
:1015B000A3421BD01434A34218D01434A34215D034
:1015C0001434A34212D01434A3420FD01434A342D3
:1015D0000CD01434A34209D0084B13449B00C366BB
:1015E000074B036701238B40436710BD054B134432
:1015F0009B00C366044BF4E7085402583F82001076
:10160000400902403F96001640590258F8B504467A
:10161000FFF7C4FD0646002C00F0E6802368844DE9
:10162000AB426AD0834A934267D01832934264D067
:101630001832934261D0183293425ED018329342EE
:101640005BD01832934258D01832934255D002F5ED
:101650005672934251D0183293424ED01832934270
:101660004BD01832934248D01832934245D01832AA
:10167000934242D0183293423FD0183293423CD02A
:101680006D4A934240F05981022284F835200022AD
:1016900084F83420A2681968402A21F4FF3121F42B
:1016A000F87100F06881802A0CBF4FF48040002060
:1016B000D4E90362D20842EAD602666942EAD60257
:1016C000A66942EAD602E66942EAD602266A42EAF8
:1016D00016120A43024320461A60584A1A44142339
:1016E000B2FBF3F29200E265FFF7C2FEE36D03F096
:1016F0001F02012393404360B6E00222AB4284F80C
:1017000035204FF0000284F834201ED0494A93421D
:101710001BD01832934218D01832934215D0183289
:10172000934212D0183293420FD0183293420CD009
:101730001832934209D002F55672934205D01832FE
:10174000934202D018329342FFD01A6822F001026D
:101750001A6021680B68DB073CD40B68384EA0691F
:101760001E40D4E9022313432269134362691343E1
:10177000E26903431343226A13433343666A042E28
:1017800002BFD4E90B273A4313432E4A1268120CC6
:101790001204B2F1005F07D36268A2F129071F2F7C
:1017A00024D94F3A032A25D90B60042E4B6923F024
:1017B000070343EA06034DD1A26AE66A1343002EEB
:1017C00048D0D0B9012A29D032F0020242D1F20128
:1017D00040D526E0FFF7E2FC801B0528B9D920237D
:1017E0006365032384F8353001201FE0164AFA4070
:1017F000D707D9D543F48013D6E7B0F5005F25D1DC
:10180000032A27D801A050F822F000BF23180008AF
:10181000CF170008231800081D180008B6F1C07F74
:1018200018D140230120636584F83500F8BD00BF5E
:10183000100002402800024008540258F8ABFDA7EF
:101840003F8010FE0010005C3F00C0C3022AE8D9B0
:10185000032ABCD04B612046FFF70AFEE36D03F07C
:101860001F023F23934083602368AB4245D0454A23
:10187000934242D0183293423FD0183293423CD028
:101880001832934239D01832934236D018329342EC
:1018900033D01832934230D002F5567293422CD096
:1018A0001832934229D01832934226D018329342EC
:1018B00023D01832934220D0183293421DD01832D0
:1018C00093421AD01832934217D02F4A934214D021
:1018D0001432934211D0143293420ED014329342F8
:1018E0000BD01432934208D01432934205D01432F4
:1018F000934202D01432934219D120460025FFF7BB
:1019000005FEA368226E802B04BF0023636063681A
:10191000D9B2013B1160072BD4E9192151602CD8B1
:10192000FFF73CFEE36E1D60D4E91C325A600020D4
:101930000123606584F8353078E7144A93423FF418
:10194000A3AE143293423FF49FAE143293423FF45D
:101950009BAE143293423FF497AE143293423FF45D
:1019600093AE143293423FF48FAE143293423FF45D
:101970008BAE402334E710209AE6C4E91B55656717
:10198000D5E700BF28000240085402581C540258F2
:1019900070B5002800F00B8190F83440012C00F065
:1019A0000881012490F83550A54280F834404FF06A
:1019B000000540F0F780022480F835400468456552
:1019C0007D4DAC421ED07D4EB4421BD01836B44281
:1019D00018D01836B44215D01836B44212D0183682
:1019E000B4420FD01836B4420CD01836B44209D0E5
:1019F00006F55676B44205D01836B44202D01836F1
:101A0000B442FFD0266826F001062660FFF76EFC80
:101A10000368016CAB4253D0684A934250D01832ED
:101A200093424DD0183293424AD01832934247D055
:101A30001832934244D01832934241D01832934224
:101A40003ED002F5567293423AD01832934237D0C4
:101A50001832934234D01832934231D01832934224
:101A60002ED0183293422BD01832934228D01832FD
:101A7000934225D01A6822F00E0242F00A021A6040
:101A8000002956D14E4A934227D04E4A934224D041
:101A90001432934221D0143293421ED01432934216
:101AA0001BD01432934218D01432934215D0143202
:101AB000934212D01A68002042F001021A6070BDF1
:101AC0001A6822F01E0242F016021A6019B11A6852
:101AD00042F008021A60AB4230D1026E1168C903AD
:101AE0005BD4C26E1AB1116841F480711160AB42CF
:101AF000E0D0324A9342DDD018329342DAD0183225
:101B00009342D7D018329342D4D018329342D1D0D6
:101B100018329342CED018329342CBD002F556728F
:101B20009342C7D018329342C4D018329342C1D0E6
:101B3000C0E71A6842F004021A60A3E71F4A934202
:101B4000CBD018329342C8D018329342C5D0183245
:101B50009342C2D018329342BFD018329342BCD0C5
:101B600018329342B9D002F556729342B5D018326A
:101B70009342B2D018329342AFD018329342ACD0D5
:101B800018329342A9D018329342A6D01832934209
:101B9000A3D018329342A0D074E7116841F4807149
:101BA00011609EE74FF4006380F8345043650120D4
:101BB00085E7022083E700BF1000024028000240B2
:101BC000085402581C540258F8B50546FFF7E6FAC7
:101BD000074645B195F83530022B06D080236B655A
:101BE000002385F83430012053E12C68A94EB4421B
:101BF0004AD0A94B9C4247D018339C4244D018335A
:101C00009C4241D018339C423ED018339C423BD07A
:101C100018339C4238D018339C4235D003F55673A4
:101C20009C4231D018339C422ED018339C422BD08A
:101C300018339C4228D018339C4225D018339C423C
:101C400022D018339C421FD018339C421CD02368EA
:101C500023F00E032360914B9C421FD014339C420F
:101C60001CD014339C4219D014339C4216D0143328
:101C70009C4213D014339C4210D014339C420DD09C
:101C800014339C4212D109E02368B44223F01E03AE
:101C90002360636923F08003636176D12A6EB442C6
:101CA000136823F48073136040F0AB80236823F043
:101CB000010323602368DB0700F1CD802B68EA6D08
:101CC000B342A86D02F01F0200F0D18072498B422E
:101CD00000F0CD8018318B4200F0C98018318B4262
:101CE00000F0C58018318B4200F0C18018318B4262
:101CF00000F0BD8018318B4200F0B98018318B4262
:101D000000F0B58001F556718B4200F0B0801831BB
:101D10008B4200F0AC8018318B4200F0A880183163
:101D20008B4200F0A48018318B4200F0A080183163
:101D30008B4200F09C8018318B4200F09880183163
:101D40008B4200F09480012101FA02F24260534A72
:101D5000934200F092801432934200F08E8014324D
:101D6000934200F08A801432934200F0868014324D
:101D7000934200F08280143293427ED01432934218
:101D80007BD0143293427ED177E0434B9C4285D086
:101D900018339C4282D018339C423FF47FAF1833F3
:101DA0009C423FF47BAF18339C423FF477AF18332B
:101DB0009C423FF473AF18339C423FF46FAF03F57E
:101DC00056739C423FF46AAF18339C423FF466AFAF
:101DD00018339C423FF462AF18339C423FF45EAF2D
:101DE00018339C423FF45AAF18339C423FF456AF2D
:101DF00018339C423FF452AF18339C423FF44EAF2D
:101E000029E7254B9C423FF451AF18339C423FF4E5
:101E10004DAF18339C423FF449AF18339C423FF416
:101E200045AF18339C423FF441AF18339C423FF416
:101E30003DAF18339C423FF439AF03F556739C42D3
:101E40003FF434AF18339C423FF430AF18339C4218
:101E50003FF42CAF2AE7FFF7A1F9C01B05287FF656
:101E600029AF20236B65032385F83530B8E63F2181
:101E7000B34201FA02F2826012D1D5E919325A60F6
:101E8000EB6E002B3BD10123002085F8353085F81F
:101E90003400F8BD100002402800024008540258E7
:101EA0001B4A9342E9D018329342E6D0183293424B
:101EB000E3D018329342E0D018329342DDD018328A
:101EC0009342DAD018329342D7D002F55672934239
:101ED000D3D018329342D0D018329342CDD018329A
:101EE0009342CAD018329342C7D018329342C4D01A
:101EF00018329342C1D018329342BED027E71A68F5
:101F000022F480721A60D5E91C325A60BBE700BF28
:101F10002800024010B528B190F83530022B03D0CC
:101F20008023436501207FE00368504A934252D0EA
:101F30004F498B424FD018318B424CD018318B42D5
:101F400049D018318B4246D018318B4243D01831DA
:101F50008B4240D018318B423DD001F556718B42F7
:101F600039D018318B4236D018318B4233D01831EA
:101F70008B4230D018318B422DD018318B422AD071
:101F800018318B4227D018318B4224D01A6822F0A6
:101F90000E021A601A6822F001021A60354A934252
:101FA00043D1026E136823F480731360D0E91613D3
:101FB00003F01F02012393404B60D0E919325A60AD
:101FC000C36E002B46D01A6822F480721A60D0E9E2
:101FD0001C325A603EE00421934280F835101ED036
:101FE000234A93421BD01832934218D0183293429E
:101FF00015D01832934212D0183293420FD01832B3
:1020000093420CD01832934209D002F55672934293
:1020100005D01832934202D018329342FFD01A688A
:1020200022F001021A60002010BD134A9342B8D07A
:1020300014329342B5D014329342B2D01432934248
:10204000AFD014329342ACD014329342A9D01432A0
:102050009342A6D00123002480F83530036D80F828
:1020600034400BB19847DEE71846DDE71000024028
:1020700028000240085402581C54025800232DE93D
:10208000F34101930446294B294E1F680368856D6F
:10209000B342D5F80080D5F800C04FD0254A93420E
:1020A0004CD01832934249D01832934246D018325D
:1020B000934243D01832934240D0183293423DD0DD
:1020C000183293423AD002F55672934236D0183203
:1020D000934233D01832934230D0183293422DD0ED
:1020E000183293422AD01832934227D018329342A2
:1020F00024D01832934221D00F4A934240F00C82F0
:10210000E16D04201A6801F01F01884010EA0C0FED
:1021100000F02982560740F126821104686040F1E0
:102120001A82D30300F11D82A36C80E10000002419
:10213000100002402800024008540258E26D0820B6
:1021400002F01F02904010EA080F3DD0B3422ED09B
:1021500085498B422BD018318B4228D018318B42C5
:1021600025D018318B4222D018318B421FD0183124
:102170008B421CD018318B4219D001F556718B421D
:1021800015D018318B4212D018318B420FD0183134
:102190008B420CD018318B4209D018318B4206D0BB
:1021A00018318B4203D018318B4240F0C28019683D
:1021B000C1F3800141B1196821F004011960A860E0
:1021C000616D41F00101616528FA02F1C80734D55B
:1021D000B3422ED064498B422BD018318B4228D089
:1021E00018318B4225D018318B4222D018318B42C6
:1021F0001FD018318B421CD018318B4219D001F5F9
:1022000056718B4215D018318B4212D018318B4247
:102210000FD018318B420CD018318B4209D01831B5
:102220008B4206D018318B4203D018318B4240F0DC
:1022300084805969090600F182800421914011EAE5
:10224000080F32D0B3422DD0474883422AD01830ED
:10225000834227D01830834224D01830834221D0C3
:10226000183083421ED0183083421BD0183083426E
:1022700018D000F55670834214D01830834211D024
:10228000183083420ED0183083420BD0183083426E
:1022900008D01830834205D01830834202D018305D
:1022A000834254D11868800753D4102101FA02F2F6
:1022B00012EA080F5ED0B3422DD02B498B422AD0B0
:1022C00018318B4227D018318B4224D018318B42E1
:1022D00021D018318B421ED018318B421BD01831BF
:1022E0008B4218D001F556718B4214D018318B42B5
:1022F00011D018318B420ED018318B420BD01831CF
:102300008B4208D018318B4205D018318B4202D055
:1023100018318B4223D1196811F0080F2AD0AA6016
:102320001A68500340F18B801B6819031ED4236C7C
:102330001DE01968C1F3C0013CE719687DE7012180
:102340009140A960616D41F00201616575E719680E
:10235000ABE7A960616D41F004016165A5E719680B
:1023600011F0040FDAE700BF28000240A36C0BB1A4
:1023700020469847E26D202102F01F02914011EAA9
:10238000080F73D02368B3422DD08D4883422AD0E2
:102390001830834227D01830834224D0183083422B
:1023A00021D0183083421ED0183083421BD0183001
:1023B000834218D000F55670834214D018308342FF
:1023C00011D0183083420ED0183083420BD0183011
:1023D000834208D01830834205D01830834202D09F
:1023E0001830834234D1186810F0100F3ED0A96025
:1023F00094F8351004292FD1196821F016011960BD
:10240000596921F080015961216C09B9A16C19B198
:10241000196821F0080119603F2303FA02F2012331
:10242000AA6084F83530002384F83430236D002B03
:1024300000F08E80204602B0BDE8F04118471A68CF
:10244000D2053FF574AF1A6822F008021A606EE7F1
:10245000186810F0020FC9E71A6855034DD51B68BC
:10246000180357D4636C0BB120469847636D002B5B
:102470006ED0636DD9073ED5042384F835302368C8
:10248000B3421ED04E4A93421BD01832934218D00A
:102490001832934215D01832934212D01832934218
:1024A0000FD0183293420CD01832934209D002F563
:1024B0005672934205D01832934202D0183293429A
:1024C000FFD01A6822F001021A604FF41652B7FBCF
:1024D000F2F7019A0132BA42019202D81A68D20781
:1024E000F7D41B68DF074CBF0323012384F8353082
:1024F000002384F83430E36C99E71A6812F4807290
:1025000008D1196821F010011960012384F83420E2
:1025100084F83530E36BA6E72A4A93423FF4F0ADE6
:10252000143293423FF4ECAD143293423FF4E8ADE1
:10253000143293423FF4E4AD143293423FF4E0ADE1
:10254000143293423FF4DCAD143293423FF4D8ADE1
:1025500002B0BDE8F081970603D41A6822F00402A5
:102560001A60236C63E70220884010EA0C0F16D033
:10257000960714D56860100403D5D1030DD4636C9D
:1025800055E712F0200208D1196821F00A011960FC
:10259000012384F8342084F83530E36B47E70820C2
:1025A000884010EA0C0FD3D01207D1D51A6822F058
:1025B0000E021A60012303FA01F16960636595E771
:1025C000280002401C540258406D70472DE9F74F17
:1025D0000023DFF8CC914FF0B0440A6832FA03F5DB
:1025E00002D103B0BDE8F08F4FF0010E0EFA03FEEA
:1025F0001EEA020200F0BD804E684FEA43084FF029
:10260000030C06F003050CFA08FC6F1E6FEA0C0CB5
:10261000012F34D8876807EA0C0ACF6807FA08F751
:1026200047EA0A078760476827EA0E0EC6F30017D5
:102630009F4047EA0E074760C768022D07EA0C0E65
:102640008F6807FA08F747EA0E07C76019D14FEA03
:10265000D30A03F0070B4FF00F0E00EB8A0A4FEA84
:102660008B0BDAF820700EFA0BFE27EA0E0E0F69BC
:1026700007FA0BF747EA0E07CAF8207001E0032DAE
:10268000DAD1076805FA08F516F4403F07EA0C07A7
:1026900047EA050707606CD0D9F8F45023F0030728
:1026A00003F0030C4FF00F0E45F0020507F1B047A1
:1026B0004FEA8C0CC9F8F45007F58067D9F8F4504C
:1026C00005F002050195019D0EFA0CF5D7F808807A
:1026D00028EA050E314DA8424DD005F58065A84287
:1026E0004BD005F58065A84249D005F58065A84224
:1026F00047D005F58065A84245D005F58065A8421C
:1027000043D005F58065A84241D005F58065A84213
:102710003FD005F58065A8423DD005F58065A8420B
:102720000CBF09250A2505FA0CF516F4801F45EAA9
:102730000E05BD606FEA020725680CBF3D401543DA
:1027400016F4001F256065680CBF3D40154316F464
:10275000003F6560D4F884500CBF3D401543F6033C
:10276000C4F88450D4F8805054BF3D401543C4F899
:102770008050013331E70025D5E70125D3E7022555
:10278000D1E70325CFE70425CDE70525CBE70625CF
:10279000C9E70725C7E70825C5E700BF00000258BD
:1027A000004402580AB1816170470904FBE743699C
:1027B00001EA030221EA030141EA02418161704713
:1027C0004FF0B042D2F88810014208B503D0C2F8E9
:1027D000880005F005FE08BD38B5104CE36813F01D
:1027E000040FE36805D103F00703181A18BF01208E
:1027F00038BD23F007031843E060FEF7CFFC054621
:1028000063689B0401D50020F2E7FEF7C7FC401B7C
:10281000B0F57A7FF4D90120EAE700BF00480258FA
:10282000F8B5044608B901208BE00368DF075ED4E1
:1028300023689E0700F1AF802368DA0627D59E4BF8
:102840001A69996A02F03802082A07D0182A40F05B
:10285000078101F00302012A40F002811B68DB05B9
:1028600002D5E369802BDED1FEF79EFC41F2030323
:10287000216A9842904B00F2EC805A68202922F09D
:10288000F8420CBF42F0804242EA81625A602368FB
:10289000190700F1278123689A0600F1488123680F
:1028A0005D071ED5854D2B6843F480732B60FEF7C2
:1028B00075FC06462B68DA0540F15E81A3687E4D03
:1028C000012B40F060812B6F43F001032B6741F235
:1028D0008837FEF763FC784E0546336F9B0740F15F
:1028E0007881606A002840F07B81002029E0724BEB
:1028F0001A69996A02F03802102A05D0182A0AD1FA
:1029000001F00302022A06D11B689D0390D563687B
:10291000002B8DD187E76268B2F5803F12D11A682B
:1029200042F480321A60FEF739FC634E0546336884
:1029300098033FF57DAFFEF731FC401B6428F6D9C4
:102940000320F8BD5C4D2B689AB923F480332B60CB
:102950002B6823F480232B60FEF720FC06462B68AF
:1029600099037FF565AFFEF719FC801B6428F6D943
:10297000E6E7B2F5A02F07D143F480232B602B6844
:1029800043F480332B60CEE723F480332B602B6835
:1029900023F48023F6E7484BE1681A69986A12F03D
:1029A000380203D0182A2BD1820729D11B685B0774
:1029B00002D500293FF437AF3F4D2A6822F01902B3
:1029C0000A432A60FEF7EAFB06462B685F0711D52B
:1029D000FEF7EAFB41F20303226998426B6822D8B2
:1029E00023F47C33402A0CBF43F4003343EA023320
:1029F0006B6021E7FEF7D2FB801B0228E5D99FE739
:102A00001A68A9B122F019022B4D0A431A60FEF789
:102A1000C5FB06462B685807DAD4FEF7BFFB801BC0
:102A20000228F7D98CE723F0FE4343EA0263DFE78D
:102A300022F00102204E1A60FEF7B0FB0546336813
:102A400059077FF5F9AEFEF7A9FB401B0228F6D91E
:102A500076E7DA6822F07C5242EA0162DA6016E731
:102A6000E2696AB31A68144D42F080021A60FEF7F8
:102A700095FB06462B68DF0511D5FEF795FB41F265
:102A80000303226A984210D86B68202A23F0F84387
:102A90000CBF43F0804343EA82636B60F7E6FEF7C6
:102AA0007DFB801B0228E5D94AE7EB6823F07C53C5
:102AB00043EA0263EB60EAE6004402580048025829
:102AC0001A689F4E22F080021A60FEF767FB0546E7
:102AD0003368D8057FF5DBAEFEF760FB401B0228AC
:102AE000F6D92DE76369964D83B16B6F43F001030F
:102AF0006B67FEF753FB06466B6F9B073FF5CBAE4C
:102B0000FEF74CFB801B0228F6D919E76B6F23F008
:102B100001036B67FEF742FB06466B6F9F077FF56D
:102B2000BAAEFEF73BFB801B0228F6D908E7A36983
:102B3000834D83B12B6843F480532B60FEF72EFB4B
:102B400006462B6898043FF5AAAEFEF727FB801BCC
:102B50000228F6D9F4E62B6823F480532B60FEF7A5
:102B60001DFB06462B6899047FF599AEFEF716FB10
:102B7000801B0228F6D9E3E6FEF710FB801B6428D1
:102B80007FF698AEDCE6B3B92B6F41F2883723F0BD
:102B900001032B672B6F23F004032B67FEF7FEFA6C
:102BA00006462B6F98077FF59CAEFEF7F7FA801B61
:102BB000B842F6D9C4E6052B2B6F03D143F00403CA
:102BC0002B6780E623F001032B672B6F23F00403B0
:102BD0007CE6FEF7E3FA401BB8427FF67EAEAFE636
:102BE000574D2B6903F03803182B7AD02B68022835
:102BF00023F080732B6067D1FEF7D0FA06462B686E
:102C000099015BD4AB6AA26A23F47C7323F00303BB
:102C10001343E26A43EA0213AB62636BA26B013BAC
:102C2000013A5B0212049BB202F4FE021343226BD0
:102C3000013AC2F308021343E26B013A120602F0B2
:102C4000FE4213432B63EB6A23F00103EB626B6BD1
:102C5000A26C23F47F4323F0F80343EAC2036B63BF
:102C6000EB6A226C23F00C031343EB62EB6A626C99
:102C700023F002031343EB62EB6A43F48033EB620D
:102C8000EB6A43F40033EB62EB6A43F48023EB62BC
:102C9000EB6A43F00103EB622B6843F080732B6017
:102CA000FEF77CFA264D04462B689A013FF51DAECF
:102CB000FEF774FA001B0228F6D941E6FEF76EFA19
:102CC000801B02289BD93BE6FEF768FA04462B6876
:102CD0009B017FF50AAEFEF761FA001B0228F6D9C8
:102CE0002EE60128AA6A2B6B3FF42BAE02F00301FB
:102CF000A06A81427FF497ADC2F30512E16A8A426D
:102D00007FF491AD226BC3F30801013A91427FF445
:102D10008AAD626BC3F34621013A91427FF483ADE1
:102D2000A26BC3F30641013A91427FF47CADE06BA4
:102D3000C3F306630138181A18BF012001E600BF6B
:102D400000440258484B1A6902F03802102A30B584
:102D500000F08680182A0CD0002A40F083801A6880
:102D6000424812F0200F03D01B68C3F3C103D840C0
:102D700030BD996A9D6ADC6A15F47C7FC5F3051045
:102D80005A6BF5D0C2F3CC0204F0010407EE900AAE
:102D900001F003016243B7EE006AF8EEE76A012929
:102DA00007EE902AFAEEE97A4CD002293CD00029AD
:102DB00048D11A68920627D519682C4AC1F3C10177
:102DC0001B6BCA40C3F3080307EE102AF8EEC75A7C
:102DD00085EEA67A06EE903AF8EEE66A76EEA77AE7
:102DE00077EE867A204B67EE877A1B6BC3F3462318
:102DF000013307EE103AF8EEC76A87EEA67AFCEECA
:102E0000C77A17EE900AB3E71B6BC3F3080307EE0C
:102E1000103AB8EEC77A77EE277A77EE867A9FED8A
:102E2000146A86EE267ADDE71B6BC3F3080307EE10
:102E3000103AB8EEC77A77EE277A77EE867A9FED6A
:102E40000D6AEEE71B6BC3F3080307EE103AB8EE0A
:102E5000C77A77EE277A77EE867A9FED076AE0E702
:102E6000064885E7064883E7004402580090D003EF
:102E70000024744C20BCBE4B0024744A40787D0171
:102E800000093D002DE9F0410D46044610B901202E
:102E9000BDE8F081884A136803F00F038B42C0F04D
:102EA000938023685F0700F19B801E070BD5834941
:102EB0006669C86900F07000864204D9CA6922F0C8
:102EC00070023243CA61D8060BD57C49A669C8692D
:102ED00000F4E060864204D9CA6922F4E062324319
:102EE000CA6199060BD57549E669086A00F0700059
:102EF000864204D90A6A22F0700232430A629A07B3
:102F00000BD56E49E668886900F00F00864204D947
:102F10008A6922F00F0232438A61DF076ED4236888
:102F20009E0700F1A18064490A6802F00F02AA42DC
:102F300000F2A880580700F1B18019070BD55F494E
:102F40006569C86900F07000854204D2CA6922F040
:102F500070022A43CA61DA060BD55849A569C869C7
:102F600000F4E060854204D2CA6922F4E0622A4398
:102F7000CA619B060BD5514AE069116A01F07001E4
:102F8000884204D2136A23F0700303431362FFF7ED
:102F9000D9FE4A494A4A8B69C3F30323D35C03F041
:102FA0001F03D8408B6903F00F03D35C454A03F03D
:102FB0001F0320FA03F31360434B1860434BBDE833
:102FC000F0411868FDF7AABE136823F00F030B4306
:102FD0001360136803F00F038B427FF458AF60E770
:102FE00036492669886900F0700086427FF65DAF39
:102FF0008A6922F0700232438A6156E72F4BA1683A
:103000009A6922F470620A439A6162681B68022A14
:103010001DD113F4003F3FF43AAF284E41F28838F7
:10302000336923F0070313433361FEF7B7F807460C
:103030003369626803F03803B3EBC20F3FF46FAF3C
:10304000FEF7ACF8C01B4045F2D9032020E7032A65
:1030500002D113F0007FDEE7012A02D113F4807F52
:10306000D9E713F0040FD6E71449E668886900F041
:103070000F008642BFF457AF8A6922F00F02324335
:103080008A6150E70A6822F00F022A430A600A6840
:1030900002F00F02AA427FF4FAAE4BE70749256916
:1030A000886900F070008542BFF447AF8A6922F05A
:1030B00070022A438A6140E700200052004402580F
:1030C000DB9A000804000024000000240C00002407
:1030D00010B50C4CFFF736FE0B49A369C3F303236D
:1030E000CA5CA36902F01F0203F00F0320FA02F288
:1030F000CB5C03F01F0322FA03F0044B1860044B6F
:103100001A6010BD00440258DB9A00080400002435
:103110000000002408B5FFF7DBFF054B054ADB691B
:10312000C3F30213D35C03F01F03D84008BD00BFF4
:1031300000440258DB9A000808B5FFF7C9FF054BA9
:10314000054ADB69C3F30223D35C03F01F03D840B5
:1031500008BD00BF00440258DB9A00083F2303600B
:10316000114B1A6902F0070242609A6902F4706218
:1031700082609A6902F00F02C2609A6902F07002DE
:103180000261DA6902F070024261DA6902F4E06217
:1031900082611B6A03F07003C361044B1B6803F078
:1031A0000F030B60704700BF00440258002000521C
:1031B000F8B53A4C06460D46A36A03F00303032B09
:1031C00069D0236823F080632360FDF7E7FF07469B
:1031D00023681A014BD4A36A326823F47C3343EA90
:1031E0000233A362B368F268013B013A5B02120446
:1031F0009BB202F4FE0213437268013AC2F3080262
:1032000013433269013A120602F0FE421343A363EC
:10321000E36A726923F0C0031343E362E36AB269AD
:1032200023F020031343E362E36A23F01003E36215
:10323000E36BF26923F47F4323F0F80343EAC2030C
:10324000E363E36A43F01003E362E36AB5B943F46E
:103250000023E362114C236843F080632360FDF791
:103260009DFF054623681B010FD5002005E0FDF7F3
:1032700095FFC01B0228ABD90320F8BD012D0CBF60
:1032800043F4801343F40013E3E7FDF787FF401B8B
:103290000228E7D9F0E70120EFE700BF0044025819
:1032A000F8B53A4C06460D46A36A03F00303032B18
:1032B00069D0236823F080532360FDF76FFF074632
:1032C00023689A004BD4A36A326823F07C7343EAE4
:1032D0000253A362B368F268013B013A5B02120435
:1032E0009BB202F4FE0213437268013AC2F3080271
:1032F00013433269013A120602F0FE42134323647B
:10330000E36A726923F440631343E362E36AB269D8
:1033100023F400731343E362E36A23F48073E362EC
:10332000636CF26923F47F4323F0F80343EAC2039A
:103330006364E36A43F48073E362E36AB5B943F418
:103340008003E362114C236843F080532360FDF750
:1033500025FF054623689B000FD5002005E0FDF7FB
:103360001DFFC01B0228ABD90320F8BD012D0CBFE7
:1033700043F4000343F08073E3E7FDF70FFF401BC6
:103380000228E7D9F0E70120EFE700BF0044025828
:103390002DE9F8430668054616F0006609D0436E2D
:1033A000B3F5001F2ED013D8F3B1B3F5801F21D091
:1033B00001262B68DC0540F1EA806B6D042B00F2DE
:1033C000E580DFE813F024002B00DD002900290050
:1033D000B3F5401FECD1A64A0026696E136D23F4A5
:1033E00040130B431365E4E7A14AD36A43F4003367
:1033F000D362F0E702210430FFF7DAFE0646002828
:10340000D7D1E8E702212430FFF74AFFF6E7984AD0
:10341000D36A43F40033D362344604E00021281D0C
:10342000FFF7C6FE0446002C40F0B380904A696D59
:10343000136D23F007030B4313652B6898050DD517
:10344000AB6D802B00F0C28000F2A580002B00F055
:10345000B180402B00F0B480012634462B6859051A
:1034600010D5D5F8A430B3F5800F00F0D48000F269
:10347000B580002B00F0C380B3F5001F00F0C580BD
:10348000012634462B681A0510D5D5F8A830B3F1BB
:10349000007F00F0E58000F2C680002B00F0D480B1
:1034A000B3F1807F00F0D680012634462B689B0163
:1034B0000DD5AB6C202B00F0EF8000F2DB80002BF1
:1034C00000F0DB80102B00F0E180012634462B68F1
:1034D000DF040FD5EB6DB3F5005F00F0018100F262
:1034E000E380002B00F0F080B3F5805F00F0F28005
:1034F000012634462B6898040FD52B6EB3F5003F98
:1035000000F00E8100F2F480002B00F0FA80B3F599
:10351000803F00F0FF80012634462B68590410D507
:10352000D5F8AC30B3F1005F00F01B8100F20081F0
:10353000002B00F00681B3F1805F00F00C810126C2
:1035400034462B681A040DD5EB6EB3F1805F00F0A2
:103550001081B3F1005F00F01A81002B00F00E81A2
:10356000012634462B68DB0140F127816B6C032B6D
:1035700000F26781DFE813F0180113015F01180101
:10358000002105F12400FFF78BFE4BE701263446AE
:1035900053E7264651E7C02B03D0B3F5807F7FF475
:1035A0005BAFCCB9324AA96D136D23F4E0730B43C2
:1035B000136553E72E4AD36A43F40033D362F0E72E
:1035C0000021281DFFF7F4FD0446EAE7002105F17C
:1035D0002400FFF765FEF7E726463FE7B3F5C00F87
:1035E00003D0B3F5000F7FF44BAFD4B9204AD5F820
:1035F000A410936D23F460030B43936542E71C4AC8
:10360000D36A43F40033D362EFE70021281DFFF7AC
:10361000CFFD0446E9E7002105F12400FFF740FE55
:10362000F7E726462EE7B3F1407F03D0B3F1806F72
:103630007FF43AAFD4B90E4AD5F8A810936D23F0B1
:10364000E0630B43936531E7094AD36A43F40033DF
:10365000D362EFE70021281DFFF7AAFD0446E9E742
:10366000002105F12400FFF71BFEF7E726461DE7C2
:1036700000440258302B7FF428AF9CB99D4AA96CB6
:10368000D36C23F030030B43D36420E7994AD36A09
:1036900043F40033D362F0E70221281DFFF788FDD1
:1036A0000446EAE7264612E7B3F5405F03D0B3F5D8
:1036B000804F7FF41DAFCCB98E4AE96D136D23F4B2
:1036C000E0430B43136515E78A4AD36A43F400339A
:1036D000D362F0E70021281DFFF76AFD0446EAE700
:1036E000002105F12400FFF7DBFDF7E7264601E79F
:1036F00023F48032B2F5802F03D0B3F5403F7FF43E
:103700000AAF9CB97B4A296E136D23F4E0230B4367
:10371000136502E70121281DFFF74AFD0446F0E783
:10372000012105F12400FFF7BBFDF7E72646F4E68B
:1037300023F08052B2F1804F03D0B3F1405F7FF4A9
:10374000FEAEA4B96B4AD5F8AC10936D23F0E043FC
:103750000B439365F5E60121281DFFF729FD04467B
:10376000EFE7012105F12400FFF79AFDF7E7264670
:10377000E7E6604AD36A43F40033D3626CB95D4A2A
:10378000E96E136D23F040530B431365EAE6012104
:10379000281DFFF70DFD0446F0E72646E2E6554AF0
:1037A000D36A43F40033D362002C4DD1514A696C83
:1037B000D36C23F003030B43D3642B685F024DD516
:1037C0004D4F3B6843F480733B60FDF7E7FC804658
:1037D0003B68D8053AD5002C6CD1464BD5F8B000E3
:1037E0001A6F424012F4407F0BD01A6F196F22F407
:1037F000407241F480311967196F21F480311967E3
:103800001A67B0F5807F40D0D5F8B030394903F45D
:103810004072B2F5407F49D10869384A20F47C50A3
:1038200002EA131202430A61C3F30B03314A116F18
:103830000B43136712E00221281DFFF7B9FC044671
:10384000B2E701263446B8E72646B6E7FDF7A6FC00
:10385000A0EB08006428BBD9032634462B68DA079E
:1038600008D5AB6F102B3CD026D85BB3082B32D0D9
:10387000012634462B689B074FD56B6F052B62D80A
:10388000DFE803F0433E5B434343FDF787FCDFF88B
:103890006480074641F28839D8F870309907B3D46C
:1038A000FDF77CFCC01B4845F6D9D5E70A6922F430
:1038B0007C52B8E72646D1E723F00802202A01D03F
:1038C000182BD5D19CB90B4AA96F536D23F038033F
:1038D0000B435365CEE70121281DFFF769FC044621
:1038E000F0E7012105F12400FFF7DAFCF7E72646AF
:1038F000C0E700BF0044025800480258CFFFFF0055
:103900000121281DFFF754FC0446FCB9A64A696F43
:10391000536D23F007030B4353652B685F0727D5CF
:10392000D5F89030052B00F23981DFE813F016004E
:1039300011003101160016001600012105F12400C6
:10394000FFF7AEFCE0E701263446E6E72646E4E76B
:103950000121281DFFF72CFC0446002C40F021819A
:10396000914AD5F89010936D23F007030B439365AC
:103970002B68980610D5D5F88C30B3F1005F00F0B5
:103980002E8100F21381002B00F01981B3F1805FCA
:1039900000F01F81012634462B68590610D5D5F852
:1039A0009830B3F5006F00F03B8100F22081002BCE
:1039B00000F02681B3F5806F00F02C81012634469B
:1039C0002B681A0610D5D5F89C30B3F5804F00F05F
:1039D000488100F22D81002B00F03381B3F5005FA8
:1039E00000F03981012634462B681B0714D5D5F821
:1039F0008030B3F5805F07D1022105F12400FFF785
:103A00004FFC002818BF0126674AD5F88010536D77
:103A100023F440530B4353652B68DF0614D5D5F8C8
:103A20009430B3F5807F07D1022105F12400FFF720
:103A300037FC002818BF01265B4AD5F89410936D17
:103A400023F440730B4393652B6818031AD5D5F8FC
:103A5000A010B1F5803F00F00C81B1F5003F06D019
:103A6000002940F00C81281DFFF7A2FB0446002C22
:103A700040F008814C4AD5F8A010936D23F44033F0
:103A80000B4393652B6859031CD5D5F88430B3F5E7
:103A9000001F00F0F980B3F5401F08D0B3F5801F78
:103AA00040F0F980404AD36A43F40033D362002CDB
:103AB00040F0F4803C4AD5F88410536D23F4401351
:103AC0000B4353652B68DA0309D5EB6C002B00F030
:103AD000E780B3F5803F00F0F180012634462B6883
:103AE0009B0007D5022105F12400FFF7D9FB002830
:103AF00018BF01262B689F030AD5E96FB1F5807FB7
:103B000000F0F28000F2E280002900F0E58001265A
:103B1000DC0206D52449286F0A6D22F000420243D8
:103B20000A65D80007D52049D5F8B4000A6922F4FF
:103B3000804202430A61990206D51B49A86E0A6DAC
:103B400022F0807202430A655A0009D5164A1169AB
:103B500021F4004111611169D5F8B80001431161E8
:103B6000002B06DA1049286DCA6C22F0405202433D
:103B7000CA641B0207D50C4AD5F88810536D23F48C
:103B800040030B435365301E18BF0120BDE8F88386
:103B9000012105F12400FFF783FBDDE60126344611
:103BA000E6E62646E4E600BF0044025823F08052D1
:103BB000B2F1804F03D0B3F1405F7FF4EBAEA4B914
:103BC0004D4AD5F88C10536D23F0E0430B435365F9
:103BD000E2E60021281DFFF7EBFA0446EFE7022199
:103BE00005F12400FFF75CFBF7E72646D4E623F453
:103BF0008062B2F5805F03D0B3F5406F7FF4DEAE34
:103C0000A4B93D4AD5F89810936D23F4E0530B43C3
:103C10009365D5E60021281DFFF7CAFA0446EFE7B1
:103C2000022105F12400FFF73BFBF7E72646C7E634
:103C300023F40052B2F5004F03D0B3F5C04F7FF428
:103C4000D1AEA4B92C4AD5F89C10936D23F46043EF
:103C50000B439365C8E60021281DFFF7A9FA044627
:103C6000EFE7022105F12400FFF71AFBF7E72646EC
:103C7000BAE6022105F12400FFF712FBF6E6012661
:103C80003446FFE62646FDE6012105F12400FFF754
:103C900007FB04460BE70126344613E7264611E7E7
:103CA000154AD36A43F40033D3626CB9124AE96C03
:103CB000D36C23F480330B43D36410E70221281D17
:103CC000FFF776FA0446F0E7264608E721F480720B
:103CD000B2F5007F7FF41BAF64B90748426D22F450
:103CE00040720A43426513E70348C26A42F4003255
:103CF000C262F1E726460BE70044025808B5FFF719
:103D0000E7F9054B054A1B6AC3F30213D35C03F0C2
:103D10001F03D84008BD00BF00440258DB9A0008CA
:103D20004E4A70B5946A966AD56A16F47C3FC6F31B
:103D30000531D36B00F08D8007EE901AC3F3CC03EE
:103D4000C5F3001104F00304F8EEE76A4B43012CBD
:103D5000B7EE006A07EE903AFAEEE97A6BD0022CE1
:103D60005BD0002C67D113689B0646D51168936B16
:103D7000C1F3C1013A4AC3F30803CA4007EE102A4F
:103D8000F8EEC75A85EEA67A06EE903AF8EEE66AA5
:103D900076EEA77A77EE867A304A67EE877A936B6B
:103DA000C3F3462307EE103AB8EEC77A37EE067A29
:103DB000C7EE876AFCEEE66AC0ED006A936BC3F358
:103DC000064307EE103AB8EEC77A37EE067AC7EE2A
:103DD000876AFCEEE66AC0ED016A936BC3F3066383
:103DE00007EE103AB8EEC77A37EE066A87EE867AA3
:103DF000BCEEC77A80ED027A70BD936BDFED195A85
:103E0000C3F3080307EE103AB8EEC77A77EE277AC5
:103E100077EE867A85EEA67ABEE7936BDFED125ACF
:103E2000C3F3080307EE103AB8EEC77A77EE277AA5
:103E300077EE867AEEE7936BDFED0C5AC3F3080357
:103E400007EE103AB8EEC77A77EE277A77EE867AE1
:103E5000E0E7C0E900118160CEE700BF00440258EE
:103E60000090D0030024744C20BCBE4B0024744A44
:103E70004E4A70B5946A966AD56A16F07C7FC6F38E
:103E80000551536C00F08D8007EE901AC3F3CC03FC
:103E9000C5F3002104F00304F8EEE76A4B43012C5C
:103EA000B7EE006A07EE903AFAEEE97A6BD0022C90
:103EB0005BD0002C67D113689B0646D51168136C44
:103EC000C1F3C1013A4AC3F30803CA4007EE102AFE
:103ED000F8EEC75A85EEA67A06EE903AF8EEE66A54
:103EE00076EEA77A77EE867A304A67EE877A136C99
:103EF000C3F3462307EE103AB8EEC77A37EE067AD8
:103F0000C7EE876AFCEEE66AC0ED006A136CC3F385
:103F1000064307EE103AB8EEC77A37EE067AC7EED8
:103F2000876AFCEEE66AC0ED016A136CC3F30663B0
:103F300007EE103AB8EEC77A37EE066A87EE867A51
:103F4000BCEEC77A80ED027A70BD136CDFED195AB2
:103F5000C3F3080307EE103AB8EEC77A77EE277A74
:103F600077EE867A85EEA67ABEE7136CDFED125AFD
:103F7000C3F3080307EE103AB8EEC77A77EE277A54
:103F800077EE867AEEE7136CDFED0C5AC3F3080385
:103F900007EE103AB8EEC77A77EE277A77EE867A90
:103FA000E0E7C0E900118160CEE700BF004402589D
:103FB0000090D0030024744C20BCBE4B0024744AF3
:103FC0000268436E118E23F8021B4366B0F86A3014
:103FD000013B9BB2A0F86A30B0F86A309BB21BB9C3
:103FE000136923F00103136170470268436E116B7C
:103FF00043F8041B4366B0F86A30013B9BB2A0F85B
:104000006A30B0F86A309BB21BB9136923F0010320
:1040100013617047C36D026833F8021B1184C365D6
:10402000B0F86230013B9BB2A0F86230B0F8623069
:104030009BB21BB9136923F0020313617047C36D70
:10404000026853F8041B1162C365B0F86230013B8B
:104050009BB2A0F86230B0F862309BB21BB9136912
:1040600023F0020313617047036859699A6942F0AB
:1040700008029A619A6942F010029A611A6822F065
:1040800001021A601A6922F45B7222F003021A61BB
:104090009A6822F440429A6090F88120042A0BD05A
:1040A0008A0609D5D0F8842042F08002C0F8842026
:1040B0009A6942F020029A6190F88120032A0BD07D
:1040C0004A0609D5D0F8842042F00402C0F88420C2
:1040D0009A6942F040029A618A0509D5D0F8842095
:1040E00042F00102C0F884209A6942F400729A6199
:1040F000CA0509D5D0F8842042F00802C0F884200F
:104100009A6942F480729A610023A0F86230A0F8A4
:104110006A3070470268436E92F830201A70436E1E
:1041200001334366B0F86A30013B9BB2A0F86A30B5
:10413000B0F86A309BB223B90268136923F0010317
:1041400013617047C26D0368127883F82020C36D35
:104150000133C365B0F86230013B9BB2A0F8623016
:10416000B0F862309BB223B90268136923F00203EE
:1041700013617047F8B5044608B90120F8BD02681C
:104180000023464983628A42C36809D0A1F5784179
:104190008A4205D001F580618A4201D00F2BECD80C
:1041A000E16B08334909DB0801FB03333B498A42D1
:1041B00067D0A1F578418A4263D001F580618A42D7
:1041C0005FD0082BD9D894F8813003F0FF0223B9CF
:1041D000204684F88020FCF7F1FC22680223616805
:1041E00084F881301368A56B23F001031360A36981
:1041F0009668B3F1806F06F4F81604D1B1F5800F1C
:1042000041D1002D44D0A76A0B43E0692B433843CA
:10421000E76B3843E768384330439060606B034393
:10422000606A03432069034360690343206A0343D0
:10423000E06C0343A0680343A06C0343A06D0343F9
:10424000D36059B9936823F4C05343F40063936077
:10425000936823F4C06343F480639360136D23F089
:10426000010313654B0205D5D368616D23F000434C
:104270000B43D36000200123C4F8840084F881300C
:104280007CE7102B9EE70029BDD1B5F1805FBAD144
:10429000106840F480501060B5E700BF0030014066
:1042A0002DE9F8431D4690F8803004468946012BDD
:1042B00090460FD00123076880F88030FCF76EFF2E
:1042C00094F881300646012BD8B24FF0000303D09A
:1042D00084F88030022007E0B9F1000F02D0B8F175
:1042E000000F03D184F88030BDE8F88303226366B1
:1042F000A4F8683084F88120A268C4F88430B2F54C
:10430000C02FA4F86280C4F85C90A4F86A30A4F8C6
:104310006080C4E91C33236803D11A6842F4006248
:104320001A605968090C090441EA080159601A68C1
:1043300042F001021A606268B2F5800F03D11A6878
:1043400042F400721A60E3680F2B2CD8072B73D845
:10435000B4F8623022689BB25BB35369980740F1AE
:104360009E80B4F86210E36D89B203297ED9E16BB7
:1043700040297BD953F8041B1162E365B4F862301D
:10438000043B9BB2A4F86230E2E75369980723D557
:10439000E36D53F8041B1162E365B4F86230013B2E
:1043A0009BB2A4F86230B4F8623022689BB2002B52
:1043B000EBD123685B691B077ED52046FFF754FECF
:1043C000002384F88030012384F88130D4F88400FD
:1043D000003818BF012087E7FCF7E0FE801BA842E9
:1043E00012D3691CDFD02046FFF73EFE00230320D6
:1043F00084F88030D4F8843043F48073C4F8843077
:10440000012384F881306FE7002DCCD1EBE74B69B5
:104410009A0720D5B4F86220E36D92B2012A12D92E
:10442000E26B82B153F8042B0A62E365B4F86230A0
:10443000023B9BB2A4F86230B4F8623021689BB2B0
:10444000002BE4D1B5E733F8022B3A84E365B4F8E6
:104450006230013BEDE7FCF7A1FE801BA84202D3CE
:104460006B1CE9D0BFE7002DE6D1BCE7B4F86210C1
:1044700089B2012909D9E16B39B133F8022B3A84A9
:10448000E365B4F86230023B7BE71B7882F82030AA
:10449000E36D0133E365B4F86230013B71E7FCF78B
:1044A0007DFE801BA84203D3691C3FF451AF9AE7FD
:1044B000002D7FF44DAF96E7FCF770FE801B854220
:1044C00009D86A1C3FF475AFD4F8843043F0200358
:1044D000C4F8843071E7002D7FF46BAFF4E72DE969
:1044E000F0471D4690F8803004468946012B9246DD
:1044F000089E17D00123D0F8008080F88030FCF7A8
:104500004DFE94F8813007466168012BDAB20BD07A
:10451000B1F5800F03D1A3680BB9042A04D000239E
:1045200084F8803002200AE0B9F1000F03D0BAF11C
:10453000000F00D02DB90023012084F88030BDE8A1
:10454000F08794F88130042B02D0052384F8813061
:1045500022680023C4F864A0B1F5800FC4F8843049
:10456000A4F86A50A4F86250A4F86850C4F85C90AB
:10457000A4F86050C4E91C3353684FEA13434FEA70
:10458000034343EA05035360136843F001031360D8
:1045900003D1136843F400731360E3680F2B5ED9F3
:1045A000A84648F208092268536999070ED56DB1EB
:1045B000E36D53F8041B1162E365B4F86230013B0C
:1045C0009BB2A4F86230B4F86250ADB2536913EAFA
:1045D000090F11D0B8F1000F0ED0126B636E43F8C3
:1045E000042B6366B4F86A30013B9BB2A4F86A30CE
:1045F000B4F86A801FFA88F8FCF7D0FDC01BB042FF
:1046000012D3721C12D02046FFF72EFD0023032088
:1046100084F88030D4F8843043F48073C4F8843054
:10462000012384F881308AE7002EECD045EA0803A4
:104630009BB2002BB7D123685B691B0740F18B80CD
:104640002046FFF711FD002384F88030012384F811
:104650008130D4F88400003818BF01206FE7072BA1
:104660003AD9A946226853699B070FD575B1E36D06
:1046700033F8021BA8F82010E365B4F86230013B60
:104680009BB2A4F86230B4F86250ADB25369D80757
:1046900012D5B9F1000F0FD0B8F83020636E23F8AF
:1046A000022B6366B4F86A30013B9BB2A4F86A300F
:1046B000B4F86A901FFA89F9FCF770FDC01BB0428C
:1046C00007D3711C9FD145EA09039BB2002BC9D1C6
:1046D000B1E7002EF7D196E7A84623685A699207FA
:1046E00010D57DB1E26D127883F82020E36D01339F
:1046F000E365B4F86230013B9BB2A4F86230B4F8D1
:104700006250ADB223685A69D00713D5B8F1000FD3
:1047100010D093F83030626E1370636E01336366AD
:10472000B4F86A30013B9BB2A4F86A30B4F86A80EE
:104730001FFA88F8FCF732FDC01BB04208D3711C89
:104740007FF461AF45EA08039BB2002BC5D172E745
:10475000002EF7D157E7FCF721FDC01B864209D890
:10476000721C3FF468AFD4F8843043F02003C4F8DF
:10477000843065E7002E7FF45EAFF4E72DE9F34760
:104780001D46436804468A46B3F5800F91460CD116
:10479000836853B9042380F88130134600950A4694
:1047A000FFF79DFE02B0BDE8F08794F88030012B42
:1047B0000FD00123D4F80080002684F88030FCF765
:1047C000EDFC94F881300746012BD8B203D084F871
:1047D00080600220E6E7BAF1000F02D0B9F1000FC5
:1047E00002D184F88060DDE704232168C4F864A066
:1047F00084F88130A368C4F88460B3F5C02FA4F8AE
:104800006A90A4F86890E665A4F86060A4F8626015
:10481000C4E91C6603D10B6823F400630B604E6887
:10482000360C360446EA09064E600B6843F0010375
:104830000B606368B3F5800F03D10B6843F400731A
:104840000B60E3680F2B3FD948F20806B4F86A30D2
:104850009BB273B92046FFF707FC002384F8803031
:10486000012384F88130D4F88400003818BF012077
:1048700098E723685A6932420BD01A6B636E43F88B
:10488000042B6366B4F86A30013B9BB2A4F86A302B
:10489000DCE7FCF783FCC01BA84212D36B1CD5D00D
:1048A0002046FFF7E1FB0023032084F88030D4F892
:1048B000843043F48073C4F88430012384F8813059
:1048C00070E7002DC2D1EBE7072B26D8B4F86A3089
:1048D0009BB2002BBED023685A69D2072ED593F81D
:1048E0003030626E1370636E01336366B4F86A3001
:1048F000013B9BB2A4F86A30E8E723685B69D807FC
:1049000011D5B8F83020636E23F8022B6366B4F833
:104910006A30013B9BB2A4F86A30B4F86A309BB2AB
:10492000002BEAD196E7FCF739FCC01BA84202D362
:10493000691CF2D0B4E7002DEFD1B1E7FCF72EFCF3
:10494000C01BA84202D36B1CC0D0A9E7002DBDD16B
:10495000A6E7000070B590F880500468012D12D0D1
:10496000012580F8805090F88150012DEEB20CD0D6
:104970004568B5F5800F03D185680DB9042E04D0C4
:10498000002380F88030022006E009B102B123B98B
:10499000002380F88030012070BD90F88150042DF4
:1049A00002D0052580F881500025C165C168C0F896
:1049B000845042660F29A0F86230A0F86A30B0F83F
:1049C0006220A0F8603092B2A0F8683025D93C4946
:1049D00041673C4901676168090C09040B431121D7
:1049E0006360236843F00103236005686B699B07DC
:1049F00000D5EAB92B6943F4ED6343F004032B615E
:104A00004368B3F5800F03D12B6843F400732B6028
:104A1000002380F880301846BEE707298BBF2A495B
:104A20002A49016701678CBF29492A494167D2E7B2
:104A30000139A5D0C268C36D0F2A07D953F8042BDA
:104A40002A62C365B0F86230013B20E0072AB0F863
:104A5000622092B20FD9012A09D9C26B3AB153F838
:104A6000042B2A62C365B0F86230023B0FE033F8D2
:104A7000022B2284E5E7032A10D9C26B402A0DD904
:104A800053F8042B2A62C365B0F86230043B9BB232
:104A9000A0F86230B0F8622092B2A6E7B0F86220C7
:104AA00092B2012A05D9C26B1AB133F8022B2284C3
:104AB000D8E71B7885F82030C36D0133C1E700BF0C
:104AC0003F400008EB3F0008C13F000815410008C7
:104AD0001540000845410008F8B51D4690F88030A3
:104AE0000446012B12D0012380F8803090F88130E9
:104AF000012BD8B20CD06368B3F5800F03D1A36843
:104B00000BB9042804D0002384F88030022004E08C
:104B100021B90023012084F88030F8BD002AF8D0A4
:104B2000002DF6D094F88130042B02D0052384F8B0
:104B300081300023E1652168C4F88430A4F8625014
:104B4000A4F86A50A4F860506266A4F86850E06F58
:104B5000C4E91C338B68866923F440438B60E368A7
:104B60000F2B27D9B6F5804FD3D194F88130002789
:104B70003031042B07650BBF504B514B036403646A
:104B80000CBF504B504BC363504BC364B4F86A30F6
:104B90009BB2FCF7FDFE064600284CD0D4F88430CA
:104BA00084F8807043F01003C4F88430012084F846
:104BB0008100B2E7072B15D9B6F5005F02D0B6F534
:104BC000804FA6D1A36F9B69B3F5804F06D1B4F88F
:104BD00062309BB201335B08A4F86230B6F5804FB7
:104BE000C3D10EE0A36F9B69B3F5005F0FD1B4F89A
:104BF00062309BB201335B08A4F86230B6F5005F07
:104C00000ED1B4F86A309BB201335B0810E0B3F503
:104C1000804FF3D1B4F862309BB203339B08EBE7CB
:104C2000B6F5804FA1D1B4F86A309BB203339B082C
:104C3000A4F86A3099E72268A06F93682032E16D8A
:104C400043F4804342F8183CB4F86230C0E90F6680
:104C50009BB2C0E91366FCF79BFE40B1D4F88430E8
:104C600084F8806043F01003C4F884309EE7A36F9B
:104C70002268DB691649B3F5807F1AD155680D406B
:104C80005560936843F400439360136943F4587389
:104C90001361136843F0010313606368B3F5800F79
:104CA00003D1136843F400731360002384F8803049
:104CB00033E753680B401D43E2E700BF2B4D00086C
:104CC000374D0008D94C0008014D0008414D00083F
:104CD0000000FFFF70477047806B08B590F8813087
:104CE000072B06D0C36FDB69B3F5807F02D1FFF7D6
:104CF000F2FF08BD0268136943F008031361F8E787
:104D0000806B08B590F88130072B06D0836FDB6984
:104D1000B3F5807F02D103F069FB08BD0268136917
:104D200043F008031361F8E77047806B08B5FFF79D
:104D3000FBFF08BD7047806B08B5FFF7FBFF08BDA0
:104D400010B5846BFDF740FC02280DD02046FFF71C
:104D50008BF9D4F8843043F01003C4F88430012375
:104D600084F8813003F048FB10BD00002DE9F14FBD
:104D700006680446D6F81080D6F81490B76808EA9A
:104D8000090A90F881500AF06403EDB2042B18D19F
:104D9000436F9847236F2046984701230AF0450B3D
:104DA000BBF1010F03D1236F204698475B460AF001
:104DB0002602022A07D1636F204601B0BDE8F04FFA
:104DC00018470023EAE7002B49D11AF0080F53D007
:104DD00023689A6942F008029A619A6942F01002C7
:104DE0009A619A6942F400629A611A6922F0080293
:104DF0001A619B6813F4404F1AD02046FFF734F92C
:104E0000012384F88130D4F8843023B303F0F4FA1A
:104E100025E0E268636E0F2A10D92268126B43F80E
:104E2000042B6366B4F86A30013B9BB2A4F86A3085
:104E3000B4F86A309BB2002BEBD1DEE7072A03D926
:104E4000328E23F8022BECE7226892F830201A7099
:104E5000636E0133E5E7052D04D103F0C7FA01B015
:104E6000BDE8F08F042D02D1FFF735FFF7E7032DE2
:104E7000F5D1FFF72FFFF2E719F4006F08D018F013
:104E8000080F05D02268936943F400639361E6E755
:104E90001AF4587FE3D01AF0400F0AD0D4F88430C7
:104EA000226843F00403C4F88430936943F040035C
:104EB00093611AF4007F0AD0D4F88430226843F05A
:104EC0000103C4F88430936943F4007393611AF4C6
:104ED000807F0AD0D4F88430226843F00803C4F8F5
:104EE0008430936943F4807393611AF0200F0AD0E1
:104EF000D4F88430226843F08003C4F88430936986
:104F000043F020039361D4F88430002BA7D02368AA
:104F100007F440471A68B7F5404F22F001021A60C3
:104F20001A6922F45A7222F003021A6121D19A6896
:104F3000E06F22F440429A6050B1104B0365FCF7D9
:104F4000E9FF28B1D4F8843043F04003C4F884303A
:104F5000A06F002883D0094B0365FCF7DBFF002816
:104F60003FF47DAFD4F8843043F04003C4F884307C
:104F700075E70123204684F8813047E7814F000818
:104F800008B5806B0023A0F86A30A0F862300123D6
:104F900080F8813003F030FA08BD704790F83D305A
:104FA000012B33D1022380F83D300368DA6842F0E8
:104FB0000102DA60164A93421AD0B3F1804F17D03B
:104FC000A2F57C42934213D002F5806293420FD047
:104FD00002F5806293420BD002F57842934207D0EB
:104FE000A2F56C42934203D002F59432934207D16A
:104FF0009968084A0A40062A06D0B2F5803F03D0D5
:105000001A6842F001021A600020704701207047C0
:10501000000001400700010070477047704770476B
:1050200003681A69910710B504460FD5DA6892072C
:105030000CD56FF002021A61012202779B69990771
:1050400000F08580FFF7E9FF0023237723681A69C2
:10505000520710D5DA6850070DD56FF004022046CC
:105060001A61022222779B6913F4407F75D0FFF703
:10507000D4FF0023237723681A6911070FD5DA6854
:1050800012070CD56FF0080220461A61042222771D
:10509000DB699B0767D0FFF7C0FF002323772368F6
:1050A0001A69D00610D5DA68D1060DD56FF0100256
:1050B00020461A6108222277DB6913F4407F58D01A
:1050C000FFF7ABFF0023237723681A69D20708D5BF
:1050D000DA68D00705D56FF0010220461A61FBF7A8
:1050E0002FFD23681A69110608D5DA68120605D55E
:1050F0006FF0800220461A6100F0D9F823681A691F
:10510000D00508D5DA68110605D56FF480722046FF
:105110001A6100F0CDF823681A69520608D5DA68DA
:10512000500605D56FF0400220461A61FFF777FF61
:1051300023681A69910622D5DA6892061FD56FF0A6
:10514000200220461A61BDE8104000F0AFB8FFF71A
:1051500063FF2046FFF762FF76E7FFF75DFF20461B
:10516000FFF75CFF85E7FFF757FF2046FFF756FF85
:1051700093E7FFF751FF2046FFF750FFA2E710BD6E
:10518000304A0368904212D0B0F1804F0FD0A2F5A0
:105190007C4290420BD002F58062904207D002F52B
:1051A0008062904203D002F57842904219D14A6859
:1051B00023F070031343234A90421DD0B0F1804F77
:1051C0001AD0A2F57C42904216D002F5806290423D
:1051D00012D002F5806290420ED002F578429042E1
:1051E0000AD0194A904207D002F58062904203D05B
:1051F00002F58062904203D123F44073CA681343DE
:105200004A6923F08003134303608B68C3620B6811
:1052100083620C4B98420FD003F5806398420BD009
:1052200003F57053984207D003F58063984203D08A
:1052300003F58063984201D10B6903630123436145
:10524000704700BF000001400040014010B5044617
:1052500050B390F83D3003F0FF021BB980F83C20BA
:10526000FFF79BFE02232068211D84F83D30FFF7E5
:1052700087FF0123002084F8483084F83E3084F80A
:105280003F3084F8403084F8413084F8423084F86C
:10529000433084F8443084F8453084F8463084F84C
:1052A000473084F83D3010BD0120FCE7704770475F
:1052B0007047026852E8003F23F0C00342E8003123
:1052C00002680029F5D102F1080353E8003F23F4F6
:1052D000000302F1080C4CE800310029F3D120232F
:1052E000C0F884307047000010B5026852E8003FF3
:1052F00023F4907342E8003102680029F5D10F4C85
:1053000002F1080353E8003F234002F1080C4CE887
:1053100000310029F4D1C36E012B07D152E8003FC0
:1053200023F0100342E800310029F7D12023C0F810
:1053300088300023C366036710BD00BFFEFFFFEF88
:10534000F8B504461346D4F88470202F43D161B3D6
:105350005AB394F88020012A3DD00125002621224D
:10536000A06FA4F8563084F88050C4F88C60216592
:10537000A4F85430C4F88420C8B1DFF860C02268B3
:10538000C0F83CC0DFF858C02832C0F840C0DFF891
:1053900054C0C0E913C6FCF7FBFA40B1102384F8EF
:1053A0008060C4F88C30C4F88470012012E0236857
:1053B00040221A620023226884F8803002F1080338
:1053C00053E8003F43F0800302F1080141E8003058
:1053D0000028F3D1F8BD0220FCE700BFE953000824
:1053E000315400084154000808B50346806BDB695E
:1053F000B3F5807F18D00023A0F85630026802F180
:10540000080353E8003F23F08003083242E80031EC
:1054100002680029F2D152E8003F43F0400342E81D
:1054200000310029F7D108BD02F074FFFBE7704797
:10543000806B08B5FFF7FBFF08BD704770477047EA
:10544000806B0268D0F8843010B5D0F8884092683C
:10545000120606D5212B04D10023A0F85630FFF701
:1054600028FF03689B685B0606D5222C04D1002325
:10547000A0F85E30FFF738FFD0F88C3043F010030F
:10548000C0F88C30FFF7DBFF10BD08B5806B002340
:10549000A0F85E30A0F85630FFF7D1FF08BD00003D
:1054A00003682DE9F041DA6940F60F0619680446F1
:1054B00032429D6810D1960640F1968001F0200698
:1054C00005F080573E4300F08F80036F002B00F003
:1054D0008480BDE8F0411847A64EA7482E400840FA
:1054E000304300F08180D70709D5C80507D50120D2
:1054F0001862D4F88C0040F00100C4F88C009707C3
:1055000009D5E80707D502201862D4F88C0040F0CE
:105510000400C4F88C00570709D5E80707D5042014
:105520001862D4F88C0040F00200C4F88C00170711
:105530000BD501F02000304307D008201862D4F8C2
:105540008C0040F00800C4F88C0016050AD548010C
:1055500008D54FF400601862D4F88C3043F0200373
:10556000C4F88C30D4F88C30002B36D093060AD592
:1055700001F0200105F0805551EA050303D0236FA7
:105580000BB12046984723682046D4F88C509B687E
:1055900005F0280503F040031D4320D0FFF7A4FECB
:1055A000226893685F0615D502F1080353E8003FAF
:1055B00023F0400302F1080040E800310029F3D154
:1055C000E06F38B16D4B0365FCF7A4FC28B1E06FC8
:1055D000036D7EE72046FFF732FFBDE8F081FFF75D
:1055E0002EFFC4F88C50F8E7E06E012840F0A88048
:1055F000D60640F1A580C80640F1A28010221A62AA
:105600009A6852066AD5E16F5D480A6882421ED0E8
:10561000183082421BD01830824218D01830824293
:1056200015D01830824212D0183082420FD0183074
:1056300082420CD01830824209D000F55670824266
:1056400005D01830824202D018308242FFD0526812
:1056500092B2002AC1D0B4F85C009042BDD9A4F83F
:105660005E20CA69B2F5807F2ED053E8002F22F465
:10567000807243E800210029F7D103F1080252E8C3
:10568000002F22F0010203F1080040E80021002968
:10569000F3D103F1080252E8002F22F0400203F197
:1056A000080040E800210029F3D12022C4F8882016
:1056B000E16653E8002F22F0100243E800210029A0
:1056C000F7D1E06FFCF780FAB4F85E30B4F85C1004
:1056D000C91A89B2204602F035FE7EE7B4F85E10A2
:1056E0008AB2B4F85E1089B200293FF476AFB4F8FC
:1056F0005C10891A89B200293FF46FAF53E8002F7C
:1057000022F4907243E800200028F7D11D4D03F1E8
:10571000080252E8002F2A4003F1080646E800205C
:105720000028F4D120222067C4F88820E06653E8DE
:10573000002F22F0100243E800200028F7D1C9E72B
:10574000D70209D56E0207D54FF4801220461A629F
:10575000BDE8F04100F0ECBB100615D501F080006B
:1057600005F4000528430FD0636F002B3FF435AFDD
:105770002046AEE601000010200100048B54000812
:1057800010000240FEFFFFEF570611D54E060FD561
:1057900053E8002F22F0400243E800210029F7D10E
:1057A000202320466167C4F8843002F0B3FD14E77B
:1057B000150206D5480004D52046BDE8F04100F0AA
:1057C000B9BBD3017FF509AF0029BFF606AF20466C
:1057D000BDE8F04100F0ADBB806B08B5C36E012B96
:1057E00005D1B0F85C10490802F0ACFD08BDFFF728
:1057F00025FEFBE708B50346806BDB69B3F5807FC8
:1058000032D00023A0F85E30026852E8003F23F453
:10581000807342E8003103680029F5D103F10802E2
:1058200052E8002F22F0010203F1080C4CE800219D
:105830000029F3D103F1080252E8002F22F04002C0
:1058400003F1080C4CE800210029F3D12022C0F814
:105850008820C26E012A07D153E8002F22F01002DF
:1058600043E800210029F7D1C36E012B04D1B0F821
:105870005C1002F067FD08BDFFF7DFFDFBE70000ED
:1058800030B504460368C06987B02169A2681D6805
:105890000A4361690A439749024329400A43E16880
:1058A0001A605A6822F440520A43A1695A60924A27
:1058B00093421CBF226A11439A6822F06E4222F47E
:1058C00030620A43616A9A60DA6A22F00F020A4380
:1058D000DA628A4A93421BD1894B5B6D03F038032D
:1058E000282B6CD8874AB0F5004FD35C40F032814A
:1058F000082B00F2C080082B61D8DFE813F0E70026
:10590000EC0060006000EF00600060006000F400E8
:105910007D4A934207D17A4B5B6D03F00703052B59
:105920004DD87A4ADFE77A4A934207D1744B5B6DD0
:1059300003F00703052B42D8764AD4E7764A934210
:1059400007D16F4B5B6D03F00703052B37D8734A04
:10595000C9E7734A934207D1694B5B6D03F00703B4
:10596000052B2CD86F4ABEE76F4A934207D1644B90
:105970005B6D03F03803282B21D86C4AB3E76C4ADF
:10598000934207D15E4B5B6D03F00703052B16D8DE
:10599000684AA8E7684A934207D1594B5B6D03F008
:1059A0000703052B0BD8654A9DE7534A934206D15E
:1059B00002F50E32936D03F00703052B01D9012088
:1059C0000EE05F49CB5C102B23D011D8042B16D0EE
:1059D000082B19D0022BF2D1FEF790F910BB002052
:1059E0004FF00113A3660023C4E91C3307B030BD98
:1059F000202B3ED0402BE2D14FF4004012E068460D
:105A0000FEF78EF90198E9E703A8FEF731FA04984A
:105A1000E4E713684B4813F0200F03D01368C3F377
:105A2000C103D840484B626A656833F8122005EB21
:105A30004501B0FBF2F39942C1D8B3EB053FBED8A4
:105A400000231946FAF7A4FC2A4609026B0841EA2A
:105A500010610002C0184FF0000341F10001FAF795
:105A600097FC3A4BA0F540729A42A8D82368D860B8
:105A7000B5E73748D6E7202B3AD0402B0BD0102B78
:105A80009DD11F4B2F481A6812F0200F03D01B68BE
:105A9000C3F3C103D840616A2B4B626833F81130FD
:105AA000B0FBF3F3500800EB43004FF6EF73B0FB8D
:105AB000F2F0A0F110029A4281D820F00F03C0F357
:105AC000420022689BB21843D06088E7FDF722FBB2
:105AD000002884D0DFE7FDF72FFBF9E76846FEF7E3
