:020000040800F2
:1000000000000824ED0E0008450C0008470C00080D
:10001000490C00084B0C00084D0C000800000000C3
:100020000000000000000000000000004F0C00086D
:10003000510C000800000000530C0008550C00088B
:100040003D0F00083D0F00083D0F00083D0F000860
:100050003D0F00083D0F00083D0F00083D0F000850
:100060003D0F00083D0F00083D0F00083D0F000840
:100070003D0F00083D0F00083D0F00083D0F000830
:100080003D0F00083D0F00083D0F00083D0F000820
:100090003D0F00083D0F00083D0F0008650C0008EB
:1000A0003D0F00083D0F00083D0F00083D0F000800
:1000B0003D0F00086D0C00083D0F00083D0F0008C3
:1000C0003D0F00083D0F00083D0F00083D0F0008E0
:1000D0003D0F00083D0F00083D0F00083D0F0008D0
:1000E0003D0F00083D0F0008000000003D0F000814
:1000F0003D0F00083D0F00083D0F00083D0F0008B0
:100100003D0F00083D0F00083D0F00083D0F00089F
:100110003D0F00083D0F0008790C00083D0F000856
:100120003D0F00083D0F00083D0F00083D0F00087F
:100130003D0F00083D0F00083D0F00083D0F00086F
:1001400000000000000000000000000000000000AF
:100150003D0F00083D0F00083D0F00083D0F00084F
:100160003D0F00083D0F00083D0F00083D0F00083F
:100170003D0F00083D0F00083D0F00083D0F00082F
:100180003D0F00083D0F00083D0F00083D0F00081F
:100190003D0F00083D0F00083D0F00083D0F00080F
:1001A0003D0F00083D0F0008850C00083D0F0008BA
:1001B0003D0F00083D0F00083D0F00083D0F0008EF
:1001C0003D0F00083D0F00083D0F00083D0F0008DF
:1001D0003D0F00083D0F00083D0F00083D0F0008CF
:1001E0003D0F00083D0F00083D0F00083D0F0008BF
:1001F0003D0F00083D0F00083D0F00083D0F0008AF
:100200003D0F00083D0F00083D0F00083D0F00089E
:100210003D0F00083D0F00083D0F00083D0F00088E
:100220003D0F00083D0F00083D0F000800000000D2
:100230003D0F00083D0F0008000000003D0F0008C2
:100240003D0F00083D0F00083D0F00083D0F00085E
:100250003D0F00083D0F00083D0F00083D0F00084E
:100260003D0F00083D0F00083D0F00083D0F00083E
:100270003D0F00083D0F00083D0F00080000000082
:100280003D0F00083D0F00083D0F00080000000072
:08029000000000003D0F000812
:1002980010B5054C237833B9044B13B10448AFF3B8
:1002A80000800123237010BD58B204240000000010
:1002B800F0D9020808B5034B1BB103490348AFF353
:1002C800008008BD000000005CB20424F0D90208D8
:1002D80010F8012B11F8013B012A28BF9A42F7D0E8
:1002E800D01A7047034613F8012B002AFBD1181ABD
:1002F8000138704753B94AB9002908BF00281CBF04
:100308004FF0FF314FF0FF3000F074B9ADF1080C39
:100318006DE904CE00F006F8DDF804E0DDE902231B
:1003280004B070472DE9F047089D04468E46002B1F
:100338004DD18A42944669D9B2FA82F252B101FA91
:1003480002F3C2F1200120FA01F10CFA02FC41EAA1
:10035800030E94404FEA1C48210CBEFBF8F61FFA26
:100368008CF708FB16E341EA034306FB07F19942C1
:100378000AD91CEB030306F1FF3080F01F81994274
:1003880040F21C81023E63445B1AA4B2B3FBF8F04E
:1003980008FB103344EA034400FB07F7A7420AD9D5
:1003A8001CEB040400F1FF3380F00A81A74240F2FD
:1003B80007816444023840EA0640E41B00261DB168
:1003C800D4400023C5E900433146BDE8F0878B429D
:1003D80009D9002D00F0EF800026C5E9000130465C
:1003E8003146BDE8F087B3FA83F6002E4AD18B4236
:1003F80002D3824200F2F980841A61EB03030120E0
:100408009E46002DE0D0C5E9004EDDE702B9FFDECB
:10041800B2FA82F2002A40F09280A1EB0C014FEA76
:100428001C471FFA8CFE0126200CB1FBF7F307FBD3
:10043800131140EA01410EFB03F0884208D91CEB76
:10044800010103F1FF3802D2884200F2CB80434613
:10045800091AA4B2B1FBF7F007FB101144EA0144F2
:100468000EFB00FEA64508D91CEB040400F1FF3181
:1004780002D2A64500F2BB800846A4EB0E0440EA6F
:1004880003409CE7C6F12007B34022FA07FC4CEA78
:10049800030C20FA07F401FA06F31C43F9404FEA6B
:1004A8001C4900FA06F3B1FBF9F8200C1FFA8CFE80
:1004B80009FB181140EA014108FB0EF0884202FAD4
:1004C80006F20BD91CEB010108F1FF3A80F0888095
:1004D800884240F28580A8F102086144091AA4B252
:1004E800B1FBF9F009FB101144EA014100FB0EFED3
:1004F8008E4508D91CEB010100F1FF346CD28E4502
:100508006AD90238614440EA0840A0FB0294A1EB92
:100518000E01A142C846A64656D353D05DB1B3EBEF
:10052800080261EB0E0101FA07F722FA06F3F1401F
:100538001F43C5E9007100263146BDE8F087C2F1C6
:100548002003D8400CFA02FC21FA03F3914001433E
:100558004FEA1C471FFA8CFEB3FBF7F007FB103677
:100568000B0C43EA064300FB0EF69E4204FA02F423
:1005780008D91CEB030300F1FF382FD29E422DD976
:10058800023863449B1B89B2B3FBF7F607FB1633AB
:1005980041EA034106FB0EF38B4208D91CEB01012B
:1005A80006F1FF3816D28B4214D9023E6144C91AAB
:1005B80046EA004638E72E46284605E70646E3E6BB
:1005C8001846F8E64B45A9D2B9EB020864EB0C0EC5
:1005D8000138A3E74646EAE7204694E74046D1E7D4
:1005E800D0467BE7023B614432E7304609E7644482
:1005F800023842E7704700BF08B50F4800230F4A8A
:10060800C365C0E900230222C0E91333C0E91132EF
:10061800C0E91533C0E9022300F003FE08B100F079
:10062800F9FA0121044800F0E3FE18B1BDE80840DA
:1006380000F0F0BA08BD00BF74B2042400100052E4
:100648000F4B07B502689A4217D10E4B01215A2069
:10065800D3F8D42042F01002C3F8D4200022D3F8F3
:10066800D43003F010030193019B00F0F5FC5A20ED
:1006780003B05DF804EB00F021BD03B05DF804FBA6
:10068800001000520044025824481022244B112123
:1006980070B50024036003F582738EB00625042626
:1006A800059106940D94C0E901344FF48053C0E9D4
:1006B80009344FF48043C0E90B340F23CDE90B21F3
:1006C800C0E90524CDE90352694607AA0293C0E9A7
:1006D8000344C0E90744C0E90D44C0E90F44CDE92B
:1006E8000063CDE90763CDE9093502F02DFE08B1B5
:1006F80000F090FA06220123694608480D94CDE9D6
:10070800092307AACDE90744CDE90B4402F01CFEF2
:1007180008B100F07FFA0EB070BD00BFE0B204244B
:1007280000400052F0B5B7B00021142202A82DF005
:1007380007F91E4B1968002935D1012208A81A604B
:10074800B8222DF0FDF84FF0807307A8079302F048
:1007580045F908B100F05EFA154B0227002603257B
:10076800D3F8D4200C2402A9124842F48052C3F8CA
:10077800D420D3F8D430069403F480530193019B1A
:100788004FF68873CDE90465CDE9023700F090FE95
:100798004CF2B37302A908480694CDE90237CDE9B3
:1007A800046500F085FE37B0F0BD00BFDCB204245C
:1007B8000044025800100258000C02582DE9F0417C
:1007C80014228AB00021DFF820810DEB0200424F8D
:1007D8002DF0B6F8414B4046414ED3F8E0201021A9
:1007E8000024012542F01002C3F8E020D3F8E020ED
:1007F80002F010020092009AD3F8E02042F0800242
:10080800C3F8E020D3F8E02002F080020192019AB8
:10081800D3F8E02042F00202C3F8E020D3F8E02049
:1008280002F002020292029AD3F8E02042F0080293
:10083800C3F8E020D3F8E02002F008020392039AFC
:10084800D3F8E02042F00102C3F8E0200022D3F8F8
:10085800E03003F001030493049B00F015FF3846D1
:1008680000224FF4807100F00FFF00223046402133
:1008780000F00AFF102305A94046CDE90535CDE96A
:10088800074400F015FE4FF4807305A93846CDE9FA
:100898000535CDE9074400F00BFE402305A9304695
:1008A800CDE90535CDE9074400F002FE4FF4881381
:1008B800202205A90B480794CDE9052300F0F8FD8F
:1008C80022460A21172000F0C7FB172000F0F6FB8C
:1008D8000AB0BDE8F08100BF000002580044025889
:1008E800000C0258000402580010025808B51248BB
:1008F800124A134BC0E9002300230122C0E9043344
:10090800C0E90232C0E90633036201F07AF808B19F
:1009180000F080F90021084801F0A8FA08B100F0B9
:1009280079F90021044801F0C7FA18B1BDE8084078
:1009380000F070B908BD00BF2CB304240054004077
:10094800B634900010B5B6B004461422002102A8AF
:100958002CF0F6FFBC22002107A82CF0F1FF22683A
:10096800194B9A422ED1082307A8079302F036F8AC
:1009780008B100F04FF9154C4FF4C07202A91448A1
:10098800D4F8E03043F00203C4F8E030D4F8E030A3
:1009980003F002030093009B1223CDE902230023F6
:1009A800CDE904330423069300F082FDD4F8E8303F
:1009B80043F40013C4F8E830D4F8E83003F4001323
:1009C8000193019B36B010BD00540040004402580A
:1009D8000004025830B59DB04C22002109A82CF023
:1009E800AFFF2022002101A82CF0AAFF022001F06D
:1009F80089FA00230093234BDA6A22F00102DA62B3
:100A0800DB6A03F0010300931F4B9A6942F44042EA
:100A18009A619A6902F440420092009A9A69910494
:100A2800FCD5012340252022022409A80994129408
:100A3800CDE90C350023CDE913324FF4C8721B936E
:100A4800CDE915240422CDE91744CDE9192301F095
:100A58007DFA08B172B6FEE703233F2203902146D0
:100A680001A80695CDE901230823CDE904354FF403
:100A78008063CDE9073501F09BFD08B172B6FEE74A
:100A88001DB030BD000400580048025810251FB59D
:100A980000212A46684601242CF052FF00F030FB62
:100AA8004FF01052564B6846ADF80040CDE901238F
:100AB800544B039300F042FB4FF0C04368468DF857
:100AC800014001931B238DF8083000238DF80A306C
:100AD8008DF80E3000F032FB022368468DF808507E
:100AE80004258DF801304FF04053ADF80E400193C6
:100AF80000F024FB032368468DF80130424B019334
:100B080000F01CFB414B68468DF8015001930E2301
:100B18008DF8083000F012FB052368468DF8013087
:100B28004FF0605301930F238DF8083000F006FB57
:100B3800062368468DF80A408DF801304FF01043BF
:100B48008DF80F40019316238DF8083000F0F6FA5F
:100B5800284600F0E3FA2E4B5A6912F4003211D1FC
:100B6800BFF34F8FBFF36F8FC3F85022BFF34F8F80
:100B7800BFF36F8F5A6942F400325A61BFF34F8F47
:100B8800BFF36F8F224A536913F4803323D1C2F81D
:100B98008430BFF34F8FD2F8803043F6E074C3F34C
:100BA800C900C3F34E335B0103EA0406014646EA73
:100BB80081750139C2F86052F9D2203B13F1200F38
:100BC800F2D1BFF34F8F536943F480335361BFF3BE
:100BD8004F8FBFF36F8F00F0D5F9FFF7FBFEFFF7DC
:100BE800EDFD00F013F900F0BFF8FFF74DFDFFF73A
:100BF80003FDFFF77BFE2CF0E7FD2CF0FBFDFEE785
:100C0800120001030000010100000230000004305E
:100C180000ED00E072B6FEE7074B82B0D3F8F4208F
:100C280042F00202C3F8F420D3F8F43003F00203D0
:100C38000193019B02B0704700440258FEE7FEE7AB
:100C4800FEE7FEE7FEE770477047704708B500F01B
:100C5800C7F90120BDE8084020F0F6BE202000F0CA
:100C680022BD0000014802F00CBD00BF78B3042487
:100C7800014802F006BD00BFC4B30424014800F0D7
:100C88002DBB00BF74B204240120704708B52CF0B6
:100C980013FE162303604FF0FF3008BD08B52CF093
:100CA8000BFE16230360FEE7254AD2F8883043F48A
:100CB8007003C2F88830234A136803F00F03062B29
:100CC80005D8136823F00F0343F0070313601E4B86
:100CD8001A6842F001021A6000221A611B4A196858
:100CE8000A4018491A600A68120705D50A6822F0EE
:100CF8000F0242F007020A60002215499A61DA6180
:100D08001A6299621349D962134919635A6399633C
:100D1800DA6319645A64196821F4802119601A6623
:100D28000E4B1B681B0C1B04B3F1005F03D20C4B6A
:100D38000122C3F808210B4B43F2D2021A60704714
:100D480000ED00E000200052004402587FEDF6EA72
:100D5800000202020000FF01800201010010005C95
:100D6800008000510040005210B500248AB01C22B7
:100D7800214603A80294CDE900442CF0E1FD214866
:100D8800214B8460C0E900344FF6FF73C0E9033497
:100D98008023836102F0BCFD08B1FFF73BFF694681
:100DA80018480094029402F05DFE08B1FFF732FF84
:100DB8000024302303A91348224605940794CDE95B
:100DC800033402F01BFE08B1FFF724FF042203A935
:100DD8000C48039402F012FE08B1FFF71BFF08222B
:100DE80003A9084802F00AFE08B1FFF713FF0C2216
:100DF80004480DEB020102F001FE08B1FFF70AFFFB
:100E08000AB010BD78B30424000400401FB50F4891
:100E180063230F4A0024C0E900234CF24F330394A4
:100E28008460C3608023CDE90144836102F040FD02
:100E380008B1FFF7EFFE01A904480194039402F0FA
:100E480011FE08B1FFF7E6FE04B010BDC4B30424D8
:100E5800001000400F4B07B502689A4217D10E4B9D
:100E68000E211D20D3F8E82042F00202C3F8E82042
:100E78000022D3F8E83003F002030193019B00F04D
:100E8800EBF81D2003B05DF804EB00F017B903B0D0
:100E98005DF804FB00040040004402580F4B07B5FE
:100EA80002689A4217D10E4B0D213620D3F8E8205C
:100EB80042F01002C3F8E8200022D3F8E83003F02B
:100EC80010030193019B00F0C7F8362003B05DF8CA
:100ED80004EB00F0F3B803B05DF804FB0010004029
:100EE80000440258DFF834D0FFF7DEFE0C480D4905
:100EF8000D4A002302E0D458C4500433C4188C426D
:100F0800F9D30A4A0A4C002301E013600432A242D2
:100F1800FBD32CF0D7FCFFF7B9FD7047000008247D
:100F28000000002458020024040E050858B20424C6
:100F380070BA0524FEE7000038B50F4B054618784F
:100F480008B9012038BD4FF47A730C4AB3FBF0F3AB
:100F58001068B0FBF3F000F0BFF804460028F0D1A9
:100F68000F2DEED8024629464FF0FF3000F074F8F6
:100F7800034B20461D60E5E708000024000000241C
:100F88000C00002410B5032000F054F801F070FAAA
:100F98000F49104A8B69C3F30323D35C03F01F0383
:100FA800D8408B6903F00F03D35C0B4A03F01F038F
:100FB80020FA03F31360094B18600F20FFF7BCFFFA
:100FC800044618B9FFF728FE204610BD0124FBE7A8
:100FD8000044025880DA02080400002400000024BB
:100FE800034A044B11681B780B441360704700BF19
:100FF80010B4042408000024014B1868704700BF8F
:1010080010B4042438B50446FFF7F6FF0546631C00
:101018001EBF044B1B78E418FFF7EEFF431BA342E7
:10102800FAD338BD08000024014B1868000C70473B
:101038000010005C07490302CA6803F4E06322F465
:10104800E0621204120C134343F0BF6343F400330D
:10105800CB60704700ED00E0164B30B5DC68C4F398
:101068000224C4F10705231D042D28BF0425062BDF
:101078004FF0FF338CBF033C002403FA05F500282A
:1010880003FA04F321EA050122EA030201FA04F152
:1010980041EA02034FEA0313DBB206DB00F16040CA
:1010A80000F5614080F8003330BD00F00F00024ABF
:1010B8001354F9E700ED00E014ED00E0002808DB28
:1010C8000123420900F01F0003FA00F0014B43F826
:1010D8002200704700E100E00138B0F1807F0BD2B8
:1010E8004FF0E023054AF0215861002082F82310D0
:1010F800072298611A6170470120704700ED00E0EF
:10110800BFF35F8F044B5A6A22F480325A6200227E
:10111800C3F89420704700BF00ED00E0064B40F094
:101128000100C3F894005A6A42F480325A62BFF34D
:101138004F8FBFF36F8F704700ED00E04378144A7C
:1011480010B5C2F898300178E9B14368C2F89C300C
:10115800C37A047B1B0643EA04730B43817A43EA90
:10116800C143417B43EA8143817B43EA4143C17BDD
:1011780043EA0143417A43EA0123017A43EA4103FE
:10118800C2F8A03010BDC2F89C10C2F8A010F9E750
:1011980000ED00E070B50468049D666C45EA034301
:1011A80006F04046334363644368E263B3F5403F67
:1011B80030D186681EB1012E03D121F07F41A16391
:1011C80070BD022E01F47F0301F47F45C8B207D138
:1011D800DB0CA90ADB0243EA411343EAD001EEE73C
:1011E800032E01F07F420AD1D90CED0A8902D30FF0
:1011F80041EA451141EAD00141EAC331DFE7190D5F
:101208002D0B0902130F41EA051141EA101141EAB9
:101218000331D4E7B3F5802F01D16161D0E7E160F4
:10122800CEE710B50446002836D090F8613003F0B8
:10123800FF021BB980F86020FFF702FA0223E06979
:10124800626884F8613023680243A069196821F450
:10125800E02121F040010A431A60596BA26821F489
:101268008371024321F001010A43E1685A631A6C51
:10127800120C12040A431A64596BD4E9040221F4CB
:101288004011520542EA005200200A435A630123E2
:10129800606684F8613010BD0120FCE773B590F8F2
:1012A80060500446012D4FF0020513D080F86150BC
:1012B8000126069D80F860600095FFF76BFF2368A4
:1012C80000201A6842F40C521A601A6832431A60F5
:1012D80002B070BD2846FBE770477047036870B5D9
:1012E8005E6804461D68F20714D5E90512D51A6828
:1012F80022F480721A60426E42F0010242660122B4
:101308009A60042380F86130002380F86030436AD3
:1013180003B19847B20616D5AB0414D523681A68EA
:1013280022F400521A6020229A60636E43F002038E
:101338006366042384F86130002384F86030636AAC
:101348000BB120469847300716D5290514D52368D0
:101358001A6822F400621A6008229A60636E43F0E9
:1013680004036366042384F86130002384F8603042
:10137800636A0BB12046984772070BD56B0509D5F0
:10138800236820461A6822F480621A6004229A6050
:10139800FFF7A2FFB00714D5A90512D523681A686C
:1013A80022F400721A6002229A60636E6366012357
:1013B80084F86130002384F86030236A0BB120463A
:1013C8009847F20613D5EB0411D5236820461A680E
:1013D80022F480521A6010229A60636E63660123B9
:1013E80084F86130002384F86030FFF776FF70BD21
:1013F80070B590F86030012B4FF0020332D01C24F6
:10140800012280F8613004FB010480F86020A26B9F
:10141800D4E90B651305E26B43EA0543A6F1090518
:101428003343012D43EA4253626B96BF02F07F4279
:1014380043EA026313430268B1B9546A012D19499A
:1014480001EA040143EA01035362836A936103D802
:10145800436B23F07F439362012380F861300023BC
:1014680080F86030184670BD0B2E05BF1C240E4E48
:101478000E4E04FB010404BF246C43EA8443D46980
:10148800012D24EA060443EA0403D3614FF01C0348
:1014980003FB01018B6A1361DED84B6B23F07F439A
:1014A8001362D9E7F0FFCC000F003FFF0F0033FFB6
:1014B8002DE9F74F0023DFF8CC914FF0B0440A68CC
:1014C80032FA03F502D103B0BDE8F08F4FF0010EF8
:1014D8000EFA03FE1EEA020200F0BD804E684FEAD3
:1014E80043084FF0030C06F003050CFA08FC6F1EC6
:1014F8006FEA0C0C012F34D8876807EA0C0ACF680A
:1015080007FA08F747EA0A078760476827EA0E0ECE
:10151800C6F300179F4047EA0E074760C768022DC9
:1015280007EA0C0E8F6807FA08F747EA0E07C76044
:1015380019D14FEAD30A03F0070B4FF00F0E00EB57
:101548008A0A4FEA8B0BDAF820700EFA0BFE27EAAC
:101558000E0E0F6907FA0BF747EA0E07CAF8207054
:1015680001E0032DDAD1076805FA08F516F4403FC3
:1015780007EA0C0747EA050707606CD0D9F8F4506A
:1015880023F0030703F0030C4FF00F0E45F002059C
:1015980007F1B0474FEA8C0CC9F8F45007F580679B
:1015A800D9F8F45005F002050195019D0EFA0CF5E5
:1015B800D7F8088028EA050E314DA8424DD005F528
:1015C8008065A8424BD005F58065A84249D005F54D
:1015D8008065A84247D005F58065A84245D005F545
:1015E8008065A84243D005F58065A84241D005F53D
:1015F8008065A8423FD005F58065A8423DD005F535
:101608008065A8420CBF09250A2505FA0CF516F4D1
:10161800801F45EA0E05BD606FEA020725680CBF0A
:101628003D40154316F4001F256065680CBF3D401A
:10163800154316F4003F6560D4F884500CBF3D4054
:101648001543F603C4F88450D4F8805054BF3D4085
:101658001543C4F88050013331E70025D5E701254B
:10166800D3E70225D1E70325CFE70425CDE70525F4
:10167800CBE70625C9E70725C7E70825C5E700BF63
:1016880000000258004402580AB1816170470904F9
:10169800FBE7436901EA030221EA030141EA024147
:1016A8008161704770474FF0B042D2F8881001420C
:1016B80008B503D0C2F88800FFF7F4FF08BD036837
:1016C8009A69910701D500229A629A69D20703D4D0
:1016D8009A6942F001029A617047000030B5039D93
:1016E800C1F3090104682B43606843EA0243054AD1
:1016F8000B4342EA555223F0004320EA0200034319
:10170800636030BDFF63FF032DE9F84303680546B6
:10171800884617469C6914F0100479D010220026D8
:101728004FF02009DA612B689A69940636D40EB115
:10173800042439E0B8F1FF3FF6D0FFF75DFCC01B89
:10174800404502D8B8F1000FEDD12B68596895F8DB
:1017580042209869D2B200040AD5490408D4202A44
:1017680006D05A6842F480425A60FFF745FC0746A3
:101778002B689C6914F02004D5D1FFF73DFCC01BF1
:101788001928F5D96B6C012685F8404043F02003F1
:101798006B6485F8419085F84240E9E7002EC7D18F
:1017A800202204240126DA612B689A69D00505D520
:1017B8004FF4807144F001040126D961510505D523
:1017C8004FF4806144F008040126D961920521D5BF
:1017D8004FF4007244F00204DA6128460126FFF74C
:1017E8006EFF2A68536823F0FF7323F48B3323F4C6
:1017F800FF7323F0010353606B6C1C4320236C645C
:1018080085F84130002385F8423085F8403003E000
:101818002646C9E7002EE0D13046BDE8F88370B50A
:1018280004460D46164623689B699B0701D5002090
:1018380070BD324629462046FFF766FFA0B96A1CEC
:10184800F1D0FFF7D9FB801BA84201D8002DEAD1BF
:10185800636C43F020036364202384F84130002341
:1018680084F8423084F840300120E1E770B504463E
:101878000D46164623689B695B070ED432462946F7
:101888002046FFF741FF28BB23689A69910623D5B4
:101898009A69520703D5228D0AB1002070BD9A6952
:1018A80012F0100202D01022DA61042220216264B0
:1018B800D9615A6822F0FF7222F48B3222F4FF7247
:1018C80022F001025A60002384F8411084F8423063
:1018D80084F840300120E1E7FFF78EFB801BA84227
:1018E80001D8002DC6D1636C43F020036364202324
:1018F80084F841300023EBE72DE9F041069F0446C8
:10190800884616461D462268936938EA03030CBFC9
:1019180001230023B34201D0002015E06B1CF3D053
:10192800FFF76AFBC01BA84201D8002DEBD1636CFE
:10193800012043F020036364202384F8413000230E
:1019480084F8423084F84030BDE8F0812DE9F34155
:101958001E46184B054614460093F2B24FF08073AA
:10196800DDE90878FFF7BAFE284642463946FFF710
:1019780056FF18B1012002B0BDE8F081012E2B6896
:101988000DD1E4B20022802128469C623B46CDF866
:101998000080FFF7B1FF003818BF0120EBE7220AEB
:1019A800394628469A624246FFF739FF0028E1D1B6
:1019B8002B68E6E70020008070B504460D46164601
:1019C80023689B699B0601D5002070BD32462946D5
:1019D8002046FFF799FE90B9FFF70EFB801BA8423F
:1019E80001D8002DECD1636C43F0200363642023FD
:1019F80084F84130002384F8423084F840300120D4
:101A0800E3E710B5044600284AD090F8413003F0C7
:101A1800FF021BB980F84020FEF794FF242384F8C6
:101A2800413023681A6822F001021A60626822F0C5
:101A380070621A619A6822F400429A60D4E902211D
:101A4800012924D142F400429A605A68002042F0E9
:101A5800007242F400425A60DA6822F40042DA6006
:101A6800D4E904210A43A16942EA0122DA60D4E9EF
:101A780007210A431A601A6842F001021A602023FB
:101A8800606484F84130206384F8420010BD42F459
:101A9800044202299A60D8D14FF400625A60D4E710
:101AA8000120F3E72DE9F347984690F841300446C2
:101AB8000E46202B91460A9F40F0868090F84030D1
:101AC800012B00F081804FF0010A80F840A0FFF759
:101AD80093FA19230546009052464FF400412046D8
:101AE800FFF70AFF18B1012002B0BDE8F0872123F3
:101AF800C4F82490606384F84130102384F842309D
:101B08006064A4F82A80638D9BB2FF2B2F4B26D9E3
:101B1800FF22009322854FF0807331462046FFF75D
:101B2800DDFD638D2A46394620469BB2FBB9FFF797
:101B380043FF0028D7D123682021D9615A6822F0B1
:101B4800FF7222F48B3222F4FF7222F001025A60F3
:101B580084F8411084F8400084F84200C4E7628D9C
:101B6800009392B222854FF00073D2B2D5E7FFF707
:101B780056FE0028B7D1636A226813F8011B9162E8
:101B88006362638D228D013B013A9BB292B26385F9
:101B9800638D22859BB2002BC3D0002AC1D13B465E
:101BA800802120460095FFF7A7FE00289BD1638D72
:101BB8009BB2FF2B03D9FF2200902285ABE7628DF1
:101BC800009092B22285CEE702208DE700200080A7
:101BD8002DE9F347984690F8413004460E46202BED
:101BE80091460A9F40F0878090F84030012B00F022
:101BF80082804FF0010A80F840A0FFF7FDF9192311
:101C08000546009052464FF400412046FFF774FE07
:101C180018B1012002B0BDE8F0872223C4F824904F
:101C2800606384F84130102384F842306064A4F87B
:101C38002A80638D9BB2FF2B304B26D9FF2200935D
:101C480022854FF0807331462046FFF747FD638DAC
:101C58002A46394620469BB2FBB9FFF7ADFE00285D
:101C6800D7D123682021D9615A6822F0FF7222F463
:101C78008B3222F4FF7222F001025A6084F841107C
:101C880084F8400084F84200C4E7628D009392B261
:101C980022854FF00073D2B2D5E7FFF7E7FD0028A1
:101CA800B7D123685A6A636A1A70636A228D01334E
:101CB800013A6362638D92B2013B22859BB26385D0
:101CC800638D9BB2002BC2D0002AC0D13B46802135
:101CD80020460095FFF710FE00289AD1638D9BB22D
:101CE800FF2B03D9FF2200902285AAE7628D00907E
:101CF80092B22285CDE702208CE700BF0024008045
:101D08002DE9F04F85B09B4604460F46BDF83C30A0
:101D18009246DDF84090039390F84130202B40F034
:101D2800A3800E9B0BB1039B33B94FF4007363641C
:101D3800012005B0BDE8F08F90F84030012B00F08D
:101D48009380012580F84050FFF756F91923009039
:101D580006462A464FF400412046FFF7CDFD80464F
:101D68000028E5D1212360635246394684F8413082
:101D7800402384F842300E9B606420466362039BD4
:101D8800CDE9009663855B46FFF7E0FD10B184F866
:101D98004080CDE7638D9BB2FF2B55D9FF224FF0D2
:101DA80080730090228539462046FFF797FC32461B
:101DB80049462046FFF733FD0028B9D1636A2268F7
:101DC80013F8011B91626362638D228D013B013A16
:101DD8009BB292B26385638D22859BB2ABB1A2B9E7
:101DE8004B46802120460096FFF786FD00289FD1AC
:101DF800638D9BB2FF2B2FD9FF224FF08073009089
:101E0800228539462046FFF769FC638D9BB2002B7B
:101E1800CDD1324649462046FFF7CEFD002887D16E
:101E280023682021D9615A6822F0FF7222F48B328C
:101E380022F4FF7222F001025A6084F8411084F8FB
:101E4800400084F8420074E7628D4FF00073009000
:101E580092B22285D2B2A6E7628D4FF0007300904D
:101E680092B22285D2B2CCE7022062E710B590F890
:101E78004130202BDCB21DD190F84030012B19D015
:101E8800242380F8413003681A6822F001021A609E
:101E98001A6822F480521A601A68114319601A6885
:101EA80042F001021A60002380F8414080F8403077
:101EB800184610BD0220FCE710B590F84130202BE1
:101EC800DCB21CD190F84030012B18D0242380F8C4
:101ED800413003681A6822F001021A601A6822F475
:101EE800706242EA012119601A6842F001021A6020
:101EF800002380F8414080F84030184610BD022089
:101F0800FCE7000038B5104CE36813F0040FE368F1
:101F180005D103F00703181A18BF012038BD23F0B4
:101F280007031843E060FFF767F8054663689B04FA
:101F380001D50020F2E7FFF75FF8401BB0F57A7F84
:101F4800F4D90120EAE700BF00480258F8B5044672
:101F580008B901208BE00368DF075ED423689E0779
:101F680000F1AF802368DA0627D59E4B1A69996A73
:101F780002F03802082A07D0182A40F0078101F039
:101F88000302012A40F002811B68DB0502D5E369E0
:101F9800802BDED1FFF748F841F20303216A98420B
:101FA800904B00F2EC805A68202922F0F8420CBFCE
:101FB80042F0804242EA81625A602368190700F1C0
:101FC800278123689A0600F1488123685D071ED59A
:101FD800854D2B6843F480732B60FFF70DF8064698
:101FE8002B68DA0540F15E81A3687E4D012B40F035
:101FF80060812B6F43F001032B6741F28837FEF7AE
:10200800FBFF784E0546336F9B0740F17881606A85
:10201800002840F07B81002029E0724B1A69996AF8
:1020280002F03802102A05D0182A0AD101F003025A
:10203800022A06D11B689D0390D56368002B8DD1B9
:1020480087E76268B2F5803F12D11A6842F480329D
:102058001A60FEF7D1FF634E0546336898033FF5D3
:102068007DAFFEF7C9FF401B6428F6D90320F8BDF1
:102078005C4D2B689AB923F480332B602B6823F4CA
:1020880080232B60FEF7B8FF06462B6899037FF57F
:1020980065AFFEF7B1FF801B6428F6D9E6E7B2F515
:1020A800A02F07D143F480232B602B6843F480339F
:1020B8002B60CEE723F480332B602B6823F4802336
:1020C800F6E7484BE1681A69986A12F0380203D0BB
:1020D800182A2BD1820729D11B685B0702D5002952
:1020E8003FF437AF3F4D2A6822F019020A432A60AD
:1020F800FEF782FF06462B685F0711D5FEF794FFAF
:1021080041F20303226998426B6822D823F47C3396
:10211800402A0CBF43F4003343EA02336B6021E7E3
:10212800FEF76AFF801B0228E5D99FE71A68A9B164
:1021380022F019022B4D0A431A60FEF75DFF06468E
:102148002B685807DAD4FEF757FF801B0228F7D907
:102158008CE723F0FE4343EA0263DFE722F0010243
:10216800204E1A60FEF748FF0546336859077FF589
:10217800F9AEFEF741FF401B0228F6D976E7DA6888
:1021880022F07C5242EA0162DA6016E7E2696AB339
:102198001A68144D42F080021A60FEF72DFF0646B9
:1021A8002B68DF0511D5FEF73FFF41F20303226AD2
:1021B800984210D86B68202A23F0F8430CBF43F0EC
:1021C800804343EA82636B60F7E6FEF715FF801BE6
:1021D8000228E5D94AE7EB6823F07C5343EA026317
:1021E800EB60EAE600440258004802581A689F4E1D
:1021F80022F080021A60FEF7FFFE05463368D80514
:102208007FF5DBAEFEF7F8FE401B0228F6D92DE776
:102218006369964D83B16B6F43F001036B67FEF7FB
:10222800EBFE06466B6F9B073FF5CBAEFEF7E4FE71
:10223800801B0228F6D919E76B6F23F001036B673F
:10224800FEF7DAFE06466B6F9F077FF5BAAEFEF71C
:10225800D3FE801B0228F6D908E7A369834D83B112
:102268002B6843F480532B60FEF7C6FE06462B68A6
:1022780098043FF5AAAEFEF7BFFE801B0228F6D9E8
:10228800F4E62B6823F480532B60FEF7B5FE064670
:102298002B6899047FF599AEFEF7AEFE801B0228E5
:1022A800F6D9E3E6FEF7A8FE801B64287FF698AE11
:1022B800DCE6B3B92B6F41F2883723F001032B67B3
:1022C8002B6F23F004032B67FEF796FE06462B6F51
:1022D80098077FF59CAEFEF78FFE801BB842F6D9B3
:1022E800C4E6052B2B6F03D143F004032B6780E66C
:1022F80023F001032B672B6F23F004037CE6FEF722
:102308007BFE401BB8427FF67EAEAFE6574D2B6989
:1023180003F03803182B7AD02B68022823F0807337
:102328002B6067D1FEF768FE06462B6899015BD4DF
:10233800AB6AA26A23F47C7323F003031343E26AB3
:1023480043EA0213AB62636BA26B013B013A5B0287
:1023580012049BB202F4FE021343226B013AC2F349
:1023680008021343E26B013A120602F0FE421343DD
:102378002B63EB6A23F00103EB626B6BA26C23F413
:102388007F4323F0F80343EAC2036B63EB6A226CD2
:1023980023F00C031343EB62EB6A626C23F0020335
:1023A8001343EB62EB6A43F48033EB62EB6A43F46A
:1023B8000033EB62EB6A43F48023EB62EB6A43F091
:1023C8000103EB622B6843F080732B60FEF714FE69
:1023D800264D04462B689A013FF51DAEFEF70CFE0C
:1023E800001B0228F6D941E6FEF706FE801B0228EC
:1023F8009BD93BE6FEF700FE04462B689B017FF560
:102408000AAEFEF7F9FD001B0228F6D92EE60128D0
:10241800AA6A2B6B3FF42BAE02F00301A06A81423B
:102428007FF497ADC2F30512E16A8A427FF491AD59
:10243800226BC3F30801013A91427FF48AAD626BC3
:10244800C3F34621013A91427FF483ADA26BC3F3F3
:102458000641013A91427FF47CADE06BC3F3066319
:102468000138181A18BF012001E600BF00440258BD
:10247800484B1A6902F03802102A30B500F08680FD
:10248800182A0CD0002A40F083801A68424812F0BB
:10249800200F03D01B68C3F3C103D84030BD996A2D
:1024A8009D6ADC6A15F47C7FC5F305105A6BF5D07C
:1024B800C2F3CC0204F0010407EE900A01F0030114
:1024C8006243B7EE006AF8EEE76A012907EE902A40
:1024D800FAEEE97A4CD002293CD0002948D11A6892
:1024E800920627D519682C4AC1F3C1011B6BCA4053
:1024F800C3F3080307EE102AF8EEC75A85EEA67A4A
:1025080006EE903AF8EEE66A76EEA77A77EE867AE5
:10251800204B67EE877A1B6BC3F34623013307EE24
:10252800103AF8EEC76A87EEA67AFCEEC77A17EE7D
:10253800900AB3E71B6BC3F3080307EE103AB8EE33
:10254800C77A77EE277A77EE867A9FED146A86EE59
:10255800267ADDE71B6BC3F3080307EE103AB8EEE3
:10256800C77A77EE277A77EE867A9FED0D6AEEE7DF
:102578001B6BC3F3080307EE103AB8EEC77A77EE81
:10258800277A77EE867A9FED076AE0E7064885E7BF
:10259800064883E7004402580090D0030024744C96
:1025A80020BCBE4B0024744A40787D0100093D00E0
:1025B8002DE9F0410D46044610B90120BDE8F0812F
:1025C800884A136803F00F038B42C0F09380236896
:1025D8005F0700F19B801E070BD583496669C869B0
:1025E80000F07000864204D9CA6922F070023243B2
:1025F800CA61D8060BD57C49A669C86900F4E060B1
:10260800864204D9CA6922F4E0623243CA61990653
:102618000BD57549E669086A00F07000864204D94E
:102628000A6A22F0700232430A629A070BD56E4991
:10263800E668886900F00F00864204D98A6922F0AA
:102648000F0232438A61DF076ED423689E0700F1C8
:10265800A18064490A6802F00F02AA4200F2A88029
:10266800580700F1B18019070BD55F496569C8693A
:1026780000F07000854204D2CA6922F070022A4331
:10268800CA61DA060BD55849A569C86900F4E06043
:10269800854204D2CA6922F4E0622A43CA619B06D1
:1026A8000BD5514AE069116A01F07001884204D2E1
:1026B800136A23F0700303431362FFF7D9FE4A49F4
:1026C8004A4A8B69C3F30323D35C03F01F03D84042
:1026D8008B6903F00F03D35C454A03F01F0320FA0C
:1026E80003F31360434B1860434BBDE8F04118688F
:1026F800FEF722BC136823F00F030B431360136823
:1027080003F00F038B427FF458AF60E73649266920
:10271800886900F0700086427FF65DAF8A6922F012
:10272800700232438A6156E72F4BA1689A6922F4F6
:1027380070620A439A6162681B68022A1DD113F409
:10274800003F3FF43AAF284E41F28838336923F00E
:10275800070313433361FEF74FFC0746336962688A
:1027680003F03803B3EBC20F3FF46FAFFEF744FC3E
:10277800C01B4045F2D9032020E7032A02D113F0F9
:10278800007FDEE7012A02D113F4807FD9E713F036
:10279800040FD6E71449E668886900F00F008642FE
:1027A800BFF457AF8A6922F00F0232438A6150E7BB
:1027B8000A6822F00F022A430A600A6802F00F0230
:1027C800AA427FF4FAAE4BE707492569886900F009
:1027D80070008542BFF447AF8A6922F070022A432D
:1027E8008A6140E7002000520044025880DA02085B
:1027F80004000024000000240C000024F8B53A4C22
:1028080006460D46A36A03F00303032B69D0236829
:1028180023F080632360FEF7EFFB074623681A0165
:102828004BD4A36A326823F47C3343EA0233A362AD
:10283800B368F268013B013A5B0212049BB202F4EE
:10284800FE0213437268013AC2F308021343326965
:10285800013A120602F0FE421343A363E36A726967
:1028680023F0C0031343E362E36AB26923F0200351
:102878001343E362E36A23F01003E362E36BF26954
:1028880023F47F4323F0F80343EAC203E363E36AD4
:1028980043F01003E362E36AB5B943F40023E3624B
:1028A800114C236843F080632360FEF7A5FB0546BF
:1028B80023681B010FD5002005E0FEF79DFBC01B18
:1028C8000228ABD90320F8BD012D0CBF43F48013B7
:1028D80043F40013E3E7FEF78FFB401B0228E7D918
:1028E800F0E70120EFE700BF00440258F8B53A4C82
:1028F80006460D46A36A03F00303032B69D0236839
:1029080023F080532360FEF777FB074623689A007D
:102918004BD4A36A326823F07C7343EA0253A36260
:10292800B368F268013B013A5B0212049BB202F4FD
:10293800FE0213437268013AC2F308021343326974
:10294800013A120602F0FE4213432364E36A7269F5
:1029580023F440631343E362E36AB26923F4007328
:102968001343E362E36A23F48073E362636CF269FE
:1029780023F47F4323F0F80343EAC2036364E36A62
:1029880043F48073E362E36AB5B943F48003E36216
:10299800114C236843F080532360FEF72DFB054656
:1029A80023689B000FD5002005E0FEF725FBC01B20
:1029B8000228ABD90320F8BD012D0CBF43F4000356
:1029C80043F08073E3E7FEF717FB401B0228E7D9C3
:1029D800F0E70120EFE700BF004402582DE9F84373
:1029E8000668054616F0006609D0436EB3F5001F69
:1029F8002ED013D8F3B1B3F5801F21D001262B6850
:102A0800DC0540F1EA806B6D042B00F2E580DFE81D
:102A180013F024002B00DD0029002900B3F5401F26
:102A2800ECD1A64A0026696E136D23F440130B43BC
:102A38001365E4E7A14AD36A43F40033D362F0E7AD
:102A480002210430FFF7DAFE06460028D7D1E8E76E
:102A580002212430FFF74AFFF6E7984AD36A43F485
:102A68000033D362344604E00021281DFFF7C6FE78
:102A78000446002C40F0B380904A696D136D23F032
:102A880007030B4313652B6898050DD5AB6D802B99
:102A980000F0C28000F2A580002B00F0B180402B2E
:102AA80000F0B480012634462B68590510D5D5F8B6
:102AB800A430B3F5800F00F0D48000F2B580002B6D
:102AC80000F0C380B3F5001F00F0C580012634462E
:102AD8002B681A0510D5D5F8A830B3F1007F00F09F
:102AE800E58000F2C680002B00F0D480B3F1807F2F
:102AF80000F0D680012634462B689B010DD5AB6CBF
:102B0800202B00F0EF8000F2DB80002B00F0DB8050
:102B1800102B00F0E180012634462B68DF040FD526
:102B2800EB6DB3F5005F00F0018100F2E380002B4C
:102B380000F0F080B3F5805F00F0F28001263446A3
:102B48002B6898040FD52B6EB3F5003F00F00E816B
:102B580000F2F480002B00F0FA80B3F5803F00F01B
:102B6800FF80012634462B68590410D5D5F8AC30BF
:102B7800B3F1005F00F01B8100F20081002B00F030
:102B88000681B3F1805F00F00C81012634462B6882
:102B98001A040DD5EB6EB3F1805F00F01081B3F12C
:102BA800005F00F01A81002B00F00E8101263446E8
:102BB8002B68DB0140F127816B6C032B00F26781E6
:102BC800DFE813F0180113015F011801002105F176
:102BD8002400FFF78BFE4BE70126344653E72646D1
:102BE80051E7C02B03D0B3F5807F7FF45BAFCCB93E
:102BF800324AA96D136D23F4E0730B43136553E751
:102C08002E4AD36A43F40033D362F0E70021281D2B
:102C1800FFF7F4FD0446EAE7002105F12400FFF779
:102C280065FEF7E726463FE7B3F5C00F03D0B3F5D7
:102C3800000F7FF44BAFD4B9204AD5F8A410936D98
:102C480023F460030B43936542E71C4AD36A43F4B9
:102C58000033D362EFE70021281DFFF7CFFD0446BC
:102C6800E9E7002105F12400FFF740FEF7E72646D3
:102C78002EE7B3F1407F03D0B3F1806F7FF43AAF12
:102C8800D4B90E4AD5F8A810936D23F0E0630B432E
:102C9800936531E7094AD36A43F40033D362EFE717
:102CA8000021281DFFF7AAFD0446E9E7002105F1E8
:102CB8002400FFF71BFEF7E726461DE700440258ED
:102CC800302B7FF428AF9CB99D4AA96CD36C23F0B4
:102CD80030030B43D36420E7994AD36A43F40033A3
:102CE800D362F0E70221281DFFF788FD0446EAE7D2
:102CF800264612E7B3F5405F03D0B3F5804F7FF463
:102D08001DAFCCB98E4AE96D136D23F4E0430B4334
:102D1800136515E78A4AD36A43F40033D362F0E7B0
:102D28000021281DFFF76AFD0446EAE7002105F1A6
:102D38002400FFF7DBFDF7E7264601E723F480329E
:102D4800B2F5802F03D0B3F5403F7FF40AAF9CB9AA
:102D58007B4A296E136D23F4E0230B43136502E7C6
:102D68000121281DFFF74AFD0446F0E7012105F17E
:102D78002400FFF7BBFDF7E72646F4E623F0805270
:102D8800B2F1804F03D0B3F1405F7FF4FEAEA4B937
:102D98006B4AD5F8AC10936D23F0E0430B43936571
:102DA800F5E60121281DFFF729FD0446EFE701217B
:102DB80005F12400FFF79AFDF7E72646E7E6604AA3
:102DC800D36A43F40033D3626CB95D4AE96E136D7C
:102DD80023F040530B431365EAE60121281DFFF752
:102DE8000DFD0446F0E72646E2E6554AD36A43F469
:102DF8000033D362002C4DD1514A696CD36C23F057
:102E080003030B43D3642B685F024DD54D4F3B68DA
:102E180043F480733B60FEF7EFF880463B68D805C3
:102E28003AD5002C6CD1464BD5F8B0001A6F424009
:102E380012F4407F0BD01A6F196F22F4407241F4DC
:102E480080311967196F21F4803119671A67B0F555
:102E5800807F40D0D5F8B030394903F44072B2F5DC
:102E6800407F49D10869384A20F47C5002EA13129D
:102E780002430A61C3F30B03314A116F0B43136713
:102E880012E00221281DFFF7B9FC0446B2E701262B
:102E98003446B8E72646B6E7FEF7AEF8A0EB0800DA
:102EA8006428BBD9032634462B68DA0708D5AB6FEC
:102EB800102B3CD026D85BB3082B32D001263446E1
:102EC8002B689B074FD56B6F052B62D8DFE803F0A3
:102ED800433E5B434343FEF78FF8DFF864800746C1
:102EE80041F28839D8F870309907B3D4FEF784F8DE
:102EF800C01B4845F6D9D5E70A6922F47C52B8E7E1
:102F08002646D1E723F00802202A01D0182BD5D174
:102F18009CB90B4AA96F536D23F038030B435365D3
:102F2800CEE70121281DFFF769FC0446F0E70121DF
:102F380005F12400FFF7DAFCF7E72646C0E700BFF3
:102F48000044025800480258CFFFFF000121281D05
:102F5800FFF754FC0446FCB9A64A696F536D23F089
:102F680007030B4353652B685F0727D5D5F89030C7
:102F7800052B00F23981DFE813F01600110031014A
:102F8800160016001600012105F12400FFF7AEFC1B
:102F9800E0E701263446E6E72646E4E70121281D56
:102FA800FFF72CFC0446002C40F02181914AD5F80B
:102FB8009010936D23F007030B4393652B689806D5
:102FC80010D5D5F88C30B3F1005F00F02E8100F2F7
:102FD8001381002B00F01981B3F1805F00F01F818D
:102FE800012634462B68590610D5D5F89830B3F524
:102FF800006F00F03B8100F22081002B00F0268159
:10300800B3F5806F00F02C81012634462B681A0630
:1030180010D5D5F89C30B3F5804F00F0488100F208
:103028002D81002B00F03381B3F5005F00F039816A
:10303800012634462B681B0714D5D5F88030B3F524
:10304800805F07D1022105F12400FFF74FFC00281B
:1030580018BF0126674AD5F88010536D23F44053F2
:103068000B4353652B68DF0614D5D5F89430B3F5B8
:10307800807F07D1022105F12400FFF737FC0028E3
:1030880018BF01265B4AD5F89410936D23F440735A
:103098000B4393652B6818031AD5D5F8A010B1F522
:1030A800803F00F00C81B1F5003F06D0002940F0C8
:1030B8000C81281DFFF7A2FB0446002C40F0088174
:1030C8004C4AD5F8A010936D23F440330B43936515
:1030D8002B6859031CD5D5F88430B3F5001F00F0D0
:1030E800F980B3F5401F08D0B3F5801F40F0F98090
:1030F800404AD36A43F40033D362002C40F0F48092
:103108003C4AD5F88410536D23F440130B435365A0
:103118002B68DA0309D5EB6C002B00F0E780B3F5D8
:10312800803F00F0F180012634462B689B0007D5CC
:10313800022105F12400FFF7D9FB002818BF01265A
:103148002B689F030AD5E96FB1F5807F00F0F28004
:1031580000F2E280002900F0E5800126DC0206D5B5
:103168002449286F0A6D22F0004202430A65D800FC
:1031780007D52049D5F8B4000A6922F480420243F1
:103188000A61990206D51B49A86E0A6D22F0807261
:1031980002430A655A0009D5164A116921F400410B
:1031A80011611169D5F8B80001431161002B06DAE5
:1031B8001049286DCA6C22F040520243CA641B02AF
:1031C80007D50C4AD5F88810536D23F440030B43F8
:1031D8005365301E18BF0120BDE8F883012105F1B1
:1031E8002400FFF783FBDDE601263446E6E62646A3
:1031F800E4E600BF0044025823F08052B2F1804F49
:1032080003D0B3F1405F7FF4EBAEA4B94D4AD5F8D3
:103218008C10536D23F0E0430B435365E2E6002125
:10322800281DFFF7EBFA0446EFE7022105F1240019
:10323800FFF75CFBF7E72646D4E623F48062B2F595
:10324800805F03D0B3F5406F7FF4DEAEA4B93D4A8A
:10325800D5F89810936D23F4E0530B439365D5E6A6
:103268000021281DFFF7CAFA0446EFE7022105F1FD
:103278002400FFF73BFBF7E72646C7E623F4005296
:10328800B2F5004F03D0B3F5C04F7FF4D1AEA4B967
:103298002C4AD5F89C10936D23F460430B43936537
:1032A800C8E60021281DFFF7A9FA0446EFE7022126
:1032B80005F12400FFF71AFBF7E72646BAE60221D4
:1032C80005F12400FFF712FBF6E601263446FFE677
:1032D8002646FDE6012105F12400FFF707FB044619
:1032E8000BE70126344613E7264611E7154AD36A49
:1032F80043F40033D3626CB9124AE96CD36C23F4FB
:1033080080330B43D36410E70221281DFFF776FAB8
:103318000446F0E7264608E721F48072B2F5007FFC
:103328007FF41BAF64B90748426D22F440720A4328
:10333800426513E70348C26A42F40032C262F1E709
:1033480026460BE70044025870B50E46154604465B
:1033580050B390F8453003F0FF021BB980F84420C1
:10336800FDF7E0F904F10801206800F0C9FBA26844
:103378003146206800F00EFCE36AA26829466068BE
:1033880000F034FC2268A168002052F8213043F094
:10339800010342F82130054A136843F000431360E3
:1033A800012384F8453070BD0120FCE7004000523D
:1033B800036A23F0010370B50362036A44688269F3
:1033C80023F002030D6822F4803222F073022A43AC
:1033D8008D682B431B4DA8420FD005F58065A84288
:1033E8000BD005F57055A84207D005F58065A842B1
:1033F80003D005F58065A8421ED1CD6823F00803E7
:103408002B43104DA84223F004030FD005F5806527
:10341800A8420BD005F57055A84207D005F5806580
:10342800A84203D005F58065A84205D124F440756B
:10343800D1E9054634432C43446082614A684263BB
:10344800036270BD00000140036A23F4807370B505
:103458000362036A4468C26923F400730D6822F4A6
:10346800803222F073022A438D6843EA0523164D01
:10347800A84203D005F58065A8420DD1CD6823F494
:10348800006343EA0523104DA84223F480630ED05D
:1034980005F58065A8420AD00C4DA84207D005F56D
:1034A8008065A84203D005F58065A84206D124F4BA
:1034B8004055D1E90546344345EA04144460C261E5
:1034C8004A68C263036270BD0000014000400140C9
:1034D800036A23F4805330B50362036A4468C269FF
:1034E80023F400530D6822F0807222F4E64242EA87
:1034F80005228D6843EA05330E4DA8420FD005F525
:103508008065A8420BD005F57055A84207D005F58F
:103518008065A84203D005F58065A84204D124F44B
:1035280080444D6944EA85144460C2614A68026473
:10353800036230BD00000140036A23F4803330B5D4
:103548000362036A4468426D23F400330D6822F471
:10355800803222F070022A438D6843EA05430F4DFA
:10356800A8420FD005F58065A8420BD005F5705527
:10357800A84207D005F58065A84203D005F5806507
:10358800A84204D124F480344D6944EA05244460F7
:1035980042654A688265036230BD00BF0000014091
:1035A800036A23F4801330B50362036A4468426DEA
:1035B80023F400130D6822F0807222F4E04242EAFC
:1035C80005228D6843EA05530E4DA8420FD005F534
:1035D8008065A8420BD005F57055A84207D005F5BF
:1035E8008065A84203D005F58065A84204D124F47B
:1035F80080244D6944EA8524446042654A68C2656E
:10360800036230BD0000014090F83D30012B2FD1FE
:103618000223184A80F83D30036893421AD0B3F168
:10362800804F17D0A2F57C42934213D002F58062F6
:1036380093420FD002F5806293420BD002F5784294
:10364800934207D0A2F56C42934203D002F594321C
:10365800934207D19968084A0A40062A06D0B2F56B
:10366800803F03D01A6842F001021A6000207047B8
:1036780001207047000001400700010070477047B3
:10368800704703681A69910710B504460FD5DA68C0
:1036980092070CD56FF002021A61012202779B692A
:1036A800990700F08580FFF7E9FF00232377236857
:1036B8001A69520710D5DA6850070DD56FF0040261
:1036C80020461A61022222779B6913F4407F75D045
:1036D800FFF7D4FF0023237723681A6911070FD552
:1036E800DA6812070CD56FF0080220461A61042226
:1036F8002277DB699B0767D0FFF7C0FF002323779A
:1037080023681A69D00610D5DA68D1060DD56FF08E
:10371800100220461A6108222277DB6913F4407FE1
:1037280058D0FFF7ABFF0023237723681A69D20725
:1037380008D5DA68D00705D56FF0010220461A616E
:1037480029F095FF23681A69110608D5DA68120668
:1037580005D56FF0800220461A6100F0CEF9236883
:103768001A69D00508D5DA68110605D56FF4807294
:1037780020461A6100F0C2F923681A69520608D572
:10378800DA68500605D56FF0400220461A61FFF747
:1037980077FF23681A69910622D5DA6892061FD541
:1037A8006FF0200220461A61BDE8104000F0A4B96D
:1037B80029F05BFF2046FFF762FF76E729F055FF07
:1037C8002046FFF75CFF85E729F04FFF2046FFF70B
:1037D80056FF93E729F049FF2046FFF750FFA2E77D
:1037E80010BD0000304A0368904212D0B0F1804FFB
:1037F8000FD0A2F57C4290420BD002F58062904235
:1038080007D002F58062904203D002F578429042D8
:1038180019D14A6823F070031343234A90421DD0FC
:10382800B0F1804F1AD0A2F57C42904216D002F532
:103838008062904212D002F5806290420ED002F56A
:10384800784290420AD0194A904207D002F5806225
:10385800904203D002F58062904203D123F4407372
:10386800CA6813434A6923F08003134303608B68D3
:10387800C3620B6883620C4B98420FD003F58063D8
:1038880098420BD003F57053984207D003F5806334
:10389800984203D003F58063984201D10B69036312
:1038A80001234361704700BF000001400040014010
:1038B80010B5044650B390F83D3003F0FF021BB931
:1038C80080F83C20FDF7EAFA02232068211D84F8DD
:1038D8003D30FFF787FF0123002084F8483084F843
:1038E8003E3084F83F3084F8403084F8413084F822
:1038F800423084F8433084F8443084F8453084F802
:10390800463084F8473084F83D3010BD0120FCE78C
:1039180010B5044650B390F83D3003F0FF021BB9D0
:1039280080F83C20FDF796FA02232068211D84F8D0
:103938003D30FFF757FF0123002084F8483084F812
:103948003E3084F83F3084F8403084F8413084F8C1
:10395800423084F8433084F8443084F8453084F8A1
:10396800463084F8473084F83D3010BD0120FCE72C
:10397800036A23F0100370B50362036A446882691E
:1039880023F020030D6822F0807222F4E64242EA16
:1039980005228D6843EA0513164DA84203D005F5A4
:1039A8008065A8420DD1CD6823F0800343EA051352
:1039B800104DA84223F040030ED005F58065A842BB
:1039C8000AD00D4DA84207D005F58065A84203D05E
:1039D80005F58065A84206D124F44065D1E905467D
:1039E800344345EA8404446082614A68826303621E
:1039F80070BD00BF000001400040014038B590F89C
:103A08003C300546012B2BD001200C2A85F83C00C0
:103A18001ED008D8042A13D0082A15D05AB100237A
:103A280085F83C3038BD102A16D0142AF7D12868FA
:103A3800FFF7B6FD02E02868FFF7BAFC0020EEE7C2
:103A48002868FFF795FFF9E72868FFF7FDFCF5E719
:103A58002868FFF73DFDF1E72868FFF76DFDEDE702
:103A68000220DFE730B590F83C30012B4FF002031D
:103A78003DD080F83D301F4D0368AB425A689C68C2
:103A880003D005F58065AB4203D122F470024D687E
:103A98002A430D6822F070022A435A60154A93425D
:103AA8001AD0B3F1804F17D0A2F57C42934213D0BD
:103AB80002F5806293420FD002F5806293420BD0E8
:103AC80002F57842934207D0A2F56C42934203D0A4
:103AD80002F59432934204D1896824F080020A43A3
:103AE8009A60012380F83D30002380F83C30184666
:103AF80030BD00BF000001407047704770470000AC
:103B08000A6850F8223023F00103F0B54E6840F8F7
:103B180022308B6850F82270082B43EA0603CE68DF
:103B28000CBF4FF0400C4FF0000C33430E69334389
:103B38004E6933438E693343CE6933430E6A334348
:103B48004E6A33438E6A3343CE6AD1E90C54334309
:103B5800896BB5F5801F43EA050343EA040343EA8A
:103B680001030B4901EA070143EA010343EA0C0395
:103B780040F8223008D14AB1036843F48013036047
:103B880003681C43046001E0002AF9D10020F0BD5D
:103B98008004C0FF0B6900EB8202F0B58F695D1EDF
:103BA8000B6856682C053B434F6843EA07138F6838
:103BB80043EA0723CF68496943EA0743023943EADE
:103BC800055343EA016306F040410B435360036821
:103BD800DB0208D54268436822F4700223F47003BC
:103BE8001443234343600020F0BD0000B3F5804F29
:103BF80030B514D18D690B6850F822402B434D68BD
:103C080043EA05138D68C96843EA052343EA01437B
:103C1800044921400B4340F82230002030BD6FF0AA
:103C28007043F8E70000F0CF1FB54FF47A740092A4
:103C38000A467021CDE901340123FEF761F804B08A
:103C480010BDF0B54FF47A7785B015461E468DF84D
:103C58000F1001230DF10F02702100970446FDF7A4
:103C680021FF30B933462A46702120460097FDF7D8
:103C7800AFFF05B0F0BD000070B5144B0026144D21
:103C8800144C2B602846144B21466B60134BAB60D9
:103C980000F05DF8462310222146284623703C2375
:103CA800A2706370E3700A23A671237114236371F1
:103CB8000E23237200F046F83146284600F026F815
:103CC80031462846BDE8704000F046B8313C00084F
:103CD80014B4042420B404244B3C00082CB304245A
:103CE8000149024800F029B831B4042414B404246A
:103CF80010B4D0E90140A4465DF8044B604710B405
:103D080004688068A4465DF8044B604737B5012312
:103D18000D4601AA00210446FFF7EAFF58B99DF8AD
:103D28000430014601AA204665F306138DF80430D5
:103D38000123FFF7E4FF03B030BD0A460E2301213B
:103D4800FFF7D6BF0A4611238021FFF7D8BF0A46DE
:103D580011238021FFF7CCBF07B511238DF8071079
:103D68000DF10702A521FFF7CAFF03B05DF804FBB8
:103D78004FF0C0422A2310B51380040A074BC0B283
:103D88001C8018801C8018802B2010800A0AC9B259
:103D98001A8019801A80198010BD00BF00001060B9
:103DA8004FF0C04336221A8060B903F58013A82269
:103DB8001A804FF4A0720F4B1A804FF4F0720E4B1A
:103DC8001A807047012802D10C4B6822F0E70228BC
:103DD8000AD10A4BC8221A804FF4F072054B1A8098
:103DE8004FF4A072044BEBE70328EAD1034B0822F7
:103DF800F1E700BF12000024140000240000106046
:103E080070B54FF0C0462A240F4D3480040A2C8028
:103E1800C4B22C80C418013CC4F307242C805C1E57
:103E28002318DBB22B802B2333800B0A2B80CBB2D9
:103E38002B808B18013BC3F307232B80531E5A1882
:103E4800D2B22A8070BD00BF00001060034B002171
:103E5800034A1B8808461288FFF7D2BF14000024C3
:103E6800120000244FF0C04304221A80064A138827
:103E7800118813881088CAB2DBB21B0203EB024315
:103E880053FA80F0704700BF000010607047704719
:103E980070B500210E4D0F4E04462B880846328817
:103EA800FFF7AEFF4FF0C0432C221A802B883288D0
:103EB8005A43094BD210914200D170BD1C80013188
:103EC8001C801C801C801C801C801C801C80F2E7CD
:103ED80014000024120000240000106010B51446DD
:103EE800FFF746FF4FF0C0432C221A8003F58013DA
:103EF8001C8010BD08B5FFF73BFF4FF0C0432E22D2
:103F08001A80074A138813881088128803F47843A4
:103F1800C0F3C420C2F3852243EA4213184308BD04
:103F2800000010602DE9F84FFFF79CFF5D4B9842A9
:103F380040F0B5804FF0C045F7235B4C11212B8032
:103F4800A92309274FF0410B2380512300264FF066
:103F58000A0823802C234FF002094FF0040A23801B
:103F6800822330462380C0232B80C12321802780D1
:103F78002B80C523A4F800B02B8080232680A4F8CA
:103F880000802380B1232B80B0232380B423218099
:103F98002B80B623A4F800902B802223A4F800904D
:103FA8002380B7232B80C6232380BE232B80E923BD
:103FB8002680A4F800A02B802680FFF7F1FE3A2384
:103FC80017200E222B8055234FF0E10C2380E0238D
:103FD8002B80072326802380102323800B23278010
:103FE800208023808923A4F800B023804B232380DA
:103FF8000C23A4F8008023801823228023801B230D
:1040080023800F232380A5F800C0268020801A2053
:1040180020807820A4F800A02280062222802F2267
:10402800228045222280432222803222A4F8009056
:10403800A4F80080278022803622228023802980CD
:10404800FCF7E0FF2923194A31462B803046184BEC
:1040580012881B88FFF7D4FE0121164B122208464E
:10406800154C1E70FFF73AFF01210846FFF742FF83
:104078000121342220800846FFF730FF012108463D
:10408800FFF738FF0121562220800846FFF726FF58
:1040980001210846FFF72EFF49F288432380BDE837
:1040A800F88F00BF668054000000106012000024E2
:1040B800140000243FB40424100000242DE9F74F15
:1040C800BDF830A0054690460C4652461F46FFF7FD
:1040D80005FF454547D1BC423BD0A1463E460ED3DD
:1040E800A64239DD45450CD9A5EB08060BE01FFAB9
:1040F80089F109F1010952462846FFF7EFFEB94553
:10410800F5DDA8EB0506BC4294BF391BE11B8E42C6
:1041180043DAB3B20E464FF0010919464346B84692
:104128001F462B4625461C46454534BF01234FF004
:10413800FF33A1EB060BBC4234BF01274FF0FF371A
:10414800C6EB410600934FEA4B0B4B000193A84581
:1041580026D103B0BDE8F08FB1B2524628460136E9
:10416800FFF7BCFEBCE7BC42BCD14545A946464664
:1041780010D3AE42B6DCB0B2524621460136FFF744
:10418800ADFEF6E71FFA89F009F10109524621460A
:10419800FFF7A4FEC145F5DDB3E74FF00009C3E71B
:1041A800002EA8B25246B3BF019BE4195E44F6182C
:1041B8001FFA84FCB9F1000F06D001466046FFF7EC
:1041C8008DFE009B1D44C2E76146F8E738B51446EA
:1041D8001D4613460122FFF713FE4FF0C0432C2261
:1041E80005EB44041A8003F58013A54200D138BDBD
:1041F80035F8022B1A80F8E72DE9FF415C1E0E46C0
:104208001546BDF8288004440B463544CDF8008097
:10421800A4B20746ADB22246FFF750FF6B1E2246F6
:1042280038469BB2CDF8008019460393FFF746FF46
:10423800039B3A4631463846CDF80080FFF73EFFEB
:104248002B46224631462046CDF8288004B0BDE8EA
:10425800F041FFF733BF000070B514461D46BDF8A6
:104268001060FFF7CDFD4FF0C0432C226C431A803D
:104278000023034A9C4200D170BD01331680F9E740
:10428800000010602DE9F04F144685B081468A463B
:1042980065001A464FF00008C5F10305A6B21AFAE0
:1042A80084F319FA88F01FFA88F7AAEB060B9BB279
:1042B80080B201921FFA8BFB1946CDE90203FFF782
:1042C8000DFE5946019A0298FFF708FEA9EB070070
:1042D800039B80B2019A19460290FFF7FFFD5946E9
:1042E800019A029807EB0A0BFFF7F8FDAAEB0707FC
:1042F80006EB09001FFA8BFBBFB2019A80B2594640
:104308000290FFF7EBFD019A39460298FFF7E6FDA8
:10431800A9EB0600019A594680B20290FFF7DEFD2C
:10432800019A39460298FFF7D9FD002D019AB1BFCD
:104338000635A8EB04030A3504F1FF34B8BF05EBD2
:10434800880508F10108A8BF05EB83054445A5D2F7
:1043580005B0BDE8F08F2DE9F0411D46144606462C
:104368000F466C430025DDF81880FFF749FDAC4285
:1043780003D1BDE8F041FFF769BD38F8152039468B
:1043880030460135FFF7AAFDF1E72DE9F04F55005A
:1043980085B081468A469B46C5F1030514464FF011
:1043A80000081FFA88F71AFA84F319FA88F0A6B2F7
:1043B800A9EB07029BB280B2CDF800B092B21946C1
:1043C80002900392FFF77AFEAAEB0603039A02987B
:1043D8009BB2CDF800B01946FFF770FE07EB0A0351
:1043E80006EB0900A9EB06029BB2CDF800B080B23B
:1043F80092B2194602900392FFF760FEAAEB0703F8
:10440800039A02989BB2CDF800B01946FFF756FE02
:10441800002DB1BF0635A8EB04030A3504F1FF34BB
:10442800B8BF05EB880508F10108A8BF05EB8305AF
:104438004445B6D205B0BDE8F08F000010B5C820DD
:10444800174CFCF7DFFDFFF70DFD164B984204D122
:1044580049F288432380FFF765FD228849F28843A3
:104468009A4218D1104B114A9A60114ADA60114ADF
:104478001A61114A5A61114A9A61114ADA61114A5C
:104488001A62114A5A62114A9A62114ADA62114A48
:104498001A63114A5A630320BDE81040FFF780BC35
:1044A800100000246680540040B40424953E00089F
:1044B800973E0008993E0008E53E0008FD3E0008CA
:1044C800C5400008014200088D4200085F4300080B
:1044D8006142000893430008D5410008014B1B695D
:1044E800184700BF40B404244B8823F007034B80CF
:1044F8000B8823F007030B80CB8843F00703CB809E
:104508008B8843F007038B80704700001049002315
:1045180070B5C1F88430BFF34F8FD1F8803043F6BF
:10452800E074C3F3C900C3F34E335B0103EA040626
:10453800024646EA8275013AC1F87452F9D2203B24
:1045480013F1200FF2D1BFF34F8FBFF36F8F70BD00
:1045580000ED00E070470000024B012202481A609B
:104568001DF0CEB9F0B404249CB40424B1F904308D
:10457800002BF7B50D467BDBB1F90630002B77DB56
:10458800B1F90030B3F5A07F72DAB1F90230B3F5B2
:10459800F07F6DDA374F00233A60374AC2F884302B
:1045A800BFF34F8FD2F8803043F6E074C3F3C900ED
:1045B800C3F34E335B0103EA040C01464CEA8176EF
:1045C8000139C2F87462F9D2203B13F1200FF2D1FD
:1045D800BFF34F8FBFF36F8FBFF34F8FBFF36F8F53
:1045E8000026C2F85062BFF34F8FBFF36F8FAB88BE
:1045F800EA8828880133698801321B1A1F4C521A2D
:104608009BB292B2FFF7FCFB4FF0C0432C2220462E
:104618001A8002231A4AE66422621A4A66606262B3
:10462800FF22C4E90236C4E91163174B22652360EF
:10463800C4E91566C4E90466FCF7F3FD28B901214D
:104648002046FCF7D5FE08B1FEE7FEE7AB8820461A
:104658002A88013369889B1AEA8801321BB2521AE8
:10466800396812B20092094AFCF718FE084B187014
:1046780003B0F0BD7CB4042400ED00E074B204245F
:10468800614500085D4500080010005200001060F8
:1046980078B4042470B5104DFFF7D8FB2B680BB124
:1046A80029F002F90D4E4FF496330D4C0D4A304661
:1046B8000D491DF011F820461CF0EAFF0B4B20466F
:1046C800E66023600A4B63610A4BA3610A4BE3620D
:1046D8001DF010F8286070BDECB4042480B40424E4
:1046E8009CB4042458020024585A02244001E001D2
:1046F80075450008F1440008154500080000000051
:1047080070B50C46FFF7ECFA234B244E5A78244D2B
:1047180012F00F022CD09A7802F00F01DA7842EAF0
:104728000122204922800A801A795B7902F00F025F
:1047380043EA02231C4A9FED123B07EE903A13808E
:104748009FED114B9FED122BB0EE431BB8EEE70B1C
:1047580028F07EFFBDEEC00B144A10EE103A1BB2D3
:104768001380638022882B8001233280A37370BD5D
:104778003388A27323802B886380F8E7AFF3008027
:1047880000000000000000000000000000007E4063
:104798000000000000E07C4031B404241CB504246F
:1047A8001EB50424F4B40424F6B40424F8B4042490
:1047B80010B5064C20461DF0B7F80123204623709B
:1047C800034B6360BDE810401DF0BEB8FCB4042480
:1047D800094700084FF0FF30704708B51DF05CF836
:1047E800BDE8084003F0AABA70B590B0044603F0DB
:1047F8002BFC1A2828D1204603F02AFC436B0646D6
:10480800B3F5C02F17D1836B022B1BD1454D02ACDA
:104818000FCD0FC40FCD0FC495E80F0084E80F002B
:1048280010AA336C02EB83033F4A53F8383CD6E9AD
:104838000B011FF01DF9736BB3F5A02F02D133697B
:104848000022DA7010B070BD1B28FBD1204603F09F
:10485800FFFB436B0546B3F5A02FF3D102A86426EE
:104868000DF046FCEA68D4885188B2F9000001349A
:10487800B2F90230B2F90420641AADF802300431FA
:10488800ADF8042024B2AA6B284BADF80000002034
:1048980053F822306343B3FBF6F30B44ADF806300C
:1048A8001DF03EFE04236A4602A9ADF80C002868F4
:1048B800ADF808300DF042FCA96B05201C4ABDF884
:1048C800063052F82120043B62439BB2B2FBF6F259
:1048D800ADF802301344ADF806301DF021FE002378
:1048E8006A4602A9ADF80C002868ADF808300DF04A
:1048F80025FCA96B09200F4ABDF9063052F8212082
:10490800ADF802305443B4FBF6F41C44ADF806404D
:104918001DF006FE6A46ADF80C0002A928680DF0E5
:104928000DFC8FE708DA0208C6400408982F04082F
:10493800702F0408C02F0408F0B50446A3B003F094
:1049480083FB0546204603F07BFB132D06460AD160
:10495800204603F07DFBB0F900303C2BB8BF3C2368
:10496800038023B0F0BD1B2DFBD1204603F070FB64
:10497800436B0546B3F5403FF3D12021304605F09F
:10498800DDFE0028EDD03046002721F078FF5B4A95
:104998000346082106A85A4E1FF06AF841F6FF732D
:1049A80006A905A80097CDE901373B46326820F0F3
:1049B80017FDE868BDF91410828803880132D21AFD
:1049C800C2F3C03404FA82F201EBD174A3EB64049D
:1049D800BDF8163004EB620294B2428838460A3AAF
:1049E8002144ADF8204092B2ADF82410ADF826204D
:1049F800D21AADF822201CF075FF1D2874DD384648
:104A08001CF070FF14230A3090FBF3F080B2201AD8
:104A1800BDF82440ADF8280000201CF063FF1D28D5
:104A280064DD00201CF05EFF14230A3090FBF3F0D5
:104A380080B22044BDF82240ADF82C0000201CF0C4
:104A480051FF1D2854DD00201CF04CFF14230A30B0
:104A580090FBF3F080B2201ABDF82640ADF82A008A
:104A680000201CF03FFF1D2844DD00201CF03AFF09
:104A780014230A3090FBF3F39BB2234414A8ADF837
:104A88002E300DF035FB032112201DF095FDADF8F9
:104A9800540000201CF026FF00EB8000EF282BDDDF
:104AA80000201CF01FFF5022052100FB0123A0223B
:104AB80093FBF2F31BB20AAA14A92868ADF8503088
:104AC8000DF03CFB0CA80BF001FF08AAFFF782FED3
:104AD8003368ADF83C000CA90C930023009306AB97
:104AE80028680BF011FF3CE7012090E70120A0E7C0
:104AF8000120B0E70123C0E70123DCE7D82A040836
:104B080038B5042408B51CF0C7FEBDE8084003F01A
:104B180049B9000073B5054603F096FA04462846DD
:104B280003F08EFA0E2C05464FD103F0B9FD03F0C1
:104B3800BDFD012849D1264C2268002A45D10192A1
:104B4800FFF7E0FF022105F067FDFFF7DBFF17F035
:104B580015FA2060FFF7D6FF019A7F2109F08EFF32
:104B6800FFF7D0FF064612201DF0DAFC019A014635
:104B7800304609F073FF174B1B78E3B9C822B421FC
:104B8800206806F001FD2068012240F2C67117F086
:104B980001FA20681E230022092106F077FD2B4622
:104BA80000220D49206803F069FA206802B0BDE8C8
:104BB800704017F093BC012B206807BFDC22C82186
:104BC8004FF4A5724FF49671DBE702B070BD00BFD9
:104BD80020B5042430B50424E54B000870B504461C
:104BE8008CB003F031FA0646204603F033FA054646
:104BF800204603F027FA1C2E24D103A9002417F01D
:104C0800DBFABDF80C30104A2021019304A89DF965
:104C18000E3000939DF90F301EF02AFF28460B4DE9
:104C280004A928F075F928680AF068F82C60FFF7DD
:104C380069FF022105F025FDFFF764FF22462146A2
:104C480009F01CFF0CB070BDDC2A040820B5042450
:104C5800F8B5054603F0F8F90446284603F0F0F9DC
:104C68000646284603F0F6F90E2C054632D103F025
:104C780017FD03F01BFD02285CD0314628461AF0C8
:104C8800BDFA2D4C1CF008FE1CF00CFE0321400060
:104C9800002290FBF1F1284609B209F0ADFE206828
:104CA80007F0E6FC27681CF0F7FD1CF00BFE044635
:104CB800284606F04FFD201A01B2384606F04DFC92
:104CC8002846012105F0DDFC30460021BDE8F8400A
:104CD80008F03CBB0F2C16D100211AF08FFA164BA6
:104CE8001C681CF0D9FD1CF0EDFD0146204606F0BD
:104CF80034FC0121284605F08FFC31460020BDE830
:104D0800F84003F0D7BC1F3CE4B2012C12D80A4B80
:104D18001C681CF0C1FD1CF0D5FD0146204606F0BC
:104D28001CFC2846012105F077FC0221304605F0DD
:104D3800EDFCE2E7F8BD00BF84B5042413B5094CC7
:104D48000A460191014620681BF0DAFC0021206820
:104D580009F027FF019A044902B0BDE8104024F089
:104D6800EFBF00BF50B50424D82A04084E4A2DE9E5
:104D7800F04711784D4FC5683B6800297AD0893BC8
:104D8800B3F5AF6F3B6001D200231370484A494E18
:104D980011783368002975D0033BB3F5AF6F3360E2
:104DA80001D200231370444ADFF81C911178D9F816
:104DB800003000296ED0393BB3F5AF6FC9F8003029
:104DC80001D2002313703C683368D9F8002004EB43
:104DD800030ADFF8F880296892446122D8F80000B5
:104DE800544353430022B4FBFAF4B3FBFAFA1BF022
:104DF800B5FC22462968D8F800001BF0D0FC621CDC
:104E080054446968D8F800001BF0A8FC621C696863
:104E1800D8F800001BF0C3FCA21CA968D8F8000051
:104E28001BF09CFC6322A968D8F800001BF0B7FCB3
:104E3800D8F8000009F0B2FE6FF00401044609F04A
:104E4800B0FE3A681D4924F07BFF6FF0020120464E
:104E580009F0A7FE32681A4924F072FF4FF0FF31BB
:104E6800204609F09EFED9F800201649BDE8F04713
:104E780024F066BF743341F294118B423B6085D9AC
:104E8800012382E7093341F294118B4233608AD9B6
:104E9800012387E74C3341F294118B42C9F8003063
:104EA80091D901238EE700BF31B5042450010024B5
:104EB80032B504245801002433B50424E92A04082F
:104EC800F62A0408022B04085401002440B50424DF
:104ED80013B50A4C0A460191014620681BF05FFC95
:104EE800206809F05BFE4FF0FF3109F05AFE019A85
:104EF800034902B0BDE8104024F022BF3CB50424A9
:104F08000E2B040813B50A4C0A4601910146206885
:104F18001BF045FC206809F041FE6FF0020109F022
:104F280040FE019A034902B0BDE8104024F008BFD2
:104F38003CB504241C2B040813B50A4C0A460191FD
:104F4800014620681BF02BFC206809F027FE6FF053
:104F5800040109F026FE019A034902B0BDE8104099
:104F680024F0EEBE3CB504242A2B04082DE9F043B6
:104F78000646A9B003F068F80446304603F060F826
:104F8800012C054601D0082C05D1284629B0BDE8DA
:104F9800F04306F0EFBD1A2C40F08281304603F052
:104FA80057F8436B0446B3F5C02F21D1836B022B0E
:104FB80040F0768128461AAD17F012FD0228276CBA
:104FC8000CBFC64EC64E0FCE0FC50FCE0FC596E806
:104FD8000F0085E80F0028ABC24A03EB8707D4E926
:104FE8000B0157F8383C29B0BDE8F0431EF040BD2E
:104FF800B3F5A02F40F05481416A002969D0806A36
:10500800002866D00326B0F90030B1F9022005F176
:105018001408B1F900100DF1140901960026B0F931
:10502800020000900FA80CF0F9FC00210FA80CF06A
:105038002FFC0746284606F08DFB031EE88A4146EA
:10504800B8BF0733B5F91A20009600EBE3030192C5
:1050580009A8FF221BB20DF02FF8314609A80CF061
:1050680017FC06461AA80DF043F87F234246484627
:105078008DF86B30A3691B88ADF86C30236899688C
:105088001CF063FF626A20681388A16AD0F8088060
:10509800C0F80890ADF81C300B88B2F90220013B2B
:1050A800ADF82030B1F902301AA99342A8BF1346CF
:1050B80007AAADF81E306B8BADF822300DF03EF824
:1050C80023683846C3F808800CF02AFC30460CF0F8
:1050D80027FC2846666C17F05FFEA36B984240F0E9
:1050E8004681284617F07CFC0128236940F0DB80C4
:1050F800FFF770FB022298842369DA844FF00008D6
:10510800236C794A082105A8784F1EF0B1FC41F6B6
:10511800FF73CDF8008005A904A8CDE901384346FE
:105128003A6820F05DF9284617F05AFC0228E06832
:1051380040F0DE80B0F8029040461CF0D3FBC0EB94
:105148000010EF2840F3B68040461CF0CBFB5022FD
:105158000F2100FB0123A02293FBF2F39BB2A9EBE2
:105168000303BDF81220002128469BB2ADF8223077
:105178009B1AADF81E3017F0D5FD8642E168BDF8E0
:10518800100040F099808B880A8801339B1AC3F37A
:10519800C03101FA83F302EB630292B2ADF81C202E
:1051A8000244ADF820200020BDF81C501CF09AFBEA
:1051B8001D2840F3D28000201CF094FB14230A30F1
:1051C80090FBF3F080B2281ABDF82050ADF8240007
:1051D80000201CF087FB1D2840F3C18000201CF034
:1051E80081FB14230A3090FBF3F080B22844BDF809
:1051F8001E50ADF8280000201CF074FB1D2840F359
:10520800B08000201CF06EFB14230A3090FBF3F0F2
:1052180080B2281ABDF82250ADF8260000201CF0F4
:1052280061FB1D2840F39F8000201CF05BFB1423CA
:105238000A3090FBF3F080B22844ADF82A001AA88F
:105248000CF056FF33890020ADF86C301CF04AFB97
:1052580000EB8000EF2840F3888000201CF042FB20
:105268005023052200FB0230A02390FBF3F000B28C
:1052780009AA1AA9ADF8680020680CF05FFF0FA80A
:105288000BF024FB07AAFFF7A5FA3B68ADF8480026
:105298000FA90F930023009305AB20680BF034FB94
:1052A80029B0BDE8F08332899A850F22DA85002279
:1052B8009A8623E7012352E70B8889880131C91AA6
:1052C800C1F3C03202FA81F103EB61039BB2ADF87E
:1052D80020301B1AADF81C3065E700BF38DA020829
:1052E80008DA0208C64004080A2B040838B5042462
:1052F800838801880133BDF910505B1AC3F3C032AB
:1053080002FA83F305EBD572A1EB620202EB6302AA
:1053180092B2ADF81C202A4445884046ADF82020BA
:105328001CF0E0FAC0EB0010EF2814DD40461CF03A
:10533800D9FA50220F2100FB0123A02293FBF2F39C
:105348009BB2EB1ABDF812209BB2ADF822309B1A23
:10535800ADF81E3027E70123F3E7012033E70120EA
:1053680044E7012055E7012066E7012080E723692B
:105378000022DA84DA8593E770B504460D461646AE
:1053880009F062FB294620463246BDE8704009F024
:1053980060BB00002DE9F04F2DED028B85B01C4657
:1053A80017460E4605F02CF9054642F2D17106F073
:1053B800D4F80121284613F081FC284623F0D0FFB9
:1053C8008246314624F05CFC00229849504608F099
:1053D8008DFE28461BF088F800220646114608F084
:1053E800E3FF4FF400320021304608F0DDFF42F2BF
:1053F8006401304606F09AF8284605F001F90D22B6
:105408008146114606F0C0F84FF480320021484624
:1054180008F0CAFF00228649484608F067FE0020C7
:105428001DF07EF800220146484609F017FB284681
:1054380023F096FF3946834624F022FC284605F0DF
:10544800DFF80D228046114606F09EF84FF48032B0
:105458000021404608F0A8FF00227549404608F0A0
:1054680045FE05201DF05CF800220146404609F083
:10547800F5FA284623F074FF214608EE100A24F0B6
:10548800FFFB284605F0BCF80D220746114606F03A
:105498007BF84FF480320021384608F085FF00225F
:1054A8006349384608F022FE09201DF039F8002229
:1054B8000146384609F0D2FA284623F051FF1099E0
:1054C80008EE900A24F0DCFB5A4B1C78012C59D1C9
:1054D8002846594A5949032514F0FCF8002150463A
:1054E80004230A4602944FF0020ACDE9001114F091
:1054F80037F90021234630460A460091CDE9014597
:1055080014F02EF923465246002148460294CDE96C
:10551800004A14F025F940464FF004082346524645
:1055280000210094CDE9015414F01AF9234652469B
:10553800002138460294CDE9004814F011F92346B9
:105548002A46294658460094CDE901A414F008F9E2
:1055580023462A46294618EE100A0094CDE901543C
:1055680014F0FEF823462A4629460094CDE9018422
:1055780018EE900A14F0F4F8304605B0BDEC028B32
:10558800BDE8F08F0024284601252D4A2D4914F046
:10559800A1F850460223224621464FF0020A009401
:1055A800CDE9014514F0DCF80223224621463046B5
:1055B8000094CDE9015514F0D3F848462B464FF036
:1055C8000309224621460295CDE9004A14F0C8F89D
:1055D80040464FF004082B46224621460295CDE965
:1055E800004914F0BDF82B4622462146384602955C
:1055F800CDE9004814F0B4F82B462A4649465846E7
:105608000094CDE901A514F0ABF82B462A4649468B
:1056180018EE100A0094CDE9019514F0A1F82B4674
:105628002A4649460094CDE90185A1E77CB50424C2
:1056380064B5042430B504243A010024F0000024A1
:105648002E010024EA0000242DE9F3410C4605460A
:1056580009F0A4FA06F078F886B200201CF042F9A6
:1056680000EB80008000EF2867DD00201CF03AF98D
:105678005022142100FB0123A02293FBF2F39BB2DA
:10568800F61A404B1F7836B2002F58D14FF0340825
:1056980038461CF027F900FB08F0EF285FDD384694
:1056A8001CF020F9502200FB0820A02390FBF3F304
:1056B8004FF480720021204600961DF04EFB01B287
:1056C800284605F033FF00201CF00CF900EB8000A1
:1056D8004000EF2845DD00206FF09F061CF002F91E
:1056E8000A23502200FB032090FBF6F636B2002076
:1056F8001CF0F8F800EB80004000EF2834DD0020B3
:105708001CF0F0F80A2150226FF09F0300FB0120E3
:1057180090FBF3F31BB2324606212846002605F01B
:10572800B5FFFF2CA8BFFF24E4B2284609F048FAC9
:10573800B0421CD802B0BDE8F0810123A0E70020E8
:105748001CF0D0F8C0EB00108000EF2807DD002027
:105758001CF0C8F83C21502200FB0120A5E70123DA
:10576800A6E74FF0FF36C2E74FF0FF33D3E73146E5
:10577800284609F016FA00222146013609F0C6F932
:10578800D3E700BF30B5042430B5044697B002F023
:105798005BFC0546204602F053FC0E2D22D109F091
:1057A800FDF9044605F0D0FF05461CF075F81CF01D
:1057B80079F800EBD07343F34F039D4210DA05A844
:1057C8001CF064FA224B4FF4807205A8069300235C
:1057D8000594CDE90D33C823CDE90F231CF0A0FAB9
:1057E80017B030BD072DFBD1204602F033FC05462B
:1057F8000078C41CE4B2132C28BF00241CF090FECF
:105808000146204603911CF08BFE124B0246039979
:105818001B6800930023184614F0CAFF28781CF070
:105828007FFE024601460C4803921EF0D6FC0B4B45
:10583800039A19680A4B186817F054FA094B039A27
:105848001968094B186817B0BDE8304017F04ABA14
:105858005156000838B504246CB5042454B5042402
:1058680024B504245CB5042428B5042430B593B0C9
:10587800044602F0E9FB072821D1204602F0EAFBA2
:10588800044605F061FF05461CF006F81CF00AF80E
:1058980000EBD07301A843F34F039D420E4D10DA7D
:1058A8001CF0F4F90023CDE909334FF48073CDE9F6
:1058B80001450B93C82301A80C931CF031FA13B0CF
:1058C80030BD1CF0E3F94FF48073CDE90145CDE913
:1058D80009330023EDE700BF515600082DE9F043D6
:1058E80085B0894604F08CFE05462D4A002108F053
:1058F8005BFD284642F2D17242F2640105F044FE93
:10590800284A2949284613F0E5FE2846002402279C
:1059180023F09EF80646254923F0A6F822460123DF
:105928002146304600940126CDE9014713F018FFBF
:10593800284623F015FD80461D4924F0A1F9334679
:105948003A46214640460097CDE9014613F008FF44
:10595800284623F005FD8046164924F091F9224691
:105968004046154908F0C2FB33463A4621464046B0
:105978000094CDE9016613F0F3FE284623F0F0FC0D
:105988000546494624F07CF9334603223946284621
:105998000097CDE9014613F0E3FE05B0BDE8F083BA
:1059A800FFFF0F0028010024FA00002490DA020803
:1059B8003A2B0408452B040874B504242DE9F04F4C
:1059C8002DED108B8DB0054604F01AFE804642F28C
:1059D800D17105F0C2FD404623F03AF8DD49069042
:1059E80023F042F8404623F0BBFC8346DA4924F012
:1059F80047F90022D949584608F078FB404623F079
:105A0800AFFC82460022D64908F070FBD5495046C3
:105A180024F036F90021504624F0EAF9404623F0F4
:105A28009FFC0AEE900A0022CF4908F05FFBCF499D
:105A38001AEE900A24F024F9404623F091FCCC4950
:105A4800079024F01DF9404623F08AFC0BEE100A5B
:105A58000022C54908F04AFBC6491BEE100A24F08B
:105A68000FF9404623F07CFCC349089024F008F95C
:105A7800404620F02BFF09EE100A42F2D17105F0E2
:105A88006CFD19EE100A23F06BFCBC49044624F0A7
:105A9800F7F80023092120461A4605F0F7FD40468D
:105AA80020F014FF08EE100A802104F026FE42F2CE
:105AB800D17118EE100A05F050FD18EE100A23F007
:105AC8004FFCAF49044624F0DBF8002309212046A7
