:020000040800F2
:10000000000008246D180008F9130008FF13000809
:10001000051400080B14000811140008000000006B
:10002000000000000000000000000000B1CF000848
:10003000171400080000000081D20008199F000872
:10004000BD180008BD180008BD180008BD1800083C
:10005000BD180008BD180008BD180008BD1800082C
:10006000BD180008BD180008BD180008BD1800081C
:10007000BD180008BD180008BD180008BD1800080C
:10008000BD180008BD180008BD180008BD180008FC
:10009000BD180008BD180008BD180008BD180008EC
:1000A000BD180008BD180008BD180008BD180008DC
:1000B000BD1800082514000839140008BD180008F0
:1000C000BD180008BD180008BD180008BD180008BC
:1000D000BD180008BD180008BD180008BD180008AC
:1000E000BD180008BD18000800000000BD18000879
:1000F000BD180008BD180008BD180008BD1800088C
:10010000BD180008BD180008BD180008BD1800087B
:10011000BD180008BD1800084D140008BD180008DF
:10012000BD180008BD180008BD180008BD1800085B
:10013000BD180008BD180008BD180008BD1800084B
:1001400000000000000000000000000000000000AF
:10015000BD180008BD180008BD180008BD1800082B
:10016000BD180008BD180008BD180008BD1800081B
:10017000BD180008BD180008BD180008BD1800080B
:10018000BD180008BD180008BD180008BD180008FB
:10019000BD180008BD180008BD180008BD180008EB
:1001A000BD180008BD180008BD180008BD180008DB
:1001B000BD180008BD180008BD180008BD180008CB
:1001C000BD180008BD180008BD180008BD180008BB
:1001D000BD18000861140008BD180008BD1800080B
:1001E000BD180008BD180008BD180008BD1800089B
:1001F000BD180008BD180008BD180008BD1800088B
:10020000BD180008BD180008BD180008BD1800087A
:10021000BD180008BD180008BD180008BD1800086A
:10022000BD180008BD180008BD1800080000000037
:10023000BD180008BD18000800000000BD18000827
:10024000BD180008BD180008BD180008BD1800083A
:10025000BD180008BD180008BD180008BD1800082A
:10026000BD180008BD180008BD180008BD1800081A
:10027000BD180008BD180008BD18000800000000E7
:10028000BD180008BD180008BD18000800000000D7
:0802900000000000BD18000889
:1002A00010B5054C237833B9044B13B10448AFF3B0
:1002B00000800123237010BD5003002400000000C3
:1002C0005040010808B5034B1BB103490348AFF385
:1002D000008008BD000000005403002450400108C5
:1002E00001F0FF01102A2BDB10F0070F08D010F8E7
:1002F000013B013A8B422DD010F0070F42B3F6D1EB
:10030000F0B441EA012141EA014122F007047FF003
:1003100000070023F0E80256083C85EA010586EA5A
:10032000010685FA47F5A3FA87F586FA47F6A5FA96
:1003300087F68EB9EED1F0BC01F0FF0102F00702A2
:1003400032B110F8013B013A83EA010313B1F8D14D
:100350000020704701387047002D06BF354603382E
:10036000073815F0010F07D1013015F4807F02BF67
:10037000013015F4C03F0130F0BC0138704700BFB8
:10038000034613F8012B002AFBD1181A01387047D5
:1003900081F0004102E000BF83F0004330B54FEA36
:1003A00041044FEA430594EA050F08BF90EA020FA3
:1003B0001FBF54EA000C55EA020C7FEA645C7FEA36
:1003C000655C00F0E2804FEA5454D4EB5555B8BF59
:1003D0006D420CDD2C4480EA020281EA030382EACA
:1003E000000083EA010180EA020281EA0303362D5C
:1003F00088BF30BD11F0004F4FEA01314FF4801C2F
:100400004CEA113102D0404261EB410113F0004F40
:100410004FEA03334CEA133302D0524263EB4303F7
:1004200094EA050F00F0A780A4F10104D5F1200E95
:100430000DDB02FA0EFC22FA05F2801841F10001F0
:1004400003FA0EF2801843FA05F359410EE0A5F1C4
:1004500020050EF1200E012A03FA0EFC28BF4CF0F5
:10046000020C43FA05F3C01851EBE37101F00045AB
:1004700007D54FF0000EDCF1000C7EEB00006EEBB8
:100480000101B1F5801F1BD3B1F5001F0CD3490842
:100490005FEA30004FEA3C0C04F101044FEA445299
:1004A00012F5800F80F09A80BCF1004F08BF5FEA20
:1004B000500C50F1000041EB045141EA050130BD00
:1004C0005FEA4C0C404141EB0101013C28BFB1F512
:1004D000801FE9D291F0000F04BF01460020B1FA5D
:1004E00081F308BF2033A3F10B03B3F120020CDA30
:1004F0000C3208DD02F1140CC2F10C0201FA0CF00E
:1005000021FA02F10CE002F11402D8BFC2F1200C72
:1005100001FA02F120FA0CFCDCBF41EA0C01904028
:10052000E41AA2BF01EB0451294330BD6FEA040471
:100530001F3C1CDA0C340EDC04F11404C4F120025C
:1005400020FA04F001FA02F340EA030021FA04F36E
:1005500045EA030130BDC4F10C04C4F1200220FAC5
:1005600002F001FA04F340EA0300294630BD21FA03
:1005700004F0294630BD94F0000F83F4801306BFC9
:1005800081F480110134013D4EE77FEA645C18BFBD
:100590007FEA655C29D094EA050F08BF90EA020F54
:1005A00005D054EA000C04BF1946104630BD91EA4C
:1005B000030F1EBF0021002030BD5FEA545C05D14F
:1005C0004000494128BF41F0004130BD14F580048E
:1005D0003CBF01F5801130BD01F0004545F0FE4102
:1005E00041F470014FF0000030BD7FEA645C1ABF37
:1005F000194610467FEA655C1CBF0B46024650EA6E
:10060000013406BF52EA033591EA030F41F4002199
:1006100030BD00BF90F0000F04BF0021704730B51F
:100620004FF4806404F132044FF000054FF00001F4
:1006300050E700BF90F0000F04BF0021704730B5B5
:100640004FF4806404F1320410F0004548BF40428A
:100650004FF000013EE700BF42004FEAE2014FEADF
:1006600031014FEA02701FBF12F07F4393F07F4FBA
:1006700081F06051704732F07F4208BF704793F0BD
:100680007F4F04BF41F40021704730B54FF46074D0
:1006900001F0004521F000411CE700BF50EA0102D3
:1006A00008BF704730B54FF000050AE050EA01027C
:1006B00008BF704730B511F0004502D5404261EBEC
:1006C00041014FF4806404F132045FEA915C3FF42D
:1006D000D8AE4FF003025FEADC0C18BF03325FEACA
:1006E000DC0C18BF033202EBDC02C2F1200300FA7B
:1006F00003FC20FA02F001FA03FE40EA0E0021FAA0
:1007000002F11444BDE600BF08B502460B4643ECB7
:10071000172BB5EEC07BF1EE10FA03D4BDE808400C
:1007200000F00AB8B1EE477B51EC170B00F004F86B
:10073000404261EB410108BD9FED0B6B41EC170B93
:100740009FED0B5B27EE066BBCEEC66BB8EE464B1F
:10075000A4EE457BFCEEC77B16EE101A17EE900A4E
:10076000704700BFAFF30080000000000000F03DC4
:10077000000000000000F04180B5CAB000AF07F5EE
:100780009473A3F58E73186007F59473A3F59073B3
:10079000196007F59473A3F592731A60002387F824
:1007A00027314FF0FF33C7F820310023C7F81C3141
:1007B00007F59473A3F59073D7F81C211B689A4230
:1007C0003DD207F59473A3F58E731A68D7F81C31E0
:1007D00013441B783B2B07D107F59473A3F5907353
:1007E000D7F81C211A602AE0D7F82021D7F81C314D
:1007F0009A421ED907F59473A3F58E731A68D7F839
:100800001C3113441B782A2B05D1D7F81C31013336
:10081000C7F820310DE007F59473A3F58E731A68BD
:10082000D7F81C3113441A7897F82731534087F8CA
:100830002731D7F81C310133C7F81C31B8E707F569
:100840009473A3F590731B68B3F5807F06D907F501
:100850009473A3F590734FF480721A6007F5947344
:10086000A3F5907207F59473A3F58E7307F1180042
:10087000126819680EF086FC07F59473A3F590735F
:10088000D7F820211B689A4234BF0123002387F840
:100890001B3197F81B31002B1BD007F11802D7F83A
:1008A0002031134407F11402284918460FF00AFDBD
:1008B00097F8272107F59473A3F58A731B689A426A
:1008C00040D107F59473A3F59073D7F82021013A2E
:1008D0001A6007F59473A3F5887207F59473A3F56E
:1008E00090731B68134400221A7007F59473A3F5E4
:1008F00092731B681B79002B0ED107F59473A3F537
:10090000927207F59473A3F5907307F118001268BB
:1009100019680DF0D5FB15E007F59473A3F59273F4
:100920001B681B79012B0DD107F59473A3F5927207
:1009300007F59473A3F5907307F11800126819680E
:100940000DF088FD07F59477BD4680BD684001082D
:1009500080B586B000AFF860B9607A60BB685A1E97
:10096000BA60002B14BF01230023DBB2002B3DD063
:10097000204B1B68FF2B05D91F4B00221A701D4B03
:1009800000221A60FB685A1CFA601B78FB75FB7D1D
:100990000D2B05D0FB7D0A2B02D0FB7D212B01D135
:1009A000012300E00023BB75BB7D002B11D0124B4F
:1009B0001B78002B06D00F4B1B687A6819460F482E
:1009C000FFF7DAFE0B4B00221A600B4B01221A7064
:1009D000C4E7094B1B78002BC0D0064B1B685A1C80
:1009E00004490A600549FA7DCA54B7E700BF1837C1
:1009F000BD4680BD6C040024000000246C0300246C
:100A000080B584B000AF7860084B1B684FF0FF31B1
:100A1000184609F01BFCF860FB68002BF4D1044871
:100A200001F070FC652001F0A9F8EDE7BC0400249A
:100A3000A029002480B500AF0A4A00210A4809F025
:100A4000CFFA0346094A1360094B1B78DBB283F0E7
:100A50000103DBB2002B03D0012009F053FBF3E7C5
:100A600000BF80BD5C420108750A000870040024C4
:100A70007804002480B582B000AF7860044B012276
:100A80001A7000F05DF94FF47A7009F03BFBFAE759
:100A90007804002490B585B000AFF860B9607A6042
:100AA000074B1868064B1B681B681C687A68002394
:100AB000B968A0477B6818461437BD4690BD00BF93
:100AC0000400002480B483B000AF7860044A7B68DF
:100AD0001A607B6818460C37BD465DF8047B70478A
:100AE000CC42010880B483B000AF7860044A7B68D0
:100AF0001A607B6818460C37BD465DF8047B70476A
:100B0000DC42010880B584B000AFF8600B467A6023
:100B1000FB72FB681846FFF7E5FF074AFB681A609F
:100B2000FB68FA7A1A71FB687A689A60FB68184663
:100B30001037BD4680BD00BFC042010880B586B0F9
:100B400000AFF860B9607A60FB689B681B680A2197
:100B5000184609F07BFB0346002B14BF012300233A
:100B6000DBB2002B04D0124B9B680133104A936018
:100B70007B6899B2FB681B791A46B8680CF0C8FD0F
:100B80000346FB75FB7D002B08D0FB689B681B6848
:100B9000184609F0ADFB4FF0FF3305E0044B5B68EE
:100BA0000133034A5360002318461837BD4680BD01
:100BB0008004002480B584B000AFF860B9601346AB
:100BC000FB71FB681846FFF77DFF074AFB681A6058
:100BD000FB68BA689A60FB68FA791A71FB68184674
:100BE0001037BD4680BD00BFB042010880B584B05B
:100BF00000AFF860B9607A603B60FB689868FB689A
:100C00009B681B681B687A68B96898470346002B85
:100C100014BF01230023DBB2002B02D04FF0FF33BF
:100C200000E0002318461037BD4680BD80B483B075
:100C300000AF78604FF0FF3318460C37BD465DF8C3
:100C4000047B704780B584B000AF78601D4B1B6893
:100C50004FF0FF31184609F0F9FAF860FB68002BF5
:100C6000F4D1194B1B680133174A1360174B1B7AD9
:100C7000002B10D0154B00221A72144B1B68134A1C
:100C80005168134A1846FFF763FE104B5B7A19460A
:100C9000104807F0F1FD104B1B7A002BD6D00E4BFD
:100CA00000221A720C4B1B680B4A51680B4A1846FB
:100CB000FFF74EFE084B5B7A1946064807F0DCFD4D
:100CC000C4E700BFC00400248004002408000024FE
:100CD000A4040024C414002418000024B004002438
:100CE00080B586B000AFF860B9601346FB71114B58
:100CF0005B7AFA799A4202D10E4B7B6106E00E4B89
:100D00005B7AFA799A4210D10B4B7B617B69FA6866
:100D10001A607B69BA685A607B6901221A72074BB4
:100D20001B68184609F0E4FA00E000BF1837BD461A
:100D300080BD00BF0800002418000024C004002467
:100D400080B500AF044A0021044809F049F9034680
:100D5000034A136000BF80BD84420108450C0008AF
:100D60007C04002480B582B000AF786039607B6875
:100D7000012B18D13B684FF6FF72934213D10C4AF6
:100D800001210C48FFF7BEFE094A03210A48FFF77C
:100D9000B9FE002207490948FFF70CFF0122064966
:100DA0000748FFF707FF00BF0837BD4680BD00BFFB
:100DB000C40400248C04002498040024A404002407
:100DC000B004002480B500AF4FF6FF710120FFF79B
:100DD000C9FF80BD90B597B000AF294B07F148041B
:100DE0000FCB84E80F0007F148031A4600210120C9
:100DF00009F0A3F90346234A1360234B07F1380493
:100E00000FCB84E80F0007F138031A4600210120B8
:100E100009F093F903461D4A13601D4B07F128049E
:100E20000FCB84E80F0007F128031A4601210120A7
:100E300009F083F90346174A13603B1D2422002161
:100E400018460EF0C7F9144B7B604FF40073BB617A
:100E50002023FB613B1D1A460021104809F0C0F811
:100E600003460F4A13600F4A00210F4809F0B8F8F3
:100E700003460E4A136000BF5C37BD4690BD00BFFD
:100E8000A0400108BC040024B0400108C0040024B4
:100E9000C0400108C404002494400108010A00086D
:100EA00074040024E4420108B10E0008C8040024C0
:100EB00080B582B000AF78600CF04EFB0DF0DAF830
:100EC000044B1B6818460AF005FD00BF0837BD46F5
:100ED00080BD00BFC804002480B58AB000AF07F110
:100EE000140300221A605A609A60DA601A61314B6A
:100EF000D3F8E0302F4A43F01003C2F8E0302D4B16
:100F0000D3F8E03003F010033B613B69294BD3F881
:100F1000E030284A43F08003C2F8E030254BD3F894
:100F2000E03003F08003FB60FB68224BD3F8E03035
:100F3000204A43F00103C2F8E0301E4BD3F8E03002
:100F400003F00103BB60BB681A4BD3F8E030194AC9
:100F500043F00203C2F8E030164BD3F8E03003F060
:100F600002037B607B68134BD3F8E030114A43F0F7
:100F70000803C2F8E0300F4BD3F8E03003F0080369
:100F80003B603B68002202210B4801F031F802234C
:100F90007B610123BB610023FB6100233B6207F1FE
:100FA00014031946044800F073FE00BF2837BD46FD
:100FB00080BD00BF004402580000025880B584B0D4
:100FC00000AF00F0FBF83A4B5B6903F40033002BF1
:100FD0001BD1BFF34F8F00BFBFF36F8F00BF344BE8
:100FE0000022C3F85022BFF34F8F00BFBFF36F8FB3
:100FF00000BF2F4B5B692E4A43F400335361BFF3AC
:101000004F8F00BFBFF36F8F00E000BF284B5B69BD
:1010100003F48033002B38D1254B0022C3F8842001
:10102000BFF34F8F00BF224BD3F88030FB60FB68CB
:101030005B0BC3F30E03BB60FB68DB08C3F3090360
:101040007B60BB685A0143F6E07313407A689207ED
:1010500017491343C1F860327B685A1E7A60002B2F
:10106000EFD1BB685A1EBA60002BE5D1BFF34F8F9A
:1010700000BF0F4B5B690E4A43F480335361BFF3EB
:101080004F8F00BFBFF36F8F00E000BF00F018FC70
:1010900000F010F8FFF720FF00F062FB00F0E6FA26
:1010A00008F054FFFFF796FE08F074FFFEE700BF5C
:1010B00000ED00E080B59CB000AF07F124034C22A6
:1010C000002118460EF086F83B1D2022002118460C
:1010D0000EF080F8022002F093FA00233B60344BBC
:1010E000DB6A334A23F00103D362314BDB6A03F03E
:1010F00001033B602F4B9B692E4A43F440439361AD
:101100002C4B9B6903F440433B603B6800BF294B79
:101110009B6903F40053B3F5005FF8D1264B9B6A3B
:1011200023F00303244A43F00203936201237B620A
:101130004FF48033BB620223BB640223FB640523AC
:101140003B65A0237B650223BB650223FB6502236D
:101150003B6608237B660023BB660023FB6607F122
:101160002403184602F096FA0346002B01D000F043
:10117000B3F83F237B600323BB600023FB6008239D
:101180003B6140237B614023BB614FF48063FB6183
:1011900040233B623B1D0221184602F0A9FE034694
:1011A000002B01D000F098F800BF7037BD4680BD1D
:1011B00000040058004802580044025880B584B02A
:1011C00000AF3B4600221A605A609A60DA6000F075
:1011D000E3FC01233B7000237B704FF010537B60D6
:1011E00012233B7200237B720123BB720323FB7229
:1011F00000233B7300237B730123BB730123FB7329
:101200003B46184600F000FD01237B704FF0C043C1
:101210007B601B233B720023BB720023BB733B46E6
:10122000184600F0F1FC02237B704FF040537B60C6
:1012300010233B720123BB730023FB733B4618460C
:1012400000F0E2FC03237B70184B7B603B461846A2
:1012500000F0DAFC04237B70154B7B600E233B729D
:101260003B46184600F0D0FC05237B704FF06053DE
:101270007B600F233B723B46184600F0C5FC0623FB
:101280007B704FF010437B6016233B720123BB72CF
:101290000123FB733B46184600F0B6FC042000F027
:1012A00093FC00BF1037BD4680BD00BF0000023078
:1012B0000000043080B582B000AF78607B681B68A6
:1012C000044A934201D100F037FB00BF0837BD4606
:1012D00080BD00BF0008004080B400AF72B600BF00
:1012E000FEE7000080B582B000AF0C4BD3F8F430BD
:1012F0000A4A43F00203C2F8F430084BD3F8F43042
:1013000003F002037B607B6800220F216FF0010075
:1013100000F01AFC00BF0837BD4680BD00440258EB
:1013200080B590B000AF78607B680F2B27D8002283
:1013300079681E2000F008FC1E2000F01FFC294ADE
:101340007B681360284BD3F8E830274A43F0040346
:10135000C2F8E830244BD3F8E83003F00403FB6014
:10136000FB6807F1100207F114031146184603F059
:1013700035F9BB6ABB63BB6B002B06D101E00123CF
:101380002BE003F015F9F86304E003F011F90346CC
:101390005B00FB63FB6B154AA2FB03239B0C013B29
:1013A0007B63134B134A1A60114B40F2E732DA6049
:1013B0000F4A7B6B53600E4B00221A610C4B0022CC
:1013C0009A600B4804F0F6F90346002B04D1084854
:1013D00004F048FA034600E0012318464037BD46B2
:1013E00080BD00BF300000240044025883DE1B4350
:1013F000BC0500240008004080B400AFFEE780B4C4
:1014000000AFFEE780B400AFFEE780B400AFFEE7B8
:1014100080B400AFFEE780B400AF00BFBD465DF80A
:10142000047B704780B500AF024804F0EAFA00BFC1
:1014300080BD00BF0806002480B500AF024804F05C
:10144000E0FA00BF80BD00BFBC05002480B500AF3E
:10145000024804F0D6FA00BF80BD00BF5406002445
:1014600080B500AF024800F04DFF00BF80BD00BF57
:10147000A029002480B400AF01231846BD465DF8C2
:10148000047B704780B582B000AF786039600DF0A2
:1014900035FD034616221A604FF0FF331846083711
:1014A000BD4680BD80B582B000AF78604FF0FF319F
:1014B0007868FFF7E7FFFEE780B586B000AFF86019
:1014C000B9607A6000237B610AE0AFF300800146D7
:1014D000BB685A1CBA60CAB21A707B6901337B615F
:1014E0007A697B689A42F0DB7B6818461837BD46FC
:1014F00080BD80B483B000AF78604FF0FF331846F2
:101500000C37BD465DF8047B704780B483B000AFF4
:10151000786039603B684FF400525A6000231846E7
:101520000C37BD465DF8047B704780B483B000AFD4
:101530007860012318460C37BD465DF8047B704780
:1015400080B485B000AFF860B9607A6000231846B7
:101550001437BD465DF8047B7047000080B400AFCF
:10156000374BD3F88830364A43F47003C2F88830DA
:10157000344B1B6803F00F03062B07D8314B1B6855
:1015800023F00F032F4A43F0070313602E4B1B6811
:101590002D4A43F0010313602B4B00221A612A4BA2
:1015A0001A682949294B13400B60264B1B6803F02E
:1015B0000803002B07D0234B1B6823F00F03214A9D
:1015C00043F007031360204B00229A611E4B002258
:1015D000DA611D4B00221A621B4B1D4A9A621A4B9C
:1015E0001C4ADA62184B1C4A1A63174B00225A63D2
:1015F000154B194A9A63144B0022DA63124B164AB0
:101600001A64114B00225A640F4B1B680E4A23F4D4
:10161000802313600C4B00221A66104B1A68104B83
:101620001340B3F1005F02D20E4B01221A600E4B41
:1016300043F2D2021A6000BFBD465DF8047B7047DA
:1016400000ED00E000200052004402587FEDF6EA71
:10165000000202020000FF01800201010010005C94
:101660000000FFFF088100510040005280B58AB0A1
:1016700000AF07F11C0300221A605A609A603B46D3
:1016800000221A605A609A60DA601A615A619A619F
:10169000314B324A1A60304B00225A602E4B0022E6
:1016A0009A602D4B4FF6FF72DA602B4B00221A61C5
:1016B000294B80229A61284804F04CF90346002BFC
:1016C00001D0FFF709FE0023FB6100237B6207F1D5
:1016D0001C031946204804F0C5FE0346002B01D028
:1016E000FFF7FAFD30233B6000237B600023BB60E3
:1016F00000233B613B4600221946174804F0A0FA3C
:101700000346002B01D0FFF7E7FD00233B603B467B
:1017100004221946104804F093FA0346002B01D026
:10172000FFF7DAFD3B46082219460B4804F088FA19
:101730000346002B01D0FFF7CFFD3B460C22194694
:10174000054804F07DFA0346002B01D0FFF7C4FDE5
:1017500000BF2837BD4680BD0806002400040040B5
:1017600080B584B000AF3B1D00221A605A609A60B9
:10177000144B154A1A60134B63225A60114B002216
:101780009A60104B4CF24F32DA600E4B80229A6115
:101790000C4804F00FF80346002B01D0FFF79CFD26
:1017A00000237B600023FB603B1D1946054804F0C5
:1017B00059FE0346002B01D0FFF78EFD00BF103706
:1017C000BD4680BD540600240010004080B584B0A2
:1017D00000AF78607B681B680E4A934216D10E4BAF
:1017E000D3F8E8300C4A43F00203C2F8E8300A4B61
:1017F000D3F8E83003F00203FB60FB6800220E21FF
:101800001D2000F0A1F91D2000F0B8F900BF10372D
:10181000BD4680BD000400400044025880B584B03D
:1018200000AF78607B681B680E4A934216D10E4B5E
:10183000D3F8E8300C4A43F01003C2F8E8300A4B02
:10184000D3F8E83003F01003FB60FB6800220D21A1
:10185000362000F079F9362000F090F900BF1037FB
:10186000BD4680BD0010004000440258DFF834D06F
:10187000FFF774FE0C480D490D4A002302E0D458CE
:10188000C4500433C4188C42F9D30A4A0A4C0023CA
:1018900001E013600432A242FBD30DF02BFCFFF7F2
:1018A0008DFB704700000824000000245003002432
:1018B0008448010850030024E4340024FEE70000BB
:1018C00080B582B000AF032000F033F902F0C6FC0F
:1018D0000246154B9B691B0A03F00F031349CB5CAF
:1018E00003F01F0322FA03F37B600F4B9B6903F0A5
:1018F0000F030E4AD35C03F01F037A6822FA03F346
:101900000B4A13600B4A7B6813600020FFF708FD49
:101910000346002B01D0012302E0FFF7E3FC002384
:1019200018460837BD4680BD0044025808430108E8
:101930002C0000242800002480B400AF064B1B7844
:101940001A46064B1B681344044A136000BFBD4689
:101950005DF8047B704700BF34000024A00600241B
:1019600080B400AF034B1B681846BD465DF8047B8E
:10197000704700BFA006002480B584B000AF786037
:10198000FFF7EEFFB8607B68FB60FB68B3F1FF3FD9
:1019900005D00A4B1B781A46FB681344FB6000BF56
:1019A000FFF7DEFF0246BB68D31AFA689A42F7D8FF
:1019B00000BF00BF1037BD4680BD00BF340000240B
:1019C00080B400AF034B1B681B0C1846BD465DF886
:1019D000047B70470010005C80B485B000AF786075
:1019E0007B6803F00703FB600B4BDB68BB60BA68E6
:1019F0004FF6FF031340BB60FB681A02BB681A4333
:101A0000064B1343BB60044ABB68D36000BF143766
:101A1000BD465DF8047B704700ED00E00000FA056C
:101A200080B400AF044BDB681B0A03F007031846C1
:101A3000BD465DF8047B704700ED00E080B483B0E4
:101A400000AF0346FB80B7F90630002B0BDBFB88A9
:101A500003F01F020749B7F906305B09012000FABD
:101A600002F241F8232000BF0C37BD465DF8047B2D
:101A7000704700BF00E100E080B483B000AF0346D0
:101A80003960FB80B7F90630002B0ADB3B68DAB21D
:101A90000C49B7F906301201D2B20B4483F8002387
:101AA0000AE03B68DAB20849FB8803F00F03043B05
:101AB0001201D2B20B441A7600BF0C37BD465DF856
:101AC000047B704700E100E000ED00E080B489B0E5
:101AD00000AFF860B9607A60FB6803F00703FB6150
:101AE000FB69C3F10703042B28BF0423BB61FB6917
:101AF0000433062B02D9FB69033B00E000237B6122
:101B00004FF0FF32BB6902FA03F3DA43BB681A40B5
:101B10007B699A404FF0FF317B6901FA03F3D943A7
:101B20007B680B40134318462437BD465DF8047BA1
:101B3000704780B582B000AF78607868FFF74CFFDF
:101B400000BF0837BD4680BD80B586B000AF0346F4
:101B5000B9607A60FB81FFF763FF78617A68B968E2
:101B60007869FFF7B3FF0246B7F90E301146184601
:101B7000FFF782FF00BF1837BD4680BD80B582B039
:101B800000AF0346FB80B7F906301846FFF756FF53
:101B900000BF0837BD4680BD80B400AFBFF35F8F84
:101BA00000BF074B5B6A064A23F480335362054B40
:101BB00000225A6000BFBD465DF8047B704700BF3D
:101BC00000ED00E090ED00E080B483B000AF7860FD
:101BD0000B4A7B6843F0010353600A4B5B6A094A76
:101BE00043F480335362BFF34F8F00BFBFF36F8F57
:101BF00000BF00BF0C37BD465DF8047B704700BFD7
:101C000090ED00E000ED00E080B483B000AF7860BC
:101C10007B685A781D4B9A607B681B78002B29D013
:101C20001A4A7B685B68D3607B681B7B1A077B68FA
:101C3000DB7A1B061A437B689B7ADB041A437B68BA
:101C40005B7B9B041A437B689B7B5B041A437B682A
:101C5000DB7B1B041A437B685B7A1B021A437B689D
:101C60001B7A5B0013437A6812781146074A0B43CC
:101C7000136105E0054B0022DA60044B00221A6173
:101C800000BF0C37BD465DF8047B704790ED00E067
:101C900080B489B000AF786039600023FB61894B64
:101CA0007B6194E13B681A680121FB6901FA03F347
:101CB00013403B613B69002B00F086813B685B6809
:101CC00003F00303012B05D03B685B6803F00303BB
:101CD000022B30D17B689B68BB61FB695B000322F0
:101CE00002FA03F3DB43BA691340BB613B68DA686D
:101CF000FB695B0002FA03F3BA691343BB617B68BB
:101D0000BA699A607B685B68BB610122FB6902FA71
:101D100003F3DB43BA691340BB613B685B681B0993
:101D200003F00102FB6902FA03F3BA691343BB61D2
:101D30007B68BA695A603B685B6803F00303032B56
:101D400017D07B68DB68BB61FB695B00032202FA8A
:101D500003F3DB43BA691340BB613B689A68FB69D4
:101D60005B0002FA03F3BA691343BB617B68BA698B
:101D7000DA603B685B6803F00303022B23D1FB6945
:101D8000DA087B68083253F82230BB61FB6903F044
:101D900007039B000F2202FA03F3DB43BA691340E7
:101DA000BB613B681A69FB6903F007039B0002FAF9
:101DB00003F3BA691343BB61FB69DA087B68083235
:101DC000B96943F822107B681B68BB61FB695B0043
:101DD000032202FA03F3DB43BA691340BB613B6899
:101DE0005B6803F00302FB695B0002FA03F3BA6964
:101DF0001343BB617B68BA691A603B685B6803F494
:101E00004033002B00F0E0802F4BD3F8F4302E4A03
:101E100043F00203C2F8F4302B4BD3F8F43003F054
:101E20000203FB60FB68294AFB699B08023352F8F6
:101E30002330BB61FB6903F003039B000F2202FA0E
:101E400003F3DB43BA691340BB617B68204A9342CA
:101E500052D07B681F4A934231D07B681E4A93421E
:101E60002BD07B681D4A934225D07B681C4A934245
:101E70001FD07B681B4A934219D07B681A4A934251
:101E800013D07B68194A93420DD07B68184A93425D
:101E900007D07B68174A934201D109232DE00A231A
:101EA0002BE0082329E0072327E0062325E005236C
:101EB00023E0042321E003231FE002231DE001238C
:101EC0001BE000BF80000058004402580004005886
:101ED000000002580004025800080258000C025882
:101EE000001002580014025800180258001C025832
:101EF00000200258002402580023FA6902F003026D
:101F000092009340BA691343BB613849FB699B084F
:101F10000233BA6941F823204FF0B0431B68BB611C
:101F20003B69DB43BA691340BB613B685B6803F400
:101F30008013002B03D0BA693B691343BB614FF098
:101F4000B042BB6913604FF0B0435B68BB613B6953
:101F5000DB43BA691340BB613B685B6803F4001361
:101F6000002B03D0BA693B691343BB614FF0B04209
:101F7000BB6953607B695B68BB613B69DB43BA69E2
:101F80001340BB613B685B6803F40033002B03D054
:101F9000BA693B691343BB617B69BA695A607B6963
:101FA0001B68BB613B69DB43BA691340BB613B689B
:101FB0005B6803F48033002B03D0BA693B69134399
:101FC000BB617B69BA691A60FB690133FB613B68DD
:101FD0001A68FB6922FA03F3002B7FF463AE00BF9B
:101FE00000BF2437BD465DF8047B704700040058ED
:101FF00080B483B000AF78600B467B8013467B7063
:102000007B78002B03D07A887B689A6103E07B8819
:102010001A047B689A6100BF0C37BD465DF8047BEB
:10202000704780B485B000AF78600B467B807B68DA
:102030005B69FB607A88FB6813401A04FB68D9432C
:102040007B880B401A437B689A6100BF1437BD46FA
:102050005DF8047B7047F0B58FB00AAF78607B689D
:10206000002B01D1012316E17B681B68BB607B68F4
:1020700093F8BD34DBB2002B06D17B68002283F8D5
:10208000BC2478680BF090FC7B68032283F8BD24A5
:10209000BB68DB6B03F48073002B02D17B680022EA
:1020A0001A617B681B68184604F0A9FB7B681B68F3
:1020B0003B607E686D4606F110040FCC0FC50FCC57
:1020C0000FC594E8030085E80300331D0ECB386884
:1020D00004F074FA0346002B05D07B68022283F8D3
:1020E000BD240123D7E07B681B680021184604F05B
:1020F00097FB0023FB734AE0FA7B79681346DB0009
:1021000013449B000B443D3301221A70FA7B79681B
:102110001346DB0013449B000B443C33FA7B1A70DC
:10212000FA7BFB7B98B279681346DB0013449B0073
:102130000B44443302461A80FA7B79681346DB006D
:1021400013449B000B44403300221A70FA7B7968D9
:102150001346DB0013449B000B44483300221A60F3
:10216000FA7B79681346DB0013449B000B444C3325
:1021700000221A60FA7B79681346DB0013449B0047
:102180000B44543300221A60FB7B0133FB73FA7B50
:102190007B685B689A42AFD30023FB7344E0FA7B11
:1021A00079681346DB0013449B000B4403F27D2344
:1021B00000221A70FA7B79681346DB0013449B00F7
:1021C0000B4403F51F73FA7B1A70FA7B7968134688
:1021D000DB0013449B000B4403F5207300221A70AC
:1021E000FA7B79681346DB0013449B000B4403F52C
:1021F000227300221A60FA7B79681346DB001344CD
:102200009B000B4403F5237300221A60FA7B796864
:102210001346DB0013449B000B4403F52573002297
:102220001A60FB7B0133FB73FA7B7B685B689A4225
:10223000B5D37B681B683B607E686D4606F1100471
:102240000FCC0FC50FCC0FC594E8030085E8030041
:10225000331D0ECB386804F02FFB0346002B05D04E
:102260007B68022283F8BD24012314E07B680022EE
:1022700083F838207B68012283F8BD247B685B6A81
:10228000012B02D1786801F08BF97B681B68184636
:1022900005F07DFC002318461437BD46F0BD80B51F
:1022A00084B000AF78607B681B68FB607B6893F844
:1022B000BC34012B01D1022320E07B68012283F88A
:1022C000BC247B689B6A012B09D17B689B69012B2D
:1022D00005D0FB689B6B43F48032FB689A637B6894
:1022E0001B68184604F07AFA7B681B68184605F0EC
:1022F0002DFC7B68002283F8BC240023184610378D
:10230000BD4680BD90B58DB000AF78607B681B681E
:102310003B623B6AFB617B681B68184605F0EBFC7F
:102320000346002B40F0B7847B681B68184605F015
:102330004FFC0346002B00F0AD84FB6903F50063FE
:102340009B681B0AC3F30D027B68C3F8FC247B68FF
:102350001B68184605F03CFC034603F00203022B01
:1023600007D17B681B685A697B681B6802F0020210
:102370005A617B681B68184605F02AFC034603F087
:102380001003102B61D17B681B689A697B681B68FE
:1023900022F010029A613B6A1B6ABB61BB6903F0C1
:1023A0000F021346DB0013449B0003F51E737A688B
:1023B000134404337B61BB695B0C03F00F03022BF6
:1023C00024D1BA6947F6F0731340002B35D07B69EE
:1023D0001969BB691B099BB2C3F30A039BB21A4676
:1023E000386A05F061FA7B691A69BB691B09C3F396
:1023F0000A031A447B691A617B691A6ABB691B0963
:10240000C3F30A031A447B691A6216E0BB695B0CCA
:1024100003F00F03062B10D17B6803F2C44308229C
:102420001946386A05F040FA7B691A6ABB691B09CC
:10243000C3F30A031A447B691A627B681B689A69B2
:102440007B681B6842F010029A617B681B68184623
:1024500005F0BEFB034603F40023B3F5002F40F064
:10246000A78000237B627B681B68184605F0C3FBCE
:10247000B86299E0BB6A03F00103002B00F08E8084
:102480007B681B687A6AD2B21146184605F0E7FBF2
:1024900038613B6903F00103002B0CD07B6A5A01C1
:1024A000FB69134403F530631A4601239360796A8C
:1024B000786800F0EFFE3B6903F00803002B0CD0B6
:1024C0007B6A5A01FB69134403F530631A460823FB
:1024D0009360796A786800F0C5FF3B6903F01003E8
:1024E000002B08D07B6A5A01FB69134403F5306363
:1024F0001A46102393603B6903F00203002B30D08F
:102500003B6A5B6903F08003802B09D1FB6903F50B
:1025100000635B68FA6902F5006243F4806353600C
:102520007A6A1346DB0013449B0003F51E737A6836
:10253000134404337B617B69DB78012B08D17B6911
:102540000022DA707B6ADBB2194678680BF05EFB1A
:102550007B6A5A01FB69134403F530631A46022370
:1025600093603B6903F02003002B08D07B6A5A017B
:10257000FB69134403F530631A46202393603B69DB
:1025800003F40053002B09D07B6A5A01FB69134402
:1025900003F530631A464FF4005393607B6A0133AE
:1025A0007B62BB6A5B08BB62BB6A002B7FF462AFD5
:1025B0007B681B68184605F00BFB034603F4802379
:1025C000B3F5802F40F0DB807B681B68184605F070
:1025D0002CFBB86200237B62CDE0BB6A03F00103F1
:1025E000002B00F0C2807B681B687A6AD2B2114669
:1025F000184605F052FB38613B6903F00103002BDC
:1026000057D07B6A03F00F03012202FA03F3FB6049
:10261000FB6903F500635A6BFB68DB43F96901F55D
:10262000006113404B637B6A5A01FB69134403F555
:1026300010631A46012393607B681B69012B32D11A
:1026400079687A6A1346DB0013449B000B444C33D1
:10265000196878687A6A1346DB0013449B000344C8
:1026600048331B68194478687A6A1346DB001344C0
:102670009B0003444C3319607B6A002B13D17968AB
:102680007A6A1346DB0013449B000B4454331B68E7
:10269000002B08D17B6818687B6803F2C4431A4694
:1026A000012105F05BFB7B6ADBB2194678680BF011
:1026B00028FA3B6903F00803002B08D07B6A5A0113
:1026C000FB69134403F510631A46082393603B69C2
:1026D00003F01003002B08D07B6A5A01FB691344F6
:1026E00003F510631A46102393603B6903F040031F
:1026F000002B08D07B6A5A01FB69134403F5106371
:102700001A46402393603B6903F00203002B23D059
:10271000796A386A04F02EFA7A6A1346DB001344A9
:102720009B0038337A68134404337B617B69DB7820
:10273000012B08D17B690022DA707B6ADBB2194673
:1027400078680BF075FA7B6A5A01FB69134403F54C
:1027500010631A46022393603B6903F08003002B49
:1027600003D0796A786800F008FD7B6A01337B62E8
:10277000BB6A5B08BB62BB6A002B7FF42EAF7B6831
:102780001B68184605F024FA034603F00043B3F132
:10279000004F22D1FB6903F500635B68FA6902F51B
:1027A000006223F0010353607B6893F8F434012B3B
:1027B00008D17B68002283F8F4240021786800F0B7
:1027C00013FF02E078680BF013FA7B681B685A6904
:1027D0007B681B6802F000425A617B681B681846E0
:1027E00005F0F6F9034603F40063B3F5006F12D168
:1027F000FB6903F500639B6803F00103012B02D121
:1028000078680BF0CFF97B681B685A697B681B6896
:1028100002F400625A617B681B68184605F0D8F91B
:10282000034603F00063B3F1006F21D17B681B689E
:102830005A697B681B6802F000625A617B6893F8F2
:10284000F434002B11D17B68012283F8F4247B68D7
:102850001B685B6D9B0803F00F027B68C3F8F824CC
:102860000121786800F0C0FE02E078680BF09AF968
:102870007B681B68184605F0ABF9034603F48053E8
:10288000B3F5805F40F0B780FB6903F500635B68D8
:10289000FA6902F5006223F0010353607B681B684C
:1028A0001021184604F066F90023FB6246E0FB6A3B
:1028B0005A01FB69134403F510631A464FF67F3340
:1028C0009360FB6A5A01FB69134403F510631B68AC
:1028D000FA6A5101FA690A4402F5106223F40013FE
:1028E0001360FB6A5A01FB69134403F530631A460F
:1028F0004FF67F339360FB6A5A01FB69134403F57B
:1029000030631B68FA6A5101FA690A4402F53062C1
:1029100023F400131360FB6A5A01FB69134403F5A7
:1029200030631B68FA6A5101FA690A4402F53062A1
:1029300043F000631360FB6A0133FB627B685B68F2
:10294000FA6A9A42B3D3FB6903F50063DB69FA695B
:1029500002F5006243F00113D3617B681B6B002B0F
:1029600016D0FB6903F50063D3F88430FA6902F5E9
:10297000006243F00B03C2F88430FB6903F5006387
:102980005B6CFA6902F5006243F00B03536415E0D7
:10299000FB6903F500635A69FB6903F50063194697
:1029A00042F22B0313434B61FB6903F500631B6980
:1029B000FA6902F5006243F00B031361FB6903F54A
:1029C00000631B68FA6902F5006223F4FE6313607A
:1029D0007B6818687B681B69D9B27B6803F2C443C3
:1029E0001A4605F0BBF97B681B685A697B681B684F
:1029F00002F480525A617B681B68184605F0E8F8BB
:102A0000034603F40053B3F5005F24D17B681B68D1
:102A1000184605F07FF97B681B68184604F027F913
:102A200003461A467B68DA607B681C6801F090FDFB
:102A300001467B68DB68DBB21A46204603F02CFEB9
:102A400078680BF086F87B681B685A697B681B689E
:102A500002F400525A617B681B68184605F0B8F80A
:102A6000034603F00803082B0AD178680BF063F8DB
:102A70007B681B685A697B681B6802F008025A6110
:102A80007B681B68184605F0A3F8034603F0800333
:102A9000802B22D13B6A9B6923F080023B6A9A61BA
:102AA00001237B6214E079687A6A1346DB001344E1
:102AB0009B000B4403F27F231B78012B05D17B6A1B
:102AC000DBB21946786800F027FB7B6A01337B6232
:102AD0007B685B687A6A9A42E5D37B681B68184614
:102AE00005F076F8034603F48013B3F5801F3BD15D
:102AF00001237B622BE07B6A5A01FB69134403F5D7
:102B000010631B68BB6179687A6A1346DB00134463
:102B10009B000B4440331B78012B15D1BB69002B64
:102B200012DA79687A6A1346DB0013449B000B447F
:102B30003F3301221A707B6ADBB263F07F03DBB2A2
:102B40001946786800F0E8FA7B6A01337B627B689B
:102B50005B687A6A9A42CED37B681B685A697B6845
:102B60001B6802F480125A617B681B68184605F0E6
:102B70002FF8034603F40013B3F5001F55D10123CA
:102B80007B6245E07B6A5A01FB69134403F53063BD
:102B90001B68BB6179687A6A1346DB0013449B00AB
:102BA0000B4403F520731B78012B2ED1BB69002B3E
:102BB0002BDABB6903F480327B68D3F8FC3403F072
:102BC00001039A4221D179687A6A1346DB001344E3
:102BD0009B000B4403F27F2301221A703B6A9B691E
:102BE00043F080023B6A9A613B6A5B6903F08003B1
:102BF000002B0AD1FB6903F500635B68FA6902F5F3
:102C0000006243F40073536007E07B6A01337B6228
:102C10007B685B687A6A9A42B4D37B681B685A699E
:102C20007B681B6802F400125A617B681B681846B7
:102C300004F0CEFF034603F08043B3F1804F0AD186
:102C400078680BF007F87B681B685A697B681B681B
:102C500002F080425A617B681B68184604F0B8FF96
:102C6000034603F00403042B15D17B681B685B68E3
:102C7000BB61BB6903F00403002B02D078680AF043
:102C8000F7FF7B681B6859687B681B68BA690A4351
:102C90005A6000E000BF3437BD4690BD80B582B0B9
:102CA00000AF78600B46FB707B6893F8BC34012B57
:102CB00001D1022313E07B68012283F8BC247B68E6
:102CC000FA7883F838207B681B68FA781146184632
:102CD00004F016FF7B68002283F8BC24002318460A
:102CE0000837BD4680BD80B584B000AF7860084627
:102CF00011461A460346FB700B463B801346BB70D9
:102D00000023FB7297F90330002B0FDAFB7803F0F6
:102D10000F021346DB0013449B0038337A681344D8
:102D20000433FB60FB6801225A700FE0FB7803F06C
:102D30000F021346DB0013449B0003F51E737A68F1
:102D400013440433FB60FB6800225A70FB7803F0E5
:102D50000F03DAB2FB681A703A88FB68DA60FB6826
:102D6000BA781A71FB685B78002B04D0FB681B787B
:102D70009AB2FB681A81BB78022B02D1FB68002251
:102D80005A717B6893F8BC34012B01D102230EE009
:102D90007B68012283F8BC247B681B68F9681846AD
:102DA00003F08AFF7B68002283F8BC24FB7A184674
:102DB0001037BD4680BD80B584B000AF78600B464B
:102DC000FB7097F90330002B0FDAFB7803F00F024A
:102DD0001346DB0013449B0038337A6813440433F2
:102DE000FB60FB6801225A700FE0FB7803F00F02D2
:102DF0001346DB0013449B0003F51E737A681344EB
:102E00000433FB60FB6800225A70FB7803F00F0369
:102E1000DAB2FB681A707B6893F8BC34012B01D1DD
:102E200002230EE07B68012283F8BC247B681B68C8
:102E3000F968184603F0C8FF7B68002283F8BC24B9
:102E4000002318461037BD4680BD80B586B000AF60
:102E5000F8607A603B600B46FB72FB7A03F00F026E
:102E60001346DB0013449B0003F51E73FA681344FA
:102E700004337B617B697A681A617B693A689A617D
:102E80007B6900221A627B6900225A70FB7A03F088
:102E90000F03DAB27B691A70FB681B69012B02D140
:102EA0007A687B695A61FB7A03F00F03002B09D122
:102EB000FB681868FB681B69DBB21A46796904F085
:102EC000AFFA08E0FB681868FB681B69DBB21A46BA
:102ED000796904F055F8002318461837BD4680BDBF
:102EE00080B483B000AF78600B46FB70FB7803F0D2
:102EF0000F0279681346DB0013449B000B4403F573
:102F000027731B6818460C37BD465DF8047B704775
:102F100080B586B000AFF8607A603B600B46FB720C
:102F2000FB7A03F00F021346DB0013449B00383397
:102F3000FA68134404337B617B697A681A617B69A0
:102F40003A689A617B6900221A627B6901225A7091
:102F5000FB7A03F00F03DAB27B691A70FB681B6916
:102F6000012B02D17A687B695A61FB7A03F00F0367
:102F7000002B09D1FB681868FB681B69DBB21A4695
:102F8000796904F04DFA08E0FB681868FB681B6972
:102F9000DBB21A46796903F0F3FF002318461837AD
:102FA000BD4680BD80B584B000AF78600B46FB7035
:102FB000FB7803F00F027B685B689A4201D901231A
:102FC00050E097F90330002B0FDAFB7803F00F0283
:102FD0001346DB0013449B0038337A6813440433F0
:102FE000FB60FB6801225A700DE0FA781346DB00A3
:102FF00013449B0003F51E737A6813440433FB608B
:10300000FB6800225A70FB6801229A70FB7803F07B
:103010000F03DAB2FB681A707B6893F8BC34012B9B
:1030200001D102231EE07B68012283F8BC247B6867
:103030001B68F968184604F08FFCFB7803F00F0357
:10304000002B0AD17B6818687B681B69D9B27B6842
:1030500003F2C4431A4604F081FE7B68002283F821
:10306000BC24002318461037BD4680BD80B584B00F
:1030700000AF78600B46FB70FB7803F00F027B68B3
:103080005B689A4201D9012342E097F90330002B93
:103090000FDAFB7803F00F021346DB0013449B00AA
:1030A00038337A6813440433FB60FB6801225A709A
:1030B0000FE0FB7803F00F021346DB0013449B0084
:1030C00003F51E737A6813440433FB60FB68002227
:1030D0005A70FB6800229A70FB7803F00F03DAB293
:1030E000FB681A707B6893F8BC34012B01D1022372
:1030F0000EE07B68012283F8BC247B681B68F968BA
:10310000184604F097FC7B68002283F8BC24002357
:1031100018461037BD4680BD80B584B000AF7860DA
:103120000B46FB7097F90330002B0CDAFB7803F0A9
:103130000F021346DB0013449B0038337A681344B4
:103140000433FB600CE0FB7803F00F021346DB0056
:1031500013449B0003F51E737A6813440433FB6029
:103160007B681B68F968184604F0B6FA0346FB72E0
:10317000FB7A18461037BD4680BD80B58AB002AFD5
:10318000786039607B681B687B617B693B613A686A
:103190001346DB0013449B0038337A68134404332E
:1031A000FB60FB681A6AFB689B699A4201D901239C
:1031B0006CE0FB689A69FB681B6AD31AFB61FB68C9
:1031C000DB68FA699A4202D9FB68DB68FB61FB693C
:1031D00003339B08BB612BE0FB689A69FB681B6AA1
:1031E000D31AFB61FB68DB68FA699A4202D9FB6873
:1031F000DB68FB61FB6903339B08BB61FB681969F2
:103200003B68DAB2FB6998B27B681B69DBB200935A
:103210000346786904F00AFBFB681A69FB691A44E3
:10322000FB681A61FB681A6AFB691A44FB681A6238
:103230003B685A013B69134403F510639B699BB2D9
:10324000BA699A4209D8FB681A6AFB689B699A4274
:1032500003D2FB689B69002BBED1FB689A69FB68AF
:103260001B6A9A4211D83B6803F00F03012202FA4D
:1032700003F3BB603B6903F500635A6BBB68DB4338
:10328000396901F5006113404B630023184620376C
:10329000BD4680BD80B588B000AF786039607B687E
:1032A0001B68FB61FB69BB61FB693C3304331B6832
:1032B0007B613B685A01BB69134403F530639B682B
:1032C0003B617B681B69012B7BD13B6903F00803E1
:1032D000002B15D07B69614A934240F2B9803B696B
:1032E00003F40043002B00F0B3803B685A01BB6934
:1032F000134403F530631A464FF400439360A7E08C
:103300003B6903F02003002B09D03B685A01BB69DD
:10331000134403F530631A462023936098E03B6919
:1033200003F02803002B40F093807B694B4A9342C3
:103330000FD93B6903F40043002B0AD03B685A01C4
:10334000BB69134403F530631A464FF4004393609E
:103350007EE03A681346DB0013449B0003F51E73BE
:103360007A6813440433FB60FB68DA693B685901EF
:10337000BB690B4403F530631B69C3F31203D21A14
:10338000FB681A623B68002B14D1FB689B69002B19
:1033900009D17B6818687B6803F2C4431A4601218F
:1033A00004F0DCFC06E0FB681A69FB681B6A1A443F
:1033B000FB681A613B68DBB2194678680AF086FB45
:1033C00046E07B69264A934224D13B6903F40043DB
:1033D000002B0AD03B685A01BB69134403F53063E4
:1033E0001A464FF40043936032E03B6903F0200338
:1033F000002B08D03B685A01BB69134403F53063C6
:103400001A46202393603B68DBB2194678680AF0BD
:103410005DFB1DE03B68002B14D179683A681346C8
:10342000DB0013449B000B4403F525731B68002B42
:1034300008D17B6818687B6803F2C4431A460021F0
:1034400004F08CFC3B68DBB2194678680AF03EFB5E
:10345000002318462037BD4680BD00BF0A30544FB8
:103460000A31544F80B586B000AF786039607B6810
:103470001B687B617B693B617B693C3304331B6860
:10348000FB603B685A013B69134403F530639B685A
:10349000BB60FB68154A93420ED9BB6803F4004336
:1034A000002B09D03B685A013B69134403F5306394
:1034B0001A464FF40043936078680AF0F5FAFB6807
:1034C0000A4A93420CD97B681B69012B08D17B689F
:1034D00018687B6803F2C4431A46012104F03EFCDD
:1034E000002318461837BD4680BD00BF0A30544F30
:1034F00080B485B000AF78600B46FB7013463B800C
:103500007B681B685B6ABB60FB78002B07D13B883C
:1035100019047B681B68BA680A439A6228E07B68D2
:103520001B689B6A1B0CBA681344BB600023FB73C7
:103530000DE07B681A68FB7B40339B0013445B689B
:103540001B0CBA681344BB60FB7B0133FB73FA7B33
:10355000FB78013B9A42ECD33B8818047B681968DE
:10356000FB78013BBA68024340339B000B445A602E
:10357000002318461437BD465DF8047B704780B4BD
:1035800083B000AF78600B467B807B681B687A88CD
:103590005A62002318460C37BD465DF8047B70471D
:1035A00080B485B000AF78607B681B68FB607B6887
:1035B0000122C3F800257B68002283F8F424FB680D
:1035C0009B6943F00062FB689A61FB685A6D054B8A
:1035D0001343FA685365002318461437BD465DF857
:1035E000047B70470300001080B483B000AF7860A4
:1035F0000B46FB7000BF0C37BD465DF8047B70477F
:1036000080B584B000AF7860194BDB6803F0040329
:10361000042B0AD0164BDB6803F007037A689A4242
:1036200001D001231FE000231DE0114BDB6823F0D4
:1036300007020F497B681343CB60FEF791F9F860EE
:1036400009E0FEF78DF90246FB68D31AB3F57A7FDD
:1036500001D9012307E0064B5B6803F40053B3F57F
:10366000005FEED1002318461037BD4680BD00BF75
:103670000048025880B400AF054BDB68044A43F0B1
:103680008073D36000BFBD465DF8047B704700BF08
:103690000048025880B58CB000AF78607B68002B82
:1036A00002D1012300F01DBC7B681B6803F00103FD
:1036B000002B00F08780994B1B6903F03803FB62F5
:1036C000964B9B6ABB62FB6A102B07D0FB6A182BD8
:1036D00010D1BB6A03F00303022B0BD18F4B1B6885
:1036E00003F40033002B6CD07B685B68002B68D13F
:1036F0000123F6E37B685B68B3F5803F06D1874B17
:103700001B68864A43F4803313602EE07B685B6855
:10371000002B0CD1814B1B68804A23F4803313604B
:103720007E4B1B687D4A23F4802313601DE07B6879
:103730005B68B3F5A02F0CD1784B1B68774A43F434
:1037400080231360754B1B68744A43F48033136005
:103750000BE0724B1B68714A23F4803313606F4B8C
:103760001B686E4A23F4802313607B685B68002B20
:1037700013D0FEF7F5F8786208E0FEF7F1F802469C
:103780007B6AD31A642B01D90323AAE3634B1B681A
:1037900003F40033002BF0D014E0FEF7E1F8786278
:1037A00008E0FEF7DDF802467B6AD31A642B01D9E4
:1037B000032396E3594B1B6803F40033002BF0D12D
:1037C00000E000BF7B681B6803F00203002B00F0E1
:1037D000CB80524B1B6903F038033B624F4B9B6A13
:1037E000FB613B6A002B07D03B6A182B56D1FB6963
:1037F00003F00303002B51D1484B1B6803F0040373
:10380000002B05D07B68DB68002B01D1012368E326
:10381000424B1B6823F019027B68DB683F49134366
:103820000B60FEF79DF8786208E0FEF799F8024613
:103830007B6AD31A022B01D9032352E3374B1B684F
:1038400003F00403002BF0D0FEF7BAF8034641F270
:103850000302934217D87B681B69402B08D12F4B7A
:103860005B6823F47C332D4A43F4003353607BE0E0
:103870002A4B5B6823F47C327B681B691B03274956
:1038800013434B6070E0254B5B6823F0FE427B687E
:103890001B691B06214913434B6065E07B68DB68AD
:1038A000002B48D01D4B1B6823F019027B68DB6896
:1038B0001A4913430B60FEF753F8786208E0FEF7ED
:1038C0004FF802467B6AD31A022B01D9032308E37F
:1038D000124B1B6803F00403002BF0D0FEF770F8C6
:1038E000034641F2030293421AD87B681B69402BBE
:1038F00008D10A4B5B6823F47C33084A43F4003355
:10390000536031E0054B5B6823F47C327B681B69B4
:103910001B03024913434B6026E000BF00440258DA
:103920009A4B5B6823F0FE427B681B691B06974934
:1039300013434B6018E0954B1B68944A23F0010336
:103940001360FEF70DF8786208E0FEF709F802460A
:103950007B6AD31A022B01D90323C2E28B4B1B686B
:1039600003F00403002BF0D17B681B6803F0100305
:10397000002B00F0A980854B1B6903F03803BB6165
:10398000824B9B6A7B61BB69082B07D0BB69182BF4
:103990003AD17B6903F00303012B35D17B4B1B68C4
:1039A00003F48073002B05D07B68DB69802B01D08A
:1039B000012396E2FEF704F8034641F20302934224
:1039C00017D87B681B6A202B08D1704B5B6823F0EB
:1039D000F8436E4A43F08043536075E06B4B5B687D
:1039E00023F0F8427B681B6A9B06684913434B60CF
:1039F0006AE0664BDB6823F07C527B681B6A1B061F
:103A000062491343CB605FE07B68DB69002B42D0E7
:103A10005E4B1B685D4A43F080031360FDF7A0FF17
:103A2000786208E0FDF79CFF02467B6AD31A022BFE
:103A300001D9032355E2554B1B6803F48073002B17
:103A4000F0D0FDF7BDFF034641F20302934217D8C1
:103A50007B681B6A202B08D14C4B5B6823F0F84332
:103A60004A4A43F0804353602EE0484B5B6823F0A2
:103A7000F8427B681B6A9B06444913434B6023E072
:103A8000424BDB6823F07C527B681B6A1B063F4974
:103A90001343CB6018E03D4B1B683C4A23F0800386
:103AA0001360FDF75DFF786208E0FDF759FF0246FD
:103AB0007B6AD31A022B01D9032312E2334B1B6812
:103AC00003F48073002BF0D17B681B6803F00803BC
:103AD000002B36D07B685B69002B19D02B4B5B6FBA
:103AE0002A4A43F001035367FDF73AFF786208E082
:103AF000FDF736FF02467B6AD31A022B01D9032356
:103B0000EFE1224B5B6F03F00203002BF0D018E0D3
:103B10001E4B5B6F1D4A23F001035367FDF720FF27
:103B2000786208E0FDF71CFF02467B6AD31A022B7D
:103B300001D90323D5E1154B5B6F03F00203002B82
:103B4000F0D17B681B6803F02003002B39D07B6821
:103B50009B69002B1CD00D4B1B680C4A43F480530F
:103B60001360FDF7FDFE786208E0FDF7F9FE0246FE
:103B70007B6AD31A022B01D90323B2E1034B1B68E2
:103B800003F40053002BF0D01BE000BF00440258A8
:103B90009B4B1B689A4A23F480531360FDF7E0FEA9
:103BA000786208E0FDF7DCFE02467B6AD31A022B3E
:103BB00001D9032395E1924B1B6803F40053002BBA
:103BC000F0D17B681B6803F00403002B00F08180B8
:103BD0008C4B1B688B4A43F480731360FDF7C0FE67
:103BE000786208E0FDF7BCFE02467B6AD31A642BBC
:103BF00001D9032375E1834B1B6803F48073002B09
:103C0000F0D07B689B68012B06D17D4B1B6F7C4AF3
:103C100043F0010313672DE07B689B68002B0CD1F8
:103C2000774B1B6F764A23F001031367744B1B6FAE
:103C3000734A23F0040313671CE07B689B68052B21
:103C40000CD16F4B1B6F6E4A43F0040313676C4B30
:103C50001B6F6B4A43F0010313670BE0684B1B6F4C
:103C6000674A23F001031367654B1B6F644A23F017
:103C7000040313677B689B68002B15D0FDF770FE6B
:103C800078620AE0FDF76CFE02467B6AD31A41F2C5
:103C90008832934201D9032323E1594B1B6F03F070
:103CA0000203002BEED014E0FDF75AFE78620AE022
:103CB000FDF756FE02467B6AD31A41F288329342E0
:103CC00001D903230DE14E4B1B6F03F00203002BC0
:103CD000EED17B685B6A002B00F00281484B1B69C8
:103CE00003F03803182B00F0BD807B685B6A022B61
:103CF00040F09E80424B1B68414A23F08073136062
:103D0000FDF72EFE786208E0FDF72AFE02467B6A88
:103D1000D31A022B01D90323E3E0394B1B6803F0CC
:103D20000073002BF0D1364B9A6A374B13407A68F8
:103D3000916A7A68D26A12010A43314913438B624D
:103D40007B681B6B013BC3F308027B685B6B013B29
:103D50005B029BB21A437B689B6B013B1B0403F421
:103D6000FE031A437B68DB6B013B1B0603F0FE433B
:103D7000234913430B63224BDB6A214A23F00103DF
:103D8000D3621F4B5A6B214B13407A68926CD2005E
:103D90001B4913434B631A4BDB6A23F00C027B680D
:103DA0001B6C17491343CB62154BDB6A23F00202ED
:103DB0007B685B6C12491343CB62114BDB6A104A80
:103DC00043F48033D3620E4BDB6A0D4A43F4003375
:103DD000D3620B4BDB6A0A4A43F48023D362084B5D
:103DE000DB6A074A43F00103D362054B1B68044AB0
:103DF00043F080731360FDF7B3FD786211E000BFFC
:103E000000440258004802580CFCFFFF0700FFFF67
:103E1000FDF7A6FD02467B6AD31A022B01D90323C4
:103E20005FE0324B1B6803F00073002BF0D057E0CB
:103E30002E4B1B682D4A23F080731360FDF790FD15
:103E4000786208E0FDF78CFD02467B6AD31A022BEC
:103E500001D9032345E0254B1B6803F00073002BB9
:103E6000F0D13DE0214B9B6A3B61204B1B6BFB601B
:103E70007B685B6A012B31D03B6903F003027B68EE
:103E80009B6A9A422AD13B691B0903F03F027B6877
:103E9000DB6A9A4222D1FB68C3F308027B681B6B82
:103EA000013B9A421AD1FB685B0A03F07F027B68F0
:103EB0005B6B013B9A4211D1FB681B0C03F07F0244
:103EC0007B689B6B013B9A4208D1FB681B0E03F099
:103ED0007F027B68DB6B013B9A4201D0012300E04B
:103EE000002318463037BD4680BD00BF004402584D
:103EF00080B586B000AF786039607B68002B01D157
:103F000001239CE18A4B1B6803F00F033A689A4235
:103F100010D9874B1B6823F00F0285493B68134378
:103F20000B60834B1B6803F00F033A689A4201D081
:103F3000012384E17B681B6803F00403002B10D08D
:103F40007B681A697B4B9B6903F070039A4208D91E
:103F5000784B9B6923F070027B681B69754913439A
:103F60008B617B681B6803F00803002B10D07B6813
:103F70005A69704BDB6903F070039A4208D96D4BA4
:103F8000DB6923F070027B685B696A491343CB618C
:103F90007B681B6803F01003002B10D07B689A69C4
:103FA000644BDB6903F4E0639A4208D9614BDB6937
:103FB00023F4E0627B689B695E491343CB617B68B5
:103FC0001B6803F02003002B10D07B68DA69594B83
:103FD0001B6A03F070039A4208D9564B1B6A23F000
:103FE00070027B68DB69534913430B627B681B6873
:103FF00003F00203002B10D07B68DA684D4B9B69FD
:1040000003F00F039A4208D94A4B9B6923F00F0231
:104010007B68DB68474913438B617B681B6803F04F
:104020000103002B55D0434B9B6923F470627B68DE
:104030009B68404913438B617B685B68022B07D107
:104040003C4B1B6803F40033002B21D10123F6E025
:104050007B685B68032B07D1364B1B6803F000734A
:10406000002B15D10123EAE07B685B68012B07D1A7
:10407000304B1B6803F48073002B09D10123DEE071
:104080002C4B1B6803F00403002B01D10123D6E065
:10409000284B1B6923F007027B685B6825491343A3
:1040A0000B61FDF75DFC78610AE0FDF759FC024603
:1040B0007B69D31A41F28832934201D90323BEE0CF
:1040C0001C4B1B6903F038027B685B68DB009A427B
:1040D000EBD17B681B6803F00203002B10D07B68D8
:1040E000DA68144B9B6903F00F039A4208D2114B14
:1040F0009B6923F00F027B68DB680E4913438B61D9
:104100000B4B1B6803F00F033A689A4214D2084B1A
:104110001B6823F00F0206493B6813430B60044BF6
:104120001B6803F00F033A689A4205D0012386E02A
:1041300000200052004402587B681B6803F004030F
:10414000002B10D07B681A693F4B9B6903F070030A
:104150009A4208D23C4B9B6923F070027B681B6932
:10416000394913438B617B681B6803F00803002BFC
:1041700010D07B685A69344BDB6903F070039A42B4
:1041800008D2314BDB6923F070027B685B692E49F2
:104190001343CB617B681B6803F01003002B10D026
:1041A0007B689A69284BDB6903F4E0639A4208D282
:1041B000254BDB6923F4E0627B689B69224913434A
:1041C000CB617B681B6803F02003002B10D07B6859
:1041D000DA691D4B1B6A03F070039A4208D21A4B2E
:1041E0001B6A23F070027B68DB69174913430B627B
:1041F00000F034F80246144B9B691B0A03F00F03CE
:104200001249CB5C03F01F0322FA03F33B610E4B10
:104210009B6903F00F030D4AD35C03F01F033A6957
:1042200022FA03F30A4A13600A4A3B6913600A4BF5
:104230001B681846FDF774F80346FB73FB7B1846B2
:104240001837BD4680BD00BF00440258084301082E
:104250002C000024280000243000002480B489B001
:1042600000AFB34B1B6903F03803182B00F25581E4
:1042700001A252F823F000BFDD4200081B450008F0
:104280001B4500081B4500081B4500081B4500088E
:104290001B4500081B450008034300081B45000898
:1042A0001B4500081B4500081B4500081B4500086E
:1042B0001B4500081B450008094300081B45000872
:1042C0001B4500081B4500081B4500081B4500084E
:1042D0001B4500081B4500080F430008944B1B6852
:1042E00003F02003002B09D0914B1B68DB0803F07F
:1042F0000303904A22FA03F3BB6111E18D4BBB61CA
:104300000EE18D4BBB610BE18C4BBB6108E1884B2F
:104310009B6A03F003037B61854B9B6A1B0903F0D7
:104320003F033B61824BDB6A03F00103FB60804B80
:104330005B6BDB08C3F30C03FA6802FB03F307EEC5
:10434000903AF8EE677AC7ED027A3B69002B00F0ED
:10435000E1807B69022B00F083807B69022B00F2F5
:10436000A1807B69002B03D07B69012B56D099E09B
:104370006F4B1B6803F02003002B2DD06C4B1B6888
:10438000DB0803F003036B4A22FA03F37B607B68CC
:1043900007EE903AF8EE676A3B6907EE903AF8EE5E
:1043A000677A86EEA77A624B1B6BC3F3080307EEAE
:1043B000903AF8EE676A97ED026ADFED615AC6EE51
:1043C000257A76EEA77AF7EE006A77EEA67A67EEA0
:1043D000277AC7ED077A87E03B6907EE903AF8EE57
:1043E000677ADFED586A86EEA77A514B1B6BC3F3F1
:1043F000080307EE903AF8EE676A97ED026ADFED80
:10440000505AC6EE257A76EEA77AF7EE006A77EE76
:10441000A67A67EE277AC7ED077A65E03B6907EE73
:10442000903AF8EE677ADFED486A86EEA77A404B5D
:104430001B6BC3F3080307EE903AF8EE676A97ED3B
:10444000026ADFED3F5AC6EE257A76EEA77AF7EEDE
:10445000006A77EEA67A67EE277AC7ED077A43E01F
:104460003B6907EE903AF8EE677ADFED386A86EE40
:10447000A77A2F4B1B6BC3F3080307EE903AF8EEB5
:10448000676A97ED026ADFED2E5AC6EE257A76EE60
:10449000A77AF7EE006A77EEA67A67EE277AC7ED7D
:1044A000077A21E03B6907EE903AF8EE677ADFED94
:1044B000266A86EEA77A1E4B1B6BC3F3080307EE32
:1044C000903AF8EE676A97ED026ADFED1D5AC6EE84
:1044D000257A76EEA77AF7EE006A77EEA67A67EE8F
:1044E000277AC7ED077A00BF114B1B6B5B0A03F0FD
:1044F0007F0301333B603B6807EE903AB8EE677A82
:10450000D7ED076AC6EE877AFCEEE77A17EE903AA7
:10451000BB6105E00023BB6102E0074BBB6100BF4C
:10452000BB6918462437BD465DF8047B704700BF61
:10453000004402580090D00300093D0040787D01FE
:10454000000000460024744C0024744A20BCBE4B7A
:1045500080B582B000AFFFF781FE0246104B9B6929
:104560001B0A03F00F030F49CB5C03F01F0322FA71
:1045700003F37B600A4B9B6903F00F03094AD35C8A
:1045800003F01F037A6822FA03F3074A1360074A0D
:104590007B681360044B1B6818460837BD4680BD16
:1045A00000440258084301082C000024280000247D
:1045B00080B500AFFFF7CCFF0246064BDB691B0955
:1045C00003F007030449CB5C03F01F0322FA03F353
:1045D000184680BD004402580843010880B483B0E7
:1045E00000AF786039607B683F221A601A4B1B6904
:1045F00003F007027B685A60174B9B6903F47062F3
:104600007B689A60144B9B6903F00F027B68DA6049
:10461000114B9B6903F070027B681A610E4BDB69DA
:1046200003F070027B685A610B4BDB6903F4E062B4
:104630007B689A61084B1B6A03F070027B68DA6141
:10464000064B1B6803F00F023B681A6000BF0C3773
:10465000BD465DF8047B70470044025800200052BC
:1046600080B586B000AF78600023FB750023BB7572
:104670007B681B6803F00063002B3FD07B685B6E98
:10468000B3F5401F2AD0B3F5401F24D8B3F5001F5F
:1046900018D0B3F5001F1ED8002B03D0B3F5801F30
:1046A00007D018E0A34BDB6AA24A43F40033D3627D
:1046B00015E07B6804330221184600F017FF03461B
:1046C000FB750CE07B6824330221184600F0C0FF24
:1046D0000346FB7503E00123FB7500E000BFFB7D93
:1046E000002B09D1934B1B6D23F440127B685B6E4A
:1046F000904913430B6501E0FB7DBB757B681B682C
:1047000003F48073002B3DD07B685B6D042B26D8AF
:1047100001A252F823F000BF2D4700083B470008D4
:104720004D4700086547000865470008814BDB6A74
:10473000804A43F40033D36215E07B6804330021E0
:10474000184600F0D3FE0346FB750CE07B6824336B
:104750000021184600F07CFF0346FB7503E00123AF
:10476000FB7500E000BFFB7D002B09D1714B1B6D79
:1047700023F007027B685B6D6E4913430B6501E014
:10478000FB7DBB757B681B6803F40073002B42D074
:104790007B689B6DB3F5807F2BD0B3F5807F25D8E8
:1047A000C02B28D0C02B21D8802B16D0802B1DD811
:1047B000002B02D0402B07D018E05E4BDB6A5D4A2D
:1047C00043F40033D36217E07B68043300211846BA
:1047D00000F08CFE0346FB750EE07B68243300215D
:1047E000184600F035FF0346FB7505E00123FB7515
:1047F00002E000BF00E000BFFB7D002B09D14D4B64
:104800001B6D23F4E0727B689B6D4A4913430B6573
:1048100001E0FB7DBB757B681B6803F48063002BA4
:1048200049D07B68D3F8A430B3F5000F30D0B3F58E
:10483000000F2AD8B3F5C00F2CD0B3F5C00F24D881
:10484000B3F5800F18D0B3F5800F1ED8002B03D01E
:10485000B3F5001F07D018E0364BDB6A354A43F446
:104860000033D36217E07B6804330021184600F060
:104870003DFE0346FB750EE07B682433002118469D
:1048800000F0E6FE0346FB7505E00123FB7502E040
:1048900000BF00E000BFFB7D002B0AD1254B9B6DC4
:1048A00023F460027B68D3F8A430224913438B655C
:1048B00001E0FB7DBB757B681B6803F40063002B84
:1048C0004BD07B68D3F8A830B3F1806F30D0B3F110
:1048D000806F2AD8B3F1407F2ED0B3F1407F24D827
:1048E000B3F1007F18D0B3F1007F1ED8002B03D0A6
:1048F000B3F1807F07D018E00E4BDB6A0D4A43F41A
:104900000033D36219E07B6804330021184600F0BD
:10491000EDFD0346FB7510E07B682433002118464B
:1049200000F096FE0346FB7507E00123FB7504E0EB
:1049300000BF02E00044025800BFFB7D002B0AD1FB
:10494000994B9B6D23F0E0627B68D3F8A8309649C1
:1049500013438B6501E0FB7DBB757B681B6803F02F
:104960000073002B32D07B689B6C302B1CD0302B1B
:1049700017D8202B0CD0202B13D8002B16D0102B9F
:104980000FD1894BDB6A884A43F40033D3620EE0CF
:104990007B6804330221184600F0A8FD0346FB752E
:1049A00005E00123FB7502E000BF00E000BFFB7DD6
:1049B000002B09D17C4BDB6C23F030027B689B6CB5
:1049C00079491343CB6401E0FB7DBB757B681B68B1
:1049D00003F48053002B47D07B68DB6DB3F5804F29
:1049E00030D0B3F5804F2AD8B3F5405F2CD0B3F563
:1049F000405F24D8B3F5005F18D0B3F5005F1ED830
:104A0000002B03D0B3F5805F07D018E0664BDB6A5C
:104A1000654A43F40033D36217E07B680433002116
:104A2000184600F063FD0346FB750EE07B682433F7
:104A30000021184600F00CFE0346FB7505E001233B
:104A4000FB7502E000BF00E000BFFB7D002B09D139
:104A5000554B1B6D23F4E0427B68DB6D52491343D9
:104A60000B6501E0FB7DBB757B681B6803F400539D
:104A7000002B49D07B681B6EB3F5A02F2ED0B3F569
:104A8000A02F28D8B3F5802F2AD0B3F5802F22D8B5
:104A9000B3F5403F26D0B3F5403F1CD8B3F5003FF7
:104AA00010D0B3F5003F16D8002B1DD0B3F5803FD2
:104AB00011D17B6804330121184600F017FD03462D
:104AC000FB7512E07B6824330121184600F0C0FD1D
:104AD0000346FB7509E00123FB7506E000BF04E017
:104AE00000BF02E000BF00E000BFFB7D002B09D14A
:104AF0002D4B1B6D23F4E0227B681B6E2A49134368
:104B00000B6501E0FB7DBB757B681B6803F480438C
:104B1000002B4DD07B68D3F8AC30B3F1A04F2ED032
:104B2000B3F1A04F28D8B3F1804F2AD0B3F1804F12
:104B300022D8B3F1405F26D0B3F1405F1CD8B3F167
:104B4000005F10D0B3F1005F16D8002B1DD0B3F179
:104B5000805F11D17B6804330121184600F0C6FC48
:104B60000346FB7512E07B6824330121184600F0F0
:104B70006FFD0346FB7509E00123FB7506E000BFEE
:104B800004E000BF02E000BF00E000BFFB7D002B9F
:104B90000CD1054B9B6D23F0E0427B68D3F8AC3021
:104BA000014913438B6503E000440258FB7DBB754C
:104BB0007B681B6803F40043002B2FD07B68DB6EFF
:104BC000B3F1005F0ED0B3F1005F14D8002B15D005
:104BD000B3F1805F0FD1AF4BDB6AAE4A43F40033D1
:104BE000D3620CE07B6804330121184600F07EFCA0
:104BF0000346FB7503E00123FB7500E000BFFB7D6E
:104C0000002B09D1A34B1B6D23F040527B68DB6E58
:104C1000A04913430B6501E0FB7DBB757B681B68F6
:104C200003F08073002B32D07B685B6C032B1BD8A6
:104C300001A252F823F000BF6F4C0008494C000855
:104C4000574C00086F4C0008924BDB6A914A43F4C2
:104C50000033D3620CE07B6804330221184600F075
:104C600045FC0346FB7503E00123FB7500E000BF34
:104C7000FB7D002B09D1874BDB6C23F003027B68A3
:104C80005B6C84491343CB6401E0FB7DBB757B689F
:104C90001B6803F48003002B00F086807E4B1B68AA
:104CA0007D4A43F480731360FCF75AFE386109E0D3
:104CB000FCF756FE02463B69D31A642B02D9032344
:104CC000FB7505E0744B1B6803F48073002BEFD079
:104CD000FB7D002B66D16F4B1A6F7B68D3F8B03029
:104CE000534003F44073002B13D06A4B1B6F23F423
:104CF0004073FB60674B1B6F664A43F48033136756
:104D0000644B1B6F634A23F480331367614AFB686B
:104D100013677B68D3F8B030B3F5807F15D1FCF70B
:104D20001FFE38610BE0FCF71BFE02463B69D31AFD
:104D300041F28832934202D90323FB7505E0554BBB
:104D40001B6F03F00203002BEDD0FB7D002B26D15F
:104D50007B68D3F8B03003F44073B3F5407F0DD1D6
:104D60004C4B1B6923F47C527B68D3F8B030190993
:104D70004A4B0B40474913430B6105E0454B1B6908
:104D8000444A23F47C531361424B1A6F7B68D3F877
:104D9000B030C3F30B033F4913430B6704E0FB7DC3
:104DA000BB7501E0FB7DBB757B681B6803F00103ED
:104DB000002B00F085807B689B6F282B66D801A2B2
:104DC00052F823F0A14E00088D4E00088D4E0008C9
:104DD0008D4E00088D4E00088D4E00088D4E000847
:104DE0008D4E0008694E00088D4E00088D4E00085B
:104DF0008D4E00088D4E00088D4E00088D4E000827
:104E00008D4E00087B4E00088D4E00088D4E000828
:104E10008D4E00088D4E00088D4E00088D4E000806
:104E20008D4E0008A14E00088D4E00088D4E0008E2
:104E30008D4E00088D4E00088D4E00088D4E0008E6
:104E40008D4E0008A14E00088D4E00088D4E0008C2
:104E50008D4E00088D4E00088D4E00088D4E0008C6
:104E60008D4E0008A14E00087B68043301211846CE
:104E700000F03CFB0346FB7513E07B682433012103
:104E8000184600F0E5FB0346FB750AE00123FB75BD
:104E900007E000BF0044025800480258CFFFFF005F
:104EA00000BFFB7D002B09D1964B5B6D23F03802D0
:104EB0007B689B6F934913434B6501E0FB7DBB759A
:104EC0007B681B6803F00203002B38D07B685B6FA4
:104ED000052B21D801A252F823F000BF1F4F000874
:104EE000F54E0008074F00081F4F00081F4F00082D
:104EF0001F4F00087B6804330121184600F0F6FAC2
:104F00000346FB750CE07B6824330121184600F052
:104F10009FFB0346FB7503E00123FB7500E000BF28
:104F2000FB7D002B09D1774B5B6D23F007027B687B
:104F30005B6F744913434B6501E0FB7DBB757B6878
:104F40001B6803F00403002B3AD07B68D3F8903041
:104F5000052B21D801A252F823F000BF9F4F000873
:104F6000754F0008874F00089F4F00089F4F0008AB
:104F70009F4F00087B6804330121184600F0B6FA01
:104F80000346FB750CE07B6824330121184600F0D2
:104F90005FFB0346FB7503E00123FB7500E000BFE8
:104FA000FB7D002B0AD1574B9B6D23F007027B68DA
:104FB000D3F89030534913438B6501E0FB7DBB75FB
:104FC0007B681B6803F02003002B4BD07B68D3F871
:104FD0008C30B3F1A04F2ED0B3F1A04F28D8B3F14D
:104FE000804F2AD0B3F1804F22D8B3F1405F26D052
:104FF000B3F1405F1CD8B3F1005F10D0B3F1005F94
:1050000016D8002B1DD0B3F1805F11D17B6804331B
:105010000021184600F06AFA0346FB7512E07B682F
:1050200024330221184600F013FB0346FB7509E008
:105030000123FB7506E000BF04E000BF02E000BFF3
:1050400000E000BFFB7D002B0AD12E4B5B6D23F0EF
:10505000E0427B68D3F88C302A4913434B6501E06A
:10506000FB7DBB757B681B6803F04003002B4DD0B4
:105070007B68D3F89830B3F5A05F2ED0B3F5A05F6E
:1050800028D8B3F5805F2AD0B3F5805F22D8B3F576
:10509000406F26D0B3F5406F1CD8B3F5006F10D029
:1050A000B3F5006F16D8002B1DD0B3F5806F11D16A
:1050B0007B6804330021184600F018FA0346FB759C
:1050C00012E07B6824330221184600F0C1FA03463F
:1050D000FB7509E00123FB7506E000BF04E000BF9B
:1050E00002E000BF00E000BFFB7D002B0CD1054BB0
:1050F0009B6D23F4E0527B68D3F898300149134349
:105100008B6503E000440258FB7DBB757B681B6820
:1051100003F08003002B4BD07B68D3F89C30B3F5B1
:10512000204F2ED0B3F5204F28D8B3F5004F2AD00A
:10513000B3F5004F22D8B3F5C04F26D0B3F5C04F1A
:105140001CD8B3F5804F10D0B3F5804F16D8002B84
:105150001DD0B3F5005F11D17B68043300211846E0
:1051600000F0C4F90346FB7512E07B68243302218A
:10517000184600F06DFA0346FB7509E00123FB7544
:1051800006E000BF04E000BF02E000BF00E000BF97
:10519000FB7D002B0AD19D4B9B6D23F460427B6805
:1051A000D3F89C30994913438B6501E0FB7DBB75B7
:1051B0007B681B6803F00803002B1AD07B68D3F8C8
:1051C0008030B3F5805F0AD17B6824330221184612
:1051D00000F03EFA0346002B01D00123BB758B4B38
:1051E0005B6D23F440527B68D3F8803087491343CA
:1051F0004B657B681B6803F01003002B1AD07B689B
:10520000D3F89430B3F5807F0AD17B682433022130
:10521000184600F01DFA0346002B01D00123BB7590
:105220007A4B9B6D23F440727B68D3F894307749B6
:1052300013438B657B681B6803F40023002B34D079
:105240007B68D3F8A030B3F5003F1DD0B3F5003F25
:1052500017D8002B03D0B3F5803F09D011E07B684D
:1052600004330021184600F041F90346FB750CE0B9
:105270007B6824330221184600F0EAF90346FB75E7
:1052800003E00123FB7500E000BFFB7D002B0AD18A
:105290005E4B9B6D23F440327B68D3F8A0305B49B2
:1052A00013438B6501E0FB7DBB757B681B6803F4D2
:1052B0008023002B33D07B68D3F88430B3F5401FB4
:1052C0001CD0B3F5401F16D8B3F5801F03D0B3F53B
:1052D000001F07D00FE04D4BDB6A4C4A43F400330C
:1052E000D3620CE07B6824330121184600F0B0F94A
:1052F0000346FB7503E00123FB7500E000BFFB7D67
:10530000002B0AD1414B5B6D23F440127B68D3F82C
:1053100084303E4913434B6501E0FB7DBB757B68E0
:105320001B6803F48033002B29D07B68DB6C002BD7
:1053300003D0B3F5803F07D00FE0344BDB6A334A2C
:1053400043F40033D3620BE07B6804330221184638
:1053500000F0CCF80346FB7502E00123FB7500BFAB
:10536000FB7D002B09D1294BDB6C23F480327B6859
:10537000DB6C26491343CB6401E0FB7DBB757B6886
:105380001B6803F00053002B0AD07B6824330221F2
:10539000184600F05DF90346002B01D00123BB75D0
:1053A0007B681B6803F40033002B33D07B68DB6F12
:1053B000B3F5407F17D0B3F5407F11D8B3F5007F28
:1053C00013D0B3F5007F0BD8002B10D0B3F5807F3E
:1053D00006D10E4BDB6A0D4A43F40033D36207E07B
:1053E0000123FB7504E000BF02E000BF00E000BF46
:1053F000FB7D002B0CD1054B5B6D23F440727B6869
:10540000DB6F024913434B6504E000BF00440258C0
:10541000FB7DBB757B681B6803F48013002B08D0F1
:10542000314B1B6D23F000427B681B6F2E491343E9
:105430000B657B681B6803F08053002B09D02A4B57
:105440001B6923F480427B68D3F8B43026491343A8
:105450000B617B681B6803F40013002B08D0224B00
:105460001B6D23F080727B689B6E1F4913430B6595
:105470007B681B6803F08043002B0DD01A4B1B691F
:10548000194A23F400431361174B1A697B68D3F858
:10549000B830154913430B617B681B68002B08DA91
:1054A000114BDB6C23F040527B681B6D0E4913439C
:1054B000CB647B681B6803F40003002B09D00A4B04
:1054C0005B6D23F440027B68D3F8883006491343B0
:1054D0004B65BB7D002B01D1002300E00123184662
:1054E0001837BD4680BD00BF0044025880B584B067
:1054F00000AF786039600023FB73534B9B6A03F065
:105500000303032B01D1012399E04F4B1B684E4A43
:1055100023F080631360FCF723FAB86008E0FCF71F
:105520001FFA0246BB68D31A022B01D9032386E077
:10553000454B1B6803F00063002BF0D1424B9B6A84
:1055400023F47C327B681B681B033F4913438B6247
:105550007B685B68013BC3F308027B689B68013B87
:105560005B029BB21A437B68DB68013B1B0403F4BC
:10557000FE031A437B681B69013B1B0603F0FE43D5
:10558000314913438B63304BDB6A23F0C0027B68E5
:105590005B692D491343CB622B4BDB6A23F020025E
:1055A0007B689B6928491343CB62274BDB6A264AF9
:1055B00023F01003D362244BDA6B244B13407A6838
:1055C000D269D20020491343CB631F4BDB6A1E4ACA
:1055D00043F01003D3623B68002B06D11A4BDB6A01
:1055E000194A43F40023D3620FE03B68012B06D134
:1055F000154BDB6A144A43F48013D36205E0124B67
:10560000DB6A114A43F40013D3620F4B1B680E4A46
:1056100043F080631360FCF7A3F9B86008E0FCF77F
:105620009FF90246BB68D31A022B01D9032306E077
:10563000054B1B6803F00063002BF0D0FB7B184682
:105640001037BD4680BD00BF004402580700FFFF71
:1056500080B584B000AF786039600023FB73534B92
:105660009B6A03F00303032B01D1012399E04F4B05
:105670001B684E4A23F080531360FCF771F9B86041
:1056800008E0FCF76DF90246BB68D31A022B01D97A
:10569000032386E0454B1B6803F00053002BF0D139
:1056A000424B9B6A23F07C727B681B681B053F4959
:1056B00013438B627B685B68013BC3F308027B6822
:1056C0009B68013B5B029BB21A437B68DB68013B32
:1056D0001B0403F4FE031A437B681B69013B1B0692
:1056E00003F0FE43314913430B64304BDB6A23F470
:1056F00040627B685B692D491343CB622B4BDB6AAD
:1057000023F400727B689B6928491343CB62274BC3
:10571000DB6A264A23F48073D362244B5A6C244BF1
:1057200013407A68D269D200204913434B641F4B5F
:10573000DB6A1E4A43F48073D3623B68002B06D1B8
:105740001A4BDB6A194A43F48003D3620FE03B68CB
:10575000012B06D1154BDB6A144A43F40003D362D4
:1057600005E0124BDB6A114A43F08073D3620F4BA2
:105770001B680E4A43F080531360FCF7F1F8B860E1
:1057800008E0FCF7EDF80246BB68D31A022B01D9FA
:10579000032306E0054B1B6803F00053002BF0D0F9
:1057A000FB7B18461037BD4680BD00BF0044025841
:1057B0000700FFFF80B582B000AF78607B68002BE8
:1057C00001D1012349E07B6893F83D30DBB2002B27
:1057D00006D17B68002283F83C207868FCF71EF82D
:1057E0007B68022283F83D207B681A687B6804335B
:1057F0001946104600F0C6FA7B68012283F848205B
:105800007B68012283F83E207B68012283F83F20D9
:105810007B68012283F840207B68012283F84120C5
:105820007B68012283F842207B68012283F84320B1
:105830007B68012283F844207B68012283F845209D
:105840007B68012283F846207B68012283F8472089
:105850007B68012283F83D20002318460837BD46A7
:1058600080BD000080B485B000AF78607B6893F89D
:105870003D30DBB2012B01D0012354E07B680222D2
:1058800083F83D207B681B68DA687B681B6842F000
:105890000102DA607B681B68264A934222D07B684B
:1058A0001B68B3F1804F1DD07B681B68224A93426E
:1058B00018D07B681B68214A934213D07B681B6811
:1058C0001F4A93420ED07B681B681E4A934209D040
:1058D0007B681B681C4A934204D07B681B681B4A88
:1058E000934215D17B681B689A68194B1340FB6083
:1058F000FB68062B15D0FB68B3F5803F11D07B68A1
:105900001B681A687B681B6842F001021A6008E095
:105910007B681B681A687B681B6842F001021A608A
:1059200000E000BF002318461437BD465DF8047B35
:10593000704700BF00000140000400400008004024
:10594000000C0040000401400018004000400140ED
:105950000700010080B582B000AF78607B68002B43
:1059600001D1012349E07B6893F83D30DBB2002B85
:1059700006D17B68002283F83C207868FBF726FF7D
:105980007B68022283F83D207B681A687B680433B9
:105990001946104600F0F6F97B68012283F848208A
:1059A0007B68012283F83E207B68012283F83F2038
:1059B0007B68012283F840207B68012283F8412024
:1059C0007B68012283F842207B68012283F8432010
:1059D0007B68012283F844207B68012283F84520FC
:1059E0007B68012283F846207B68012283F84720E8
:1059F0007B68012283F83D20002318460837BD4606
:105A000080BD80B582B000AF78607B681B681B6981
:105A100003F00203022B22D17B681B68DB6803F0D2
:105A20000203022B1BD17B681B686FF002021A6114
:105A30007B6801221A777B681B689B6903F003036C
:105A4000002B03D0786800F07FF905E0786800F05B
:105A500071F9786800F082F97B6800221A777B6818
:105A60001B681B6903F00403042B22D17B681B68AD
:105A7000DB6803F00403042B1BD17B681B686FF009
:105A800004021A617B6802221A777B681B689B6993
:105A900003F44073002B03D0786800F055F905E05B
:105AA000786800F047F9786800F058F97B680022C0
:105AB0001A777B681B681B6903F00803082B22D147
:105AC0007B681B68DB6803F00803082B1BD17B682D
:105AD0001B686FF008021A617B6804221A777B68E2
