:0200000490006A
:100000000000022059110090110D0090130D009076
:10001000150D0090170D0090190D009000000000C4
:100020000000000000000000000000001B0D009018
:100030001D0D0090000000001F0D0090210D00908C
:10004000A9110090A9110090A9110090A911009088
:10005000A9110090A9110090A9110090A911009078
:10006000A9110090A9110090A9110090A911009068
:10007000A9110090A9110090A9110090A911009058
:10008000A9110090A9110090A9110090A911009048
:10009000A9110090A9110090A9110090310D0090B4
:1000A000A9110090A9110090A9110090A911009028
:1000B000A9110090390D0090A9110090A91100908C
:1000C000A9110090A9110090A9110090A911009008
:1000D000A9110090450D0090A9110090A911009060
:1000E000A9110090A911009000000000A911009032
:1000F000A9110090A9110090A9110090A9110090D8
:10010000A9110090A9110090A9110090A9110090C7
:10011000A9110090A9110090510D0090A911009013
:10012000A9110090A9110090A9110090A9110090A7
:10013000A9110090A9110090A9110090A911009097
:1001400000000000000000000000000000000000AF
:10015000A9110090A9110090A9110090A911009077
:10016000A9110090A9110090A9110090A911009067
:10017000A9110090A9110090A9110090A911009057
:10018000A9110090A9110090A9110090A911009047
:10019000A9110090A9110090A9110090A911009037
:1001A000A9110090A91100905D0D0090A911009077
:1001B000A9110090A9110090A9110090A911009017
:1001C000A9110090A9110090A9110090A911009007
:1001D000A9110090A9110090A9110090A9110090F7
:1001E000A9110090A9110090A9110090A9110090E7
:1001F000A9110090A9110090A9110090A9110090D7
:10020000A9110090A9110090A9110090A9110090C6
:10021000A9110090A9110090A9110090A9110090B6
:10022000A9110090A9110090A911009000000000F0
:10023000A9110090A911009000000000A9110090E0
:10024000A9110090A9110090A9110090A911009086
:10025000A9110090A9110090A9110090A911009076
:10026000A9110090A9110090A9110090A911009066
:10027000A9110090A9110090A911009000000000A0
:10028000A9110090A9110090A91100900000000090
:0802900000000000A91100901C
:1002A00010B5054C237833B9044B13B10448AFF3B0
:1002B00000800123237010BD1C02002000000000FC
:1002C000ECB3029008B5034B1BB103490348AFF3ED
:1002D000008008BD0000000020020020ECB3029066
:1002E00010F8012B11F8013B012A28BF9A42F7D0E0
:1002F000D01A7047034613F8012B002AFBD1181AB5
:1003000001387047000000000000000000000000FD
:1003100001F0FF01102A2BDB10F0070F08D010F8B6
:10032000013B013A8B422DD010F0070F42B3F6D1BA
:10033000F0B441EA012141EA014122F007047FF0D3
:1003400000070023F0E80256083C85EA010586EA2A
:10035000010685FA47F5A3FA87F586FA47F6A5FA66
:1003600087F68EB9EED1F0BC01F0FF0102F0070272
:1003700032B110F8013B013A83EA010313B1F8D11D
:100380000020704701387047002D06BF35460338FE
:10039000073815F0010F07D1013015F4807F02BF37
:1003A000013015F4C03F0130F0BC0138704700BF88
:1003B00053B94AB9002908BF00281CBF4FF0FF31CC
:1003C0004FF0FF3000F06EB9ADF1080C6DE904CECE
:1003D00000F006F8DDF804E0DDE9022304B0704720
:1003E0002DE9F047089D04468C46002B40F08380A1
:1003F0008A42174647D9B2FA82F242B1C2F12000CE
:1004000024FA00F09140974040EA010C94404FEAF2
:100410001748230CBCFBF8F61FFA87FE08FB16C131
:1004200043EA014306FB0EF1994209D9FB1806F194
:10043000FF3080F01981994240F21681023E3B4420
:100440005B1AA4B2B3FBF8F008FB103344EA034490
:1004500000FB0EFEA64509D93C1900F1FF3380F0E0
:100460000581A64540F2028102383C4440EA06403C
:10047000A4EB0E0400261DB1D4400023C5E90043BF
:100480003146BDE8F08702B9FFDEB2FA82F2002AF7
:1004900050D1CB1B4FEA174E1FFA87F80126B3FB4A
:1004A000FEFC210C0EFB1C3341EA034108FB0CF35C
:1004B0008B4207D979180CF1FF3002D28B4200F23F
:1004C000E9808446C91AA3B2B1FBFEF00EFB1011FD
:1004D00043EA014408FB00F8A04507D93C1900F1A4
:1004E000FF3302D2A04500F2D9801846A4EB0804DD
:1004F00040EA0C40BFE78B4209D9002D00F0B180E3
:100500000026C5E9000130463146BDE8F087B3FA60
:1005100083F6002E4AD18B4202D3824200F2B88089
:10052000841A61EB030101208C46002DA8D0C5E997
:10053000004CA5E7C2F1200320FA03F6974001FA28
:1005400002F04FEA174ED9403043030CB1FBFEF6E0
:100550001FFA87F80EFB161143EA014306FB08F168
:10056000994204FA02F409D9FB1806F1FF3C80F025
:100570008D80994240F28A80023E3B445B1A81B2F0
:10058000B3FBFEF00EFB103341EA034100FB08F31E
:100590008B4207D9791800F1FF3C73D28B4271D995
:1005A00002383944CB1A40EA064678E7C6F1200CF7
:1005B00003FA06F422FA0CF31C4320FA0CF701FAB2
:1005C00006F34FEA144E21FA0CF11F433B0CB1FB2A
:1005D000FEF91FFA84F80EFB191143EA014109FBE9
:1005E00008FA8A4502FA06F200FA06F308D96118F9
:1005F00009F1FF3048D28A4546D9A9F102092144C0
:10060000A1EB0A01BFB2B1FBFEF00EFB101147EAED
:10061000014700FB08F8B84507D9E71900F1FF3199
:100620002ED2B8452CD90238274440EA0940A7EB1E
:100630000807A0FB02894F45C64649461AD317D082
:100640005DB1B3EB0E0267EB010707FA0CFCF24059
:100650004CEA0202F740C5E9002700263146BDE812
:10066000F0872E4628460BE70646E9E61846FDE6E3
:100670004345E5D2B8EB020E69EB04010138DFE730
:100680000846D2E760468DE78146B9E7664675E7DA
:1006900030464AE7ACF1020C394413E702383C44D7
:1006A00024E700BF704700BF08B50F4800230F4A7A
:1006B000C365C0E900230222C0E91333C0E9113247
:1006C000C0E91533C0E9022300F0E7FE08B100F0ED
:1006D0000BFB0121044800F0C7FF18B1BDE808403A
:1006E00000F002BB08BD00BFA40E012000100052A4
:1006F0000F4B07B502689A4217D10E4B01215A20C1
:10070000D3F8D42042F01002C3F8D4200022D3F84A
:10071000D43003F010030193019B00F0D7FD5A2061
:1007200003B05DF804EB00F003BE03B05DF804FB1A
:10073000001000520044025824481022244B11217A
:1007400070B5036003F5827300248EB043604FF4EC
:1007500080530625042604610D94C0E909344FF442
:100760008043C0E90B340F23CDE90B21C0E90524F8
:10077000CDE90352CDE9051407AA69460293C0E901
:100780000244C0E90744C0E90D44C0E90F44CDE983
:100790000063CDE90763CDE9093502F033FD08B107
:1007A00000F0A2FA06220123694608480D94CDE91B
:1007B000092307AACDE90744CDE90B4402F022FD45
:1007C00008B100F091FA0EB070BD00BF0C0F01200F
:1007D00000400052F0B5B7B01422002102A829F061
:1007E000E5FD1F4B1C68002C37D10122214608A8CB
:1007F0001A60B82229F0DAFD4FF0807307A8189428
:10080000079301F0E7FE08B100F06EFA154B0227DE
:1008100000260325D3F8D4200C2402A9124842F460
:100820008052C3F8D420D3F8D430069403F4805314
:100830000193019B4FF68873CDE90465CDE902373A
:1008400000F072FF4CF2B37302A908480694CDE998
:100850000237CDE9046500F067FF37B0F0BD00BF97
:10086000380200200044025800100258000C0258C0
:100870002DE9F0438DB014220021DFF8349107A850
:10088000484D29F093FD484B48460A21D3F8E02013
:10089000002401260A2742F010024FF00308C3F893
:1008A000E020D3F8E02002F010020192019AD3F880
:1008B000E02042F00402C3F8E020D3F8E02002F088
:1008C00004020292029AD3F8E02042F08002C3F8B8
:1008D000E020D3F8E02002F080020392039AD3F8DC
:1008E000E02042F00102C3F8E020D3F8E02002F05B
:1008F00001020492049AD3F8E02042F00202C3F805
:10090000E020D3F8E02002F002020592059AD3F825
:10091000E02042F00802C3F8E0200122D3F8E030E2
:1009200003F008030693069B00F0EAFF0122284625
:10093000022100F0E5FF07A948464FF00209CDE982
:100940000776CDE9094800F0EFFE07A92846CDF863
:100950002490CDE9076400F0E7FE07A92846CDE919
:100960000796CDE9094800F0DFFE042307A92846D1
:100970000996CDE9073400F0D7FE4FF48813202202
:1009800007A90A480994CDE9072300F0CDFE2246C5
:100990003946172000F09AFC172000F0C9FC0DB072
:1009A000BDE8F083000002580044025800040258D9
:1009B0000008025808B51248124A134BC0E9002338
:1009C00000230122C0E90433C0E90232C0E9063342
:1009D000036200F0B0FF08B100F086F9002108487A
:1009E00000F0FAFF08B100F07FF90021044801F09F
:1009F00019F818B1BDE8084000F076B908BD00BF8D
:100A0000580F012000540040FFECC01010B5B6B0E4
:100A100004461422002102A829F0C8FCBC220021AF
:100A200007A829F0C3FC22681A4B9A4230D1082348
:100A300007A807930023279301F0CCFD08B100F02D
:100A400053F9154C4FF4C07202A91448D4F8E030A1
:100A500043F00203C4F8E030D4F8E03003F00203BE
:100A60000093009B1223CDE902230023CDE9043338
:100A70000423069300F058FED4F8E83043F4001342
:100A8000C4F8E830D4F8E83003F400130193019B74
:100A900036B010BD00540040004402580004025813
:100AA00030B59DB04C22002109A829F07FFC2022FE
:100AB000002101A829F07AFC022000F0D9FF0023D0
:100AC0000093234BDA6A22F00102DA62DB6A03F058
:100AD000010300931F4B9A6942F440429A619A695C
:100AE00002F440420092009A9A699104FCD50123D5
:100AF00040252022022409A809941294CDE90C353E
:100B00000023CDE913324FF4C8721B93CDE91524AD
:100B10000422CDE91744CDE9192300F0CDFF08B137
:100B200072B6FEE703233F220390214601A80695F3
:100B3000CDE901230823CDE904354FF48063CDE9E5
:100B4000073501F0EBFA08B172B6FEE71DB030BD13
:100B500000040058004802588FB510265D4C4FF035
:100B60001047002132466846A760012529F01EFC87
:100B700000F002FC4FF01052574B6846ADF80050A1
:100B8000CDE90123554B039300F018FC4FF0C0430F
:100B900068468DF8015001931B238DF8083000231F
:100BA0008DF80A308DF80E3000F008FC02236846FC
:100BB0008DF8086004268DF801304FF04053ADF8F1
:100BC0000E50019300F0FAFB032368468DF80130C4
:100BD000434B019300F0F2FB424B68468DF80160F5
:100BE00001930E238DF8083000F0E8FB05236846DA
:100BF0008DF801304FF0605301930F238DF80830CA
:100C000000F0DCFB0623684601978DF801301623BF
:100C10008DF80A508DF808308DF80F5000F0CEFB9B
:100C2000304600F0B9FB636913F4003311D1BFF310
:100C30004F8FBFF36F8FC4F85032BFF34F8FBFF3A6
:100C40006F8F636943F400336361BFF34F8FBFF36A
:100C50006F8F204A536913F4803323D1C2F8843054
:100C6000BFF34F8FD2F8803043F6E074C3F3C9006E
:100C7000C3F34E335B0103EA0406014646EA81757D
:100C80000139C2F86052F9D2203B13F1200FF2D1A2
:100C9000BFF34F8F536943F480335361BFF34F8FDA
:100CA000BFF36F8F00F0A8FAFFF7FAFEFFF7E0FD41
:100CB00000F0CEF900F060F900F00CF9FFF73CFD10
:100CC000FFF7F2FCFFF776FE03F014FD03F05EFD84
:100CD000FEE700BF00ED00E012000103000001018B
:100CE000000002300000043072B6FEE7074B82B00D
:100CF000D3F8F42042F00202C3F8F420D3F8F43021
:100D000003F002030193019B02B0704700440258B4
:100D1000FEE7FEE7FEE7FEE7FEE770477047704735
:100D200008B500F097FA0120BDE808401DF05ABD53
:100D3000202000F0F4BD0000014802F000BC00BF1C
:100D4000A40F0120014803F0EBBB00BF3C100120C1
:100D5000014802F0F4BB00BFF00F0120014800F091
:100D6000F9BB00BFA40E01200120704708B529F08F
:100D7000F3FA162303604FF0FF3008BD08B529F0E1
:100D8000EBFA16230360FEE770B50E461446002505
:100D9000A54201DB204670BD03F0B4FB7055013560
:100DA000F6E770B50E4614460025A54201DB204645
:100DB00070BD705D013503F09DFBF6E74FF0FF302D
:100DC00070474FF4005300204B607047012070477C
:100DD000002070470B4B0246196810B509B90A4943
:100DE0001960186809490A4C0244091B8A4206D94D
:100DF00029F0B2FA0C2303604FF0FF3010BD1A60E7
:100E0000FCE700BF3C02002070130120000002201C
:100E100000100000254AD2F8883043F47003C2F86D
:100E20008830234A136803F00F03062B05D8136894
:100E300023F00F0343F0070313601E4B1A6842F0C0
:100E400001021A6000221A611B4A19680A401849F7
:100E50001A600A68120705D50A6822F00F0242F0EC
:100E600007020A60002215499A61DA611A629962E2
:100E70001349D962134919635A639963DA63196490
:100E80005A64196821F4802119601A660E4B1B6898
:100E90001B0C1B04B3F1005F02D20C4B01221A6041
:100EA0000B4B43F2D2021A60704700BF00ED00E026
:100EB00000200052004402587FEDF6EA00020202D0
:100EC0000000FF01800201010010005C0881005158
:100ED0000040005210B500248AB01C22214603A80D
:100EE0000294CDE9004429F061FA2148214B846045
:100EF000C0E900344FF6FF73C0E9033480238361F7
:100F000002F064FC08B1FFF7EFFE69461848009450
:100F1000029402F007FD08B1FFF7E6FE002430233B
:100F200003A91348224605940794CDE9033402F03F
:100F3000C3FC08B1FFF7D8FE042203A90C480394B0
:100F400002F0BAFC08B1FFF7CFFE082203A9084857
:100F500002F0B2FC08B1FFF7C7FE0C2204480DEB0B
:100F6000020102F0A9FC08B1FFF7BEFE0AB010BDF5
:100F7000A40F0120000400401FB50F4863230F4A4F
:100F80000024C0E900234CF24F3303948460C36013
:100F90008023CDE90144836102F0E8FB08B1FFF74B
:100FA000A3FE01A904480194039402F0BBFC08B11C
:100FB000FFF79AFE04B010BDF00F012000100040B2
:100FC0000F4B07B502689A4217D10E4B0E211D2018
:100FD000D3F8E82042F00202C3F8E8200022D3F858
:100FE000E83003F002030193019B00F06FF91D202C
:100FF00003B05DF804EB00F09BB903B05DF804FBAF
:1010000000040040004402580F4B07B502689A42A2
:1010100017D10E4B0D213620D3F8E82042F01002F4
:10102000C3F8E8200022D3F8E83003F0100301935E
:10103000019B00F04BF9362003B05DF804EB00F0A3
:1010400077B903B05DF804FB00100040004402587B
:1010500008B516484FF4E133154AC0E900230023D0
:101060000C22C0E902330361C0E90523C0E907335C
:10107000C0E9093302F056FF08B1FFF735FE002141
:101080000A4802F0BCFF08B1FFF72EFE0021074816
:1010900002F0D9FF08B1FFF727FE044802F094FFE1
:1010A00018B1BDE80840FFF71FBE08BD3C10012085
:1010B0000010014010B5B6B004461422002102A869
:1010C00029F074F9BC22002107A829F06FF92268E1
:1010D0001E4B9A4238D1012307A80793002325937A
:1010E00001F078FA08B1FFF7FFFD194B002402A9BF
:1010F0001848D3F8F02042F01002C3F8F020D3F8DB
:10110000F02002F010020092009AD3F8E02042F0A2
:101110000102C3F8E0204FF4C062D3F8E03003F0DE
:1011200001030193019B0223CDE902230723CDE9AB
:101130000444069300F0F8FA25202246032100F02B
:10114000C5F8252000F0F4F836B010BD00100140BD
:101150000044025800000258DFF834D0FFF75AFE6E
:101160000C480D490D4A002302E0D458C450043302
:10117000C4188C42F9D30A4A0A4C002301E01360D8
:101180000432A242FBD329F0EDF8FFF7E5FC7047EB
:1011900000000220000000201C02002058200990BE
:1011A0001C0200206C130120FEE7000038B50F4B35
:1011B0000546187808B9012038BD4FF47A730C4AF7
:1011C000B3FBF0F31068B0FBF3F000F0BFF8044697
:1011D0000028F0D10F2DEED8024629464FF0FF30FF
:1011E00000F074F8034B20461D60E5E7080000207E
:1011F000000000200C00002010B5032000F054F87F
:1012000000F0ECFE0F49104A8B69C3F30323D35C53
:1012100003F01F03D8408B6903F00F03D35C0B4A24
:1012200003F01F0320FA03F31360094B18600F202B
:10123000FFF7BCFF044618B9FFF758FD204610BD64
:101240000124FBE7004402581CB402900400002073
:1012500000000020034A044B11681B780B44136004
:10126000704700BFCC10012008000020014B186817
:10127000704700BFCC10012038B50446FFF7F6FFD9
:101280000546631C1EBF044B1B78E418FFF7EEFFF6
:10129000431BA342FAD338BD08000020014B186855
:1012A000000C70470010005C07490302CA6803F491
:1012B000E06322F4E0621204120C134343F0BF63B4
:1012C00043F40033CB60704700ED00E0164B30B5BF
:1012D000DC68C4F30224C4F10705231D042D28BFD4
:1012E0000425062B4FF0FF338CBF033C002403FA88
:1012F00005F5002803FA04F321EA050122EA0302B6
:1013000001FA04F141EA02034FEA0313DBB206DB00
:1013100000F1604000F5614080F8003330BD00F01E
:101320000F00024A1354F9E700ED00E014ED00E06D
:10133000002808DB0123420900F01F0003FA00F037
:10134000014B43F82200704700E100E00138B0F1A2
:10135000807F0AD2064BF021064A5860002082F8AE
:101360002310072298601A6070470120704700BF61
:1013700010E000E000ED00E0BFF35F8F044A536A25
:1013800023F4803353620022024B5A60704700BF3F
:1013900000ED00E090ED00E0064A40F00100064B51
:1013A0005860536A43F480335362BFF34F8FBFF3E7
:1013B0006F8F704700ED00E090ED00E04378124A37
:1013C00010B593600178D9B14368D360C37A047BC8
:1013D0001B0643EA04730B43817A43EAC143417B12
:1013E00043EA8143817B43EA4143C17B43EA0143B2
:1013F000417A43EA0123017A43EA4103136110BDB4
:10140000D1601161FBE700BF90ED00E070B50468AA
:10141000049D666C45EA034306F04046334363642B
:101420004368E263B3F5403F30D186681EB1012EB8
:1014300003D121F07F41A16370BD022E01F47F032F
:1014400001F47F45C8B207D1DB0CAD0ADB0243EAE9
:10145000451343EAD001EEE7032E01F07F420AD1A3
:10146000DB0CED0A9B02D10F43EA451343EAD0039C
:1014700043EAC131DFE7190D2D0B0902130F41EAD1
:10148000051141EA101141EA0331D4E7B3F5802F89
:1014900001D16161D0E7E160CEE710B504460028D4
:1014A00036D090F8613003F0FF021BB980F860205D
:1014B000FFF71EF90223E069626884F8613023684F
:1014C0000243A069196821F4E02121F040010A4398
:1014D0001A60596BA26821F48371024321F0010163
:1014E0000A43E1685A631A6C120C12040A431A6424
:1014F000596BD4E9040221F44011520542EA00522A
:1015000000200A435A630123606684F8613010BDED
:101510000120FCE773B590F860500446012D4FF0B0
:10152000020513D080F861500126069D80F86060A6
:101530000095FFF76BFF236800201A6842F40C52F5
:101540001A601A6832431A6002B070BD2846FBE781
:1015500070477047036870B55E6804461D68F207FF
:1015600014D5E90512D51A6822F480721A60426E09
:1015700042F00102426601229A60042380F8613041
:10158000002380F86030436A03B19847B20616D54D
:10159000AB0414D523681A6822F400521A60202282
:1015A0009A60636E43F002036366042384F861303B
:1015B000002384F86030636A0BB1204698473007F7
:1015C00016D5290514D523681A6822F400621A601A
:1015D00008229A60636E43F004036366042384F870
:1015E0006130002384F86030636A0BB1204698476D
:1015F00072070BD56B0509D5236820461A6822F4BB
:1016000080621A6004229A60FFF7A2FFB00714D527
:10161000A90512D523681A6822F400721A60022202
:101620009A60636E6366012384F86130002384F856
:101630006030236A0BB120469847F20613D5EB04BD
:1016400011D5236820461A6822F480521A601022AD
:101650009A60636E6366012384F86130002384F826
:101660006030FFF776FF70BD70B590F86030012BE9
:101670004FF0020332D01C24012280F8613004FBB9
:10168000010480F86020A26BD4E90B651305E26BBE
:1016900043EA0543A6F109053343012D43EA4253CA
:1016A000626B96BF02F07F4243EA02631343026813
:1016B000B1B9546A012D194901EA040143EA010351
:1016C0005362836A936103D8436B23F07F43936231
:1016D000012380F86130002380F86030184670BD27
:1016E0000B2E05BF1C240E4E0E4E04FB010404BF3E
:1016F000246C43EA8443D469012D24EA060443EAB6
:101700000403D3614FF01C0303FB01018B6A1361D7
:10171000DED84B6B23F07F431362D9E7F0FFCC0098
:101720000F003FFF0F0033FF2DE9F74F00234FF06D
:10173000B049DFF8C8E10A6832FA03F402D103B015
:10174000BDE8F08F4FF0010C0CFA03FC1CEA02021A
:1017500000F0BB804D684FEA4308032605F0030400
:1017600006FA08F6671EF643012F34D8876807EAA1
:10177000060ACF6807FA08F747EA0A07876047684A
:1017800027EA0C0CC5F300179F4047EA0C07476097
:10179000C768022C07EA060C8F6807FA08F747EAC1
:1017A0000C07C76019D14FEAD30A03F0070B4FF0BB
:1017B0000F0C00EB8A0A4FEA8B0BDAF820700CFA58
:1017C0000BFC27EA0C0C0F6907FA0BF747EA0C072A
:1017D000CAF8207001E0032CDAD1076804FA08F493
:1017E00015F4403F06EA070646EA040606606CD098
:1017F000404E03F003074FF00F0CD6F8F440BF0043
:1018000044F00204C6F8F440D6F8F44023F003068E
:1018100006F1B04604F0020406F580660194019CCE
:101820000CFA07F4D6F8088028EA040C324CA042DF
:101830004DD004F58064A0424BD004F58064A042F2
:1018400049D004F58064A04247D004F58064A042EA
:1018500045D004F58064A04243D004F58064A042E2
:1018600041D004F58064A0423FD004F58064A042DA
:101870003DD004F58064A0420CBF09240A24BC407A
:10188000EF024FF0B04744EA0C04B4606FEA02067E
:10189000D9F8004054BF344014433C607C68AF0228
:1018A00054BF34401443AF03C9F80440DEF8044089
:1018B00054BF34401443ED03CEF80440DEF800403A
:1018C00054BF34401443CEF80040013333E70024C2
:1018D000D5E70124D3E70224D1E70324CFE704248A
:1018E000CDE70524CBE70624C9E70724C7E708248A
:1018F000C5E700BF004402580000025880000058AD
:101900000AB1816170470904FBE7436901EA0302F8
:1019100021EA030141EA02418161704770474FF0BB
:10192000B042D2F88810014208B503D0C2F888004E
:10193000FFF7F4FF08BD10B5044600284AD090F820
:10194000413003F0FF021BB980F84020FFF75EF83A
:10195000242384F8413023681A6822F001021A60B7
:10196000626822F070621A619A6822F400429A60FA
:10197000D4E90221012924D142F400429A605A6834
:10198000002042F0007242F400425A60DA6822F409
:101990000042DA60D4E904210A43A16942EA012243
:1019A000DA60D4E907210A431A601A6842F001029A
:1019B0001A602023606484F84130206384F8420078
:1019C00010BD42F4044202299A60D8D14FF400625B
:1019D0005A60D4E70120F3E710B590F84130202B8E
:1019E000DCB21DD190F84030012B19D0242380F8AF
:1019F000413003681A6822F001021A601A6822F462
:101A000080521A601A68114319601A6842F0010284
:101A10001A60002380F8414080F84030184610BD1D
:101A20000220FCE710B590F84130202BDCB21CD12D
:101A300090F84030012B18D0242380F841300368FF
:101A40001A6822F001021A601A6822F4706242EAEF
:101A5000012119601A6842F001021A60002380F81F
:101A6000414080F84030184610BD0220FCE70000DD
:101A700038B5104CE36813F0040FE36805D103F0A8
:101A80000703181A18BF012038BD23F007031843B5
:101A9000E060FFF7EBFB054663689B0401D500207F
:101AA000F2E7FFF7E3FB401BB0F57A7FF4D90120A2
:101AB000EAE700BF00480258F8B5044608B901201B
:101AC0008BE00368DF075ED423689E0700F1AF80D8
:101AD0002368DA0627D5A74B1A69996A02F03802FB
:101AE000082A07D0182A40F0078101F00302012AD2
:101AF00040F002811B68DB0502D5E369802BDED153
:101B0000FFF7CCFB41F20303216A9842994B00F2A4
:101B1000EC805A68202922F0F8420CBF42F0804243
:101B200042EA81625A602368190700F1278123681D
:101B30009A0600F1488123685D071ED58E4D2B68FB
:101B400043F480732B60FFF791FB06462B68DA05A0
:101B500040F15E81A368874D012B40F060812B6FBF
:101B600043F001032B6741F28837FFF77FFB814E7B
:101B70000546336F9B0740F17881606A002840F08A
:101B80007B81002029E07B4B1A69996A02F03802B8
:101B9000102A05D0182A0AD101F00302022A06D120
:101BA0001B689D0390D56368002B8DD187E7626821
:101BB000B2F5803F12D11A6842F480321A60FFF702
:101BC00055FB6C4E0546336898033FF57DAFFFF734
:101BD0004DFB401B6428F6D90320F8BD654D2B68EA
:101BE0009AB923F480332B602B6823F480232B6075
:101BF000FFF73CFB06462B6899037FF565AFFFF7BF
:101C000035FB801B6428F6D9E6E7B2F5A02F07D193
:101C100043F480232B602B6843F480332B60CEE7A2
:101C200023F480332B602B6823F48023F6E7514B99
:101C3000E1681A69986A12F0380203D0182A2BD189
:101C4000820729D11B685B0702D500293FF437AF13
:101C5000484D2A6822F019020A432A60FFF706FB62
:101C600006462B685F0711D5FFF718FB41F2030307
:101C7000226998426B6822D823F47C33402A0CBF37
:101C800043F4003343EA02336B6021E7FFF7EEFAD7
:101C9000801B0228E5D99FE71A68A9B122F0190232
:101CA000344D0A431A60FFF7E1FA06462B685807DD
:101CB000DAD4FFF7DBFA801B0228F7D98CE723F090
:101CC000FE4343EA0263DFE722F00102294E1A6075
:101CD000FFF7CCFA0546336859077FF5F9AEFFF7F1
:101CE000C5FA401B0228F6D976E7DA6822F07C5262
:101CF00042EA0162DA6016E7E2694AB31A681D4DEA
:101D000042F080021A60FFF7B1FA06462B68DF0541
:101D100011D5FFF7C3FA41F20303226A984210D8A3
:101D20006B68202A23F0F8430CBF43F0804343EA5A
:101D300082636B60F7E6FFF799FA801B0228E5D90A
:101D40004AE7EB6823F07C5343EA0263EB60EAE680
:101D50001A68084E22F080021A60FFF787FA0546DB
:101D60003368D8057FF5DFAEFFF780FA401B022805
:101D7000F6D931E700440258004802586369964D8D
:101D800083B16B6F43F001036B67FFF76FFA064691
:101D90006B6F9B073FF5CBAEFFF768FA801B0228FD
:101DA000F6D919E76B6F23F001036B67FFF75EFA53
:101DB00006466B6F9F077FF5BAAEFFF757FA801B99
:101DC0000228F6D908E7A369834D83B12B6843F451
:101DD00080532B60FFF74AFA06462B6898043FF5BC
:101DE000AAAEFFF743FA801B0228F6D9F4E62B6867
:101DF00023F480532B60FFF739FA06462B689904C9
:101E00007FF599AEFFF732FA801B0228F6D9E3E698
:101E1000FFF72CFA801B64287FF698AEDCE6B3B996
:101E20002B6F41F2883723F001032B672B6F23F0D0
:101E300004032B67FFF71AFA06462B6F98077FF506
:101E40009CAEFFF713FA801BB842F6D9C4E6052B07
:101E50002B6F03D143F004032B6780E623F00103CB
:101E60002B672B6F23F004037CE6FFF7FFF9401B81
:101E7000B8427FF67EAEAFE6574D2B6903F03803CC
:101E8000182B7AD02B68022823F080732B6067D13F
:101E9000FFF7ECF906462B6899015BD4AB6AA26A9E
:101EA00023F47C7323F003031343E26A43EA02132F
:101EB000AB62636BA26B013B013A5B0212049BB203
:101EC00002F4FE021343226B013AC2F308021343E9
:101ED000E26B013A120602F0FE4213432B63EB6AF7
:101EE00023F00103EB626B6BA26C23F47F4323F0BE
:101EF000F80343EAC2036B63EB6A226C23F00C0322
:101F00001343EB62EB6A626C23F002031343EB6250
:101F1000EB6A43F48033EB62EB6A43F40033EB6229
:101F2000EB6A43F48023EB62EB6A43F00103EB625C
:101F30002B6843F080732B60FFF798F9264D044619
:101F40002B689A013FF51DAEFFF790F9001B0228A0
:101F5000F6D941E6FFF78AF9801B02289BD93BE6B8
:101F6000FFF784F904462B689B017FF50AAEFFF763
:101F70007DF9001B0228F6D92EE60128AA6A2B6BF0
:101F80003FF42BAE02F00301A06A81427FF497ADCB
:101F9000C2F30512E16A8A427FF491AD226BC3F36A
:101FA0000801013A91427FF48AAD626BC3F3462186
:101FB000013A91427FF483ADA26BC3F30641013A2B
:101FC00091427FF47CADE06BC3F306630138181ACD
:101FD00018BF012001E600BF00440258484B1A69AF
:101FE00002F03802102A30B500F08680182A0CD092
:101FF000002A40F083801A68424812F0200F03D074
:102000001B68C3F3C103D84030BD996A9D6ADA6A80
:1020100015F47C7FC5F305105C6BF5D0C4F3CC04DC
:1020200002F0010207EE900A01F003016243B7EEED
:10203000006AF8EEE76A012907EE902AFAEEE97ADB
:102040004CD002293CD0002948D11A68920627D5E5
:1020500019682C4AC1F3C1011B6BCA40C3F30803C2
:1020600007EE102AF8EEC75A85EEA67A06EE903AE9
:10207000F8EEE66A76EEA77A77EE867A204B67EE80
:10208000877A1B6BC3F34623013307EE103AF8EE51
:10209000C76A87EEA67AFCEEC77A17EE900AB3E716
:1020A0001B6BC3F3080307EE103AB8EEC77A77EE5E
:1020B000277A77EE867A9FED146A86EE267ADDE738
:1020C0001B6BC3F3080307EE103AB8EEC77A77EE3E
:1020D000277A77EE867A9FED0D6AEEE71B6BC3F3E6
:1020E000080307EE103AB8EEC77A77EE277A77EE54
:1020F000867A9FED076AE0E7064885E7064883E7AA
:10210000004402580090D0030024744C20BCBE4B05
:102110000024744A40787D0100093D002DE9F0411A
:102120000D46044610B90120BDE8F081884A1368C5
:1021300003F00F038B42C0F0938023685F0700F128
:102140009B801E070BD583496669C86900F0700043
:10215000864204D9CA6922F070023243CA61D806A5
:102160000BD57C49A669C86900F4E060864204D9B1
:10217000CA6922F4E0623243CA6199060BD57549F7
:10218000E669086A00F07000864204D90A6A22F003
:10219000700232430A629A070BD56E49E668886975
:1021A00000F00F00864204D98A6922F00F02324300
:1021B0008A61DF076ED423689E0700F1A18064491D
:1021C0000A6802F00F02AA4200F2A880580700F144
:1021D000B18019070BD55F496569C86900F07000C7
:1021E000854204D2CA6922F070022A43CA61DA0623
:1021F0000BD55849A569C86900F4E060854204D24E
:10220000CA6922F4E0622A43CA619B060BD5514A8F
:10221000E069116A01F07001884204D2136A23F068
:10222000700303431362FFF7D9FE4A494A4A8B6998
:10223000C3F30323D35C03F01F03D8408B6903F07F
:102240000F03D35C454A03F01F0320FA03F3136026
:10225000434B1860434BBDE8F0411868FEF7A6BF3A
:10226000136823F00F030B431360136803F00F038D
:102270008B427FF458AF60E736492669886900F0E1
:10228000700086427FF65DAF8A6922F070023243A9
:102290008A6156E72F4BA1689A6922F470620A435B
:1022A0009A6162681B68022A1DD113F4003F3FF453
:1022B0003AAF284E41F28838336923F007031343BD
:1022C0003361FEF7D3FF07463369626803F03803D2
:1022D000B3EBC20F3FF46FAFFEF7C8FFC01B404522
:1022E000F2D9032020E7032A02D113F0007FDEE7B2
:1022F000012A02D113F4807FD9E713F0040FD6E747
:102300001449E668886900F00F008642BFF457AFB1
:102310008A6922F00F0232438A6150E70A6822F08C
:102320000F022A430A600A6802F00F02AA427FF4F1
:10233000FAAE4BE707492569886900F070008542CD
:10234000BFF447AF8A6922F070022A438A6140E7EE
:1023500000200052004402581CB4029004000020E7
:10236000000000200C00002010B50C4CFFF736FEDA
:102370000B49A369C3F30323CA5CA36902F01F02DC
:1023800003F00F0320FA02F2CB5C03F01F0322FAE2
:1023900003F0044B1860044B1A6010BD004402584F
:1023A0001CB40290040000200000002008B5FFF7D4
:1023B000DBFF054B054ADB69C3F30213D35C03F073
:1023C0001F03D84008BD00BF004402581CB402904F
:1023D00008B5FFF7C9FF054B054ADB69C3F30223C4
:1023E000D35C03F01F03D84008BD00BF004402586F
:1023F0001CB40290F8B53A4C06460D46A36A03F0A9
:102400000303032B69D0236823F080632360FEF766
:102410002DFF074623681A014BD4A36A326823F4C0
:102420007C3343EA0233A362B368F268013B013AAA
:102430005B0212049BB202F4FE0213437268013A7B
:10244000C2F3080213433269013A120602F0FE4257
:102450001343A363E36A726923F0C0031343E36287
:10246000E36AB26923F020031343E362E36A23F0D3
:102470001003E362E36BF26923F47F4323F0F80374
:1024800043EAC203E363E36A43F01003E362E36AEF
:10249000B5B943F40023E362114C236843F0806331
:1024A0002360FEF7E3FE054623681B010FD50020DD
:1024B00005E0FEF7DBFEC01B0228ABD90320F8BD08
:1024C000012D0CBF43F4801343F40013E3E7FEF740
:1024D000CDFE401B0228E7D9F0E70120EFE700BF5F
:1024E00000440258F8B53A4C06460D46A36A03F07C
:1024F0000303032B69D0236823F080532360FEF786
:10250000B5FE074623689A004BD4A36A326823F0CD
:102510007C7343EA0253A362B368F268013B013A59
:102520005B0212049BB202F4FE0213437268013A8A
:10253000C2F3080213433269013A120602F0FE4266
:1025400013432364E36A726923F440631343E36231
:10255000E36AB26923F400731343E362E36A23F48A
:102560008073E362636CF26923F47F4323F0F80322
:1025700043EAC2036364E36A43F48073E362E36A99
:10258000B5B943F48003E362114C236843F08053F0
:102590002360FEF76BFE054623689B000FD50020E5
:1025A00005E0FEF763FEC01B0228ABD90320F8BD8F
:1025B000012D0CBF43F4000343F08073E3E7FEF703
:1025C00055FE401B0228E7D9F0E70120EFE700BFE6
:1025D000004402582DE9F8430668054616F00066E7
:1025E00009D0436EB3F5001F2ED013D8F3B1B3F565
:1025F000801F21D001262B68DC0540F1EA806B6D3D
:10260000042B00F2E580DFE813F024002B00DD004E
:1026100029002900B3F5401FECD1B34A0026696EAA
:10262000136D23F440130B431365E4E7AE4AD36AFA
:1026300043F40033D362F0E702210430FFF7DAFEFF
:1026400006460028D7D1E8E702212430FFF74AFFE9
:10265000F6E7A54AD36A43F40033D362344604E074
:102660000021281DFFF7C6FE0446002C40F0B38071
:102670009D4A696D136D23F007030B4313652B68A7
:1026800098050DD5AB6D802B00F0C28000F2A580BF
:10269000002B00F0B180402B00F0B48001263446BE
:1026A0002B68590510D5D5F8A430B3F5800F00F08C
:1026B000D48000F2B580002B00F0C380B3F5001F7A
:1026C00000F0C580012634462B681A0510D5D5F8D0
:1026D000A830B3F1007F00F0E58000F2C680002B47
:1026E00000F0D480B3F1807F00F0D680012634461C
:1026F0002B689B010DD5AB6C202B00F0ED8000F218
:10270000D980002B00F0D980102B00F0DF8001264B
:1027100034462B68DF040FD5EB6DB3F5005F00F096
:10272000018100F2E380002B00F0F080B3F5805FC0
:1027300000F0F280012634462B6898040FD52B6EEA
:10274000B3F5003F00F00E8100F2F480002B00F0A2
:10275000FA80B3F5803F00F0FF80012634462B68F5
:10276000590410D5D5F8AC30B3F1005F00F01B81EF
:1027700000F20081002B00F00681B3F1805F00F0D1
:102780000C81012634462B681A040DD5EB6EB3F18B
:10279000805F00F01081B3F1005F00F01A81002B20
:1027A00000F00E81012634462B68DB0140F12781C1
:1027B0006B6C032B00F26781DFE813F01801130143
:1027C0005F011801002105F12400FFF78BFE4BE7A4
:1027D0000126344653E7264651E7C02B03D0B3F514
:1027E000807F7FF45BAFCCB93F4AA96D136D23F4B2
:1027F000E0730B43136553E73B4AD36A43F400335A
:10280000D362F0E70021281DFFF7F4FD0446EAE754
:10281000002105F12400FFF765FEF7E726463FE7B4
:10282000B3F5C00F03D0B3F5000F7FF44BAFD4B9AD
:102830002D4AD5F8A410936D23F460030B439365E0
:1028400042E7294AD36A43F40033D362EFE7002119
:10285000281DFFF7CFFD0446E9E7002105F124001C
:10286000FFF740FEF7E726462EE7B3F1407F03D09F
:10287000B3F1806F7FF43AAFD4B91B4AD5F8A810F2
:10288000936D23F0E0630B43936531E7164AD36AF7
:1028900043F40033D362EFE70021281DFFF7AAFDC0
:1028A0000446E9E7002105F12400FFF71BFEF7E7E6
:1028B00026461DE7302B7FF42AAF9CB90A4AA96C43
:1028C000D36C23F030030B43D36422E7064AD36A68
:1028D00043F40033D362F0E70221281DFFF78AFD9D
:1028E0000446EAE7264614E700440258B3F5405F81
:1028F00003D0B3F5804F7FF41DAFCCB9A24AE96D88
:10290000136D23F4E0430B43136515E79E4AD36A26
:1029100043F40033D362F0E70021281DFFF76AFD7E
:102920000446EAE7002105F12400FFF7DBFDF7E7A5
:10293000264601E723F48032B2F5802F03D0B3F5A9
:10294000403F7FF40AAF9CB98F4A296E136D23F480
:10295000E0230B43136502E70121281DFFF74AFD21
:102960000446F0E7012105F12400FFF7BBFDF7E77E
:102970002646F4E623F08052B2F1804F03D0B3F143
:10298000405F7FF4FEAEA4B97F4AD5F8AC10936DDA
:1029900023F0E0430B439365F5E60121281DFFF783
:1029A00029FD0446EFE7012105F12400FFF79AFD18
:1029B000F7E72646E7E6744AD36A43F40033D36266
:1029C0006CB9714AE96E136D23F040530B431365E4
:1029D000EAE60121281DFFF70DFD0446F0E7264633
:1029E000E2E6694AD36A43F40033D362002C4DD146
:1029F000654A696CD36C23F003030B43D3642B68E3
:102A00005F024DD5614F3B6843F480733B60FEF736
:102A10002DFC80463B68D8053AD5002C6CD15A4B2A
:102A2000D5F8B0001A6F424012F4407F0BD01A6FF5
:102A3000196F22F4407241F480311967196F21F443
:102A4000803119671A67B0F5807F40D0D5F8B03073
:102A50004D4903F44072B2F5407F49D108694C4AB0
:102A600020F47C5002EA131202430A61C3F30B0301
:102A7000454A116F0B43136712E00221281DFFF72F
:102A8000B9FC0446B2E701263446B8E72646B6E765
:102A9000FEF7ECFBA0EB08006428BBD90326344604
:102AA0002B68DA0708D5AB6F102B3CD026D85BB368
:102AB000082B32D0012634462B689B0748D56B6F14
:102AC000052B5BD8DFE803F03C37543C3C3CFEF779
:102AD000CDFBDFF8B480074641F28839D8F8703072
:102AE0009907B3D4FEF7C2FBC01B4845F6D9D5E71A
:102AF0000A6922F47C52B8E72646D1E723F008029F
:102B0000202A01D0182BD5D19CB91F4AA96F536D2B
:102B100023F038030B435365CEE70121281DFFF74F
:102B200069FC0446F0E7012105F12400FFF7DAFC17
:102B3000F7E72646C0E70121281DFFF75BFC0446A6
:102B4000FCB9114A696F536D23F007030B435365BA
:102B50002B685F072ED5D5F89030052B00F2408109
:102B6000DFE813F01D00180038011D001D001D00D6
:102B7000012105F12400FFF7B5FCE0E7012634460A
:102B8000E6E72646E4E700BF004402580048025842
:102B9000CFFFFF000121281DFFF72CFC0446002C6D
:102BA00040F02181B24AD5F89010936D23F00703CD
:102BB0000B4393652B68980610D5D5F88C30B3F18C
:102BC000005F00F02B8100F21081002B00F01681D5
:102BD000B3F1805F00F01C81012634462B68590652
:102BE00010D5D5F89830B3F5006F00F0388100F2B9
:102BF0001D81002B00F02381B3F5806F00F0298147
:102C0000012634462B681A0610D5D5F89C30B3F54A
:102C1000804F00F0488100F22D81002B00F03381BD
:102C2000B3F5005F00F03981012634462B681B079D
:102C300014D5D5F88030B3F5805F07D1022105F1B6
:102C40002400FFF74FFC002818BF0126884AD5F85A
:102C50008010536D23F440530B4353652B68DF06FC
:102C600014D5D5F89430B3F5807F07D1022105F152
:102C70002400FFF737FC002818BF01267C4AD5F84E
:102C80009410936D23F440730B4393652B681803E2
:102C90001AD5D5F8A010B1F5803F00F00C81B1F540
:102CA000003F06D0002940F00C81281DFFF7A2FB51
:102CB0000446002C40F008816D4AD5F8A010936DB1
:102CC00023F440330B4393652B6859031CD5D5F887
:102CD0008430B3F5001F00F0F980B3F5401F08D031
:102CE000B3F5801F40F0F980614AD36A43F40033A2
:102CF000D362002C40F0F4805D4AD5F88410536D07
:102D000023F440130B4353652B68DA0309D5EB6CAE
:102D1000002B00F0E780B3F5803F00F0F180012642
:102D200034462B689B0007D5022105F12400FFF7EC
:102D3000D9FB002818BF01262B689F030AD5E96F2D
:102D4000B1F5807F00F0F28000F2E280002900F00F
:102D5000E5800126DC0206D54549286F0A6D22F080
:102D6000004202430A65D80007D54149D5F8B400AE
:102D70000A6922F4804202430A61990206D53C495D
:102D8000A86E0A6D22F0807202430A655A0009D5C6
:102D9000374A116921F4004111611169D5F8B80071
:102DA00001431161002B06DA3149286DCA6C22F00B
:102DB00040520243CA641B0207D52D4AD5F8881039
:102DC000536D23F440030B435365301E18BF01209D
:102DD000BDE8F883012105F12400FFF783FBDDE660
:102DE00001263446E6E62646E4E623F08052B2F1B8
:102DF000804F03D0B3F1405F7FF4EEAEA4B91C4A1C
:102E0000D5F88C10536D23F0E0430B435365E5E692
:102E10000021281DFFF7EEFA0446EFE7022105F135
:102E20002400FFF75FFBF7E72646D7E623F480622E
:102E3000B2F5805F03D0B3F5406F7FF4E1AEA4B983
:102E40000B4AD5F89810936D23F4E0530B43936528
:102E5000D8E60021281DFFF7CDFA0446EFE702214E
:102E600005F12400FFF73EFBF7E72646CAE600BF60
:102E70000044025823F40052B2F5004F03D0B3F5DA
:102E8000C04F7FF4D1AEA4B92C4AD5F89C10936DF5
:102E900023F460430B439365C8E60021281DFFF728
:102EA000A9FA0446EFE7022105F12400FFF71AFB17
:102EB000F7E72646BAE6022105F12400FFF712FBE8
:102EC000F6E601263446FFE62646FDE6012105F139
:102ED0002400FFF707FB04460BE70126344613E7FF
:102EE000264611E7154AD36A43F40033D3626CB91E
:102EF000124AE96CD36C23F480330B43D36410E79C
:102F00000221281DFFF776FA0446F0E7264608E777
:102F100021F48072B2F5007F7FF41BAF64B90748DB
:102F2000426D22F440720A43426513E70348C26AC5
:102F300042F40032C262F1E726460BE70044025831
:102F400008B5FFF711FA054B054A1B6AC3F30213D4
:102F5000D35C03F01F03D84008BD00BF00440258F3
:102F60001CB402904E4A70B5946A966AD36A16F4FD
:102F70007C3FC6F30531D56B00F08D8007EE901ACB
:102F8000C3F30013C5F3CC0104F00304F8EEE76AC1
:102F90004B43012CB7EE006A07EE903AFAEEE97A5D
:102FA0006BD0022C5BD0002C67D113689B0646D5F2
:102FB0001168936BC1F3C1013A4AC3F30803CA40D5
:102FC00007EE102AF8EEC75A85EEA67A06EE903A7A
:102FD000F8EEE66A76EEA77A77EE867A304A67EE02
:102FE000877A936BC3F3462307EE103AB8EEC77A9D
:102FF00037EE067AC7EE876AFCEEE66AC0ED006A35
:10300000936BC3F3064307EE103AB8EEC77A37EE78
:10301000067AC7EE876AFCEEE66AC0ED016A936B3A
:10302000C3F3066307EE103AB8EEC77A37EE066AC6
:1030300087EE867ABCEEC77A80ED027A70BD936B1C
:10304000DFED195AC3F3080307EE103AB8EEC77A5A
:1030500077EE277A77EE867A85EEA67ABEE7936BCF
:10306000DFED125AC3F3080307EE103AB8EEC77A41
:1030700077EE277A77EE867AEEE7936BDFED0C5AE0
:10308000C3F3080307EE103AB8EEC77A77EE277A53
:1030900077EE867AE0E7C0E900118160CEE700BFF5
:1030A000004402580090D0030024744C20BCBE4B56
:1030B0000024744A4E4A70B5946A966AD36A16F030
:1030C0007C7FC6F30551556C00F08D8007EE901A99
:1030D000C3F30023C5F3CC0104F00304F8EEE76A60
:1030E0004B43012CB7EE006A07EE903AFAEEE97A0C
:1030F0006BD0022C5BD0002C67D113689B0646D5A1
:103100001168136CC1F3C1013A4AC3F30803CA4002
:1031100007EE102AF8EEC75A85EEA67A06EE903A28
:10312000F8EEE66A76EEA77A77EE867A304A67EEB0
:10313000877A136CC3F3462307EE103AB8EEC77ACA
:1031400037EE067AC7EE876AFCEEE66AC0ED006AE3
:10315000136CC3F3064307EE103AB8EEC77A37EEA6
:10316000067AC7EE876AFCEEE66AC0ED016A136C68
:10317000C3F3066307EE103AB8EEC77A37EE066A75
:1031800087EE867ABCEEC77A80ED027A70BD136C4A
:10319000DFED195AC3F3080307EE103AB8EEC77A09
:1031A00077EE277A77EE867A85EEA67ABEE7136CFD
:1031B000DFED125AC3F3080307EE103AB8EEC77AF0
:1031C00077EE277A77EE867AEEE7136CDFED0C5A0E
:1031D000C3F3080307EE103AB8EEC77A77EE277A02
:1031E00077EE867AE0E7C0E900118160CEE700BFA4
:1031F000004402580090D0030024744C20BCBE4B05
:103200000024744A70B50E461546044650B390F833
:10321000453003F0FF021BB980F84420FDF7DAFACD
:1032200004F10801206800F033FFA26831462068ED
:1032300000F078FFE36AA2682946606800F09EFF0C
:103240002268A168002052F8213043F0010342F8BF
:103250002130054A136843F000431360012384F8CA
:10326000453070BD0120FCE700400052036A23F0A6
:10327000010370B50362036A4468826923F00203A4
:103280000D6822F4803222F073022A438D682B43AA
:103290001B4DA8420FD005F58065A8420BD005F55F
:1032A0007055A84207D005F58065A84203D005F502
:1032B0008065A8421ED1CD6823F008032B43104D32
:1032C000A84223F004030FD005F58065A8420BD077
:1032D00005F57055A84207D005F58065A84203D0D2
:1032E00005F58065A84205D124F44075D1E905466D
:1032F00034432C43446082614A684263036270BD78
:1033000000000140036A23F4807370B50362036A0E
:103310004468C26923F400730D6822F4803222F0FD
:1033200073022A438D6843EA0523164DA84203D051
:1033300005F58065A8420DD1CD6823F4006343EA0A
:103340000523104DA84223F480630ED005F5806557
:10335000A8420AD00C4DA84207D005F58065A842C6
:1033600003D005F58065A84206D124F44055D1E983
:103370000546344345EA04144460C2614A68C263A6
:10338000036270BD0000014000400140036A23F465
:10339000805330B50362036A4468C26923F4005362
:1033A0000D6822F0807222F4E64242EA05228D681E
:1033B00043EA05330E4DA8420FD005F58065A842BB
:1033C0000BD005F57055A84207D005F58065A842D9
:1033D00003D005F58065A84204D124F480444D69EA
:1033E00044EA85144460C2614A680264036230BDE5
:1033F00000000140036A23F4803330B50362036A9E
:103400004468426D23F400330D6822F4803222F0C8
:1034100070022A438D6843EA05430F4DA8420FD03E
:1034200005F58065A8420BD005F57055A84207D078
:1034300005F58065A84203D005F58065A84204D152
:1034400024F480344D6944EA0524446042654A68A6
:103450008265036230BD00BF00000140036A23F4AF
:10346000801330B50362036A4468426D23F400138D
:103470000D6822F0807222F4E04242EA05228D6853
:1034800043EA05530E4DA8420FD005F58065A842CA
:103490000BD005F57055A84207D005F58065A84208
:1034A00003D005F58065A84204D124F480244D6939
:1034B00044EA8524446042654A68C265036230BDBF
:1034C0000000014090F83D30012B2FD10223184A13
:1034D00080F83D30036893421AD0B3F1804F17D083
:1034E000A2F57C42934213D002F5806293420FD042
:1034F00002F5806293420BD002F57842934207D0E6
:10350000A2F56C42934203D002F59432934207D164
:103510009968084A0A40062A06D0B2F5803F03D0CF
:103520001A6842F001021A600020704701207047BB
:1035300000000140070001007047704770470368B2
:103540001A69910710B504460FD5DA6892070CD5B1
:103550006FF002021A61012202779B69990700F05D
:103560008580FFF7E9FF0023237723681A69520754
:1035700010D5DA6850070DD56FF0040220461A61A5
:10358000022222779B6913F4407F75D0FFF7D4FFA6
:103590000023237723681A6911070FD5DA68120709
:1035A0000CD56FF0080220461A6104222277DB69ED
:1035B0009B0767D0FFF7C0FF0023237723681A69B2
:1035C000D00610D5DA68D1060DD56FF0100220466E
:1035D0001A6108222277DB6913F4407F58D0FFF785
:1035E000ABFF0023237723681A69D20708D5DA686E
:1035F000D00705D56FF0010220461A6100F024FEC5
:1036000023681A69110608D5DA68120605D56FF025
:10361000800220461A6100F0D0F923681A69D005AB
:1036200008D5DA68110605D56FF4807220461A6154
:1036300000F0C4F923681A69520608D5DA68500602
:1036400005D56FF0400220461A61FFF777FF236827
:103650001A69910622D5DA6892061FD56FF020020A
:1036600020461A61BDE8104000F0A6B900F0EAFD5E
:103670002046FFF762FF76E700F0E4FD2046FFF703
:103680005CFF85E700F0DEFD2046FFF756FF93E77D
:1036900000F0D8FD2046FFF750FFA2E710BD000064
:1036A000304A0368904212D0B0F1804F0FD0A2F59B
:1036B0007C4290420BD002F58062904207D002F526
:1036C0008062904203D002F57842904219D14A6854
:1036D00023F070031343234A90421DD0B0F1804F72
:1036E0001AD0A2F57C42904216D002F58062904238
:1036F00012D002F5806290420ED002F578429042DC
:103700000AD0194A904207D002F58062904203D055
:1037100002F58062904203D123F44073CA681343D8
:103720004A6923F08003134303608B68C3620B680C
:1037300083620C4B98420FD003F5806398420BD004
:1037400003F57053984207D003F58063984203D085
:1037500003F58063984201D10B6903630123436140
:10376000704700BF000001400040014010B5044612
:1037700050B390F83D3003F0FF021BB980F83C20B5
:10378000FDF742FC02232068211D84F83D30FFF73D
:1037900087FF0123002084F8483084F83E3084F805
:1037A0003F3084F8403084F8413084F8423084F867
:1037B000433084F8443084F8453084F8463084F847
:1037C000473084F83D3010BD0120FCE710B50446B9
:1037D00050B390F83D3003F0FF021BB980F83C2055
:1037E000FDF7EEFB02232068211D84F83D30FFF732
:1037F00057FF0123002084F8483084F83E3084F8D5
:103800003F3084F8403084F8413084F8423084F806
:10381000433084F8443084F8453084F8463084F8E6
:10382000473084F83D3010BD0120FCE7036A23F0E7
:10383000100370B50362036A4468826923F02003B1
:103840000D6822F0807222F4E64242EA05228D6879
:1038500043EA0513164DA84203D005F58065A8423A
:103860000DD1CD6823F0800343EA0513104DA84223
:1038700023F040030ED005F58065A8420AD00D4D17
:10388000A84207D005F58065A84203D005F58065FC
:10389000A84206D124F44065D1E90546344345EAFF
:1038A0008404446082614A688263036270BD00BF21
:1038B000000001400040014038B590F83C3005461A
:1038C0001446012B2CD001220C2C80F83C201FD058
:1038D00009D8042C14D0082C16D064B1002385F824
:1038E0003C30104638BD102C16D0142CF6D1006890
:1038F000FFF7B4FD02E00068FFF7B8FC0022EDE737
:103900000068FFF793FFF9E70068FFF7FBFCF5E7B6
:103910000068FFF73BFDF1E70068FFF76BFDEDE79F
:103920000222DEE730B590F83C30012B4FF0020365
:103930003DD080F83D301F4D0368AB425A689C680B
:1039400003D005F58065AB4203D122F470024D68C7
:103950002A430D6822F070022A435A60154A9342A6
:103960001AD0B3F1804F17D0A2F57C42934213D006
:1039700002F5806293420FD002F5806293420BD031
:1039800002F57842934207D0A2F56C42934203D0ED
:1039900002F59432934204D1896824F080020A43EC
:1039A0009A60012380F83D30002380F83C301846AF
:1039B00030BD00BF000001407047704770470000F5
:1039C000F0B504460368C06987B02169A2681D6824
:1039D0000A4361690A43A449024329400A43E16852
:1039E0001A605A6822F440520A43A1695A609F4AF9
:1039F00093421CBF226A11439A6822F06E4222F45D
:103A000030620A43616A9A60DA6A22F00F020A435E
:103A1000DA62974A93421BD1964B5B6D03F03803F1
:103A2000282B6CD8944AB0F5004FD35C40F001814C
:103A3000082B00F2BF80082B61D8DFE813F0E60006
:103A4000EB0060006000EE00600060006000F300CA
:103A50008A4A934207D1874B5B6D03F00703052B1E
:103A60004DD8874ADFE7874A934207D1814B5B6D88
:103A700003F00703052B42D8834AD4E7834A9342D5
:103A800007D17C4B5B6D03F00703052B37D8804AC9
:103A9000C9E7804A934207D1764B5B6D03F0070379
:103AA000052B2CD87C4ABEE77C4A934207D1714B48
:103AB0005B6D03F03803282B21D8794AB3E7794AA4
:103AC000934207D16B4B5B6D03F00703052B16D8B0
:103AD000754AA8E7754A934207D1664B5B6D03F0C0
:103AE0000703052B0BD8724A9DE7604A934206D123
:103AF00002F50E32936D03F00703052B01D9012067
:103B00000EE06C49CB5C102B23D011D8042B16D0BF
:103B1000082B19D0022BF2D1FFF712FA10BB0020AC
:103B20004FF00113A3660023C4E91C3307B0F0BDB6
:103B3000202B3DD0402BE2D14FF4004012E06846EC
:103B4000FFF710FA0198E9E703A8FFF7B3FA049822
:103B5000E4E71368584813F0200F03D01368C3F349
:103B6000C103D840554B626A656833F8122005EBF3
:103B70004501B0FBF2F39942C1D8B3EB053FBED883
:103B800000230021FCF714FC2A460F020023060242
:103B900047EA10676808301847F10001FCF708FC95
:103BA000474BA0F540729A42A9D82368D860B6E77F
:103BB0004448D7E7202B3AD0402B0BD0102B9ED176
:103BC0002C4B3D481A6812F0200F03D01B68C3F33A
:103BD000C103D840616A394B626833F81130B0FBD9
:103BE000F3F3500800EB43004FF6EF73B0FBF2F035
:103BF000A0F110029A4282D820F00F03C0F34200D5
:103C000022689BB21843D06089E7FEF7CFFB0028FB
:103C100085D0DFE7FEF7DCFBF9E76846FFF7A2F99E
:103C20000198F4E703A8FFF745FA0498EFE7254861
:103C3000D0E7082B48D8082B3FF661AF01A252F815
:103C400023F000BF0B3D0090173D0090FF3A00901D
:103C5000FF3A00901D3D0090FF3A0090FF3A00901F
:103C6000FF3A0090273D0090F369FFCF000C005809
:103C700000100140004402582CB40290004400405F
:103C800055B402900048004055B40290004C0040EA
:103C900055B402900050004055B402900014014009
:103CA0002CB402900078004055B40290007C004093
:103CB00055B402905BB402900090D00362B40290BD
:103CC000FFFC0F0000093D00202B31D0402B31D0EC
:103CD000102B7FF414AF194B19481A6812F0200FFB
:103CE00003D01B68C3F3C103D840616A154A6368F7
:103CF00032F81120B0FBF2F000EB5300B0FBF3F010
:103D00004FF6EF73A0F110024DE7FEF74FFB0028CE
:103D10003FF405AFE9E7FEF75BFBF8E76846FFF71E
:103D200021F90198F3E703A8FFF7C4F90498EEE737
:103D30000548DAE74FF40040D7E700BF00440258D7
:103D40000090D00362B4029000093D00836ADA0754
:103D500010B506D50168C46A4A6822F400322243CD
:103D60004A609C0706D50168046B4A6822F48032D9
:103D700022434A60590706D50168446B4A6822F419
:103D8000802222434A601A0706D50168846B4A687C
:103D900022F4004222434A60DC0606D50168C46B67
:103DA0008A6822F4805222438A60990606D5016807
:103DB000046C8A6822F4005222438A605A0610D5A5
:103DC0000168446C4A68B4F5801F22F4801242EA0C
:103DD00004024A6005D14A68846C22F4C00222437E
:103DE0004A601B0606D50268C16C536823F40023A1
:103DF0000B43536010BD2DE9F041DDF818800446F7
:103E00000E4615461F462268D36936EA03030CBFE7
:103E100001230023AB4201D0002027E0B8F1FF3F8F
:103E2000F2D0FDF723FAC01B4045206802D8B8F154
:103E3000000F1DD150E8003F23F4D07340E800325A
:103E4000002AF7D100F1080353E8003F23F00103F3
:103E500000F1080141E80032002AF3D12023C4F820
:103E60008430C4F88830032084F88020BDE8F081D5
:103E700003685A07C7D5C3691B05C4D54FF400634F
:103E8000036250E8003F23F4D07340E80032002A78
:103E9000F7D100F1080353E8003F23F0010300F1DC
:103EA000080141E80032002AF3D12023C4F884300D
:103EB000C4F88830C4F88C30D5E730B50025044606
:103EC00085B0C0F88C50FDF7D1F92268034612681E
:103ED000110717D422681268520709D56FF07E4285
:103EE0004FF48001204600920022FFF784FFB0B912
:103EF00020230020C4F8843084F88000C4F888307F
:103F0000E0660DE06FF07E4203904FF40011204612
:103F100000922A46FFF76FFF039B0028DAD00320A8
:103F200005B030BD10B5044650B3D0F884301BB98D
:103F300080F88030FDF7BEF8226824232046C4F8BC
:103F40008430136823F001031360FFF739FD012863
:103F500016D0A36A13B12046FFF7F8FE2368204667
:103F60005A6822F490425A609A6822F02A029A60B3
:103F70001A6842F00102BDE810401A60FFF79DBFC9
:103F8000012010BD436E30B51BB94FF0011383669D
:103F900030BD03680A4D9A6899680A4CC2F34262C0
:103FA000490F6B5C615C1B01B3FBF1F3A0F86A3055
:103FB000AB5CA25C1B01B3FBF2F3A0F86830E7E74F
:103FC00082B402907AB4029090F88030012B14D021
:103FD00002682423C0F884301168136821F000516E
:103FE00023F001031360002343661160202280F850
:103FF0008030C0F88420184670470220704738B5DA
:1040000090F880300446012B1BD0012380F88030CB
:104010002423C0F8843003681D681A6822F0010266
:104020001A609A6822F0604211439960FFF7AAFF74
:1040300003681D602023C0F88430002084F88000CD
:1040400038BD0220FCE738B590F880300446012BDB
:104050001BD0012380F880302423C0F8843003680B
:104060001D681A6822F001021A609A6822F06062E4
:1040700011439960FFF786FF03681D602023C0F895
:104080008430002084F8800038BD0220FCE7000066
:104090000A6850F8223023F00103F0B54E6840F86A
:1040A00022308B6850F82270082B43EA0603CE6852
:1040B0000CBF4FF0400C4FF0000C33430E693343FC
:1040C0004E6933438E693343CE6933430E6A3343BB
:1040D0004E6A33438E6A3343CE6AD1E90C5433437C
:1040E000896BB5F5801F43EA050343EA040343EAFD
:1040F00001030B4901EA070143EA010343EA0C0308
:1041000040F8223008D14AB1036843F480130360B9
:1041100003681C43046001E0002AF9D10020F0BDCF
:104120008004C0FF0B6900EB8202F0B58F695D1E51
:104130000B6856682C053B434F6843EA07138F68AA
:1041400043EA0723CF68496943EA0743023943EA50
:10415000055343EA016306F040410B435360036893
:10416000DB0208D54268436822F4700223F470032E
:104170001443234343600020F0BD0000B3F5804F9B
:1041800030B514D18D690B6850F822402B434D682F
:1041900043EA05138D68C96843EA052343EA0143EE
:1041A000044921400B4340F82230002030BD6FF01D
:1041B0007043F8E70000F0CF092909D10B4B984272
:1041C00001D100F071BA0A4B98420ED100F07ABAD0
:1041D0000339012909D8054B984201D100F088BA6A
:1041E000034B984201D100F084BA7047400200208E
:1041F000600200200549064808B500F04CFA034962
:104200000448BDE8084000F046BA00BFB94100903C
:104210004002002060020020C8234FF4FA710748D2
:104220001A4610B500F024FAC8234FF4FA71044876
:104230001A46BDE8104000F01BBA00BF4002002043
:104240006002002000F0A4B800F014B8034B1A6814
:10425000D36843F00103D360704700BFF00F012023
:1042600008B50348FFF72EF9BDE80840FFF7EEBF99
:10427000F00F0120034B834203D108210248FDF7D0
:1042800044BB7047F00F012000080258134B144A3A
:104290001B680168B3FBF2F3B1F1804F03F1FF3308
:1042A00010B59BB214D00F4C4FF6FF72A14208BF5D
:1042B0004FF0FF320C4C4360C2602060FFF786FA7B
:1042C00048B92068FFF7FEF8003818BF012010BD7C
:1042D0004FF0FF32EEE70120F9E700BF00000020B9
:1042E00080841E00000C004080020020224B1B68CE
:1042F0001B6810B5002B3CD0B3F1804F05D01F4C8C
:10430000A34202D0B1F5803F33D25C6A214450B958
:104310001B4C596322606FF002021A61DA6842F0A6
:104320000202DA6010BD04280BD1164899630260BE
:104330006FF004021A61DA6842F004020020DA60C9
:10434000F0E7082809D11048D96302606FF008022D
:104350001A61DA6842F00802F0E70C2809D10B482C
:10436000196402606FF010021A61DA6842F01002FC
:10437000E4E70120D6E700BF80020020000C0040E7
:1043800084020020880200208C020020900200207D
:1043900010B5214C236883423CD11A7F012A0AD1EF
:1043A0001B686FF002021A61DA6822F00202DA601A
:1043B0001A4B1B68984723681A7F022A0AD11B6888
:1043C0006FF004021A61DA6822F00402DA60144B1A
:1043D0001B68984723681A7F042A0AD11B686FF06C
:1043E00008021A61DA6822F00802DA600D4B1B68D5
:1043F000984723681A7F082A0CD11B686FF01002B7
:104400001A61DA6822F01002DA60074BBDE810404A
:104410001B68184710BD00BF8002002084020020E6
:10442000880200208C02002090020020114A136AAA
:1044300043F040031362936943F0080393611368E8
:1044400043F0200313600C4B1A600C4A5A600C4A6C
:104450009A604FF00422DA6000221A825A625A826D
:1044600083F82820DA821A835A839A82C3E90722C2
:10447000704700BF00100140940A002094060020FD
:104480009402002008B530B10138062801D9FCF7A4
:104490002BFC002000E0014808BD00BF940A00206A
:1044A00038B50C46FFF7EEFF08B9002038BD0121F2
:1044B00081F31088438B00229BB282F31088002B7B
:1044C000F3D0038B85689BB2EB5C237081F310887B
:1044D000038B0B44C1899BB29942038300D80283AA
:1044E000438B013B9BB24383002383F3108801205D
:1044F000DCE70000024B9862DA695206FCD570478F
:104500000010014007B50DF107010020FFF7C8FFBB
:104510000028F8D09DF8070003B05DF804FB000008
:10452000514B834270B504D0FCF7DEFB00231B68BF
:10453000FFDE4E4C2368DD691E68A90619D5586A4E
:10454000E38AA268C0B29BB2D054E38AE289013305
:104550009BB29342E38201D30023E382638B9BB23D
:104560009A4203D9638B01339BB26383636A03B1BD
:1045700098472A0623680DD530060BD5A28A92B239
:10458000002A47D11A6822F080021A601A6842F0A5
:1045900040021A6069060FD572060DD5A28A92B242
:1045A000002A4DD11A6822F040021A60236A03B132
:1045B0009847002384F8283023681A6A42F00102E1
:1045C0001A621A6A42F002021A621A6A42F004027D
:1045D0001A621A6A42F008021A621A6A42F010025B
:1045E0001A621A6A42F040021A621A6A42F480722F
:1045F0001A621A6A42F400721A621A6A42F40032AB
:104600001A621A6A42F480121A621A6A42F020028E
:104610001A6270BD0122616884F82820628A92B211
:104620008A5CA1899A62628A013292B29142628264
:1046300001D800226282A28A013A92B2A282A9E73C
:10464000628A616892B28A5C9A62638AA289013343
:104650009BB29A42638201D800236382A38A013B02
:104660009BB2A382A8E700BF3C100120940A00205F
:10467000F8B504460F4616460021182204301D46A0
:1046800025F094FE00232046E78026816581A376ED
:104690002371E361F8BDC161704700000221014848
:1046A000FDF733B90000025808B5044826F0FAF9BE
:1046B00002210348BDE80840FDF727B98AB40290FB
:1046C0000000025808B5074826F0ECF90221064818
:1046D000FDF71BF9054A0A210020BDE80840FFF755
:1046E00005BE00BFA2B40290000002589D46009093
:1046F0007047704737B51A4C00F052F8204626F044
:104700004BF91849184B194A1B6812680D6818496B
:104710000193086817490092B0FBF1F1164826F0A2
:104720003BF929461548DDE9002326F035F92046F6
:1047300026F032F9124826F0B5F9124826F0B2F9FF
:10474000002202211048FDF7DBF840F6FF7000F070
:10475000F1FB4FF4FA7003B0BDE83040FCF78CBDBC
:10476000BAB4029008E8F11F00E8F11F04E8F11F55
:104770000000002040420F00FAB4029029B50290D8
:1047800040B5029092B502900000025808B503F0BF
:1047900085FB00F0B5FC00F0B1FD1CF0F9FCFCE776
:1047A00008B5FFF743FEFFF75BFDFFF723FD034866
:1047B000FFF76CFDBDE8084000F06CBBA40F0120C2
:1047C0004FF0C0422A2310B51380040A074BC0B231
:1047D0001C8018801C8018802B2010800A0AC9B207
:1047E0001A8019801A80198010BD00BF0000106067
:1047F0004FF0C04336221A8060B903F58013A82217
:104800001A804FF4A0720F4B1A804FF4F0720E4BC7
:104810001A807047012802D10C4B6822F0E7022869
:104820000AD10A4BC8221A804FF4F072054B1A8045
:104830004FF4A072044BEBE70328EAD1034B0822A4
:10484000F1E700BF120000201400002000001060FB
:1048500070B54FF0C0462A240F4D3480040A2C80D6
:10486000C4B22C80C418013CC4F307242C805C1E05
:104870002318DBB22B802B2333800B0A2B80CBB287
:104880002B808B18013BC3F307232B80531E5A1830
:10489000D2B22A8070BD00BF00001060034B00211F
:1048A000034A1B8808461288FFF7D2BF1400002075
:1048B000120000204FF0C04304221A80064A1388D9
:1048C000118813881088CAB2DBB21B0203EB0243C3
:1048D00053FA80F0704700BF0000106070477047C7
:1048E00070B500210F4D104E04462B8808463288C3
:1048F000FFF7AEFF4FF0C0432C2200211A8033880F
:104900002A885A43094BD210914200D170BD1C80B5
:1049100001311C801C801C801C801C801C801C8021
:10492000F2E700BF14000020120000200000106019
:1049300010B51446FFF744FF4FF0C0432C221A80F5
:1049400003F580131C8010BD08B5FFF739FF4FF049
:10495000C0432E221A80074A1388138810881288B1
:1049600003F47843C0F3C420C2F3852243EA421320
:10497000184308BD000010602DE9F84FFFF79AFFBB
:104980005D4B984240F0B5804FF0C045F7235B4C3B
:1049900011212B80A92309274FF0410B238051239C
:1049A00000264FF00A0823802C234FF002094FF015
:1049B000040A2380822330462380C0232B80C12316
:1049C000218027802B80C523A4F800B02B80802372
:1049D0002680A4F800802380B1232B80B02323807D
:1049E000B42321802B80B623A4F800902B802223AF
:1049F000A4F800902380B7232B80C6232380BE23F6
:104A00002B80E9232680A4F800A02B802680FFF7C6
:104A1000EFFE3A2317200E222B8055234FF0E10C96
:104A20002380E0232B8007232680238010232380EC
:104A30000B232780208023808923A4F800B02380C3
:104A40004B2323800C23A4F800802380182322808A
:104A500023801B2323800F232380A5F800C02680FA
:104A600020801A2020807820A4F800A0228006222E
:104A700022802F222280452222804322228032223D
:104A8000A4F80090A4F8008027802280362222809B
:104A900023802980FCF7F0FB2923194A31462B801B
:104AA0003046184B12881B88FFF7D2FE0121164BA7
:104AB00012220846154C1E70FFF73AFF01210846E6
:104AC000FFF742FF0121342220800846FFF730FF24
:104AD00001210846FFF738FF0121562220800846B1
:104AE000FFF726FF01210846FFF72EFF49F2884312
:104AF0002380BDE8F88F00BF66805400000010607E
:104B00001200002014000020C00A00201000002025
:104B10002DE9F74FBDF830A0054690460C465246A9
:104B20001F46FFF705FF454547D1BC423BD0A14694
:104B30003E460ED3A64239DD45450CD9A5EB080605
:104B40000BE01FFA89F109F1010952462846FFF7E7
:104B5000EFFEB945F5DDA8EB0506BC4294BF391B55
:104B6000E11B8E4243DAB3B20E464FF001091946FB
:104B70004346B8461F462B4625461C46454534BF8E
:104B800001234FF0FF33A1EB060BBC4234BF0127DA
:104B90004FF0FF37C6EB410600934FEA4B0B4B003B
:104BA0000193A84526D103B0BDE8F08FB1B25246BB
:104BB00028460136FFF7BCFEBCE7BC42BCD14545E8
:104BC000A946464610D3AE42B6DCB0B252462146A4
:104BD0000136FFF7ADFEF6E71FFA89F009F101098A
:104BE00052462146FFF7A4FEC145F5DDB3E74FF07D
:104BF0000009C3E7002EA8B25246B3BF019BE419D7
:104C00005E44F6181FFA84FCB9F1000F06D0014685
:104C10006046FFF78DFE009B1D44C2E76146F8E742
:104C200038B514461D4613460122FFF711FE4FF01A
:104C3000C0432C2205EB44041A8003F58013A542DF
:104C400000D138BD35F8022B1A80F8E72DE9FF4175
:104C50005C1E0E461546BDF8288004440B463544BC
:104C6000CDF80080A4B20746ADB22246FFF750FF50
:104C70006B1E224638469BB2CDF80080194603933E
:104C8000FFF746FF039B3A4631463846CDF8008091
:104C9000FFF73EFF2B46224631462046CDF82880BE
:104CA00004B0BDE8F041FFF733BF000070B5154612
:104CB0001C46BDF81060FFF7CBFD4FF0C0432C221F
:104CC00005491A80002304FB05F29A4200D170BD09
:104CD00001330E80F9E700BF000010602DE9F04FAE
:104CE000144685B081468A4665001A464FF0000892
:104CF000C5F10305A6B21AFA84F319FA88F01FFA6F
:104D000088F7AAEB060B9BB280B201921FFA8BFBCD
:104D10001946CDE90203FFF70BFE5946019A0298A6
:104D2000FFF706FEA9EB0700039B80B2019A194624
:104D30000290FFF7FDFD5946019A029807EB0A0B16
:104D4000FFF7F6FDAAEB070706EB09001FFA8BFB3E
:104D5000BFB2019A80B259460290FFF7E9FD019A6D
:104D600039460298FFF7E4FDA9EB0600019A59467F
:104D700080B20290FFF7DCFD019A39460298FFF7F6
:104D8000D7FD002D019AB1BF0635A8EB04030A3503
:104D900004F1FF34B8BF05EB880508F10108A8BF8E
:104DA00005EB83054445A5D205B0BDE8F08F2DE99C
:104DB000F04115461C4606460F466C430025DDF8BB
:104DC0001880FFF745FDAC4203D1BDE8F041FFF785
:104DD00065BD38F81520394630460135FFF7A8FD86
:104DE000F1E72DE9F04F550085B081468A469B4694
:104DF000C5F1030514464FF000081FFA88F71AFAA8
:104E000084F319FA88F0A6B2A9EB07029BB280B22C
:104E1000CDF800B092B2194602900392FFF778FEE7
:104E2000AAEB0603039A02989BB2CDF800B019468C
:104E3000FFF76EFE07EB0A0306EB0900A9EB06027B
:104E40009BB2CDF800B080B292B2194602900392A4
:104E5000FFF75EFEAAEB0703039A02989BB2CDF818
:104E600000B01946FFF754FE002DB1BF0635A8EB80
:104E700004030A3504F1FF34B8BF05EB880508F1D7
:104E80000108A8BF05EB83054445B6D205B0BDE8CF
:104E9000F08F000010B5C820174CFCF7EDF9FFF7B4
:104EA00009FD164B984204D149F288432380FFF74D
:104EB00063FD228849F288439A4218D1104B114A67
:104EC0009A60114ADA60114A1A61114A5A61114A0C
:104ED0009A61114ADA61114A1A62114A5A62114AF8
:104EE0009A62114ADA62114A1A63114A5A6303201C
:104EF000BDE81040FFF77CBC100000206680540025
:104F0000D0100120DD480090DF480090E14800907B
:104F10003149009049490090114B00904D4C009050
:104F2000DD4C0090AF4D0090AD4C0090E34D0090F3
:104F3000214C0090014B1B69184700BFD010012085
:104F4000104A002370B5C2F88430BFF34F8FD2F8F7
:104F5000803043F6E074C3F3C900C3F34E335B0102
:104F600003EA0406014646EA81750139C2F8745223
:104F7000F9D2203B13F1200FF2D1BFF34F8FBFF3D3
:104F80006F8F70BD00ED00E070470000024B012202
:104F900002481A6019F008BC380B0020E40A00200F
:104FA000B1F90430002BF7B50C46C0F29580B1F989
:104FB0000630002BC0F29080B1F90030B3F5A07F2D
:104FC00080F28A80B1F90230B3F5F07F80F28480FC
:104FD000424F00233A60424AC2F88430BFF34F8FF9
:104FE000D2F8803043F6E075C3F3C900C3F34E3303
:104FF0005B0103EA050C01464CEA81760139C2F8EF
:105000007462F9D2203B13F1200FF2D1BFF34F8F1E
:10501000BFF36F8FBFF34F8FBFF36F8F0026C2F8C0
:105020005062BFF34F8FBFF36F8FA388E288208851
:105030000133618801321B1A2A4D521A9BB292B277
:10504000FFF706FC4FF0C0432C2228461A801A8036
:105050000223254AEE642A62244A6E606A62FF22B5
:10506000C5E90236C5E91163214B2A652B60C5E904
:105070001566C5E90466FCF710FA28B9012128462F
:10508000FCF7F2FA08B1FEE7FEE7A388284622887B
:10509000013361889B1AE28801321BB2521A3968C7
:1050A00012B20092134AFCF735FA134B1349B4F9C4
:1050B00004201870B4F90630B4F90050B4F90200B5
:1050C0008A600132CB600133521B0D601B1A4860AD
:1050D00012B21BB20A614B6103B0F0BDC40A0020DA
:1050E00000ED00E0A40E01208D4F0090894F00904C
:1050F0000010005200001060C10A00200C110120B5
:1051000070B5114DFFF7CAFB2A680AB125F01CF9EA
:105110000E4E4FF416330E4C0E49304619F032FA4B
:10512000204619F00BFA0C4B2046E6602360237CE6
:1051300043F002032374094B6361094BE36219F0E6
:105140002FFA286070BD00BF340B0020C80A002071
:10515000E40A0020000000244001E001A14F00907B
:10516000414F009070B5584D2B681E2B13D8042B5F
:1051700016D9053B192B13D8DFE803F01616161ABB
:105180001212121E12122A32123638121212121271
:10519000121212121241282B33D0292B00F08C80CE
:1051A0002B6801332B6070BD012001F0B1FBF7E7E4
:1051B000002001F0A5FBF3E7444B1C6819F0C0FA8E
:1051C00019F0D4FA4042012302B20021204604E043
:1051D00001233F4A3F480021006805F041FADFE71C
:1051E00001234FF49672F5E70120E2E7374B1C6884
:1051F00019F0A6FA19F0BAFA01230246E5E70220EF
:10520000D7E719F09DFA01F0A7FC0446002246F604
:105210005E4107F084F8204600224FF0FF3107F08E
:10522000BCF820460022FF2107F089F800224FF445
:10523000C871204606F0E8FF204621F049F80646EE
:105240000022254907F0B9F83046244921F0D0FC66
:105250005A2300220221304603F090FE204621F01E
:1052600037F8064600221E4907F0A7F808F00EFBA3
:105270001C490246304621F01BFD78230022022102
:10528000304603F07BFE204621F022F8044600223F
:10529000022107F09CF8002220460F4907F08DF804
:1052A0002046114921F0A4FC6FF0090300220521DA
:1052B000204603F063FE73E7002002F02BFE01F0AE
:1052C000BBFD01F05FFB6BE7440B00203C0B0020B3
:1052D000D4FEFFFF400B0020D8950890980108905D
:1052E0003409099076190990AB01089008B519F0B6
:1052F00027FABDE8084001F0E3BB000008B5FFF75E
:10530000F5FF002243F2881107F009F8FFF7EEFFDE
:1053100000F082F8074B1860FFF7E8FF00F000FE8E
:10532000054B00224FF47A7118600448BDE808402C
:105330001BF0E4BE400B00203C0B002065510090A8
:105340000D289ABF024B53F820000020704700BF81
:10535000B40308900E289ABF024B53F82000002097
:10536000704700BF080308900D289ABF024B53F8FE
:1053700020000020704700BF440308900D289ABF0A
:10538000024B53F820000020704700BF7C030890B8
:1053900013B501F09FFE084B044650220749022036
:1053A0000093074B1AF01CFB204607F077F802B079
:1053B000BDE8104001F0A4BA17040890EC0308906F
:1053C0006B040890114B70B50E460146186807F043
:1053D00052F80446002107F04EF801210546204608
:1053E0005EB102F011FE2846094920F073FA20460A
:1053F0000121BDE8704005F0C7BB02F00EFE284653
:105400000449BDE8704020F065BA00BF500B002091
:1054100018000020240000202DE9F04FB54B8FB07C
:10542000B54E0446B54D00273360B54BB5482B60EB
:105430001BF093FA0421B3481BF06AFDFF21B14829
:105440001BF09FFD4EF67D71AE481BF091FD47F6B7
:10545000FF71AC481BF028FE0421AA481BF07CFD1C
:10546000A9481BF07AFA0021A7481BF08AFDA7493A
:10547000A54811F0C5FCA649A34811F0B9FC0121CB
:10548000A14811F0C5FCA34B9F4819881BF024FECE
:1054900014219D481BF060FD9F481BF05EFAFF2120
:1054A0009D481BF06EFD44F64C219B481BF060FDAF
:1054B0009A481BF052FAFF2198481BF062FD44F60F
:1054C0004C2196481BF054FD95481BF046FA662186
:1054D00093481BF0D9FD662191481BF0AAFD914825
:1054E0001BF03BFA29688F481BF0D2FD4FF0FF31CB
:1054F0008C481BF0C0FD8C481BF02FFA31688A489D
:105500001BF0C6FD4BF2975187481BF0B4FD87484E
:105510001BF023FA296885481BF0BAFD4FF0FF31D4
:105520008248834E1BF0A7FD204602F0F3FC814A1F
:105530000021306006F064FB346819F001F919F0BD
:1055400005F9059019F0FCF819F010F914380599CF
:1055500002B2204603F090FC1421306803F03CFCBA
:105560004FF480326749306806F0F4F90121306861
:1055700010F0EEFE05963846FFF7E2FE38B901213D
:10558000FFF720FF059B18680FB0BDE8F08F059B63
:105590003C2538461C68FFF7F1FE674A2021B0FB26
:1055A000F5F305FB1300009006A81BF0B1F938468F
:1055B000FFF7C6FE83463846FFF7CCFE82462046FC
:1055C00002F0A8FC04465B4A002106F019FB2A46BB
:1055D00042F26401204603F04FFC00224A49204673
:1055E00006F0B8F920224C49204606F0B3F9012212
:1055F0004A49204606F0AEF980224949204606F085
:10560000A9F9002307224D49204601F081FD022F10
:1056100003D98021204602F0F7FC20460126002510
:1056200020F04CF94FF0020980464549374420F0FC
:1056300051F933462A46294640460096CDE901599C
:1056400011F04CFC204620F043FE8046594621F0E4
:10565000CFFA33464046324629460096CDE90156F8
:1056600011F03CFC2A462F49404606F073F92046CB
:1056700020F02EFE8046514621F0BAFA40462A46D6
:10568000294906F067F933463246294640460096D6
:10569000CDE9016611F022FC204620F019FE80467B
:1056A00006A921F0A5FA2A462049404606F052F9FB
:1056B00033464A46494640460096CDE9015911F025
:1056C0000DFC204620F0FAF804461E4920F002F9AD
:1056D00042F27801204603F0A1FB2B462A46052121
:1056E000204603F04BFC4FF40031204602F01EFC34
:1056F00041E700BFD89508904C0B0020480B0020D4
:10570000340909907C0B00205C0B00208004089079
:105710008804089044110120740B0020640B0020C1
:105720006C0B00208C0B0020540B0020840B0020FD
:10573000500B0020FFFF0F00610408909153009070
:1057400024000020E4000020F0B5C2F1FF05C1F301
:105750004514C0F3451348F281066C4301F01F075E
:10576000C1F3C42103FB02436F4380334D437343B2
:10577000C3F3C55400F01F03C0F3C42003FB02733E
:1057800000FB02528033803273437243C3F3C4532D
:10579000D00D43EA441343EAC020F0BD89B220F0A3
:1057A00099BC0000024B0180186803F054BE00BF92
:1057B000DC0B0020034B00221A70034B186803F027
:1057C00058BA00BFE00B0020DC0B002010B50B4CDA
:1057D0003C210B48236800680133B3FBF1F22360DE
:1057E00001FB1233074921F063FA074B21680122BC
:1057F0001868BDE810401DF021BF00BF340C002028
:10580000380C002061040890C40B002070B50446D9
:105810000D46164606F074FD29462046324606F02F
:1058200074FD32462946204606F060FD3246294680
:105830002046BDE8704006F05EBD0000014A002130
:1058400006F0DEB9FFFF0F005A3010B500B20C466B
:105850001AF022F943F6FF7104FB0010C01310BDCB
:1058600010B520F02BF8204B04461B68012B31D0DB
:10587000022B0AD09BB91D4920F02CF81C4B1D4A65
:105880001A604FF4DE721C4B08E01C4920F022F82D
:10589000174B1B4A1A6040F2FF32174B1A60204622
:1058A000002120F08FFC0023204609211A4603F036
:1058B00065FB00230C221349204601F029FC2046F9
:1058C0004FF4004102F067FB2046022102F02EFB5C
:1058D000204610BD0C491FF0FDFF054B0B4A1A6016
:1058E0004FF44372044BD9E7400C00209000002095
:1058F000C80B00202A050890D80B0020A800002023
:105900006A2B08905D6900909C0000200A130890A3
:1059100009B203F04ABA0022C9B206F039BD00004C
:1059200038B5194B1C781CB1BDE8384003F093BD65
:10593000164D296003F08FFD154A2B68126832F866
:1059400033100C291BD9134D2A689A1A052A0DD930
:1059500011482B6002680132012A026006D90F4A01
:10596000046013600E4A1368013313600D4B01F598
:105970008071186889B2BDE8384020F0ABBB0329BC
:10598000F4D8094AEFE700BFE00B0020CC0B002061
:10599000C80B002020010020A40B0020D40B002005
:1059A0009C0B0020940B0020A00B00202DE9F04759
:1059B000644B002492B007461C602246624B21468D
:1059C000624E1C60624B1C60624B18681DF036FE14
:1059D000614B6249186821F00BF93568BD4200F04F
:1059E000A38028462146FFF7EDFC012138463760A9
:1059F000FFF7E8FC5A4B30684FF4FA79D3F800808F
:105A0000FFF79EFC01460135404621F0F1F8554B69
:105A10003068D3F80080FFF79DFC0146404621F036
:105A2000E7F8514B3068D3F80080FFF79DFC4F4EEC
:105A300001464046DFF8508121F0DAF801A818F05D
:105A4000F1FF306846222146019005F009FEC0B200
:105A50000B94CDF80880CDF83090CDE9090001A86D
:105A600019F02AF801A818F0DDFF3368CDF830905E
:105A700001933F4B08930323B5FBF3F303EB43037D
:105A8000ED1ABD423546464651D118F059FE18F080
:105A90005DFE00EBD07040104042CDE90944354B2B
:105AA0004FF4FA770B9001A802930024324B4FF485
:105AB0008078DFF8D8A06FF06309049318F0FCFF3A
:105AC0002E4B01A80C9708932B68CDF808A00193E2
:105AD000802304940B93CDE9098818F0EDFF284B3F
