:020000040800F2
:10000000000002206D430008BD400008C140000808
:10001000C5400008C9400008CD40000800000000AD
:1000200000000000000000000000000011C90008EE
:10003000D140000800000000D1C90008FD9B000865
:10004000BD430008BD430008BD430008BD43000890
:10005000BD430008BD430008BD430008BD43000880
:10006000BD430008BD430008BD430008BD43000870
:10007000BD430008BD430008BD430008BD43000860
:10008000BD430008BD430008BD430008BD43000850
:10009000BD430008BD430008BD430008BD43000840
:1000A000BD430008BD430008BD430008BD43000830
:1000B000BD430008BD430008BD430008BD43000820
:1000C000BD430008BD430008BD430008BD43000810
:1000D000BD430008BD430008BD430008BD43000800
:1000E000BD430008BD43000800000000BD430008F8
:1000F000BD430008BD430008BD430008BD430008E0
:10010000BD430008BD430008BD430008BD430008CF
:10011000BD430008BD430008D5400008ED4000087D
:10012000BD430008BD430008BD430008BD430008AF
:10013000BD430008BD430008BD430008BD4300089F
:1001400000000000000000000000000000000000AF
:10015000BD430008BD430008BD430008BD4300087F
:10016000BD430008BD430008BD430008BD4300086F
:10017000BD430008BD430008BD430008BD4300085F
:10018000BD430008BD430008BD430008BD4300084F
:10019000BD430008BD430008BD430008BD4300083F
:1001A000BD430008BD430008F9400008BD430008F6
:1001B000BD430008BD430008BD430008BD4300081F
:1001C000BD430008BD430008BD430008BD4300080F
:1001D000BD43000805410008BD430008BD430008B9
:1001E000BD430008BD430008BD430008BD430008EF
:1001F000BD430008BD430008BD430008BD430008DF
:10020000BD430008BD430008BD430008BD430008CE
:10021000BD430008BD430008BD430008BD430008BE
:10022000BD430008BD430008BD43000800000000B6
:10023000BD430008BD43000800000000BD430008A6
:10024000BD430008BD430008BD430008BD4300088E
:10025000BD430008BD430008BD430008BD4300087E
:10026000BD430008BD430008BD430008BD4300086E
:10027000BD430008BD430008BD4300080000000066
:10028000BD430008BD430008BD4300080000000056
:0802900000000000BD4300085E
:1002A00010B5054C237833B9044B13B10448AFF3B0
:1002B00000800123237010BDF00600200000000024
:1002C000B441010808B5034B1BB103490348AFF320
:1002D000008008BD00000000F4060020B4410108C1
:1002E00001F0FF01102A2BDB10F0070F08D010F8E7
:1002F000013B013A8B422DD010F0070F42B3F6D1EB
:10030000F0B441EA012141EA014122F007047FF003
:1003100000070023F0E80256083C85EA010586EA5A
:10032000010685FA47F5A3FA87F586FA47F6A5FA96
:1003300087F68EB9EED1F0BC01F0FF0102F00702A2
:1003400032B110F8013B013A83EA010313B1F8D14D
:100350000020704701387047002D06BF354603382E
:10036000073815F0010F07D1013015F4807F02BF67
:10037000013015F4C03F0130F0BC0138704700BFB8
:10038000034613F8012B002AFBD1181A01387047D5
:1003900081F0004102E000BF83F0004330B54FEA36
:1003A00041044FEA430594EA050F08BF90EA020FA3
:1003B0001FBF54EA000C55EA020C7FEA645C7FEA36
:1003C000655C00F0E2804FEA5454D4EB5555B8BF59
:1003D0006D420CDD2C4480EA020281EA030382EACA
:1003E000000083EA010180EA020281EA0303362D5C
:1003F00088BF30BD11F0004F4FEA01314FF4801C2F
:100400004CEA113102D0404261EB410113F0004F40
:100410004FEA03334CEA133302D0524263EB4303F7
:1004200094EA050F00F0A780A4F10104D5F1200E95
:100430000DDB02FA0EFC22FA05F2801841F10001F0
:1004400003FA0EF2801843FA05F359410EE0A5F1C4
:1004500020050EF1200E012A03FA0EFC28BF4CF0F5
:10046000020C43FA05F3C01851EBE37101F00045AB
:1004700007D54FF0000EDCF1000C7EEB00006EEBB8
:100480000101B1F5801F1BD3B1F5001F0CD3490842
:100490005FEA30004FEA3C0C04F101044FEA445299
:1004A00012F5800F80F09A80BCF1004F08BF5FEA20
:1004B000500C50F1000041EB045141EA050130BD00
:1004C0005FEA4C0C404141EB0101013C28BFB1F512
:1004D000801FE9D291F0000F04BF01460020B1FA5D
:1004E00081F308BF2033A3F10B03B3F120020CDA30
:1004F0000C3208DD02F1140CC2F10C0201FA0CF00E
:1005000021FA02F10CE002F11402D8BFC2F1200C72
:1005100001FA02F120FA0CFCDCBF41EA0C01904028
:10052000E41AA2BF01EB0451294330BD6FEA040471
:100530001F3C1CDA0C340EDC04F11404C4F120025C
:1005400020FA04F001FA02F340EA030021FA04F36E
:1005500045EA030130BDC4F10C04C4F1200220FAC5
:1005600002F001FA04F340EA0300294630BD21FA03
:1005700004F0294630BD94F0000F83F4801306BFC9
:1005800081F480110134013D4EE77FEA645C18BFBD
:100590007FEA655C29D094EA050F08BF90EA020F54
:1005A00005D054EA000C04BF1946104630BD91EA4C
:1005B000030F1EBF0021002030BD5FEA545C05D14F
:1005C0004000494128BF41F0004130BD14F580048E
:1005D0003CBF01F5801130BD01F0004545F0FE4102
:1005E00041F470014FF0000030BD7FEA645C1ABF37
:1005F000194610467FEA655C1CBF0B46024650EA6E
:10060000013406BF52EA033591EA030F41F4002199
:1006100030BD00BF90F0000F04BF0021704730B51F
:100620004FF4806404F132044FF000054FF00001F4
:1006300050E700BF90F0000F04BF0021704730B5B5
:100640004FF4806404F1320410F0004548BF40428A
:100650004FF000013EE700BF42004FEAE2014FEADF
:1006600031014FEA02701FBF12F07F4393F07F4FBA
:1006700081F06051704732F07F4208BF704793F0BD
:100680007F4F04BF41F40021704730B54FF46074D0
:1006900001F0004521F000411CE700BF50EA0102D3
:1006A00008BF704730B54FF000050AE050EA01027C
:1006B00008BF704730B511F0004502D5404261EBEC
:1006C00041014FF4806404F132045FEA915C3FF42D
:1006D000D8AE4FF003025FEADC0C18BF03325FEACA
:1006E000DC0C18BF033202EBDC02C2F1200300FA7B
:1006F00003FC20FA02F001FA03FE40EA0E0021FAA0
:1007000002F11444BDE600BF53B94AB9002908BF3D
:1007100000281CBF4FF0FF314FF0FF3000F0ACB9A4
:10072000ADF1080C6DE904CE00F03EF8DDF804E010
:10073000DDE9022304B0704708B502460B4643ECDE
:10074000172BB5EEC07BF1EE10FA03D4BDE80840DC
:1007500000F00AB8B1EE477B51EC170B00F004F83B
:10076000404261EB410108BD9FED0B6B41EC170B63
:100770009FED0B5B27EE066BBCEEC66BB8EE464BEF
:10078000A4EE457BFCEEC77B16EE101A17EE900A1E
:10079000704700BFAFF30080000000000000F03D94
:1007A000000000000000F0412DE9F047089D0446DC
:1007B0008E46002B4DD18A42944669D9B2FA82F214
:1007C00052B101FA02F3C2F1200120FA01F10CFA50
:1007D00002FC41EA030E94404FEA1C48210CBEFB88
:1007E000F8F61FFA8CF708FB16E341EA034306FB11
:1007F00007F199420AD91CEB030306F1FF3080F0A0
:100800001F81994240F21C81023E63445B1AA4B2EC
:10081000B3FBF8F008FB103344EA034400FB07F78E
:10082000A7420AD91CEB040400F1FF3380F00A81CF
:10083000A74240F207816444023840EA0640E41BC4
:1008400000261DB1D4400023C5E900433146BDE870
:10085000F0878B4209D9002D00F0EF800026C5E912
:10086000000130463146BDE8F087B3FA83F6002E2A
:100870004AD18B4202D3824200F2F980841A61EBA2
:10088000030301209E46002DE0D0C5E9004EDDE7C0
:1008900002B9FFDEB2FA82F2002A40F09280A1EBA8
:1008A0000C014FEA1C471FFA8CFE0126200CB1FBFD
:1008B000F7F307FB131140EA01410EFB03F08842F6
:1008C00008D91CEB010103F1FF3802D2884200F283
:1008D000CB804346091AA4B2B1FBF7F007FB101115
:1008E00044EA01440EFB00FEA64508D91CEB0404B3
:1008F00000F1FF3102D2A64500F2BB800846A4EB0E
:100900000E0440EA03409CE7C6F12007B34022FAF8
:1009100007FC4CEA030C20FA07F401FA06F31C4327
:10092000F9404FEA1C4900FA06F3B1FBF9F8200C34
:100930001FFA8CFE09FB181140EA014108FB0EF07A
:10094000884202FA06F20BD91CEB010108F1FF3ACA
:1009500080F08880884240F28580A8F102086144D6
:10096000091AA4B2B1FBF9F009FB101144EA0141E4
:1009700000FB0EFE8E4508D91CEB010100F1FF348F
:100980006CD28E456AD90238614440EA0840A0FB27
:100990000294A1EB0E01A142C846A64656D353D0FD
:1009A0005DB1B3EB080261EB0E0101FA07F722FA21
:1009B00006F3F1401F43C5E9007100263146BDE84A
:1009C000F087C2F12003D8400CFA02FC21FA03F3AD
:1009D000914001434FEA1C471FFA8CFEB3FBF7F02E
:1009E00007FB10360B0C43EA064300FB0EF69E4253
:1009F00004FA02F408D91CEB030300F1FF382FD2EC
:100A00009E422DD9023863449B1B89B2B3FBF7F693
:100A100007FB163341EA034106FB0EF38B4208D96C
:100A20001CEB010106F1FF3816D28B4214D9023EAD
:100A30006144C91A46EA004638E72E46284605E7CB
:100A40000646E3E61846F8E64B45A9D2B9EB02089C
:100A500064EB0C0E0138A3E74646EAE7204694E72C
:100A60004046D1E7D0467BE7023B614432E730465F
:100A700009E76444023842E7704700BF2DE9F041BE
:100A80000D46C2B01746002941D00023441E4FF046
:100A9000010C4FF0FF3698460EE0B34205D2BEF18E
:100AA0002A0F14BF8EEA080866460CF1010E654550
:100AB00003F10103F44628D914F801EFBEF13B0F0E
:100AC000EBD1B3F5807F01AC014628BF4FF48073B2
:100AD00020461D461A460EF0E1FBB5420BD90D49E2
:100AE000A0196A460FF022FE009B984502D042B042
:100AF000BDE8F081751E00233A462946204663551D
:100B00000CF0FCFD42B0BDE8F0812B46D9E701AC0A
:100B1000F1E700BF0C42010808B50122044B1A702E
:100B200000F0D4F84FF47A7009F0ECF8FAE700BF5F
:100B30001007002038B5084C084D4FF0FF312068F1
:100B400009F03EF90028F8D1284604F0C1F96520E3
:100B500003F0E0FCF1E700BF54090020D02C002096
:100B600010B5084C0021084A084809F081F8084AE5
:100B7000237810602BB9012009F0C4F82378002BEA
:100B8000F9D010BD100700201C420108190B000805
:100B90000C07002038B5044B1446186803681D681C
:100BA0000023A847204638BD100400204FF0FF3036
:100BB000704700BF2DE9F0410E4C0F4D0F4EDFF88E
:100BC00044800F4F4FF0FF31206809F0F9F80346D9
:100BD0000028F7D12A68317A01322A600029F1D041
:100BE00042463372D6E90001FFF748FF38460CF061
:100BF0007BFAE7E7580900202407002000040020C2
:100C0000DC19002030070020436870B50D4604460B
:100C10000A211868164609F0D3F818B10A4A9368F1
:100C200001339360B1B228460CF0A6FA20B9064A07
:100C300053680133536070BD6368186809F0F4F8B5
:100C40004FF0FF3070BD00BF24070020F8B54668A4
:100C5000144C33681B68A34216D173680F460A21EF
:100C60001546186809F0ACF848B9A9B238460CF036
:100C700083FA80B90C4A536801335360F8BD0A4ABD
:100C8000936801339360F0E730469847003818BF07
:100C900001204042F8BD7368186809F0C5F84FF0AC
:100CA000FF30F8BD090C00082407002030B4054BC4
:100CB0000446054D012228681A72C3E9004130BC80
:100CC00009F0B2B8000400205809002008B5044A11
:100CD0000021044808F0CCFF034B186008BD00BF9A
:100CE00070420108B50B00081807002010B4064B2D
:100CF000064A074C0748084953601160C3E90040A1
:100D00005DF8044B704700BF1C070020300700202F
:100D10004C4201085C09002058420108044B1A6843
:100D200002B17047012203481A600CF02BBF00BFCC
:100D30008807002038070020704700BF00B583B047
:100D400084464FF0FF3301220DF106010648ADF84D
:100D500006C006F001FF10B903B05DF804FB03F014
:100D60001FF803B05DF804FB580A002030B50022DC
:100D700083B005460C461848082103F0ABFE01205D
:100D800003F060FB4FF0FF3301220DF10601134821
:100D9000ADF8065006F0E0FEB8B944F480744FF0A8
:100DA000FF3301220DF106010C48ADF8064006F0B4
:100DB000D3FE68B9012003F045FB01220821064853
:100DC00003B0BDE8304003F085BE02F0E9FFE4E780
:100DD00002F0E6FFEEE700BF00180258580A0020B4
:100DE00000B5012283B04FF48071ED4803F072FE2C
:100DF0000A2003F027FB00224FF48071E84803F03B
:100E000069FE142003F01EFB01224FF48071E448B8
:100E100003F060FE782003F015FB3021FF20FFF780
:100E2000A5FF5221FF20FFF7A1FF0121FF20FFF7BF
:100E30009DFF0021E320FFF799FF01210A20FFF722
:100E400095FFA0212320FFF791FF0F212420FFF71A
:100E50008DFF14212520FFF789FF2E212620FFF783
:100E600085FF2E212720FFF781FF02212920FFF790
:100E70007DFFCF212A20FFF779FF34213220FFF7B1
:100E800075FF9C213820FFF771FFA7213920FFF75C
:100E90006DFF4F213A20FFF769FF94213B20FFF7B8
:100EA00065FF07214020FFF761FF6D214220FFF71A
:100EB0005DFF83214320FFF759FF00218120FFF7C9
:100EC00055FF57219120FFF751FF57219220FFF73F
:100ED0004DFF5221A020FFF749FF5021A120FFF72D
:100EE00045FF9C21A420FFF741FF0221A720FFF727
:100EF0003DFF0221A820FFF739FF0221A920FFF7BB
:100F000035FFA821AA20FFF731FF2821AB20FFF7EA
:100F10002DFFD221AE20FFF729FF0221AF20FFF7DE
:100F200025FFD221B020FFF721FF2621B220FFF7B5
:100F30001DFF2621B320FFF719FF3021FF20FFF707
:100F400015FF5221FF20FFF711FF0221FF20FFF7BD
:100F50000DFF0221B020FFF709FF3121B120FFF77B
:100F600005FF2421B220FFF701FF3021B320FFF756
:100F7000FDFE3821B420FFF7F9FE3E21B520FFF732
:100F8000F5FE2621B620FFF7F1FE3E21B720FFF740
:100F9000EDFE0A21B820FFF7E9FE0021B920FFF796
:100FA000E5FE1121BA20FFF7E1FE1121BB20FFF77A
:100FB000DDFE1321BC20FFF7D9FE0022082179486D
:100FC00003F088FD012003F03DFABD204FF0FF3310
:100FD0000122ADF806000DF10601734806F0BCFDD4
:100FE000002841F06B864FF48A704FF0FF330122E6
:100FF0000DF10601ADF806006B4806F0ADFD0028C6
:1010000042F0A080012003F01DFA0122082165486A
:1010100003F060FD00220821624803F05BFD01201F
:1010200003F010FABE204FF0FF330122ADF80600A6
:101030000DF106015C4806F08FFD002842F07E802D
:101040004FF48C704FF0FF3301220DF10601ADF823
:101050000600554806F080FD002842F06B80012014
:1010600003F0F0F9012208214E4803F033FD00227D
:1010700008214C4803F02EFD012003F0E3F9BF20C6
:101080004FF0FF330122ADF806000DF1060146488E
:1010900006F062FD002842F0498040F211104FF046
:1010A000FF3301220DF10601ADF806003E4806F0BF
:1010B00053FD002842F03680012003F0C3F90122DD
:1010C0000821384803F006FD1621C020FFF74EFE28
:1010D00000220821334803F0FDFC012003F0B2F99F
:1010E000C1204FF0FF330122ADF806000DF10601DB
:1010F0002D4806F031FD002842F010804FF480703A
:101100004FF0FF3301220DF10601ADF8060026482D
:1011100006F022FD002841F0FD87012003F092F93E
:10112000012208211F4803F0D5FC002208211D4898
:1011300003F0D0FC012003F085F9D0204FF0FF33FD
:101140000122ADF806000DF10601174806F004FD76
:10115000002841F0DB8740F205104FF0FF330122F9
:101160000DF10601ADF806000F4806F0F5FC002869
:1011700041F0C887012003F065F9012208210948E0
:1011800003F0A8FC00220821064803F0A3FC01207C
:1011900003F058F9D1204FF0FF33012206E000BFE1
:1011A0000020025800180258580A0020ADF8060026
:1011B0000DF10601E04806F0CFFC002841F09E87C3
:1011C0004FF498704FF0FF3301220DF10601ADF896
:1011D0000600D94806F0C0FC002841F08B870120AA
:1011E00003F030F901220821D44803F073FC2521D3
:1011F000D220FFF7BBFD00220821D04803F06AFC93
:10120000012003F01FF9D3204FF0FF330122ADF886
:1012100006000DF10601C84806F09EFC002841F0CA
:10122000658740F235104FF0FF3301220DF10601C2
:10123000ADF80600C04806F08FFC002841F0528748
:10124000012003F0FFF801220821BC4803F042FC12
:1012500000220821B94803F03DFC012003F0F2F818
:10126000D4204FF0FF330122ADF806000DF1060146
:10127000B14806F071FC002841F030874FF49A70B5
:101280004FF0FF3301220DF10601ADF80600AA4828
:1012900006F062FC002841F01D87012003F0D2F81F
:1012A00001220821A54803F015FC00220821A348CB
:1012B00003F010FC012003F0C5F8D5204FF0FF33F8
:1012C0000122ADF806000DF106019B4806F044FC32
:1012D000002841F0FB8640F23B104FF0FF33012223
:1012E0000DF10601ADF80600934806F035FC002824
:1012F00041F0E886012003F0A5F8012208218F487B
:1013000003F0E8FB2621D620FFF730FD002208215C
:101310008A4803F0DFFB012003F094F8D7204FF058
:10132000FF330122ADF806000DF10601824806F0F8
:1013300013FC002841F0C28640F23D104FF0FF330D
:1013400001220DF10601ADF806007B4806F004FC11
:10135000002841F0AF86012003F074F80122082133
:10136000764803F0B7FB00220821744803F0B2FB73
:10137000012003F067F8D8204FF0FF330122ADF8C9
:1013800006000DF106016C4806F0E6FB002841F06E
:101390008D864FF485704FF0FF3301220DF1060169
:1013A000ADF80600644806F0D7FB002841F07A86C5
:1013B000012003F047F801220821604803F08AFB6E
:1013C000002208215D4803F085FB012003F03AF874
:1013D000D9204FF0FF330122ADF806000DF10601D0
:1013E000554806F0B9FB002841F058864FF480704C
:1013F0004FF0FF3301220DF10601ADF806004E4813
:1014000006F0AAFB002841F04586012003F01AF8F7
:1014100001220821494803F05DFB1221DA20FFF781
:10142000A5FC00220821454803F054FB012003F0ED
:1014300009F8DB204FF0FF330122ADF806000DF173
:1014400006013D4806F088FB002841F01F864FF456
:1014500088704FF0FF3301220DF10601ADF8060050
:10146000354806F079FB002841F00C86012002F097
:10147000E9FF01220821314803F02CFB002208215A
:101480002E4803F027FB012002F0DCFFDC204FF0A8
:10149000FF330122ADF806000DF10601264806F0E3
:1014A0005BFB002841F0EA854FF489704FF0FF3371
:1014B00001220DF10601ADF806001F4806F04CFBB5
:1014C000002841F0D785012002F0BCFF012208214D
:1014D0001A4803F0FFFA00220821184803F0FAFA2C
:1014E000012002F0AFFFDD204FF0FF330122ADF805
:1014F00006000DF10601104806F02EFB002841F011
:10150000B5854FF48A704FF0FF3301220DF10601CB
:10151000ADF80600084806F01FFB002841F0A28540
:10152000012002F08FFF01220821044803F0D2FAC3
:101530001821DE2004E000BF580A002000180258DD
:10154000FFF714FC00220821DD4803F0C3FA012054
:1015500002F078FFDF204FF0FF330122ADF80600E4
:101560000DF10601D74806F0F7FA002841F076851C
:1015700040F211104FF0FF3301220DF10601ADF8DA
:101580000600D04806F0E8FA002841F06385012003
:1015900002F058FF01220821C94803F09BFA0022FB
:1015A0000821C74803F096FA012002F04BFFE02023
:1015B0004FF0FF330122ADF806000DF10601C148DE
:1015C00006F0CAFA002841F0418540F215104FF0AC
:1015D000FF3301220DF10601ADF80600B94806F00F
:1015E000BBFA002841F02E85012002F02BFF0122DA
:1015F0000821B34803F06EFA00220821B04803F036
:1016000069FA012002F01EFFE1204FF0FF330122B2
:10161000ADF806000DF10601AA4806F09DFA002873
:1016200041F00C854FF480704FF0FF3301220DF133
:101630000601ADF80600A34806F08EFA002841F036
:10164000F984012002F0FEFE012208219C4803F0EB
:1016500041FA3021FF20FFF789FB0022082198483A
:1016600003F038FA012002F0EDFEFF204FF0FF33C7
:101670000122ADF806000DF10601924806F06CFA61
:10168000002841F0D3844FF4A9704FF0FF330122BA
:101690000DF10601ADF806008A4806F05DFA002853
:1016A00041F0C084012002F0CDFE012208218448CF
:1016B00003F010FA00220821814803F00BFA012000
:1016C00002F0C0FEFF204FF0FF330122ADF806000C
:1016D0000DF106017B4806F03FFA002841F09E8498
:1016E00040F203104FF0FF3301220DF10601ADF877
:1016F0000600744806F030FA002841F08B8401207F
:1017000002F0A0FE012208216D4803F0E3F9002257
:1017100008216B4803F0DEF9012002F093FE00205F
:101720004FF0FF330122ADF806000DF106016548C8
:1017300006F012FA002841F069844FF480704FF0EF
:10174000FF3301220DF10601ADF806005D4806F0F9
:1017500003FA002841F05684012002F073FE0122B2
:101760000821574803F0B6F900220821544803F035
:10177000B1F9012002F066FE01224FF0FF330DF1B6
:1017800006015048ADF8062006F0E6F9002841F0C1
:1017900035844FF480704FF0FF3301220DF10601C4
:1017A000ADF80600474806F0D7F9002841F022843A
:1017B000012002F047FE01220821414803F08AF986
:1017C000002208213E4803F085F9012002F03AFE8C
:1017D00002204FF0FF330122ADF806000DF10601A3
:1017E000384806F0B9F9002841F000844FF48070C1
:1017F0004FF0FF3301220DF10601ADF8060031482C
:1018000006F0AAF9002841F0ED83012002F01AFE4B
:10181000012208212A4803F05DF900220821284806
:1018200003F058F9012002F00DFE03204FF0FF33C2
:101830000122ADF806000DF10601224806F08CF9F0
:10184000002841F0CB834FF480704FF0FF3301222A
:101850000DF10601ADF806001A4806F07DF90028E2
:1018600041F0B883012002F0EDFD01220821144867
:1018700003F030F900220821114803F02BF9012070
:1018800002F0E0FD08204FF0FF330122ADF8060022
:101890000DF106010B4806F05FF9002841F0968330
:1018A00040F20D104FF0FF3301220DF10601ADF8AB
:1018B0000600044806F050F9002841F0838303E055
:1018C00000180258580A0020012002F0BBFD012236
:1018D0000821DD4803F0FEF80E210920FFF746FA43
:1018E00000220821D84803F0F5F8012002F0AAFDF3
:1018F0000A204FF0FF330122ADF806000DF106017A
:10190000D24806F029F9002841F0588340F20F1020
:101910004FF0FF3301220DF10601ADF80600CB4870
:1019200006F01AF9002841F04583012002F08AFDF3
:1019300001220821C44803F0CDF800220821C24842
:1019400003F0C8F8012002F07DFD0B204FF0FF33BB
:101950000122ADF806000DF10601BC4806F0FCF8C6
:10196000002841F023834FF488704FF0FF330122A9
:101970000DF10601ADF80600B44806F0EDF80028B8
:1019800041F01083012002F05DFD01220821AE48E4
:1019900003F0A0F800220821AB4803F09BF80120D7
:1019A00002F050FD20204FF0FF330122ADF8060079
:1019B0000DF10601A54806F0CFF8002841F0EE82AF
:1019C0004FF480704FF0FF3301220DF10601ADF8A6
:1019D00006009E4806F0C0F8002841F0DB82012096
:1019E00002F030FD01220821974803F073F800212E
:1019F0002120FFF7BBF900220821934803F06AF881
:101A0000012002F01FFD22204FF0FF330122ADF82C
:101A100006000DF106018D4806F09EF8002841F001
:101A2000B5824FF480704FF0FF3301220DF10601B3
:101A3000ADF80600854806F08FF8002841F0A28234
:101A4000012002F0FFFC012208217F4803F042F848
:101A5000002208217C4803F03DF8012002F0F2FC4E
:101A600023204FF0FF330122ADF806000DF10601EF
:101A7000764806F071F8002841F080824FF48070BB
:101A80004FF0FF3301220DF10601ADF806006F485B
:101A900006F062F8002841F06D82012002F0D2FCCD
:101AA00001220821684803F015F800220821664841
:101AB00003F010F8012002F0C5FC28204FF0FF339E
:101AC0000122ADF806000DF10601604806F044F869
:101AD000002841F04B824FF491704FF0FF33012208
:101AE0000DF10601ADF80600584806F035F800285B
:101AF00041F03882012002F0A5FC01220821524861
:101B000002F0E8FFE9212A20FFF730F9002208213E
:101B10004D4802F0DFFF012002F094FC2B204FF033
:101B2000FF330122ADF806000DF10601474806F02B
:101B300013F8002841F0128240F2E9104FF0FF3311
:101B400001220DF10601ADF80600404806F004F848
:101B5000002841F0FF81012002F074FC01220821DD
:101B6000394802F0B7FF00220821374802F0B2FFDF
:101B7000012002F067FC30204FF0FF330122ADF866
:101B800006000DF10601314805F0E6FF002841F09E
:101B9000DD814FF480704FF0FF3301220DF106011B
:101BA000ADF80600294805F0D7FF002841F0CA81AA
:101BB000012002F047FC01220821234802F08AFF9D
:101BC00000220821204802F085FF012002F03AFCA3
:101BD00031204FF0FF330122ADF806000DF1060170
:101BE0001A4805F0B9FF002841F0A8814FF4807031
:101BF0004FF0FF3301220DF10601ADF80600134846
:101C000005F0AAFF002841F09581012002F01AFC9E
:101C1000012208210C4802F05DFF002208210A4839
:101C200002F058FF012002F00DFC32204FF0FF338C
:101C30000122ADF806000DF10601044805F08CFF05
:101C4000002841F0738103E000180258580A002070
:101C50004FF480704FF0FF3301220DF10601ADF813
:101C60000600E04805F078FF002841F05B81012084
:101C700002F0E8FB01220821DB4802F02BFF0022E2
:101C80000821D94802F026FF012002F0DBFB3320B7
:101C90004FF0FF330122ADF806000DF10601D148E7
:101CA00005F05AFF002841F039814FF480704FF061
:101CB000FF3301220DF10601ADF80600C94805F019
:101CC0004BFF002841F02681012002F0BBFB0122DE
:101CD0000821C54802F0FEFE00220821C24802F099
:101CE000F9FE012002F0AEFB34204FF0FF33012259
:101CF000ADF806000DF10601BA4805F02DFF0028E9
:101D000041F0048140F201104FF0FF3301220DF148
:101D10000601ADF80600B34805F01EFF002841F0AB
:101D2000F180012002F08EFB01220821AE4802F072
:101D3000D1FE00220821AC4802F0CCFE012002F0C6
:101D400081FB35204FF0FF330122ADF806000DF185
:101D50000601A44805F000FF002841F0CF804FF4B1
:101D600080704FF0FF3301220DF10601ADF806003F
:101D70009C4805F0F1FE002841F0BC80012002F0F3
:101D800061FB01220821984802F0A4FE00213620C0
:101D9000FEF7ECFF00220821934802F09BFE012091
:101DA00002F050FB37204FF0FF330122ADF8060060
:101DB0000DF106018B4805F0CFFE002841F096801A
:101DC00040F203104FF0FF3301220DF10601ADF890
:101DD0000600844805F0C0FE002841F08380012001
:101DE00002F030FB012208217F4802F073FE00223E
:101DF00008217D4802F06EFE012002F023FB402006
:101E00004FF0FF330122ADF806000DF106017548D1
:101E100005F0A2FE002841F061804FF485704FF07C
:101E2000FF3301220DF10601ADF806006D4805F003
:101E300093FE002841F04E80012002F003FB0122B6
:101E40000821694802F046FE00220821664802F097
:101E500041FE012002F0F6FA41204FF0FF3301224B
:101E6000ADF806000DF106015E4805F075FE00288C
:101E700041F02C8040F20B104FF0FF3301220DF1A6
:101E80000601ADF80600574805F066FE002841F04F
:101E90001980012002F0D6FA01220821524802F0EE
:101EA00019FE0C214220FEF761FF002208214E4856
:101EB00002F010FE012002F0C5FA43204FF0FF337C
:101EC0000122ADF806000DF10601464805F044FE7A
:101ED000002840F0F38740F20D104FF0FF3301224D
:101EE0000DF10601ADF806003E4805F035FE00286C
:101EF00040F0E087012002F0A5FA012208213A48CB
:101F000002F0E8FD00220821374802F0E3FD01203D
:101F100002F098FA44204FF0FF330122ADF806009A
:101F20000DF106012F4805F017FE002840F0BE878E
:101F30004FF491704FF0FF3301220DF10601ADF81F
:101F40000600284805F008FE002840F0AB87012075
:101F500002F078FA01220821234802F0BBFD00229A
:101F60000821214802F0B6FD012002F06BFA45205D
:101F70004FF0FF330122ADF806000DF106011948BC
:101F800005F0EAFD002840F089874FF4F2704FF029
:101F9000FF3301220DF10601ADF80600114805F0EE
:101FA000DBFD002840F07687012002F04BFA012289
:101FB00008210D4802F08EFDE5214620FEF7D6FEF1
:101FC00000220821084802F085FD012002F03AFABB
:101FD00047204FF0FF330122ADF806000DF1060156
:101FE00004E000BF580A002000180258DF4805F03E
:101FF000B3FD002840F04A874FF491704FF0FF3353
:1020000001220DF10601ADF80600D84805F0A4FD47
:10201000002840F03787012002F014FA012208213D
:10202000D34802F057FD00220821D14802F052FDAA
:10203000012002F007FA48204FF0FF330122ADF8EB
:1020400006000DF10601C94805F086FD002840F0A4
:1020500015874FF4F3704FF0FF3301220DF10601A5
:10206000ADF80600C14805F077FD002840F0028772
:10207000012002F0E7F901220821BD4802F02AFD03
:1020800000220821BA4802F025FD012002F0DAF909
:1020900049204FF0FF330122ADF806000DF1060193
:1020A000B24805F059FD002840F0E08640F2E71004
:1020B0004FF0FF3301220DF10601ADF80600AB48E9
:1020C00005F04AFD002840F0CD86012002F0BAF963
:1020D00001220821A64802F0FDFC00220821A448A4
:1020E00002F0F8FC012002F0ADF950204FF0FF3370
:1020F0000122ADF806000DF106019C4805F02CFD0B
:10210000002840F0AB864FF487704FF0FF33012278
:102110000DF10601ADF80600944805F01DFD0028FC
:1021200040F09886012002F08DF9012208219048A4
:1021300002F0D0FC002208218D4802F0CBFC0120E7
:1021400002F080F951204FF0FF330122ADF8060074
:102150000DF10601854805F0FFFC002840F0768669
:1021600040F20F104FF0FF3301220DF10601ADF8E0
:1021700006007E4805F0F0FC002840F06386012050
:1021800002F060F901220821794802F0A3FC002244
:102190000821774802F09EFC012002F053F95220FA
:1021A0004FF0FF330122ADF806000DF106016F4834
:1021B00005F0D2FC002840F041864FF488704FF0C3
:1021C000FF3301220DF10601ADF80600674805F066
:1021D000C3FC002840F02E86012002F033F90122D2
:1021E0000821634802F076FC00220821604802F0D2
:1021F00071FC012002F026F953204FF0FF33012239
:10220000ADF806000DF10601584805F0A5FC0028C0
:1022100040F00C8640F211104FF0FF3301220DF117
:102220000601ADF80600514805F096FC002840F084
:10223000F985012002F006F9012208214C4802F03C
:1022400049FC22215420FEF791FDE8215520FEF79C
:102250008DFDE9215620FEF789FD00220821444822
:1022600002F038FC012002F0EDF857204FF0FF3368
:102270000122ADF806000DF106013C4805F06CFCAA
:10228000002840F0CB854FF491704FF0FF330122CE
:102290000DF10601ADF80600344805F05DFC00289C
:1022A00040F0B885012002F0CDF801220821304825
:1022B00002F010FCEA215820FEF758FD0022082108
:1022C0002B4802F007FC012002F0BCF859204FF027
:1022D000FF330122ADF806000DF10601234805F099
:1022E0003BFC002840F08E8540F2EB104FF0FF33AE
:1022F00001220DF10601ADF806001C4805F02CFC8A
:10230000002840F07B85012002F09CF80122082182
:10231000174802F0DFFB05216020FEF727FD0022B1
:102320000821134802F0D6FB012002F08BF861204F
:102330004FF0FF330122ADF806000DF106010B4806
:1023400005F00AFC002840F0558540F205104FF0DA
:10235000FF3301220DF10601ADF80600034805F038
:10236000FBFB002840F0428504E000BF580A002033
:1023700000180258012002F065F801220821E24805
:1023800002F0A8FB0A216520FEF7F0FC0A21662076
:10239000FEF7ECFC05218020FEF7E8FC0022082176
:1023A000D94802F097FB012002F04CF881204FF051
:1023B000FF330122ADF806000DF10601D34805F008
:1023C000CBFB002840F00E854FF480704FF0FF33B8
:1023D00001220DF10601ADF80600CC4805F0BCFB6A
:1023E000002840F0FB84012002F02CF80122082193
:1023F000C54802F06FFB02218220FEF7B7FC0022E5
:102400000821C14802F066FB012002F01BF883207E
:102410004FF0FF330122ADF806000DF10601BB4875
:1024200005F09AFB002840F0D5844FF482704FF0FD
:10243000FF3301220DF10601ADF80600B34805F0A7
:102440008BFB002840F0C284012001F0FBFF012239
:102450000821AD4802F03EFB00218420FEF786FCF7
:1024600000220821A84802F035FB012001F0EAFF14
:1024700085204FF0FF330122ADF806000DF1060173
:10248000A24805F069FB002840F09C844FF480705E
:102490004FF0FF3301220DF10601ADF806009B4815
:1024A00005F05AFB002840F08984012001F0CAFFA2
:1024B00001220821944802F00DFB1F218620FEF71F
:1024C00055FC1F218720FEF751FC0A218820FEF7CA
:1024D0004DFC002208218C4802F0FCFA012001F09A
:1024E000B1FF89204FF0FF330122ADF806000DF156
:1024F0000601864805F030FB002840F05B844FF46D
:1025000086704FF0FF3301220DF10601ADF8060091
:102510007E4805F021FB002840F04884012001F0AE
:1025200091FF01220821784802F0D4FA0E218A2076
:10253000FEF71CFC00220821734802F0CBFA0120B0
:1025400001F080FF8B204FF0FF330122ADF8060031
:102550000DF106016D4805F0FFFA002840F02284D5
:102560004FF488704FF0FF3301220DF10601ADF8F2
:102570000600664805F0F0FA002840F00F840120BC
:1025800001F060FF012208215F4802F0A3FA052153
:102590009620FEF7EBFB002208215B4802F09AFA36
:1025A000012001F04FFF97204FF0FF330122ADF8DB
:1025B00006000DF10601554805F0CEFA002840F05E
:1025C000EA834FF480704FF0FF3301220DF10601D2
:1025D000ADF806004D4805F0BFFA002840F0D8835A
:1025E000012001F02FFF01220821474802F072FA72
:1025F00001219820FEF7BAFB00220821424802F090
:1026000069FA012001F01EFF99204FF0FF330122EB
:10261000ADF806000DF106013C4805F09DFA0028D2
:1026200040F0B38340F203104FF0FF3301220DF16D
:102630000601ADF80600354805F08EFA002840F096
:10264000A183012001F0FEFE012208212E4802F0A4
:1026500041FA00219A20FEF789FB002208212A482E
:1026600002F038FA012001F0EDFE9B204FF0FF331D
:102670000122ADF806000DF10601244805F06CFAC0
:10268000002840F07C834FF480704FF0FF3301222C
:102690000DF10601ADF806001C4805F05DFA0028B2
:1026A00040F06A83012001F0CDFE01220821164886
:1026B00002F010FA1F219C20FEF758FB002208218F
:1026C000114802F007FA012001F0BCFE9D204FF0F6
:1026D000FF330122ADF806000DF106010B4805F0AD
:1026E0003BFA002840F0458340F21F104FF0FF33C3
:1026F00001220DF10601ADF80600044805F02CFAA0
:10270000002840F0338303E000180258580A0020E4
:10271000012001F097FE01220821DF4802F0DAF9DA
:1027200009219E20FEF722FB00220821DA4802F050
:10273000D1F9012001F086FE9F204FF0FF330122E6
:10274000ADF806000DF10601D44805F005FA0028A1
:1027500040F0098340F20B104FF0FF3301220DF1DE
:102760000601ADF80600CD4805F0F6F9002840F066
:10277000F782012001F066FE01220821C64802F01E
:10278000A9F90D21A020FEF7F1FA0F21A120FEF7F3
:10279000EDFA0521B020FEF7E9FA00220821BE4833
:1027A00002F098F9012001F04DFEB1204FF0FF3307
:1027B0000122ADF806000DF10601B84805F0CCF98C
:1027C000002840F0CA8240F21F104FF0FF33012270
:1027D0000DF10601ADF80600B04805F0BDF900287E
:1027E00040F0B882012001F02DFE01220821AA4804
:1027F00002F070F90321B220FEF7B8FA0022082196
:10280000A54802F067F9012001F01CFEB3204FF04B
:10281000FF330122ADF806000DF106019F4805F0D7
:102820009BF9002840F0938240F201104FF0FF33F3
:1028300001220DF10601ADF80600984805F08CF96B
:10284000002840F08182012001F0FCFD01220821D6
:10285000914802F03FF90021B420FEF787FA0022E8
:1028600008218D4802F036F9012001F0EBFDB5207A
:102870004FF0FF330122ADF806000DF10601874845
:1028800005F06AF9002840F05C824FF480704FF048
:10289000FF3301220DF10601ADF806007F4805F077
:1028A0005BF9002840F04A82012001F0CBFD0122B3
:1028B0000821794802F00EF91F21B620FEF756FADA
:1028C0000021B720FEF752FA0F21B820FEF74EFA8A
:1028D00000220821704802F0FDF8012001F0B2FD4D
:1028E000B9204FF0FF330122ADF806000DF10601CB
:1028F0006A4805F031F9002840F01D8240F20D10C1
:102900004FF0FF3301220DF10601ADF806006348D8
:1029100005F022F9002840F00B82012001F092FD21
:10292000012208215C4802F0D5F80B21BA20FEF7FD
:102930001DFA00220821584802F0CCF8012001F0CD
:1029400081FDBB204FF0FF330122ADF806000DF1F1
:102950000601524805F000F9002840F0E68140F2F7
:1029600009104FF0FF3301220DF10601ADF806000A
:102970004A4805F0F1F8002840F0D481012001F028
:1029800061FD01220821444802F0A4F80521C62077
:10299000FEF7ECF9002208213F4802F09BF80120E5
:1029A00001F050FDC7204FF0FF330122ADF80600C3
:1029B0000DF10601394805F0CFF8002840F0AF814D
:1029C00040F21F104FF0FF3301220DF10601ADF868
:1029D0000600324805F0C0F8002840F09D81012033
:1029E00001F030FD012208212B4802F073F8042188
:1029F000C820FEF7BBF90221C920FEF7B7F9002174
:102A0000CA20FEF7B3F900220821234802F062F839
:102A1000012001F017FDCB204FF0FF330122ADF86C
:102A200006000DF106011D4805F096F8002840F05B
:102A300070814FF480704FF0FF3301220DF10601D9
:102A4000ADF80600154805F087F8002840F05E81D3
:102A5000012001F0F7FC012208210F4802F03AF8AA
:102A60001F21CC20FEF782F9002208210A4802F03B
:102A700031F8012001F0E6FCCD204FF0FF330122B8
:102A8000ADF806000DF10601044805F065F80028D0
:102A900040F0398104E000BF00180258580A0020B5
:102AA0004FF480704FF0FF3301220DF10601ADF8B5
:102AB0000600D64805F050F8002840F0218101209A
:102AC00001F0C0FC01220821D14802F003F81021D6
:102AD000CE20FEF74BF900220821CD4801F0FAFF85
:102AE000012001F0AFFCCF204FF0FF330122ADF801
:102AF00006000DF10601C54805F02EF8002840F04B
:102B0000FC804FF487704FF0FF3301220DF1060176
:102B1000ADF80600BD4805F01FF8002840F0EA8037
:102B2000012001F08FFC01220821B94801F0D2FFF9
:102B30000C21D020FEF71AF900220821B44801F038
:102B4000C9FF012001F07EFCD1204FF0FF330122AC
:102B5000ADF806000DF10601AC4804F0FDFF0028B9
:102B600040F0C5804FF485704FF0FF3301220DF126
:102B70000601ADF80600A54804F0EEFF002840F07D
:102B8000B380012001F05EFC01220821A04801F081
:102B9000A1FF3021FF20FEF7E9F8002208219C4820
:102BA00001F098FF012001F04DFCFF204FF0FF33B2
:102BB0000122ADF806000DF10601944804F0CCFFA7
:102BC000002840F08E804FF4A9704FF0FF330122AF
:102BD0000DF10601ADF806008C4804F0BDFF002899
:102BE0007CD1012001F02EFC01220821884801F04F
:102BF00071FF0021FF20FEF7B9F800220821844868
:102C000001F068FF012001F01DFC36204FF0FF337A
:102C10000122ADF806000DF106017C4804F09CFF8E
:102C2000002858D14FF485704FF0FF3301220DF189
:102C30000601ADF80600754804F08EFF002847D164
:102C4000012001F0FFFB01220821714801F042FF41
:102C500000211120FEF78AF8C82001F0F3FB0022C2
:102C600008216B4801F036FF012001F0EBFB292021
:102C70004FF0FF330122ADF806000DF10601634865
:102C800004F06AFF08BB4FF4807C4FF0FF33012251
:102C90000DF106015D48ADF806C004F05DFF88B98E
:102CA000012001F0CFFB5A480122082101F012FF58
:102CB000642003B05DF804EB01F0C4BB01F070F8D0
:102CC000FEF791B901F06CF8EAE701F069F8DAE78C
:102CD00001F066F8B4E701F063F8A3E701F060F8EB
:102CE0007FE701F05DF86EE701F05AF849E701F07F
:102CF00057F837E701F054F812E701F051F800E710
:102D000001F04EF8DBE601F04BF8C9E601F048F8B7
:102D10009EE601F045F88CE601F042F85FE601F02E
:102D20003FF84DE601F03CF828E601F039F816E6E8
:102D300001F036F8F1E501F033F8DFE501F030F8A5
:102D4000B2E501F02DF8A0E501F02AF87BE501F0ED
:102D500027F869E501F024F844E501F021F832E5AF
:102D600001F01EF805E501F01BF8F3E401F018F896
:102D7000CEE401F015F8B7E401F012F892E401F0A6
:102D80000FF880E401F00CF85BE401F009F849E485
:102D900001F006F824E401F003F812E401F000F871
:102DA000FFF7EDBB00F0FCFFFFF7DABB00F0F8FF28
:102DB000FFF7B4BB00F0F4FFFFF7A1BB00F0F0FF9A
:102DC000FFF773BB00F0ECFFFFF760BB00F0E8FF1C
:102DD000FFF73ABB00F0E4FFFFF727BB00F0E0FF8E
:102DE000FFF701BB00F0DCFFFFF7EEBA00F0D8FF01
:102DF000FFF7C0BA00F0D4FFFFF7A7BA00F0D0FF8A
:102E0000FFF781BA00F0CCFFFFF76EBA580A002036
:102E10000018025800F0C4FFFFF744BA00F0C0FFEA
:102E2000FFF731BA00F0BCFFFFF703BA00F0B8FFBC
:102E3000FFF7F0B900F0B4FFFFF7CEB900F0B0FF34
:102E4000FFF7BBB900F0ACFFFFF799B900F0A8FF9E
:102E5000FFF786B900F0A4FFFFF764B900F0A0FF08
:102E6000FFF751B900F09CFFFFF72FB900F098FF72
:102E7000FFF71CB900F094FFFFF7FAB800F090FFDD
:102E8000FFF7E7B800F08CFFFFF7C5B800F088FF48
:102E9000FFF7B2B800F084FFFFF786B800F080FFBC
:102EA000FFF773B800F07CFFFFF751B800F078FF30
:102EB000FFF73EB800F074FFFFF71CB800F070FF9A
:102EC000FFF709B800F06CFFFEF7E3BF00F068FF02
:102ED000FEF7D0BF00F064FFFEF7AEBF00F060FF6A
:102EE000FEF79BBF00F05CFFFEF779BF00F058FFD4
:102EF000FEF766BF00F054FFFEF740BF00F050FF42
:102F0000FEF72DBF00F04CFFFEF70BBF00F048FFAF
:102F1000FEF7F8BE00F044FFFEF7D6BE00F040FF1B
:102F2000FEF7C3BE00F03CFFFEF7A1BE00F038FF85
:102F3000FEF78EBE00F034FFFEF767BE00F030FFF4
:102F4000FEF754BE00F02CFFFEF732BE00F028FF63
:102F5000FEF71FBE00F024FFFEF7FDBD00F020FFCE
:102F6000FEF7EABD00F01CFFFEF7C4BD00F018FF3D
:102F7000FEF7B1BD00F014FFFEF78FBD00F010FFAB
:102F8000FEF77CBD00F00CFFFEF75ABD00F008FF15
:102F9000FEF747BD00F004FFFEF721BD00F000FF83
:102FA000FEF70EBD00F0FCFEFEF7ECBC00F0F8FEF4
:102FB000FEF7D9BC00F0F4FEFEF7B7BC00F0F0FE5F
:102FC000FEF7A4BC00F0ECFEFEF77EBC00F0E8FECD
:102FD000FEF766BC00F0E4FEFEF744BC00F0E0FE45
:102FE000FEF731BC00F0DCFEFEF70FBC00F0D8FEAF
:102FF000FEF7FCBB00F0D4FEFEF7DABB00F0D0FE1B
:10300000FEF7C7BB00F0CCFEFEF7A6BB00F0C8FE83
:10301000FEF793BB00F0C4FEFEF771BB00F0C0FEEC
:10302000FEF75EBB00F0BCFEFEF73CBB00F0B8FE56
:10303000FEF729BB00F0B4FEFEF703BB00F0B0FEC4
:10304000FEF7F0BA00F0ACFEFEF7CEBA00F0A8FE34
:10305000FEF7BBBA00F0A4FEFEF799BA00F0A0FE9E
:10306000FEF786BA00F09CFEFEF75ABA00F098FE12
:10307000FEF747BA00F094FEFEF725BA00F090FE86
:10308000FEF712BA00F08CFEFEF7F0B900F088FEF1
:10309000FEF7DDB900F084FEFEF7B7B900F080FE60
:1030A000FEF7A4B900F07CFEFEF782B900F078FECE
:1030B000FEF76FB900F074FEFEF74DB900F070FE38
:1030C000FEF73AB900F06CFEFEF714B900F068FEA6
:1030D000FEF701B900F064FEFEF7DFB800F060FE15
:1030E000FEF7CCB800F05CFEFEF7AAB800F058FE80
:1030F000FEF797B800F054FEFEF771B800F050FEEE
:10310000FEF75EB800F04CFEFEF734B800F048FE63
:10311000FEF721B800F044FEFDF7FFBF00F040FECF
:10312000FDF7ECBF00F03CFEFDF7C6BF00F038FE37
:10313000FDF7B3BF00F034FEFDF791BF00F030FEA5
:10314000FDF77EBF00F02CFEFDF75CBF0D4B0221AA
:103150001A6830B422F001024FF4403500241A609E
:103160001D60094A59634FF040411C64D9635A6499
:1031700098631A6842F001021A601A68D207FCD4F8
:1031800030BC704700100052D002D002F0B50023CE
:1031900087B0012201260193102300270D4602A9C2
:1031A0000446CDE902234FF48052CDE9046704F0D0
:1031B0006BFB012001F046F902A94FF48052204632
:1031C000CDE9046702261027CDE9026704F05CFB15
:1031D0000322102302A92046CDE90223002308225E
:1031E000CDE904234FF4805204F04EFB40F231232A
:1031F000042202A9019310232046CDE90223019A5B
:10320000012305924FF48052049304F03DFB2946BC
:10321000204604F059FB07B0F0BD00BFF0B5002315
:1032200087B0012201260193082300270D4602A939
:103230000446CDE902234FF48052CDE9046704F03F
:1032400023FB012001F0FEF802A94FF48052204632
:10325000CDE9046702260827CDE9026704F014FBD4
:103260000322082302A92046CDE9022300230822D5
:10327000CDE904234FF4805204F006FB40F23123E1
:10328000042202A9019308232046CDE90223019AD2
:10329000012305924FF48052049304F0F5FA294675
:1032A000204604F011FB07B0F0BD00BF30B5044666
:1032B00083B040480DF02AF93F480DF027F901F09E
:1032C000BBF822460023054699B20133B3F1807F53
:1032D00022F8021BF8D101F0AFF8421BDFED376A8C
:1032E000202107EE902A3648F8EE677A86EEA77A14
:1032F000B7EEC77A8DED007B0DF082F801F09CF8F7
:1033000004F100722346054633F8021B9A42FBD1B2
:1033100001F092F8421BDFED296A202107EE902A86
:103320002848F8EE677A86EEA77AB7EEC77A8DED71
:10333000007B0DF065F81F480DF0E8F822480DF00D
:10334000E5F82046002302E0B3F1807F0CD001882D
:103350009AB20230013389B29142F5D01B480DF088
:10336000D5F8012003B030BD19480DF0CFF8002387
:10337000DAB2E2540133FF2BFAD116480DF0C6F849
:10338000002301E0FF2B0DD0E15CDAB20133914262
:10339000F8D011480DF0BAF810480DF0B7F8012038
:1033A00003B030BD0E480DF0B1F80E480DF0AEF888
:1033B0000020D7E798420108004301080000FA46C0
:1033C0001843010878430108C8430108E043010895
:1033D000FC430108404401086C440108984401087A
:1033E000B8440108D84401081448002314490222B3
:1033F00010B5144C41621449C36543600462826095
:10340000C3600160C0E91132C0E91333C0E915336C
:1034100001F0DEF828B90121084801F0B1F940B9FE
:1034200010BD00F0BDFC0121044801F0A9F90028FD
:10343000F6D0BDE8104000F0B3BC00BF8C07002000
:10344000390D00081D0D0008001000520F4B0268D6
:103450009A4200D070470E4B5A200022052110B529
:10346000D3F8D44082B044F01004C3F8D440D3F869
:10347000D43003F010030193019B01F00DF85A20A2
:1034800002B0BDE8104001F045B800BF0010005286
:1034900000440258354800233549012210B5C0E9DF
:1034A0000013826008211022C3614FF4006388B0CA
:1034B000C0E90312036240214FF4C0724FF48053FD
:1034C000C0E905124362022207234FF40051CDE9FF
:1034D00000230422062381620221CDE90223022275
:1034E000022306916946CDE9042304F0A3F9B8BB91
:1034F000204801231E4A082483606946C0E900234E
:1035000010234022C0E903434FF4C0730024C0E9F4
:1035100005234FF400634FF48052C0E907434FF492
:1035200000530224C0E90923022207230694CDE9AF
:10353000002304220623CDE9022302220223CDE93F
:10354000042304F077F970B940F2FA210748FFF735
:103550001DFE40F2FA210748FFF760FE08B010BDDB
:1035600000F01EFCC4E700F01BFCEDE7F8070020AC
:10357000404100522C08002036480023D0B5016895
:10358000B8B0CDE90233CDE90433069309B138B0C0
:10359000D0BD0123B82203600AA80BF0A7FE4FF0AC
:1035A0008072002308A8CDE9082303F047FB002818
:1035B0004CD1294B4FF6837002210C24D3F8D42030
:1035C0000026032742F48052C3F8D420D3F8D43025
:1035D000069403F48053CDE90201019302A91F4828
:1035E000019BCDE9046701F03BF948F23712022351
:1035F00002A91B480694CDE90223CDE9046701F036
:103600002FF94CF20372022302A916480694CDE961
:103610000223CDE9046701F023F94FF63F020223AC
:1036200002A911480694CDE90223CDE9046701F00F
:1036300017F9EC22022302A90C480694CDE904678D
:10364000CDE9022301F00CF938B0D0BD00F0A8FBA1
:10365000AFE700BFF40700200044025800100258F2
:1036600000180258000C025800140258001C02589E
:1036700008B509F003F809F0A5F8034B1868BDE890
:10368000084007F0E5BF00BF6008002030B5244CBB
:1036900097B020250DF1040C94E80F008CE80F0082
:1036A00062460021012006F03BFB04F110031D4A95
:1036B0000DF1140C2C4410600FCB8CE80F00624607
:1036C0000021012006F02CFB174B0DF1240C186093
:1036D00094E80F008CE80F0001216246084606F0CE
:1036E0001FFB124B2A46002118600EA80BF0FEFDAE
:1036F0000F484FF400730DAA0D9000210D4812934E
:10370000139506F0B5FA0C4B04460C4A00210C4800
:103710001C6006F0ADFA0B4B186017B030BD00BF4F
:10372000D041010854090020580900205C090020FC
:1037300000450108350B0008140700201C4501084E
:1037400071360008600800204C4B4FF4807170B552
:10375000002490B04A4D0E944A4E2846CDE90A44C2
:10376000CDE90C44D3F8E02042F01002C3F8E02089
:10377000D3F8E02002F010020192019AD3F8E02081
:1037800042F00102C3F8E020D3F8E02002F0010289
:103790000292029AD3F8E02042F00202C3F8E0203D
:1037A000D3F8E02002F002020392039AD3F8E0205B
:1037B00042F04002C3F8E020D3F8E02002F04002DB
:1037C0000492049AD3F8E02042F00802C3F8E02003
:1037D000D3F8E02002F008020592059AD3F8E02021
:1037E0000A43C3F8E020D3F8E0200A400692069A84
:1037F000D3F8E02042F08002C3F8E020D3F8E020C4
:1038000002F080020792079AD3F8E02042F0040207
:10381000C3F8E020D3F8E02002F004020892089AEE
:10382000D3F8E02042F02002C3F8E0202246D3F88B
:10383000E03003F020030993099B01F04BF9224685
:1038400030460821002401F045F94FF4807211231D
:10385000284600250AA9CDE90A23CDE90C4500F048
:10386000FFFF082201230AA93046CDE90C45CDE926
:103870000A2300F0F5FF10B070BD00BF00440258ED
:10388000002002580018025810B58EB034220021D2
:1038900001A80BF02BFD2548002325490122838632
:1038A00080F83630C0E90013C0E9043204212D222B
:1038B000C0E90233C0E9061240F2FD231322C0E939
:1038C000082340F22B3340F2E322C0E90A2340F2FE
:1038D000F223036301F002F900BB0224FF2000225F
:1038E0004FF4347301A90B930C93ADF834208DF889
:1038F0003620CDE9054005204FF4806409904FF053
:1039000040400A900948CDE90123CDE90323CDE9E0
:10391000072401F051F920B90EB010BD00F040FAB3
:10392000DBE700F03DFA0EB010BD00BF60090020DB
:10393000001000503E4A00230168D0B591428CB07F
:10394000CDE90633CDE908330A9301D00CB0D0BDE0
:10395000384B4FF40C6002210E24D3F8E4200026EB
:10396000002742F00802C3F8E420D3F8E42002F074
:1039700008020192019AD3F8E02042F04002C3F815
:10398000E020D3F8E02002F040020292029AD3F83D
:10399000E02042F48072C3F8E020D3F8E02002F483
:1039A00080720392039AD3F8E02042F08002C3F8B9
:1039B000E020D3F8E02002F080020492049AD3F8C9
:1039C000E02042F02002C3F8E020D3F8E0300A946F
:1039D00003F02003CDE90601059306A91648059BCF
:1039E00000F03EFF40F2F762022306A913480A9452
:1039F000CDE90623CDE9086700F032FF4FF47E429F
:103A0000022306A90E480A94CDE90623CDE90867EA
:103A100000F026FF4FF48062022306A909480A94A9
:103A2000CDE90867CDE9062300F01AFF0CB0D0BD40
:103A3000001000500044025800180258002002589C
:103A4000001C02580014025810B59EB04C220021F0
:103A50000AA80BF04BFC2022002102A80BF046FC28
:103A6000022002F07BF9274B0021274A0191D96AF5
:103A700021F00101D962DB6A03F00103019393692C
:103A800043F440439361936903F440430193019BE2
:103A900093699B04FCD5012221204FF4A02102242C
:103AA00010920522002313941592A02214941692CA
:103AB000082217941A92CDE90A010AA8CDE9184400
:103AC000CDE91B3302F056FA08B172B6FEE73F2289
:103AD0000323214602A8CDE9022300220823CDE9D1
:103AE000042340224023CDE906234FF48062402383
:103AF000CDE9082302F0D2FD08B172B6FEE71EB090
:103B000010BD00BF0004005800480258000000002B
:103B100000B5B1B00021B82202A80BF0E7FB0C23DE
:103B20001920D8210E934FF400539FED0B7BCDE964
:103B30000A01684618938DED007B9FED097B8DEDA2
:103B40000C7B03F07BF808B172B6FEE731B05DF88C
:103B500004FB00BFAFF30080001000200000000055
:103B600002000000050000004FF000534FF4806297
:103B70004FF000611846F0B5724E85B000240BF08E
:103B80008DFBB06001250427CDE90044CDE9024456
:103B900000F0CEFC4FF010536B49684601936B4B1D
:103BA000ADF80050CDE9021300F0E0FC4FF0C04347
:103BB00068468DF8015001931B238DF80A408DF85B
:103BC00008308DF80E4000F0D1FC02236846ADF8B5
:103BD0000E508DF801304FF04053019310238DF8B3
:103BE000083000F0C3FC032368468DF80130584BC1
:103BF000019300F0BBFC574B68468DF801700193B0
:103C00000E238DF8083000F0B1FC052368468DF8CE
:103C100001304FF0605301930F238DF8083000F00E
:103C2000A5FC062368468DF80A508DF801304FF048
:103C300010438DF80F50019318238DF8083000F0D1
:103C400095FC072368468DF80A408DF801304FF047
:103C500040438DF80F40019300F088FC08224FF09C
:103C6000504368468DF80120019300F07FFC4FF02F
:103C700080436846019300F079FC384600F066FC0A
:103C8000736913F4003311D1BFF34F8FBFF36F8FFC
:103C9000C6F85032BFF34F8FBFF36F8F736943F491
:103CA00000337361BFF34F8FBFF36F8F25484369B4
:103CB00013F4803326D1C0F88430BFF34F8FD0F88F
:103CC000803043F6E074C3F34E3CC3F3C90E4FEAB1
:103CD0004C1C0CEA0401734641EA8372013BC0F8B4
:103CE00060225A1CF8D1ACF1200C1CF1200FF0D14D
:103CF000BFF34F8F436943F480334361BFF34F8F6A
:103D0000BFF36F8F00F05CFB09F04CFAFFF79CFEED
:103D1000FFF7FEFEFFF718FD00F044F800F0C6FACA
:103D200000F08AFAFFF7B6FBFFF7AEFD00F0D8F817
:103D3000FFF75AFB05F070FFFFF7A8FC05F07EFFC8
:103D4000FEE700BF00ED00E01200010300000101EA
:103D50000000023000000430014B00221A6070475E
:103D6000080A0020014B1868704700BF080A0020AD
:103D700072B6FEE7074A0368934203D0064A9342AD
:103D800005D07047054A136801331360704700F08F
:103D900047BB00BF0014004000100040080A00208C
:103DA00072B6FEE70C4801220C49002310B5C0E9A9
:103DB0000012202410214FF480720361846083611B
:103DC000C1604261C0E9073301F0F4FF00B910BDE2
:103DD000BDE81040FFF7E4BF0C0A0020005000527D
:103DE000F0B5BBB000210446C0220AA80891CDE975
:103DF0000411CDE906110BF079FA354B22689A428D
:103E000001D03BB0F0BD4FF0007200230AA8CDE90D
:103E10000A2302F013FF002857D12E4B4020022125
:103E20000024D3F8D42003250A26092742F480422F
:103E3000C3F8D420D3F8D42002F480420192019A2E
:103E4000D3F8E02042F00202C3F8E020D3F8E020EB
:103E500002F002020292029AD3F8E02042F020021D
:103E6000C3F8E020D3F8E030089603F02003CDE952
:103E70000401039304A91848039BCDE9064500F00B
:103E8000EFFCC022022304A914480897CDE90423BB
:103E9000CDE9064500F0E4FC4FF44072022304A98A
:103EA0000E480896CDE90423CDE9064500F0D8FC7C
:103EB0000422022304A908480897CDE90645CDE964
:103EC000042300F0CDFC3BB0F0BDFFF769FFA4E791
:103ED00000500052004402580004025800140258D6
:103EE00010B517484FF48002164C4FF400310023F0
:103EF00081604FF0405143610362C161C362C0E918
:103F0000004208224FF00074C2604FF080620461EA
:103F100082614FF08042C0E90933C0E90D23C0E956
:103F20000F33C0E91133C0E91333C0E9153303F08F
:103F30003FFD00B910BDBDE81040FFF731BF00BF25
:103F4000580A002000380040244A00230168D0B5F8
:103F500091428AB0CDE90433CDE90633089301D00C
:103F60000AB0D0BD1E4B082602270524D3F8E8204E
:103F700004A91C4842F48042C3F8E820D3F8E820A2
:103F800002F480420192019AD3F8E02042F4807258
:103F9000C3F8E020D3F8E02002F480720292029A83
:103FA000D3F8E02042F00802C3F8E020D3F8E03074
:103FB000089403F008030393039BCDE9046700F022
:103FC0004FFC0022002304A907480894CDE90467A8
:103FD000CDE9062300F044FC0AB0D0BD0038004013
:103FE0000044025800200258000C02580B4B0022DB
:103FF0000F216FF0010010B4D3F8F44083B044F007
:104000000204C3F8F440D3F8F43003F00203019340
:10401000019B03B05DF8044B00F03EBA0044025827
:104020000F2801D90120704710B501468AB000223F
:104030000446362000F030FA362000F06BFA1A4BB6
:104040001A4A694602A81460D3F8E82042F0100228
:10405000C3F8E820D3F8E83003F010030193019B84
:1040600002F0CCFC079BBBB902F080FC104B002295
:10407000104CA3FB000310492046A2609B0C21605A
:1040800040F2E731013BC4E90312636003F0FAFE3A
:1040900030B101200AB010BD02F068FC4000E5E735
:1040A000204603F0A5FFF5E7004402582004002055
:1040B00083DE1B43E00A002000100040FEE700BF43
:1040C000FEE700BFFEE700BFFEE700BFFEE700BF60
:1040D000704700BF044808B504F0BAF80120BDE8F5
:1040E000084009F055BD00BFE00A0020014804F077
:1040F000AFB800BF780B0020014800F0ADBA00BF98
:104100008C070020014800F0E3BE00BFD02C002047
:104110000120704708B50AF06BFF162203464FF0E6
:10412000FF301A6008BD00BF08B50AF061FF162312
:104130000360FEE770B5161E07DD0C468D19AFF360
:10414000008004F8010BA542F9D1304670BD00BFD4
:104150004FF0FF30704700BF4FF4005300204B601A
:10416000704700BF01207047002070472749284A48
:10417000D1F8883043F4700310B4C1F88830136864
:1041800003F00F03062B05D8136823F00F0343F049
:10419000070313601F4B00241F4A19681C4841F095
:1041A000010119601C6119680A401A6003681B0745
:1041B00005D5036823F00F0343F007030360154B95
:1041C00000221649164C17489A61DA611A629C62FD
:1041D000D86219635A639963DA6319645A64186878
:1041E000114C20F48020114918601A662368194088
:1041F000B1F1005F03D20E4B0122C3F808210D4B31
:1042000043F2D2025DF8044B1A60704700ED00E003
:1042100000200052004402587FEDF6EA80020101BE
:10422000000202020000FF010010005C0000FFFF1E
:10423000008000510040005200B5002389B01948A9
:104240004FF6FF721849049301930361836107934A
:10425000C0E90013C0E90232CDE90533CDE90233EC
:1042600003F010FE90B94FF4805304A90D48049355
:1042700003F01AFF90B9002301A90A4801930393A0
:1042800004F09EF828B909B05DF804FBFFF788FD3B
:10429000E9E7FFF785FD09B05DF804FBFFF780FD56
:1042A000E9E700BF2C0B00200004004010B50023FC
:1042B00084B01048C721104C312201938361C0E9BA
:1042C0000041C0E90232CDE9023303F0DBFD48B919
:1042D000002301A907480193039304F071F820B962
:1042E00004B010BDFFF75CFDF2E7FFF759FD04B025
:1042F00010BD00BF780B002000140040184A03686E
:10430000934210B582B004D0164A934210D002B046
:1043100010BD154BD3F8E82042F00202C3F8E820A4
:10432000D3F8E83003F002030093009B02B010BD05
:104330000D4B372000220521D3F8E84044F020043B
:10434000C3F8E840D3F8E83003F020030193019B61
:1043500000F0A2F8372002B0BDE8104000F0DAB853
:10436000000400400014004000440258DFF834D03C
:10437000FFF7FCFE0C480D490D4A002302E0D4581B
:10438000C4500433C4188C42F9D30A4A0A4C00239F
:1043900001E013600432A242FBD30AF037FFFFF7BB
:1043A000E3FB70470000022000040020F00600201C
:1043B000AC510108F006002048380020FEE700005C
:1043C00010B50320124C00F055F802F0C7F8114B5D
:1043D00011499A699B69C2F3032203F00F038A5CB7
:1043E000CB5C02F01F020D4903F01F03D04020FAFE
:1043F00003F308600F202360FFF712FE10B10124C1
:10440000204610BD0446FFF7F1FD204610BD00BF59
:1044100018040020004402584045010814040020FC
:10442000034A044B11681B780B441360704700BFAC
:10443000C40B00201C040020014B1868704700BF0B
:10444000C40B002038B50446FFF7F6FF0546631C91
:1044500002D0044B1B781C44FFF7EEFF431BA34222
:10446000FAD338BD1C040020014B1868000C7047BB
:104470000010005C06494FF6FF0C0002054BCA68AD
:1044800000F4E06002EA0C0210430343CB60704783
:1044900000ED00E00000FA051B4BDB68C3F30223CC
:1044A00000B5C3F1070E03F1040CBEF1040F28BFE1
:1044B0004FF0040EBCF1060F1AD9033B4FF0FF3C3E
:1044C0000CFA03FC22EA0C024FF0FF3C00280CFA25
:1044D0000EFC21EA0C0101FA03F141EA02010ADBB8
:1044E00009010A4BC9B2034483F800135DF804FBC9
:1044F00000221346E8E700F00F000901044BC9B29F
:10450000034419765DF804FB00ED00E000E100E0F3
:10451000FCEC00E0002807DB012300F01F01034A48
:1045200040098B4042F82030704700BF00E100E0B6
:10453000BFF35F8F044B00215A6A22F480325A6223
:10454000C3F89410704700BF00ED00E0064B40F048
:104550000100C3F894005A6A42F480325A62BFF3F1
:104560004F8FBFF36F8F704700ED00E0174A43781D
:10457000C2F89830017821B3436800B5C2F89C3086
:10458000C37A90F80CC01B0690F80FE043EA0C7356
:1045900090F80AC00B43817B43EACC4390F80DC0EE
:1045A00043EA8C4390F809C043EA4143017A43EA65
:1045B0000E4343EA0C2343EA4103C2F8A0305DF8FE
:1045C00004FBC2F89C10C2F8A010704700ED00E098
:1045D000002835D038B590F86130044603F0FF026A
:1045E0004BB323680220626884F86100E1691D68AA
:1045F00014481143A2682840E5680143A069196086
:104600000243596B10480840104902435A631A6C20
:104610001140D4E90402294352051964596B42EA56
:104620000052002021F440110A435A6301236066BE
:1046300084F8613038BD80F86020FEF707FFD0E7CE
:1046400001207047BFFFF8FFF8FEFFFF0000FFFFEB
:10465000704700BF704700BF036870B55D680446CF
:104660001E68EA0701D5F10556D4AA0601D5B304A0
:104670003BD4280701D5310521D46A0701D573053C
:1046800072D4A80701D5B10504D4EA0601D5F30414
:1046900057D470BD23681A6822F400721A6002228F
:1046A0009A600122636E6366002384F8612084F8B7
:1046B0006030236A002BE8D020469847E5E723685E
:1046C0001A6822F400621A6008229A600422636E5B
:1046D0001343636684F861200022636A84F86020D3
:1046E000002BCAD020469847C7E723681A6822F4EF
:1046F00000521A6020229A600422636E43F0020383
:10470000636684F861200022636A84F86020002BCD
:10471000AFD020469847ACE71A6822F480721A603E
:10472000426E42F00102426601229A60042380F840
:104730006130002380F86030436A002B95D09847A1
:1047400093E723681020012100251A6822F4805283
:104750001A6098602046636E84F86050636684F83F
:104760006110FFF777FF70BD236820461A6822F4B6
:1047700080621A6004229A60FFF76AFF81E700BF37
:1047800090F86020012A65D00346C1EBC1000222E7
:1047900003EB800070B4012483F8612083F860404B
:1047A000826BC46A056B1205A4F1090C42EA05424A
:1047B000C56BBCF1010F42EA040242EA455222D91C
:1047C000456B42EA056281B918682349456A9C6ACB
:1047D00029400A434262846100220121104683F885
:1047E000611083F8602070BC70470B2C1C6829D1C5
:1047F000E5691A492940056C806A41EA85410A4306
:10480000E2612061E8E7446B04F07F44224361B930
:1048100018681149466A5C6B31409D6A24F07F44F8
:104820000A43426285618462D6E71C680A49E569E9
:1048300029400A43416B806A21F07F41E261206197
:104840002162C9E7E5690449806A29400A43E261B7
:104850002061C1E702207047F0FFCC00F0FFC000EC
:104860002DE9F04F0C6883B0002C00F0A6804FF0CB
:10487000000C8E4F634601229A4012EA040E00F0AB
:1048800095804D6805F0030909F1FF36012E40F2CD
:104890009780B9F1030F40F0D18009FA0CF26FEA6A
:1048A0000208066815F4403F06EA080842EA0802D2
:1048B00002607BD0D7F8F42023F0030803F003094B
:1048C00042F0020208F1B0484FEA8909C7F8F42023
:1048D00008F58068D7F8F42002F002020192019AEC
:1048E0000F22D8F8086002FA09F226EA0202704E96
:1048F000B04229D006F58066B04200F0AC806D4E23
:10490000B04200F0AE806C4EB04200F09E806B4E24
:10491000B04200F0B2806A4EB04200F0B480694EFE
:10492000B04200F0A480684EB04200F0B280674E02
:10493000B04200F0B480664EB0420CBF09260A2691
:1049400006FA09F942EA0902C8F808204FF0B04215
:10495000EE026FEA0E0812684FF0B04654BF08EA44
:1049600002024EEA02023260AA0276684FF0B042BA
:1049700054BF08EA06064EEA06065660D2F884607E
:10498000AA034FF0B04254BF08EA06064EEA0606F4
:10499000ED034FF0B045C2F88460D2F8802054BFD8
:1049A00008EA02024EEA0202C5F8802001330CF147
:1049B000020C34FA03F27FF45EAF03B0BDE8F08F6F
:1049C0004FF00308866808FA0CF826EA080ACE6851
:1049D0006FEA080806FA0CF646EA0A068660C5F38E
:1049E0000016D0F804A09E402AEA02023243426038
:1049F000C268B9F1020F8E6802EA080206FA0CF6E4
:104A000046EA020609FA0CF2C6607FF44AAF03F0E8
:104A100007064FEAD3094FEA860B0F2600EB8909F8
:104A200006FA0BF6D9F820A02AEA060A0E6906FA59
:104A30000BF646EA0A06C9F8206032E74FF0030891
:104A400008FA0CF86FEA0808D2E7032606FA09F913
:104A500042EA090278E7012606FA09F942EA090260
:104A600072E7022606FA09F942EA09026CE706260D
:104A700006FA09F942EA090266E7042606FA09F984
:104A800042EA090260E7052606FA09F942EA090244
:104A90005AE7072606FA09F942EA090254E7082606
:104AA00006FA09F942EA09024EE700BF004402583B
:104AB0000000025800080258000C0258001002586A
:104AC0000014025800180258001C02580020025816
:104AD0000024025802B9090481617047002867D098
:104AE00038B590F8A130044603F0FF02002B5AD0ED
:104AF000A0680221E56984F8A110D4E9003299691F
:104B00000243E06821F07041024320699961024349
:104B1000996928480A439A619A6802409A606269D2
:104B2000996841EA0241A26911439960D96801403C
:104B3000D960DA68216A42EA0542656A0A43DA60A6
:104B40001A6902401A611969A26A41EA0541E56AD7
:104B5000114319615969084058615A69216B42EA49
:104B600005420A435A61D96A94F8350001F07F4141
:104B700094F836C0D962D96A94F834200A4342EADC
:104B80000022002042EA0C42DA625A6B42F006022E
:104B90005A639A6942F001029A610123C4F8A400A1
:104BA00084F8A13038BD80F8A020FEF7C3FE9FE74F
:104BB0000120704700F800F090F8A030012B00F0C1
:104BC000C68002232DE9F04F4FF0340ED0F800904C
:104BD00080F8A13083B00EFB020ED201D9F80C3060
:104BE0000C4602F184060D46C3F30B4B804609EBDD
:104BF000060C0EF1380EDFF864A1DCF8043003F483
:104C0000704301930FCCAEE80F000FCC6F68AEE895
:104C10000F000FCCAEE80F002368BB44CEF8003085
:104C2000019B2A68CCF80430D9F80C30511CD5F817
:104C300018E0C3F30B430B44E96843EA0B43CCF899
:104C40000430D9F80C30DCF80800C3F30A0300F490
:104C500070401944AB68CCF80800D9F80C00013357
:104C6000C0F30A00034443EA01432969CCF8083041
:104C7000DCF8103023F00703CCF81030CCF810101B
:104C8000DCF81830002395F8320095F83140CCF864
:104C9000183095F8303043EA0E6343EA042343EAC0
:104CA0000043CCF81830DCF8143023F0FF03CCF8C4
:104CB00014306B69CCF81430DCF81C00EB6900EAA6
:104CC0000A0A286A0343CCF81CA0CCF81C30DCF894
:104CD00028300023CCF828306B6ACCF8283059BB38
:104CE0000423BF1AAA6A03FB07F702FB03F3EA6A6D
:104CF000073747EA0347DCF82C3003F0E023CCF811
:104D00002C30CCF82C70144BDCF830100B40CCF865
:104D10003030CCF83020012259F80630134349F8DE
:104D200006300023C9F82420184688F8A12088F806
:104D3000A03003B0BDE8F08F01290AD08B1E022BF2
:104D400003D9072901D00123CBE70223C9E70220B9
:104D500070470323C5E700BF00F8FFFFF8F8FFFF27
:104D6000F0B58BB0002800F0888090F8BD3405467F
:104D7000046803F0FF02002B79D0204603232E465F
:104D80002F1D85F8BD34E36B6C4613F4807308BFA8
:104D9000EB6003F049FD56F810EBB446BCE80F0099
:104DA0000FC4BCE80F000FC49CE8030084E80300B4
:104DB000704697E80E0003F013FC044630B101245E
:104DC0000223204685F8BD340BB0F0BD01462868AB
:104DD00003F032FD686858B322464FF0010E2146B9
:104DE00002EBC20302F1010C05EB830383F83C20C4
:104DF000A3F856205FFA8CF283F83DE0824283F8F4
:104E00004010D964C3E91111EAD3002204EBC403B2
:104E1000611C05EB830383F87C42CCB283F87D22CE
:104E2000844283F88022C3F88C22C3E9A122EDD307
:104E30006C460FCE0FC40FCE0FC496E8030084E873
:104E4000030097E80E00286803F02CFD04460028B4
:104E5000B5D101226B6A85F83800934285F8BD24EC
:104E60000FD0286804F054F920460BB0F0BD80F84C
:104E7000BC2408F0C9F9286880E7012420460BB05B
:104E8000F0BD284600F050FFEBE700BF10B590F8EA
:104E9000BC3404460068012B17D0012384F8BC34CD
:104EA000C36BDB0502D4A36A012B09D003F0B4FC69
:104EB000206804F01DF90023184684F8BC3410BDA6
:104EC000836B43F480338363F0E7022010BD00BF9F
:104ED0002DE9F04F056889B00446284604F056F9DC
:104EE00010B109B0BDE8F08F8346206804F020F9C6
:104EF0000028F6D0D5F8083805F500622068C3F31D
:104F00000D230292C4F8FC3404F012F910F0020FE1
:104F1000206803D0436903F00203436104F008F9F9
:104F200010F0100F206812D0836923F01003836102
:104F30002E6AC6F3434306F00F07022B00F0E3830B
:104F4000062B00F02283836943F01003836104F091
:104F5000EFF8070300F18082206804F0E9F84603C7
:104F600000F12882206804F0E3F80028C0F29A815A
:104F7000206804F0DDF8030500F15781206804F093
:104F8000D7F8060114D52268536903F00063536112
:104F900094F8F434002B40F0AB820121204684F8D1
:104FA000F414536DC3F38303C4F8F83400F0D4FE53
:104FB000206804F0BDF8C00400F19E81206804F070
:104FC000B7F810F4005F206840F07F8104F0B0F87B
:104FD000010700F1E681206804F0AAF8020671D505
:104FE000AA69636822F08002012BAA616AD994F849
:104FF000A322012A00F0E883022B63D994F8C72288
:10500000012A00F0FC83032B5CD994F8EB22012ADF
:1050100000F0B482042B55D994F80F23012A00F034
:10502000C782052B4ED994F83323012A00F024843B
:10503000062B47D994F85723012A00F03184072B17
:1050400040D994F87B23012A00F04884082B39D9F1
:1050500094F89F23012A00F05584092B32D994F843
:10506000C323012A00F062840A2B2BD994F8E7238A
:10507000012A00F06F840B2B24D994F80B24012A09
:1050800000F07C840C2B1DD994F82F24012A00F009
:105090007D840D2B16D994F85324012A00F09D84A9
:1050A0000E2B0FD994F87724012A00F0A4840F2B3B
:1050B00008D994F89B34012B04D104F5936120683E
:1050C00003F024FF206804F033F8C30240F1AB8002
:1050D0006368012B40F2898094F86420D5F8201988
:1050E000012A00F01482022B7FD994F88820D5F889
:1050F0004019012A00F01E82032B76D994F8AC20C7
:10510000D5F86019012A00F02182042B6DD994F89A
:10511000D020D5F88019012A00F02482052B64D90B
:1051200094F8F420D5F8A019012A00F04183062B49
:105130005BD994F81821D5F8C019012A00F05383DF
:10514000072B52D994F83C21D5F8E019012A00F038
:105150005E83082B49D994F86021D5F8001A012AFA
:1051600000F06183092B40D994F88421D5F8201AE6
:10517000012A00F06C830A2B37D994F8A821D5F8BE
:10518000401A012A00F080830B2B2ED994F8CC21F1
:10519000D5F8601A012A00F095830C2B25D994F8D4
:1051A000F021D5F8801A012A00F0A0830D2B1CD91C
:1051B00094F81422D5F8A01A012A00F0AB830E2B24
:1051C00013D994F83822D5F8C01A012A00F0B68312
:1051D0000F2B0AD994F85C22D5F8E01A012A00F0C6
:1051E000C183102B01D9D5F8003B2068436903F433
:1051F0008013436103F09CFF870221D4206803F0F1
:1052000097FF400000F1C480206803F091FF410740
:105210007FF567AE23685D686A0700F195825A687A
:105220002A435A605DE62068E4E7029B9B68DF073B
:1052300000F186822068436903F4006343619EE6BF
:10524000D4F804C0BCF1010F26D905F5326223461B
:10525000012104E001312032243361451CD093F850
:10526000A40216680128F5D1002EF3DAD4F8FC74F4
:1052700006F4803607F00107BE42EBD183F8A302A3
:10528000A86940F08000A86168690606E2D4029A25
:10529000536843F4007353602068436903F40013B8
:1052A0004361ACE7029A536823F00103536094F81A
:1052B000F434012B00F03781204608F05DF82068B7
:1052C000436903F00043436153E603F063FF206842
:1052D00003F026FC2668206101F008FB227C0146D1
:1052E000304603F01FFA204608F014F8206843699E
:1052F00003F40053436169E6029A10212068536861
:1053000023F00103536003F0E1FB6068E0B105F5B1
:1053100010634FF67F3199600BF1010B1A6820334F
:10532000834522F4001243F8202CC3F8E811D3F887
:10533000E02122F40012C3F8E021D3F8E02142F08A
:105340000062C3F8E021E6D10299226BCB6943F0F9
:105350000113CB61002A40F0CF804A6942F22B034F
:1053600013434B610B6943F00B030B61D5F8003815
:1053700004F2C442217B23F4FE632068C5F80038A0
:1053800003F01EFF2068436903F48053436116E66F
:10539000204607F0FDFF2068436903F08043436126
:1053A00033E7204607F0B2FF2068436903F00803A3
:1053B000436111E6206803F0C7FE804600283FF4F1
:1053C000D1AD4FF0000A2068274605F51069564612
:1053D0000395CDF810B009E05FEA580806F1010620
:1053E00007F1240709F1200900F0EC8018F0010F03
:1053F000F2D05FFA86FA514603F0B8FEC1070546BF
:1054000013D5029906F00F0301229A404B6B23EA51
:1054100002034B630123E168C9F80830994200F0A8
:1054200098815146204607F067FF2A0702D50823D6
:10543000C9F80830EB0602D51023C9F80830680611
:1054400002D54023C9F80830A90700F14F812A0688
:1054500000F1F9802068BFE7206803F06DFE064682
:1054600000283FF479AD05F53067A2464FF00009FA
:10547000CDF80CB008E0760809F1010907F1200722
:105480000AF1240A00F09B80F007F4D55FFA89FB4B
:105490002068594603F060FE10F0010F804640F08E
:1054A000B38018F0080F40F0908018F0100F01D072
:1054B0001022BA6018F0020F0ED06A69100604D5E7
:1054C000029B5A6842F480625A609AF87F22012A4D
:1054D00000F081810223BB6018F0200F01D020234F
:1054E000BB6018F4005FC6D04FF40053BB60C2E746
:1054F000204607F029FF5BE5D1F8843043F00B0329
:10550000C1F884304B6C43F00B034B642EE7002949
:10551000BFF6E9AD214684F8632051F8600B03F033
:10552000F5FC6368DFE50021204684F8F41400F000
:1055300013FCC4E60029BFF6DFAD214684F88720BE
:1055400051F8840B03F0E2FC6368D5E50029BFF64F
:10555000DCAD214684F8AB2051F8A80B03F0D6FC53
:105560006368D2E50029BFF6D9AD214684F8CF2083
:1055700051F8CC0B03F0CAFC6368CFE504F53A712F
:10558000206803F0C3FC636844E507EBC707082203
:1055900004F2C441284603F013FDC6F30A1304EBDA
:1055A00087022068D2F890120B44C2F89032CAE405
:1055B00004F54371206803F0A9FC636831E5DDF868
:1055C0000CB0C9E4DDE9035BCDE421680822BB4BE4
:1055D000BA6001F53062096C02EB49129942906899
:1055E00040F2C880030402D54FF400419160204688
:1055F00007F072FEE16801297FF457AF04F2C4425C
:10560000206803F0DDFD50E720680122E168BA6000
:1056100000F530620129D0F840C002EB49129368CE
:1056200000F0AC80A6498C4500F00981B9F1000F6B
:1056300004D1D4F88C22002A00F0D78159462046A4
:1056400007F050FE2DE7D7E91353D4F800B0AB4272
:1056500058463FF6C1AE0BF51062796CCDF81CB020
:1056600002EB46120592EA1A8A4228BF0A460599B9
:105670008969033289B2B1EB920FC0F0958052462E
:105680000696CA462646C146059C904619E0ED1A84
:105690007B6CB96C42469D42584628BF1D46337B01
:1056A0000093ABB203F076FCBB6CA1692B4489B2CA
:1056B000BB643B6D2B440335B1EB950F3B656BD35E
:1056C000FD6C9D42E3D83446C846069ED146D4F8C8
:1056D00000B0079B0122584603F5006106F00F0356
:1056E0009A404B6B23EA02034B6375E631460398FD
:1056F00003F0ECF997F83F30012B00F0B48002235F
:10570000C9F80830A3E647F6F0731E423FF41BAC1D
:1057100007EBC707C6F30A12284604EB87071646AD
:10572000D7F8881203F04CFCD7F88832206833444D
:10573000C7F88832D7F890323344C7F8903202E481
:10574000204607F001FE75E5204607F025FE236898
:1057500065E5D7E911231344BB64002E7FF461AEE5
:10576000E36C002B7FF45DAE04F2C442206803F0CA
:1057700027FD56E6204607F0AFFD96E6190740F1F3
:1057800097804E498C457FF68CAE18047FF589AE24
:105790004FF40041916084E63446C846069ED146E7
:1057A000D4F800B0FD6C58469D423FF615AE90E728
:1057B0000029BFF6BCAC214684F8F32051F8F00B69
:1057C00003F0A4FB6368B2E404F52871206803F0D9
:1057D0009DFB636810E40023594620468AF87F3217
:1057E00007F0CEFD76E60029BFF6AAAC04F58A7173
:1057F000206884F8172103F089FB6368A0E404F5AE
:105800003171206803F082FB6368FFF7FCBB00295D
:10581000BFF69FAC04F59C71206884F83B2103F02F
:1058200075FB636895E40029BFF69CAC04F5AE7186
:10583000206884F85F2103F069FB636892E4180430
:10584000A6D499067FF5FAAE20219160F6E60029EC
:10585000BFF691AC04F5C071206884F8832103F091
:1058600055FB636887E44FF000035146204687F8F4
:105870003F3007F089FD42E704F54C71206803F0E2
:1058800045FB6368FFF7D4BB0029BFF67DAC04F588
:10589000D271206884F8A72103F038FB636873E4B1
:1058A00004F55571206803F031FB6368FFF7C7BB4F
:1058B000990673D520219160F3E500BF0A30544F5B
:1058C0000A31544F0029BFF668AC04F5E471206832
:1058D00084F8CB2103F01AFB63685EE404F55E7183
:1058E000206803F013FB6368FFF7B0BB0029BFF625
:1058F0005DAC04F5F671206884F8EF2103F006FB37
:10590000636853E404F56771206803F0FFFA636885
:10591000FFF7A3BB0029BFF652AC04F50471206861
:1059200084F8132203F0F2FA636848E404F5707116
:10593000206803F0EBFA6368FFF796BB0029BFF617
:1059400047AC04F50D71206884F8372203F0DEFAC5
:1059500063683DE404F57971206803F0D7FA636861
:10596000FFF789BB0029BFF63CAC04F5167120682F
:1059700084F85B2203F0CAFA636832E404F58161BB
:10598000206803F0C3FA6368FFF77CBB04F22C4184
:10599000206803F0BBFA6368FFF77BBB13F0280FA6
:1059A0007FF47FAD1B498C4502D91B043FF5F0AE57
:1059B0001169DAF89C22C1F31201521ACAF8902236
:1059C000B9F1000F7FF43AAED4F88C12D9B1D4F803
:1059D00088120A44C4F8882230E604F58A612068F7
:1059E00003F094FA6368FFF75BBB04F2C4424946D4
:1059F00003F0E6FB22E604F27441206803F086FA25
:105A00006368FFF754BB04F2C442012103F0D8FBE2
:105A100014E600BF0A30544F90F8BC24012A0ED07F
:105A2000012210B50446006884F8381084F8BC24BC
:105A300003F04CFB0023184684F8BC3410BD022050
:105A4000704700BF10B501F00F0E0906044627D4B9
:105A50004FF0240C0CFB0E0C0CF51F710EEBCE0C52
:105A600000EB8C0C00208CF87D028A604A7881F86B
:105A700000E00B710AB1A1F81AE0022B01D100235A
:105A80004B7194F8BC34012B18D00123206884F8A2
:105A9000BC3403F051F80023184684F8BC3410BD20
:105AA00024204FF0010C00FB0E4000F13C010EEBF6
:105AB000CE0004EB800080F83DC0D6E7022010BD88
:105AC00011F0800F01F00F034FF0240110B50446D0
:105AD0001AD101FB034103EBC302002001F51F7142
