:020000040800F2
:1000000000000220A5490008F9460008FD46000846
:1000100001470008054700080947000800000000E4
:1000200000000000000000000000000021DD0008CA
:100030000D47000800000000E1DD000845AF0008A2
:10004000F5490008F5490008F5490008F549000898
:10005000F5490008F5490008F5490008F549000888
:10006000F5490008F5490008F5490008F549000878
:10007000F5490008F5490008F5490008F549000868
:10008000F5490008F5490008F5490008F549000858
:10009000F5490008F5490008F5490008F549000848
:1000A000F5490008F5490008F5490008F549000838
:1000B000F5490008F5490008F5490008F549000828
:1000C000F5490008F5490008F5490008F549000818
:1000D000F5490008F5490008F5490008F549000808
:1000E00011470008F549000800000000F549000824
:1000F000F5490008F5490008F5490008F5490008E8
:10010000F5490008F5490008F5490008F5490008D7
:10011000F5490008F549000819470008314700086B
:10012000F5490008F5490008F5490008F5490008B7
:10013000F5490008F5490008F5490008F5490008A7
:1001400000000000000000000000000000000000AF
:10015000F5490008F5490008F5490008F549000887
:10016000F5490008F5490008F5490008F549000877
:10017000F5490008F5490008F5490008F549000867
:10018000F5490008F5490008F5490008F549000857
:10019000F5490008F5490008F5490008F549000847
:1001A0004D0E0008F5490008F5490008F54900081A
:1001B000F5490008F5490008F5490008F549000827
:1001C000F5490008F5490008F5490008F549000817
:1001D000F54900083D470008F5490008F5490008C1
:1001E000F5490008F5490008F5490008F5490008F7
:1001F000F5490008F5490008F5490008F5490008E7
:10020000F5490008F5490008F5490008F5490008D6
:10021000F5490008F5490008F5490008F5490008C6
:10022000F5490008F5490008F549000800000000FC
:10023000F5490008F549000800000000F5490008EC
:10024000F5490008F5490008F5490008F549000896
:10025000F5490008F5490008F5490008F549000886
:10026000F5490008F5490008F5490008F549000876
:10027000F5490008F5490008F549000800000000AC
:10028000F5490008F5490008F5490008000000009C
:0802900000000000F549000820
:1002A00010B5054C237833B9044B13B10448AFF3B0
:1002B00000800123237010BDF8080020000000001A
:1002C000749A040808B5034B1BB103490348AFF304
:1002D000008008BD00000000FC080020749A04089B
:1002E00001F0FF01102A2BDB10F0070F08D010F8E7
:1002F000013B013A8B422DD010F0070F42B3F6D1EB
:10030000F0B441EA012141EA014122F007047FF003
:1003100000070023F0E80256083C85EA010586EA5A
:10032000010685FA47F5A3FA87F586FA47F6A5FA96
:1003300087F68EB9EED1F0BC01F0FF0102F00702A2
:1003400032B110F8013B013A83EA010313B1F8D14D
:100350000020704701387047002D06BF354603382E
:10036000073815F0010F07D1013015F4807F02BF67
:10037000013015F4C03F0130F0BC0138704700BFB8
:1003800010F8012B11F8013B012A28BF9A42F7D03F
:10039000D01A7047034613F8012B002AFBD1181A14
:1003A0000138704781F0004102E000BF83F0004354
:1003B00030B54FEA41044FEA430594EA050F08BF00
:1003C00090EA020F1FBF54EA000C55EA020C7FEAC4
:1003D000645C7FEA655C00F0E2804FEA5454D4EB41
:1003E0005555B8BF6D420CDD2C4480EA020281EA0B
:1003F000030382EA000083EA010180EA020281EA43
:100400000303362D88BF30BD11F0004F4FEA013194
:100410004FF4801C4CEA113102D0404261EB4101A3
:1004200013F0004F4FEA03334CEA133302D0524229
:1004300063EB430394EA050F00F0A780A4F10104E5
:10044000D5F1200E0DDB02FA0EFC22FA05F280181F
:1004500041F1000103FA0EF2801843FA05F3594105
:100460000EE0A5F120050EF1200E012A03FA0EFC84
:1004700028BF4CF0020C43FA05F3C01851EBE371AE
:1004800001F0004507D54FF0000EDCF1000C7EEBCB
:1004900000006EEB0101B1F5801F1BD3B1F5001F09
:1004A0000CD349085FEA30004FEA3C0C04F1010428
:1004B0004FEA445212F5800F80F09A80BCF1004F51
:1004C00008BF5FEA500C50F1000041EB045141EAD3
:1004D000050130BD5FEA4C0C404141EB0101013C9C
:1004E00028BFB1F5801FE9D291F0000F04BF01468B
:1004F0000020B1FA81F308BF2033A3F10B03B3F15D
:1005000020020CDA0C3208DD02F1140CC2F10C02EC
:1005100001FA0CF021FA02F10CE002F11402D8BF4A
:10052000C2F1200C01FA02F120FA0CFCDCBF41EA16
:100530000C019040E41AA2BF01EB0451294330BDE5
:100540006FEA04041F3C1CDA0C340EDC04F11404C2
:10055000C4F1200220FA04F001FA02F340EA030099
:1005600021FA04F345EA030130BDC4F10C04C4F1DF
:10057000200220FA02F001FA04F340EA03002946BF
:1005800030BD21FA04F0294630BD94F0000F83F409
:10059000801306BF81F480110134013D4EE77FEAEC
:1005A000645C18BF7FEA655C29D094EA050F08BF38
:1005B00090EA020F05D054EA000C04BF1946104619
:1005C00030BD91EA030F1EBF0021002030BD5FEA5D
:1005D000545C05D14000494128BF41F0004130BD85
:1005E00014F580043CBF01F5801130BD01F00045D9
:1005F00045F0FE4141F470014FF0000030BD7FEA4C
:10060000645C1ABF194610467FEA655C1CBF0B4646
:10061000024650EA013406BF52EA033591EA030F5D
:1006200041F4002130BD00BF90F0000F04BF002155
:10063000704730B54FF4806404F132044FF0000588
:100640004FF0000150E700BF90F0000F04BF002101
:10065000704730B54FF4806404F1320410F0004567
:1006600048BF40424FF000013EE700BF42004FEA62
:10067000E2014FEA31014FEA02701FBF12F07F43DF
:1006800093F07F4F81F06051704732F07F4208BF96
:10069000704793F07F4F04BF41F40021704730B59D
:1006A0004FF4607401F0004521F000411CE700BFE9
:1006B00050EA010208BF704730B54FF000050AE06C
:1006C00050EA010208BF704730B511F0004502D56D
:1006D000404261EB41014FF4806404F132045FEA6F
:1006E000915C3FF4D8AE4FF003025FEADC0C18BF18
:1006F00003325FEADC0C18BF033202EBDC02C2F10A
:10070000200300FA03FC20FA02F001FA03FE40EA9B
:100710000E0021FA02F11444BDE600BF53B94AB9F4
:10072000002908BF00281CBF4FF0FF314FF0FF30F9
:1007300000F0AEB9ADF1080C6DE904CE00F040F860
:10074000DDF804E0DDE9022304B0704708B5024695
:100750000B4643EC172BB5EEC07BF1EE10FA03D439
:10076000BDE8084000F00CB8B1EE477B51EC170B28
:1007700000F006F8404261EB410108BD00000000B6
:100780009FED0B6B41EC170B9FED0B5B27EE066BA0
:10079000BCEEC66BB8EE464BA4EE457BFCEEC77BC9
:1007A00016EE101A17EE900A704700BFAFF30080E4
:1007B000000000000000F03D000000000000F041DB
:1007C0002DE9F047089D04468E46002B4DD18A4204
:1007D000944669D9B2FA82F252B101FA02F3C2F137
:1007E000200120FA01F10CFA02FC41EA030E9440C8
:1007F0004FEA1C48210CBEFBF8F61FFA8CF708FBE9
:1008000016E341EA034306FB07F199420AD91CEBC0
:10081000030306F1FF3080F01F81994240F21C81F2
:10082000023E63445B1AA4B2B3FBF8F008FB10333A
:1008300044EA034400FB07F7A7420AD91CEB04046F
:1008400000F1FF3380F00A81A74240F2078164443F
:10085000023840EA0640E41B00261DB1D4400023C4
:10086000C5E900433146BDE8F0878B4209D9002D28
:1008700000F0EF800026C5E9000130463146BDE8B2
:10088000F087B3FA83F6002E4AD18B4202D382421C
:1008900000F2F980841A61EB030301209E46002DCB
:1008A000E0D0C5E9004EDDE702B9FFDEB2FA82F220
:1008B000002A40F09280A1EB0C014FEA1C471FFA7E
:1008C0008CFE0126200CB1FBF7F307FB131140EA65
:1008D00001410EFB03F0884208D91CEB010103F132
:1008E000FF3802D2884200F2CB804346091AA4B2F4
:1008F000B1FBF7F007FB101144EA01440EFB00FEC8
:10090000A64508D91CEB040400F1FF3102D2A6452C
:1009100000F2BB800846A4EB0E0440EA03409CE7CB
:10092000C6F12007B34022FA07FC4CEA030C20FA78
:1009300007F401FA06F31C43F9404FEA1C4900FA98
:1009400006F3B1FBF9F8200C1FFA8CFE09FB181115
:1009500040EA014108FB0EF0884202FA06F20BD988
:100960001CEB010108F1FF3A80F08880884240F2D8
:100970008580A8F102086144091AA4B2B1FBF9F01C
:1009800009FB101144EA014100FB0EFE8E4508D917
:100990001CEB010100F1FF346CD28E456AD902389C
:1009A000614440EA0840A0FB0294A1EB0E01A14281
:1009B000C846A64656D353D05DB1B3EB080261EBEF
:1009C0000E0101FA07F722FA06F3F1401F43C5E9C9
:1009D000007100263146BDE8F087C2F12003D840FF
:1009E0000CFA02FC21FA03F3914001434FEA1C4741
:1009F0001FFA8CFEB3FBF7F007FB10360B0C43EA33
:100A0000064300FB0EF69E4204FA02F408D91CEBE2
:100A1000030300F1FF382FD29E422DD902386344E0
:100A20009B1B89B2B3FBF7F607FB163341EA034180
:100A300006FB0EF38B4208D91CEB010106F1FF38CF
:100A400016D28B4214D9023E6144C91A46EA0046C6
:100A500038E72E46284605E70646E3E61846F8E658
:100A60004B45A9D2B9EB020864EB0C0E0138A3E7A1
:100A70004646EAE7204694E74046D1E7D0467BE782
:100A8000023B614432E7304609E76444023842E7FA
:100A9000704700BF2DE9F0410D46C2B0174600294E
:100AA00041D00023441E4FF0010C4FF0FF36984612
:100AB0000EE0B34205D2BEF12A0F14BF8EEA080839
:100AC00066460CF1010E654503F10103F44628D991
:100AD00014F801EFBEF13B0FEBD1B3F5807F01AC11
:100AE000014628BF4FF4807320461D461A4644F045
:100AF0002DF8B5420BD90D49A0196A4645F06EFA9A
:100B0000009B984502D042B0BDE8F081751E0023DD
:100B10003A462946204663550DF0F8FF42B0BDE83D
:100B2000F0812B46D9E701ACF1E700BF549B0408E4
:100B300008B50122044B1A7000F0D4F84FF47A7013
:100B40000AF084FAFAE700BF1809002038B5084C0B
:100B5000084D4FF0FF3120680AF0D6FA0028F8D18E
:100B6000284605F001FA652003F0F0FFF1E700BF29
:100B7000E00C00200831002010B5084C0021084A84
:100B800008480AF019FA084A237810602BB90120A6
:100B90000AF05CFA2378002BF9D010BD1809002068
:100BA000649B0408310B00081409002038B5044B7D
:100BB0001446186803681D680023A847204638BDFE
:100BC000100400204FF0FF30704700BF2DE9F041C6
:100BD0000E4C0F4D0F4EDFF844800F4F4FF0FF319A
:100BE00020680AF091FA03460028F7D12A68317A82
:100BF00001322A600029F1D042463372D6E9000161
:100C0000FFF748FF38460DF077FCE7E7E40C0020DB
:100C10002C09002000040020141E002038090020A8
:100C2000436870B50D4604460A21186816460AF056
:100C30006BFA18B10A4A936801339360B1B228463F
:100C40000DF0A2FC20B9064A53680133536070BD11
:100C5000636818680AF08CFA4FF0FF3070BD00BF6F
:100C60002C090020F8B54668144C33681B68A34271
:100C700016D173680F460A21154618680AF044FA1F
:100C800048B9A9B238460DF07FFC80B90C4A5368C8
:100C900001335360F8BD0A4A936801339360F0E76B
:100CA00030469847003818BF01204042F8BD7368AD
:100CB00018680AF05DFA4FF0FF30F8BD210C00080B
:100CC0002C09002030B4054B0446054D012228684C
:100CD0001A72C3E9004130BC0AF04ABA000400208D
:100CE000E40C002008B5044A002104480AF064F925
:100CF000034B186008BD00BFB89B0408CD0B00086B
:100D00002009002010B4064B064A074C0748084942
:100D100053601160C3E900405DF8044B704700BFA9
:100D20002409002038090020949B0408E80C0020C6
:100D3000A09B04081248002310B5C0F88430BFF30C
:100D40004F8FD0F8803043F6E074C3F34E3CC3F3CA
:100D5000C90E4FEA4C1C0CEA0401734641EA837247
:100D6000013BC0F874225A1CF8D1ACF1200C1CF1E4
:100D7000200FF0D1BFF34F8FBFF36F8F10BD00BFB7
:100D800000ED00E0F8B52D4B05461B78002B4FD049
:100D90008B88C888DB0BB1F9004043EAD03340F2BE
:100DA000CF208442C8BF43F0010333B9B1F9023008
:100DB0008342D4BF0023012303B1F8BD204C174662
:100DC000C4F88430BFF34F8FD4F8803043F6E0701E
:100DD000C3F3C906C3F34E334FEA431E0EEA000CB9
:100DE00031464CEA81730139C4F874324B1CF8D196
:100DF000AEF1200E1EF1200FF0D1BFF34F8FBFF3E5
:100E00006F8FBFF34F8FBFF36F8F0023C4F8503243
:100E1000BFF34F8FBFF36F8F0A4B18680AF074F956
:100E2000094B1B68C3F8AC705A6A42F001025A625F
:100E30002846BDE8F84035F03DB900BF1404002055
:100E400000ED00E0000A0020400D0020034A0121CF
:100E5000034BD16318680AF08BB900BF0010005033
:100E6000000A002070B584B01E4D00F013F9002276
:100E70000E21582003F02CFE582003F067FE4FF49B
:100E80003971194804F096FF2B684BBB174E184C6C
:100E900018493046184B194A34F0ECFF204634F01C
:100EA000C7FF237C164A204643F00203E660226017
:100EB0002374144A144B6261E36234F0E9FF134B6C
:100EC0006C4628600FCB84E80F00012122460846BB
:100ED0000AF0CAF80E4B18600AF04AF904B070BD67
:100EE00043F0B8FCFC090020400D00204009002020
:100EF0005C090020000000C000E90700000080C07D
:100F0000D002D002850D0008350D0008909A040823
:100F1000000A00202DE9F0411D4E82B00F463046F8
:100F200002F006FBB3784BB3737893B134460025D7
:100F3000DFF8708094F80AC0013523894046E288C2
:100F40002946CDF800C0083444F0B2FE7378AB42B5
:100F5000F0DCB6F90620F4880E493A800C8030891E
:100F60000D49B6F9083008800C480D49028001226D
:100F70007B800B80BA7302B0BDE8F0810849074A54
:100F8000BB7312880B883A807B8002B0BDE8F08189
:100F90002C0A0020280A00202A0A0020240A002007
:100FA000260A0020E09B040810B50A48BA210A4C22
:100FB00002F05AFA0121074802F0B6FA204635F04D
:100FC0008DF80122054B204622706360BDE8104079
:100FD00035F094B82C0A0020040A0020150F0008F0
:100FE0004FF434720148114602F00ABA2C0A00206C
:100FF00000B583B084464FF0FF3301220DF10601A6
:101000000648ADF806C007F007FE10B903B05DF85A
:1010100004FB03F0E3F903B05DF804FB380E002095
:1010200030B5002283B005460C461848082103F06D
:10103000DBFF012003F022FD4FF0FF3301220DF111
:1010400006011348ADF8065007F0E6FDB8B944F4C0
:1010500080744FF0FF3301220DF106010C48ADF80A
:10106000064007F0D9FD68B9012003F007FD012211
:101070000821064803B0BDE8304003F0B5BF03F0D7
:10108000ADF9E4E703F0AAF9EEE700BF0018025853
:10109000380E002000B5012283B04FF48071ED4876
:1010A00003F0A2FF142003F0E9FC00224FF480714A
:1010B000E84803F099FF282003F0E0FC01224FF4F8
:1010C0008071E44803F090FFC82003F0D7FC302182
:1010D000FF20FFF7A5FF5221FF20FFF7A1FF01210D
:1010E000FF20FFF79DFF0021E320FFF799FF01217B
:1010F0000A20FFF795FFA0212320FFF791FF0F2182
:101100002420FFF78DFF14212520FFF789FF2E21D2
:101110002620FFF785FF2E212720FFF781FF0221E0
:101120002920FFF77DFFCF212A20FFF779FF342107
:101130003220FFF775FF9C213820FFF771FFA721B0
:101140003920FFF76DFF4F213A20FFF769FF942107
:101150003B20FFF765FF07214020FFF761FF6D216E
:101160004220FFF75DFF83214320FFF759FF002155
:101170008120FFF755FF57219120FFF751FF57219D
:101180009220FFF74DFF5221A020FFF749FF502189
:10119000A120FFF745FF9C21A420FFF741FF02217A
:1011A000A720FFF73DFF0221A820FFF739FF02210A
:1011B000A920FFF735FFA821AA20FFF731FF28213A
:1011C000AB20FFF72DFFD221AE20FFF729FF022130
:1011D000AF20FFF725FFD221B020FFF721FF262106
:1011E000B220FFF71DFF2621B320FFF719FF3021A2
:1011F000FF20FFF715FF5221FF20FFF711FF02210B
:10120000FF20FFF70DFF0221B020FFF709FF31217A
:10121000B120FFF705FF2421B220FFF701FF3021A5
:10122000B320FFF7FDFE3821B420FFF7F9FE3E2181
:10123000B520FFF7F5FE2621B620FFF7F1FE3E218F
:10124000B720FFF7EDFE0A21B820FFF7E9FE0021E5
:10125000B920FFF7E5FE1121BA20FFF7E1FE1121C9
:10126000BB20FFF7DDFE1321BC20FFF7D9FE0022D3
:101270000821794803F0B8FE012003F0FFFBBD20F0
:101280004FF0FF330122ADF806000DF1060173485F
:1012900007F0C2FC002841F06B864FF48A704FF0D3
:1012A000FF3301220DF10601ADF806006B4807F08F
:1012B000B3FC002842F0A080012003F0DFFB0122F4
:1012C0000821654803F090FE00220821624803F0DF
:1012D0008BFE012003F0D2FBBE204FF0FF33012232
:1012E000ADF806000DF106015C4807F095FC0028FA
:1012F00042F07E804FF48C704FF0FF3301220DF1ED
:101300000601ADF80600554807F086FC002842F0BB
:101310006B80012003F0B2FB012208214E4803F04C
:1013200063FE002208214C4803F05EFE012003F01A
:10133000A5FBBF204FF0FF330122ADF806000DF1F1
:101340000601464807F068FC002842F0498040F258
:1013500011104FF0FF3301220DF10601ADF8060028
:101360003E4807F059FC002842F03680012003F087
:1013700085FB01220821384803F036FE1621C020E3
:10138000FFF74EFE00220821334803F02DFE012016
:1013900003F074FBC1204FF0FF330122ADF80600CB
:1013A0000DF106012D4807F037FC002842F01080AF
:1013B0004FF480704FF0FF3301220DF10601ADF8BC
:1013C0000600264807F028FC002841F0FD87012090
:1013D00003F054FB012208211F4803F005FE002200
:1013E00008211D4803F000FE012003F047FBD02038
:1013F0004FF0FF330122ADF806000DF1060117484A
:1014000007F00AFC002841F0DB8740F205104FF09E
:10141000FF3301220DF10601ADF806000F4807F079
:10142000FBFB002841F0C887012003F027FB0122C5
:101430000821094803F0D8FD00220821064803F0DE
:10144000D3FD012003F01AFBD1204FF0FF3301221E
:1014500006E000BF0020025800180258380E002095
:10146000ADF806000DF10601E04807F0D5FB0028B5
:1014700041F09E874FF498704FF0FF3301220DF139
:101480000601ADF80600D94807F0C6FB002841F078
:101490008B87012003F0F2FA01220821D44803F0DF
:1014A000A3FD2521D220FFF7BBFD00220821D04853
:1014B00003F09AFD012003F0E1FAD3204FF0FF334F
:1014C0000122ADF806000DF10601C84807F0A4FBA3
:1014D000002841F0658740F235104FF0FF330122BC
:1014E0000DF10601ADF80600C04807F095FB002895
:1014F00041F05287012003F0C1FA01220821BC48C3
:1015000003F072FD00220821B94803F06DFD0120AF
:1015100003F0B4FAD4204FF0FF330122ADF80600F7
:101520000DF10601B14807F077FB002841F0308744
:101530004FF49A704FF0FF3301220DF10601ADF820
:101540000600AA4807F068FB002841F01D8701202B
:1015500003F094FA01220821A54803F045FD00227A
:101560000821A34803F040FD012003F087FAD520AD
:101570004FF0FF330122ADF806000DF106019B4844
:1015800007F04AFB002841F0FB8640F23B104FF089
:10159000FF3301220DF10601ADF80600934807F074
:1015A0003BFB002841F0E886012003F067FA0122A6
:1015B00008218F4803F018FD2621D620FFF730FDC3
:1015C000002208218A4803F00FFD012003F056FA9B
:1015D000D7204FF0FF330122ADF806000DF10601D0
:1015E000824807F019FB002841F0C28640F23D1006
:1015F0004FF0FF3301220DF10601ADF806007B48E4
:1016000007F00AFB002841F0AF86012003F036FA0C
:1016100001220821764803F0E7FC002208217448E3
:1016200003F0E2FC012003F029FAD8204FF0FF3349
:101630000122ADF806000DF106016C4807F0ECFA46
:10164000002841F08D864FF485704FF0FF33012262
:101650000DF10601ADF80600644807F0DDFA002838
:1016600041F07A86012003F009FA0122082160483E
:1016700003F0BAFC002208215D4803F0B5FC01200C
:1016800003F0FCF9D9204FF0FF330122ADF806003A
:101690000DF10601554807F0BFFA002841F05886C1
:1016A0004FF480704FF0FF3301220DF10601ADF8C9
:1016B00006004E4807F0B0FA002841F045860120A8
:1016C00003F0DCF901220821494803F08DFC1221C6
:1016D000DA20FFF7A5FC00220821454803F084FC2E
:1016E000012003F0CBF9DB204FF0FF330122ADF8EE
:1016F00006000DF106013D4807F08EFA002841F082
:101700001F864FF488704FF0FF3301220DF1060160
:10171000ADF80600354807F07FFA002841F00C8646
:10172000012003F0ABF901220821314803F05CFCF1
:10173000002208212E4803F057FC012003F09EF9F7
:10174000DC204FF0FF330122ADF806000DF1060159
:10175000264807F061FA002841F0EA854FF48970C5
:101760004FF0FF3301220DF10601ADF806001F48CE
:1017700007F052FA002841F0D785012003F07EF9E6
:10178000012208211A4803F02FFC002208211848E2
:1017900003F02AFC012003F071F9DD204FF0FF3344
:1017A0000122ADF806000DF10601104807F034FAE9
:1017B000002841F0B5854FF48A704FF0FF330122C5
:1017C0000DF10601ADF80600084807F025FA0028DB
:1017D00041F0A285012003F051F9012208210448BB
:1017E00003F002FC1821DE2004E000BF380E0020C8
:1017F00000180258FFF714FC00220821DD4803F00E
:10180000F3FB012003F03AF9DF204FF0FF33012210
:10181000ADF806000DF10601D74807F0FDF90028E4
:1018200041F0768540F211104FF0FF3301220DF1A7
:101830000601ADF80600D04807F0EEF9002841F0A7
:101840006385012003F01AF901220821C94803F039
:10185000CBFB00220821C74803F0C6FB012003F0A0
:101860000DF9E0204FF0FF330122ADF806000DF135
:101870000601C14807F0D0F9002841F0418540F247
:1018800015104FF0FF3301220DF10601ADF80600EF
:10189000B94807F0C1F9002841F02E85012003F076
:1018A000EDF801220821B34803F09EFB0022082135
:1018B000B04803F099FB012003F0E0F8E1204FF07D
:1018C000FF330122ADF806000DF10601AA4807F02A
:1018D000A3F9002841F00C854FF480704FF0FF33DE
:1018E00001220DF10601ADF80600A34807F094F9B6
:1018F000002841F0F984012003F0C0F801220821FA
:101900009C4803F071FB3021FF20FFF789FB002288
:101910000821984803F068FB012003F0AFF8FF208E
:101920004FF0FF330122ADF806000DF10601924899
:1019300007F072F9002841F0D3844FF4A9704FF0FA
:10194000FF3301220DF10601ADF806008A4807F0C9
:1019500063F9002841F0C084012003F08FF80122D0
:101960000821844803F040FB00220821814803F04D
:101970003BFB012003F082F8FF204FF0FF330122F0
:10198000ADF806000DF106017B4807F045F9002887
:1019900041F09E8440F203104FF0FF3301220DF11D
:1019A0000601ADF80600744807F036F9002841F04A
:1019B0008B84012003F062F8012208216D4803F0B6
:1019C00013FB002208216B4803F00EFB012003F0FB
:1019D00055F800204FF0FF330122ADF806000DF15D
:1019E0000601654807F018F9002841F069844FF4B2
:1019F00080704FF0FF3301220DF10601ADF80600B3
:101A00005D4807F009F9002841F05684012003F0F1
:101A100035F801220821574803F0E6FA0022082190
:101A2000544803F0E1FA012003F028F801224FF0B6
:101A3000FF330DF106015048ADF8062007F0ECF831
:101A4000002841F035844FF480704FF0FF330122BD
:101A50000DF10601ADF80600474807F0DDF8002853
:101A600041F02284012003F009F8012208214148B5
:101A700003F0BAFA002208213E4803F0B5FA01202B
:101A800002F0FCFF02204FF0FF330122ADF8060008
:101A90000DF10601384807F0BFF8002841F0008436
:101AA0004FF480704FF0FF3301220DF10601ADF8C5
:101AB0000600314807F0B0F8002841F0ED8301201E
:101AC00002F0DCFF012208212A4803F08DFA0022EF
:101AD0000821284803F088FA012002F0CFFF0320F4
:101AE0004FF0FF330122ADF806000DF10601224848
:101AF00007F092F8002841F0CB834FF480704FF04C
:101B0000FF3301220DF10601ADF806001A4807F077
:101B100083F8002841F0B883012002F0AFFF0122D2
:101B20000821144803F060FA00220821114803F04C
:101B30005BFA012002F0A2FF08204FF0FF330122E0
:101B4000ADF806000DF106010B4807F065F8002816
:101B500041F0968340F20D104FF0FF3301220DF15A
:101B60000601ADF80600044807F056F8002841F0D9
:101B7000838303E000180258380E0020012002F091
:101B80007DFF01220821DD4803F02EFA0E210920F5
:101B9000FFF746FA00220821D84803F025FA012071
:101BA00002F06CFF0A204FF0FF330122ADF806006F
:101BB0000DF10601D24807F02FF8002841F05883B4
:101BC00040F20F104FF0FF3301220DF10601ADF886
:101BD0000600CB4807F020F8002841F0458301209B
:101BE00002F04CFF01220821C44803F0FDF9002255
:101BF0000821C24803F0F8F9012002F03FFF0B2052
:101C00004FF0FF330122ADF806000DF10601BC488C
:101C100007F002F8002841F023834FF488704FF05A
:101C2000FF3301220DF10601ADF80600B44806F0BD
:101C3000F3FF002841F01083012002F01FFF012272
:101C40000821AE4803F0D0F900220821AB4803F088
:101C5000CBF9012002F012FF20204FF0FF330122C8
:101C6000ADF806000DF10601A54806F0D5FF0028E5
:101C700041F0EE824FF480704FF0FF3301220DF1FE
:101C80000601ADF806009E4806F0C6FF002841F0A8
:101C9000DB82012002F0F2FE01220821974803F0C6
:101CA000A3F900212120FFF7BBF900220821934866
:101CB00003F09AF9012002F0E1FE22204FF0FF33F9
:101CC0000122ADF806000DF106018D4806F0A4FFD3
:101CD000002841F0B5824FF480704FF0FF330122AD
:101CE0000DF10601ADF80600854806F095FF0028C5
:101CF00041F0A282012002F0C1FE012208217F48AA
:101D000003F072F9002208217C4803F06DF90120EC
:101D100002F0B4FE23204FF0FF330122ADF806009D
:101D20000DF10601764806F077FF002841F0808229
:101D30004FF480704FF0FF3301220DF10601ADF832
:101D400006006F4806F068FF002841F06D82012010
:101D500002F094FE01220821684803F045F90022B0
:101D60000821664803F040F9012002F087FE282090
:101D70004FF0FF330122ADF806000DF10601604877
:101D800006F04AFF002841F04B824FF491704FF06B
:101D9000FF3301220DF10601ADF80600584806F0A8
:101DA0003BFF002841F03882012002F067FE01224B
:101DB0000821524803F018F9E9212A20FFF730F9E9
:101DC000002208214D4803F00FF9012002F056FED1
:101DD0002B204FF0FF330122ADF806000DF1060174
:101DE000474806F019FF002841F0128240F2E9103E
:101DF0004FF0FF3301220DF10601ADF80600404817
:101E000006F00AFF002841F0FF81012002F036FEB3
:101E100001220821394803F0E7F800220821374859
:101E200003F0E2F8012002F029FE30204FF0FF33EA
:101E30000122ADF806000DF10601314806F0ECFE76
:101E4000002841F0DD814FF480704FF0FF33012214
:101E50000DF10601ADF80600294806F0DDFE002868
:101E600041F0CA81012002F009FE01220821234825
:101E700003F0BAF800220821204803F0B5F8012049
:101E800002F0FCFD31204FF0FF330122ADF80600D7
:101E90000DF106011A4806F0BFFE002841F0A881A6
:101EA0004FF480704FF0FF3301220DF10601ADF8C1
:101EB0000600134806F0B0FE002841F0958101208D
:101EC00002F0DCFD012208210C4803F08DF800220D
:101ED00008210A4803F088F8012002F0CFFD3220E3
:101EE0004FF0FF330122ADF806000DF10601044862
:101EF00006F092FE002841F0738103E000180258BA
:101F0000380E00204FF480704FF0FF3301220DF1A6
:101F10000601ADF80600E04806F07EFE002841F01C
:101F20005B81012002F0AAFD01220821DB4803F0B9
:101F30005BF800220821D94803F056F8012002F08E
:101F40009DFD33204FF0FF330122ADF806000DF167
:101F50000601D14806F060FE002841F039814FF4B7
:101F600080704FF0FF3301220DF10601ADF806003D
:101F7000C94806F051FE002841F02681012002F0F8
:101F80007DFD01220821C54803F02EF8002208211A
:101F9000C24803F029F8012002F070FD34204FF010
:101FA000FF330122ADF806000DF10601BA4806F034
:101FB00033FE002841F0048140F201104FF0FF335E
:101FC00001220DF10601ADF80600B34806F024FE2B
:101FD000002841F0F180012002F050FD012208218B
:101FE000AE4803F001F800220821AC4802F0FCFFE3
:101FF000012002F043FD35204FF0FF330122ADF800
:1020000006000DF10601A44806F006FE002841F086
:10201000CF804FF480704FF0FF3301220DF10601A5
:10202000ADF806009C4806F0F7FD002841F0BC80A2
:10203000012002F023FD01220821984802F0D4FF7C
:1020400000213620FEF7ECFF00220821934802F021
:10205000CBFF012002F012FD37204FF0FF330122A9
:10206000ADF806000DF106018B4806F0D5FD0028FD
:1020700041F0968040F203104FF0FF3301220DF142
:102080000601ADF80600844806F0C6FD002841F0C0
:102090008380012002F0F2FC012208217F4802F037
:1020A000A3FF002208217D4802F09EFF012002F0DC
:1020B000E5FC40204FF0FF330122ADF806000DF1A2
:1020C0000601754806F0A8FD002841F061804FF434
:1020D00085704FF0FF3301220DF10601ADF80600C7
:1020E0006D4806F099FD002841F04E80012002F075
:1020F000C5FC01220821694802F076FF0022082170
:10210000664802F071FF012002F0B8FC41204FF058
:10211000FF330122ADF806000DF106015E4806F01E
:102120007BFD002841F02C8040F20B104FF0FF3374
:1021300001220DF10601ADF80600574806F06CFDCE
:10214000002841F01980012002F098FC01220821AA
:10215000524802F049FF0C214220FEF761FF0022A5
:1021600008214E4802F040FF012002F087FC432086
:102170004FF0FF330122ADF806000DF1060146488D
:1021800006F04AFD002840F0F38740F20D104FF0B2
:10219000FF3301220DF10601ADF806003E4806F0BE
:1021A0003BFD002840F0E087012002F067FC01229F
:1021B00008213A4802F018FF00220821374802F0AF
:1021C00013FF012002F05AFC44204FF0FF3301229C
:1021D000ADF806000DF106012F4806F01DFD0028A0
:1021E00040F0BE874FF491704FF0FF3301220DF1A4
:1021F0000601ADF80600284806F00EFD002840F064
:10220000AB87012002F03AFC01220821234802F0AA
:10221000EBFE00220821214802F0E6FE012002F038
:102220002DFC45204FF0FF330122ADF806000DF1E3
:102230000601194806F0F0FC002840F089874FF4A9
:10224000F2704FF0FF3301220DF10601ADF80600E8
:10225000114806F0E1FC002840F07687012002F0EA
:102260000DFC012208210D4802F0BEFEE5214620AA
:10227000FEF7D6FE00220821084802F0B5FE012034
:1022800002F0FCFB47204FF0FF330122ADF80600BF
:102290000DF1060104E000BF380E002000180258BE
:1022A000DF4806F0B9FC002840F04A874FF49170EF
:1022B0004FF0FF3301220DF10601ADF80600D848BA
:1022C00006F0AAFC002840F03787012002F0D6FB78
:1022D00001220821D34802F087FE00220821D148BC
:1022E00002F082FE012002F0C9FB48204FF0FF33CC
:1022F0000122ADF806000DF10601C94806F08CFC7C
:10230000002840F015874FF4F3704FF0FF3301229F
:102310000DF10601ADF80600C14806F07DFC00286D
:1023200040F00287012002F0A9FB01220821BD48EC
:1023300002F05AFE00220821BA4802F055FE0120A0
:1023400002F09CFB49204FF0FF330122ADF806005C
:102350000DF10601B24806F05FFC002840F0E0866F
:1023600040F2E7104FF0FF3301220DF10601ADF806
:102370000600AB4806F050FC002840F0CD86012056
:1023800002F07CFB01220821A64802F02DFE00226B
:102390000821A44802F028FE012002F06FFB502023
:1023A0004FF0FF330122ADF806000DF106019C4805
:1023B00006F032FC002840F0AB864FF487704FF0F7
:1023C000FF3301220DF10601ADF80600944806F036
:1023D00023FC002840F09886012002F04FFB0122E8
:1023E0000821904802F000FE002208218D4802F0EA
:1023F000FBFD012002F042FB51204FF0FF33012290
:10240000ADF806000DF10601854806F005FC002830
:1024100040F0768640F20F104FF0FF3301220DF1AD
:102420000601ADF806007E4806F0F6FB002840F0F5
:102430006386012002F022FB01220821794802F084
:10244000D3FD00220821774802F0CEFD012002F0E2
:1024500015FB52204FF0FF330122ADF806000DF1BD
:1024600006016F4806F0D8FB002840F041864FF483
:1024700088704FF0FF3301220DF10601ADF8060020
:10248000674806F0C9FB002840F02E86012002F0C4
:10249000F5FA01220821634802F0A6FD0022082176
:1024A000604802F0A1FD012002F0E8FA53204FF04D
:1024B000FF330122ADF806000DF10601584806F081
:1024C000ABFB002840F00C8640F211104FF0FF33B8
:1024D00001220DF10601ADF80600514806F09CFB03
:1024E000002840F0F985012002F0C8FA01220821F5
:1024F0004C4802F079FD22215420FEF791FDE8219D
:102500005520FEF78DFDE9215620FEF789FD0022BA
:102510000821444802F068FD012002F0AFFA57207C
:102520004FF0FF330122ADF806000DF106013C48E3
:1025300006F072FB002840F0CB854FF491704FF00D
:10254000FF3301220DF10601ADF80600344806F014
:1025500063FB002840F0B885012002F08FFA0122C9
:102560000821304802F040FDEA215820FEF758FDCE
:10257000002208212B4802F037FD012002F07EFAEC
:1025800059204FF0FF330122ADF806000DF106018E
:10259000234806F041FB002840F08E8540F2EB1006
:1025A0004FF0FF3301220DF10601ADF806001C4883
:1025B00006F032FB002840F07B85012002F05EFA35
:1025C00001220821174802F00FFD05216020FEF7C7
:1025D00027FD00220821134802F006FD012002F029
:1025E0004DFA61204FF0FF330122ADF806000DF1E6
:1025F00006010B4806F010FB002840F0558540F21C
:1026000005104FF0FF3301220DF10601ADF8060071
:10261000034806F001FB002840F0428504E000BFBB
:10262000380E002000180258012002F027FA01227B
:102630000821E24802F0D8FC0A216520FEF7F0FCF0
:102640000A216620FEF7ECFC05218020FEF7E8FC5D
:1026500000220821D94802F0C7FC012002F00EFA3E
:1026600081204FF0FF330122ADF806000DF1060185
:10267000D34806F0D1FA002840F00E854FF4807060
:102680004FF0FF3301220DF10601ADF80600CC48F2
:1026900006F0C2FA002840F0FB84012002F0EEF9B7
:1026A00001220821C54802F09FFC02218220FEF78A
:1026B000B7FC00220821C14802F096FC012002F07C
:1026C000DDF983204FF0FF330122ADF806000DF154
:1026D0000601BB4806F0A0FA002840F0D5844FF46C
:1026E00082704FF0FF3301220DF10601ADF80600B4
:1026F000B34806F091FA002840F0C284012002F0AD
:10270000BDF901220821AD4802F06EFC00218420B1
:10271000FEF786FC00220821A84802F065FC012093
:1027200002F0ACF985204FF0FF330122ADF806002E
:102730000DF10601A24806F06FFA002840F09C84D3
:102740004FF480704FF0FF3301220DF10601ADF818
:1027500006009B4806F060FA002840F089840120BA
:1027600002F08CF901220821944802F03DFC1F215F
:102770008620FEF755FC1F218720FEF751FC0A2119
:102780008820FEF74DFC002208218C4802F02CFC2A
:10279000012002F073F989204FF0FF330122ADF8D8
:1027A00006000DF10601864806F036FA002840F0D2
:1027B0005B844FF486704FF0FF3301220DF1060168
:1027C000ADF806007E4806F027FA002840F048845D
:1027D000012002F053F901220821784802F004FC9C
:1027E0000E218A20FEF71CFC00220821734802F00B
:1027F000FBFB012002F042F98B204FF0FF33012256
:10280000ADF806000DF106016D4806F005FA002846
:1028100040F022844FF488704FF0FF3301220DF115
:102820000601ADF80600664806F0F6F9002840F00B
:102830000F84012002F022F9012208215F4802F0F2
:10284000D3FB05219620FEF7EBFB002208215B4815
:1028500002F0CAFB012002F011F997204FF0FF337C
:102860000122ADF806000DF10601554806F0D4F935
:10287000002840F0EA834FF480704FF0FF330122CC
:102880000DF10601ADF806004D4806F0C5F9002827
:1028900040F0D883012002F0F1F8012208214748D6
:1028A00002F0A2FB01219820FEF7BAFB00220821CA
:1028B000424802F099FB012002F0E0F899204FF025
:1028C000FF330122ADF806000DF106013C4806F089
:1028D000A3F9002840F0B38340F203104FF0FF3318
:1028E00001220DF10601ADF80600354806F094F915
:1028F000002840F0A183012002F0C0F80122082145
:102900002E4802F071FB00219A20FEF789FB00227D
:1029100008212A4802F068FB012002F0AFF89B2052
:102920004FF0FF330122ADF806000DF106012448F7
:1029300006F072F9002840F07C834FF480704FF06D
:10294000FF3301220DF10601ADF806001C4806F028
:1029500063F9002840F06A83012002F08FF8012219
:102960000821164802F040FB1F219C20FEF758FB6F
:1029700000220821114802F037FB012002F07EF806
:102980009D204FF0FF330122ADF806000DF1060146
:102990000B4806F041F9002840F0458340F21F1033
:1029A0004FF0FF3301220DF10601ADF80600044897
:1029B00006F032F9002840F0338303E00018025893
:1029C000380E0020012002F059F801220821DF48CA
:1029D00002F00AFB09219E20FEF722FB00220821BB
:1029E000DA4802F001FB012002F048F89F204FF086
:1029F000FF330122ADF806000DF10601D44806F0C0
:102A00000BF9002840F0098340F20B104FF0FF3320
:102A100001220DF10601ADF80600CD4806F0FCF8E4
:102A2000002840F0F782012002F028F80122082156
:102A3000C64802F0D9FA0D21A020FEF7F1FA0F21C5
:102A4000A120FEF7EDFA0521B020FEF7E9FA0022F9
:102A50000821BE4802F0C8FA012002F00FF8B120A8
:102A60004FF0FF330122ADF806000DF10601B84822
:102A700006F0D2F8002840F0CA8240F21F104FF052
:102A8000FF3301220DF10601ADF80600B04806F053
:102A9000C3F8002840F0B882012001F0EFFF0122C6
:102AA0000821AA4802F0A0FA0321B220FEF7B8FAE2
:102AB00000220821A54802F097FA012001F0DEFF6C
:102AC000B3204FF0FF330122ADF806000DF10601EF
:102AD0009F4806F0A1F8002840F0938240F20110D0
:102AE0004FF0FF3301220DF10601ADF806009848C2
:102AF00006F092F8002840F08182012001F0BEFF2C
:102B000001220821914802F06FFA0021B420FEF75B
:102B100087FA002208218D4802F066FA012001F0B0
:102B2000ADFFB5204FF0FF330122ADF806000DF1E7
:102B30000601874806F070F8002840F05C824FF4E8
:102B400080704FF0FF3301220DF10601ADF8060051
:102B50007F4806F061F8002840F04A82012001F029
:102B60008DFF01220821794802F03EFA1F21B6208C
:102B7000FEF756FA0021B720FEF752FA0F21B820CF
:102B8000FEF74EFA00220821704802F02DFA0120CB
:102B900001F074FFB9204FF0FF330122ADF80600B9
:102BA0000DF106016A4806F037F8002840F01D8252
:102BB00040F20D104FF0FF3301220DF10601ADF888
:102BC0000600634806F028F8002840F00B82012038
:102BD00001F054FF012208215C4802F005FA0B21A4
:102BE000BA20FEF71DFA00220821584802F0FCF92D
:102BF000012001F043FFBB204FF0FF330122ADF86D
:102C000006000DF10601524806F006F8002840F0D3
:102C1000E68140F209104FF0FF3301220DF1060169
:102C2000ADF806004A4805F0F7FF002840F0D481CF
:102C3000012001F023FF01220821444802F0D4F9C9
:102C40000521C620FEF7ECF9002208213F4802F0DA
:102C5000CBF9012001F012FFC7204FF0FF33012212
:102C6000ADF806000DF10601394805F0D5FF002842
:102C700040F0AF8140F21F104FF0FF3301220DF101
:102C80000601ADF80600324805F0C6FF002840F006
:102C90009D81012001F0F2FE012208212B4802F063
:102CA000A3F90421C820FEF7BBF90221C920FEF7D1
:102CB000B7F90021CA20FEF7B3F900220821234802
:102CC00002F092F9012001F0D9FECB204FF0FF3342
:102CD0000122ADF806000DF106011D4805F09CFF2C
:102CE000002840F070814FF480704FF0FF330122D4
:102CF0000DF10601ADF80600154805F08DFF00281E
:102D000040F05E81012001F0B9FE012208210F4848
:102D100002F06AF91F21CC20FEF782F90022082177
:102D20000A4802F061F9012001F0A8FECD204FF021
:102D3000FF330122ADF806000DF10601044805F04D
:102D40006BFF002840F0398104E000BF00180258F2
:102D5000380E00204FF480704FF0FF3301220DF148
:102D60000601ADF80600D64805F056FF002840F0F1
:102D70002181012001F082FE01220821D14802F0C8
:102D800033F91021CE20FEF74BF900220821CD485F
:102D900002F02AF9012001F071FECF204FF0FF333D
:102DA0000122ADF806000DF10601C54805F034FF1B
:102DB000002840F0FC804FF487704FF0FF33012271
:102DC0000DF10601ADF80600BD4805F025FF00280D
:102DD00040F0EA80012001F051FE01220821B948AB
:102DE00002F002F90C21D020FEF71AF90022082186
:102DF000B44802F0F9F8012001F040FED1204FF074
:102E0000FF330122ADF806000DF10601AC4805F0D4
:102E100003FF002840F0C5804FF485704FF0FF336A
:102E200001220DF10601ADF80600A54805F0F4FEFB
:102E3000002840F0B380012001F020FE012208218B
:102E4000A04802F0D1F83021FF20FEF7E9F8002277
:102E500008219C4802F0C8F8012001F00FFEFF2075
:102E60004FF0FF330122ADF806000DF10601944842
:102E700005F0D2FE002840F08E804FF4A9704FF08C
:102E8000FF3301220DF10601ADF806008C4805F074
:102E9000C3FE00287CD1012001F0F0FD01220821B1
:102EA000884802F0A1F80021FF20FEF7B9F80022BF
:102EB0000821844802F098F8012001F0DFFD362057
:102EC0004FF0FF330122ADF806000DF106017C48FA
:102ED00005F0A2FE002858D14FF485704FF0FF3363
:102EE00001220DF10601ADF80600754805F094FECB
:102EF000002847D1012001F0C1FD012208217148BD
:102F000002F072F800211120FEF78AF8C82001F0C3
:102F1000B5FD002208216B4802F066F8012001F09F
:102F2000ADFD29204FF0FF330122ADF806000DF171
:102F30000601634805F070FE08BB4FF4807C4FF03B
:102F4000FF3301220DF106015D48ADF806C005F022
:102F500063FE88B9012001F091FD5A480122082141
:102F600002F042F8642003B05DF804EB01F086BD86
:102F700001F034FAFEF791B901F030FAEAE701F016
:102F80002DFADAE701F02AFAB4E701F027FAA3E70D
:102F900001F024FA7FE701F021FA6EE701F01EFA52
:102FA00049E701F01BFA37E701F018FA12E701F0E0
:102FB00015FA00E701F012FADBE601F00FFAC9E6B4
:102FC00001F00CFA9EE601F009FA8CE601F006FA2F
:102FD0005FE601F003FA4DE601F000FA28E601F0A1
:102FE000FDF916E601F0FAF9F1E501F0F7F9DFE590
:102FF00001F0F4F9B2E501F0F1F9A0E501F0EEF924
:103000007BE501F0EBF969E501F0E8F944E501F051
:10301000E5F932E501F0E2F905E501F0DFF9F3E465
:1030200001F0DCF9CEE401F0D9F9B7E401F0D6F90A
:1030300092E401F0D3F980E401F0D0F95BE401F00F
:10304000CDF949E401F0CAF924E401F0C7F912E42A
:1030500001F0C4F9FFF7EDBB01F0C0F9FFF7DABBEF
:1030600001F0BCF9FFF7B4BB01F0B8F9FFF7A1BB61
:1030700001F0B4F9FFF773BB01F0B0F9FFF760BBE3
:1030800001F0ACF9FFF73ABB01F0A8F9FFF727BB55
:1030900001F0A4F9FFF701BB01F0A0F9FFF7EEBAC8
:1030A00001F09CF9FFF7C0BA01F098F9FFF7A7BA51
:1030B00001F094F9FFF781BA01F090F9FFF76EBAC9
:1030C000380E00200018025801F088F9FFF744BAC2
:1030D00001F084F9FFF731BA01F080F9FFF703BA84
:1030E00001F07CF9FFF7F0B901F078F9FFF7CEB9FC
:1030F00001F074F9FFF7BBB901F070F9FFF799B966
:1031000001F06CF9FFF786B901F068F9FFF764B9CF
:1031100001F064F9FFF751B901F060F9FFF72FB939
:1031200001F05CF9FFF71CB901F058F9FFF7FAB8A4
:1031300001F054F9FFF7E7B801F050F9FFF7C5B80F
:1031400001F04CF9FFF7B2B801F048F9FFF786B883
:1031500001F044F9FFF773B801F040F9FFF751B8F7
:1031600001F03CF9FFF73EB801F038F9FFF71CB861
:1031700001F034F9FFF709B801F030F9FEF7E3BFC9
:1031800001F02CF9FEF7D0BF01F028F9FEF7AEBF31
:1031900001F024F9FEF79BBF01F020F9FEF779BF9B
:1031A00001F01CF9FEF766BF01F018F9FEF740BF09
:1031B00001F014F9FEF72DBF01F010F9FEF70BBF77
:1031C00001F00CF9FEF7F8BE01F008F9FEF7D6BEE3
:1031D00001F004F9FEF7C3BE01F000F9FEF7A1BE4D
:1031E00001F0FCF8FEF78EBE01F0F8F8FEF767BEBE
:1031F00001F0F4F8FEF754BE01F0F0F8FEF732BE2D
:1032000001F0ECF8FEF71FBE01F0E8F8FEF7FDBD97
:1032100001F0E4F8FEF7EABD01F0E0F8FEF7C4BD06
:1032200001F0DCF8FEF7B1BD01F0D8F8FEF78FBD74
:1032300001F0D4F8FEF77CBD01F0D0F8FEF75ABDDE
:1032400001F0CCF8FEF747BD01F0C8F8FEF721BD4C
:1032500001F0C4F8FEF70EBD01F0C0F8FEF7ECBCBB
:1032600001F0BCF8FEF7D9BC01F0B8F8FEF7B7BC26
:1032700001F0B4F8FEF7A4BC01F0B0F8FEF77EBC94
:1032800001F0ACF8FEF766BC01F0A8F8FEF744BC0C
:1032900001F0A4F8FEF731BC01F0A0F8FEF70FBC76
:1032A00001F09CF8FEF7FCBB01F098F8FEF7DABBE2
:1032B00001F094F8FEF7C7BB01F090F8FEF7A6BB4B
:1032C00001F08CF8FEF793BB01F088F8FEF771BBB4
:1032D00001F084F8FEF75EBB01F080F8FEF73CBB1E
:1032E00001F07CF8FEF729BB01F078F8FEF703BB8C
:1032F00001F074F8FEF7F0BA01F070F8FEF7CEBAFC
:1033000001F06CF8FEF7BBBA01F068F8FEF799BA65
:1033100001F064F8FEF786BA01F060F8FEF75ABAD9
:1033200001F05CF8FEF747BA01F058F8FEF725BA4D
:1033300001F054F8FEF712BA01F050F8FEF7F0B9B8
:1033400001F04CF8FEF7DDB901F048F8FEF7B7B927
:1033500001F044F8FEF7A4B901F040F8FEF782B995
:1033600001F03CF8FEF76FB901F038F8FEF74DB9FF
:1033700001F034F8FEF73AB901F030F8FEF714B96D
:1033800001F02CF8FEF701B901F028F8FEF7DFB8DC
:1033900001F024F8FEF7CCB801F020F8FEF7AAB847
:1033A00001F01CF8FEF797B801F018F8FEF771B8B5
:1033B00001F014F8FEF75EB801F010F8FEF734B82B
:1033C00001F00CF8FEF721B801F008F8FDF7FFBF97
:1033D00001F004F8FDF7ECBF01F000F8FDF7C6BFFF
:1033E00000F0FCFFFDF7B3BF00F0F8FFFDF791BF61
:1033F00000F0F4FFFDF77EBF00F0F0FFFDF75CBFCB
:103400004FF0000CC1850321028680F801C080F8CE
:1034100002C080F80AC0A0F808C0A0F806C080F872
:1034200004C080F812C0A0F810C0A0F80EC080F848
:103430000CC080F81AC0A0F818C0A0F816C080F818
:1034400014C080F822C0A0F820C0A0F81EC080F8E8
:103450001CC080F82AC0A0F828C0A0F826C080F8B8
:1034600024C080F82C10704730B5044685B0782011
:1034700084F82D1004F1320501F000FBB9212B4630
:1034800048F247020091274894F82D1006F0B4FF47
:10349000E18D228E2B46080A4FF0000E84F835206D
:1034A000120A84F8340004F1EA0084F8331084F836
:1034B000362053F8042B0EF07F3182EA0E0C02F016
:1034C0007F3283420CF0803C0A4482EA0C0EF0D139
:1034D00094F8EAC0CEF3072594F82D100DF10F03F0
:1034E000F44448F2FF020F48AC440CEB1E4C0CEBCA
:1034F0001E6CCCF1000C0CF0FF0C84F8EAC08DF8C7
:103500000FC006F0B3FF4FF0010C0DF10F034FF4A5
:10351000014294F82D1003488DF80FC006F0A6FF65
:1035200005B030BDA80F002080F82C10704700BFF8
:103530002DE9F043054687B048F24E12394804ABF6
:1035400095F82D1006F0CAFF9DF8102002F00F0329
:10355000C2F380116B70003B297018BF0123D209A0
:10356000AB7000D073B900240DF10F0348F24E1276
:1035700095F82D102B488DF80F4006F077FF07B017
:10358000BDE8F0830026DFF8A0904FF00708254F34
:1035900034460EE0002840D0E4000136043405F83B
:1035A00004C02C446280A380A171F4B26B78A34262
:1035B000D9D909EBC40204ABCDF80080384692B2E9
:1035C00095F82D1006F018FF9DF812309DF8112087
:1035D0009DF8141002EB03229DF813309DF816009D
:1035E00003EB01239DF8151092B29DF810C001EB7A
:1035F000002195F82C009BB2022889B208D003283C
:10360000C8D1E88D821A288EC31A92B29BB2C3E742
:10361000288E801A1A4683B2BEE7E88DC01A134678
:1036200082B2B9E7A80F00204F81FFFFF0B5002359
:1036300087B0012201260193102300270D4602A91D
:103640000446CDE902234FF48052CDE9046705F02A
:103650007BF9012001F012FA02A94FF480522046B2
:10366000CDE9046702261027CDE9026705F06CF961
:103670000322102302A92046CDE9022300230822B9
:10368000CDE904234FF4805205F05EF940F2312376
:10369000042202A9019310232046CDE90223019AB6
:1036A000012305924FF48052049305F04DF9294609
:1036B000204605F069F907B0F0BD00BFF0B5002362
:1036C00087B0012201260193082300270D4602A995
:1036D0000446CDE902234FF48052CDE9046705F09A
:1036E00033F9012001F0CAF902A94FF480522046B3
:1036F000CDE9046702260827CDE9026705F024F921
:103700000322082302A92046CDE902230023082230
:10371000CDE904234FF4805205F016F940F231232D
:10372000042202A9019308232046CDE90223019A2D
:10373000012305924FF48052049305F005F92946C0
:10374000204605F021F907B0F0BD00BF30B50446B2
:1037500083B0444842F032FB434842F02FFB01F073
:1037600087F922460023054699B20133B3F1807FE1
:1037700022F8021BF8D101F07BF9421B9FED3B6A56
:10378000202107EE102ADFED3A7A3A48F8EE476A30
:1037900086EE267A27EE277AB7EEC77A8DED007B84
:1037A00042F086FA01F064F904F1007223460546FE
:1037B00033F8021B9A42FBD101F05AF9421B9FEDEC
:1037C0002B6A202107EE102ADFED297A2A48F8EE2D
:1037D000476A86EE267A27EE277AB7EEC77A8DED0E
:1037E000007B42F065FA1F4842F0E8FA234842F0B5
:1037F000E5FA2046002302E0B3F1807F0CD0018877
:103800009AB20230013389B29142F5D01C4842F09D
:10381000D5FA012003B030BD1A4842F0CFFA002398
:10382000DAB2E2540133FF2BFAD1174842F0C6FA5C
:10383000002301E0FF2B0DD0E15CDAB201339142AD
:10384000F8D0124842F0BAFA114842F0B7FA012013
:1038500003B030BD0F4842F0B1FA0F4842F0AEFA63
:103860000020D7E7049C04086C9C04080000004278
:1038700000007A44849C0408E49C0408349D0408F5
:103880004C9D0408689D0408AC9D0408D89D04085C
:10389000049E0408249E0408449E040808B51248A7
:1038A000002302221149C365C0E91132C0E9133374
:1038B000C0E91533C0E90013C0E9022301F0A4F9FF
:1038C00028B90121084801F0DFF940B908BD00F02E
:1038D00085FD0121044801F0D7F90028F6D0BDE8A4
:1038E000084000F07BBD00BF180B00200010005204
:1038F0000A4B02689A4200D07047094B82B0D3F855
:10390000D42042F01002C3F8D420D3F8D43003F00E
:1039100010030193019B02B0704700BF00100052DA
:1039200000440258354800233549012210B5C0E94A
:103930000013826008211022C3614FF4006388B035
:10394000C0E90312036240214FF4C0724FF4805368
:10395000C0E905124362022207234FF40051CDE96A
:1039600000230422062381620221CDE902230222E0
:10397000022306916946CDE9042304F0BBFFB8BBDE
:10398000204801231E4A082483606946C0E90023B9
:1039900010234022C0E903434FF4C0730024C0E960
:1039A00005234FF400634FF48052C0E907434FF4FE
:1039B00000530224C0E90923022207230694CDE91B
:1039C000002304220623CDE9022302220223CDE9AB
:1039D000042304F08FFF70B940F2FA210748FFF783
:1039E00025FE40F2FA210748FFF768FE08B010BD37
:1039F00000F0F4FCC4E700F0F1FCEDE7840B0020DC
:103A000040410052B80B002036480023D0B5016871
:103A1000B8B0CDE90233CDE90433069309B138B02B
:103A2000D0BD0123B82203600AA841F0B7F84FF0D7
:103A30008072002308A8CDE9082304F05FF900286C
:103A40004CD1294B4FF6837002210C24D3F8D4209B
:103A50000026032742F48052C3F8D420D3F8D43090
:103A6000069403F48053CDE90201019302A91F4893
:103A7000019BCDE9046701F077F948F23712022380
:103A800002A91B480694CDE90223CDE9046701F0A1
:103A90006BF94CF20372022302A916480694CDE991
:103AA0000223CDE9046701F05FF94FF63F020223DC
:103AB00002A911480694CDE90223CDE9046701F07B
:103AC00053F9EC22022302A90C480694CDE90467BD
:103AD000CDE9022301F048F938B0D0BD00F07EFCFA
:103AE000AFE700BF800B00200044025800100258CE
:103AF00000180258000C025800140258001C02580A
:103B000008B509F0AFFF0AF07FF8034B1868BDE86D
:103B1000084008F091BF00BFEC0B002030B5244CEA
:103B200097B020250DF1040C94E80F008CE80F00ED
:103B300062460021012007F097FA04F110031D4AA4
:103B40000DF1140C2C4410600FCB8CE80F00624672
:103B50000021012007F088FA174B0DF1240C1860A2
:103B600094E80F008CE80F0001216246084607F038
:103B70007BFA124B2A46002118600EA841F00EF87D
:103B80000F484FF400730DAA0D9000210D481293B9
:103B9000139507F011FA0C4B04460C4A00210C480F
:103BA0001C6007F009FA0B4B186017B030BD00BF5E
:103BB000A09A0408E00C0020E40C0020E80C00208F
:103BC0006C9E04084D0B00081C090020889E040808
:103BD000013B0008EC0B00202DE97043564B90B0E0
:103BE00000244FF48071554D4FF000080E944FF0B3
:103BF0000009534E2846CDE90A44CDE90C44D3F8D8
:103C0000E02042F01002C3F8E020D3F8E02002F0F8
:103C100010020192019AD3F8E02042F00102C3F8A9
:103C2000E020D3F8E02002F001020292029AD3F8D9
:103C3000E02042F00202C3F8E020D3F8E02002F0D6
:103C400002020392039AD3F8E02042F04002C3F844
:103C5000E020D3F8E02002F040020492049AD3F866
:103C6000E02042F00802C3F8E020D3F8E02002F0A0
:103C700008020592059AD3F8E0200A43C3F8E02031
:103C8000D3F8E0200A400692069AD3F8E02042F0EA
:103C90008002C3F8E020D3F8E02002F0800207920F
:103CA000079AD3F8E02042F00402C3F8E020D3F8EA
:103CB000E02002F004020892089AD3F8E02042F0D3
:103CC0002002C3F8E0202246D3F8E03003F02003BE
:103CD0000993099B01F088F922463046082101F03A
:103CE00083F94FF48072112328460AA9CDE90A23EB
:103CF000CDE90C8901F038F8082201230AA93046E1
:103D0000CDE90A23CDE90C8901F02EF84FF4881390
:103D10004FF400620AA90B480C94CDE90A2301F084
:103D200023F822460521282000F0D2FE282000F0AA
:103D30000DFF10B0BDE87083004402580020025807
:103D400000180258000C025810B5174800231749F4
:103D50000124174A036280E81E00C0E90433C0E969
:103D6000063301F0BFFA50B900210F4801F08AFE76
:103D700068B900210C4801F0AFFE80B910BD00F019
:103D80002DFB0021084801F07DFE0028F1D000F055
:103D900025FB0021044801F09FFE0028EED0BDE87D
:103DA000104000F01BBB00BFEC0C0020001C0058B2
:103DB000DB3FB0000000000010B5B8B000210446A1
:103DC000C02208A80691CDE90211CDE9041140F006
:103DD000E5FE1F4B22689A4201D038B010BD102278
:103DE000002308A8CDE9082303F088FF40BB194C45
:103DF000042202A91848D4F8E03043F00803C4F8BC
:103E0000E030D4F8E0300692002203F008039FED82
:103E10000E7B0093009B00238DED027BCDE90423F4
:103E200000F0A2FFD4F8F43043F08003C4F8F4307B
:103E3000D4F8F43003F080030193019B38B010BD37
:103E400000F0CCFAD3E700BF003000001200000001
:103E5000001C005800440258000C025810B58EB0E7
:103E60003422002101A840F099FE2548002325496D
:103E70000122838680F83630C0E90013C0E904329D
:103E800004212D22C0E90233C0E9061240F2FD23CD
:103E90001322C0E9082340F22B3340F2E322C0E9A9
:103EA0000A2340F2F223036301F042FE00BB022426
:103EB000FF2000224FF4347301A90B930C93ADF84B
:103EC00034208DF83620CDE9054005204FF480647C
:103ED00009904FF040400A900948CDE90123CDE90F
:103EE0000323CDE9072401F091FE20B90EB010BDE7
:103EF00000F074FADBE700F071FA0EB010BD00BFFD
:103F0000400D0020001000503E4A00230168D0B54B
:103F100091428CB0CDE90633CDE908330A9301D044
:103F20000CB0D0BD384B4FF40C6002210E24D3F8F6
:103F3000E4200026002742F00802C3F8E420D3F86A
:103F4000E42002F008020192019AD3F8E02042F046
:103F50004002C3F8E020D3F8E02002F040020292D1
:103F6000029AD3F8E02042F48072C3F8E020D3F83C
:103F7000E02002F480720392039AD3F8E02042F02A
:103F80008002C3F8E020D3F8E02002F0800204921F
:103F9000049AD3F8E02042F02002C3F8E020D3F8DE
:103FA000E0300A9403F02003CDE90601059306A949
:103FB0001648059B00F0D8FE40F2F762022306A9DE
:103FC00013480A94CDE90623CDE9086700F0CCFE3A
:103FD0004FF47E42022306A90E480A94CDE9062337
:103FE000CDE9086700F0C0FE4FF48062022306A905
:103FF00009480A94CDE90867CDE9062300F0B4FE2C
:104000000CB0D0BD001000500044025800180258F7
:1040100000200258001C0258001402580000000042
:1040200000B5A1B04C2200210CA840F0B7FD202221
:10403000002104A840F0B2FD022002F0DBFE3E4B5E
:1040400000213E4A0191D96A21F00101D962DB6A5F
:1040500003F001030193936943F44043936193692F
:1040600003F440430193019B93699904FCD5344BBD
:10407000D3F8F41041F00201C3F8F4100021D3F892
:10408000F43003F002030293029B039191692A4BDF
:1040900041F440419161926902F440420392D96A2D
:1040A000264A41F00101D962DB6A03F00103039360
:1040B000039B93699B04FCD521204FF4A02102238C
:1040C0000022CDE90C010121159316930CA8129141
:1040D000052119931791C021CDE91A3308231891AE
:1040E000CDE91D221C9302F0A5FF08B172B6FEE7D0
:1040F0009FED0D7B0022082304A804218DED047B95
:104100009FED0B7BCDE906234FF4806240238DEDBC
:10411000087BCDE90A2303F021FB08B172B6FEE764
:1041200021B05DF804FB00BF3F0000000300000069
:104130004000000040000000000400580048025801
:10414000004402580000000000B5B1B00021B822C0
:1041500002A840F023FD06231920D8210E934FF426
:1041600000539FED0B7BCDE90A01684618938DED56
:10417000007B9FED097B8DED0C7B03F0BFFD08B14B
:1041800072B6FEE731B05DF804FB00BFAFF300800C
:1041900000100020000000000200000005000000E8
:1041A0004FF000534FF480624FF000611846F0B5B5
:1041B000734E85B0002440F0C9FCB060012504278F
:1041C000CDE90044CDE9024400F0CEFC4FF010539D
:1041D0006C49684601936C4BADF80050CDE9021371
:1041E00000F0E0FC4FF0C04368468DF801500193A9
:1041F0001B238DF80A408DF808308DF80E4000F032
:10420000D1FC02236846ADF80E508DF801304FF016
:104210004053019310238DF8083000F0C3FC0323B2
:1042200068468DF80130594B019300F0BBFC584BA8
:1042300068468DF8017001930E238DF8083000F068
:10424000B1FC052368468DF801304FF060530193AF
:104250000F238DF8083000F0A5FC062368468DF882
:104260000A508DF801304FF010438DF80F50019334
:1042700018238DF8083000F095FC072368468DF868
:104280000A408DF801304FF040438DF80F40019304
:1042900000F088FC08224FF0504368468DF801205A
:1042A000019300F07FFC4FF080436846019300F0DB
:1042B00079FC384600F066FC736913F4003311D1C1
:1042C000BFF34F8FBFF36F8FC6F85032BFF34F8FDE
:1042D000BFF36F8F736943F400337361BFF34F8F84
:1042E000BFF36F8F2648436913F4803326D1C0F89B
:1042F0008430BFF34F8FD0F8803043F6E074C3F3BF
:104300004E3CC3F3C90E4FEA4C1C0CEA0401734641
:1043100041EA8372013BC0F860225A1CF8D1ACF12B
:10432000200C1CF1200FF0D1BFF34F8F436943F4F1
:1043300080334361BFF34F8FBFF36F8F00F05CFB9F
:104340000AF038F9FFF76CFEFFF7FEFEFFF744FCBA
:1043500000F046F800F0C6FA00F08AFAFFF7E2FA39
:10436000FFF77CFD00F0DAF8FFF798FAFFF7ECFCB6
:1043700006F0F6FDFFF7D2FB06F004FEFEE700BFF5
:1043800000ED00E012000103000001010000023016
:1043900000000430014B00221A607047E80D002035
:1043A000014B1868704700BFE80D002072B6FEE7A9
:1043B000074A0368934203D0064A934205D07047E8
:1043C000054A136801331360704700F045BB00BF16
:1043D0000014004000100040E80D002072B6FEE717
:1043E0000C4801220C49002310B5C0E9001220241A
:1043F00010214FF48072036184608361C160426167
:10440000C0E9073302F022FD00B910BDBDE810403D
:10441000FFF7E4BFEC0D002000500052F0B5BBB038
:1044200000210446C0220AA80891CDE90411CDE973
:10443000061140F0B3FB354B22689A4201D03BB0E5
:10444000F0BD4FF0007200230AA8CDE90A2303F063
:1044500055FC002857D12E4B402002210024D3F8D0
:10446000D42003250A26092742F48042C3F8D42029
:10447000D3F8D42002F480420192019AD3F8E020CC
:1044800042F00202C3F8E020D3F8E02002F002027A
:104490000292029AD3F8E02042F02002C3F8E02012
:1044A000D3F8E030089603F02003CDE9040103932C
:1044B00004A91848039BCDE9064500F055FCC0222D
:1044C000022304A914480897CDE90423CDE9064541
:1044D00000F04AFC4FF44072022304A90E480896EB
:1044E000CDE90423CDE9064500F03EFC0422022379
:1044F00004A908480897CDE90645CDE9042300F052
:1045000033FC3BB0F0BDFFF769FFA4E70050005259
:1045100000440258000402580014025810B517480D
:104520004FF48002164C4FF40031002381604FF0AD
:10453000405143610362C161C362C0E90042082285
:104540004FF00074C2604FF08062046182614FF0EE
:104550008042C0E90933C0E90D23C0E90F33C0E947
:104560001133C0E91333C0E9153304F081FA00B9FF
:1045700010BDBDE81040FFF731BF00BF380E00206E
:1045800000380040244A00230168D0B591428AB027
:10459000CDE90433CDE90633089301D00AB0D0BD8C
:1045A0001E4B082602270524D3F8E82004A91C483E
:1045B00042F48042C3F8E820D3F8E82002F48042B5
:1045C0000192019AD3F8E02042F48072C3F8E0200F
:1045D000D3F8E02002F480720292029AD3F8E0202D
:1045E00042F00802C3F8E020D3F8E030089403F06A
:1045F00008030393039BCDE9046700F0B5FB002299
:10460000002304A907480894CDE90467CDE90623EF
:1046100000F0AAFB0AB0D0BD0038004000440258A8
:1046200000200258000C02580B4B00220F216FF0A3
:10463000010010B4D3F8F44083B044F00204C3F88E
:10464000F440D3F8F43003F002030193019B03B06C
:104650005DF8044B00F03CBA004402580F2801D921
:104660000120704710B501468AB00022044636206A
:1046700000F02EFA362000F069FA1A4B1A4A694601
:1046800002A81460D3F8E82042F01002C3F8E82032
:10469000D3F8E83003F010030193019B03F00EFA06
:1046A000079BBBB903F0C2F9104B0022104CA3FBCF
:1046B000000310492046A2609B0C216040F2E731C4
:1046C000013BC4E90312636004F03CFC30B10120FB
:1046D0000AB010BD03F0AAF94000E5E7204604F057
:1046E000E7FCF5E7004402582404002083DE1B4366
:1046F000C00E002000100040FEE700BFFEE700BF34
:10470000FEE700BFFEE700BFFEE700BF704700BF47
:104710004FF4006000F06EBC044808B504F0F8FDEA
:104720000120BDE8084031F06DBD00BFC00E002083
:10473000014804F0EDBD00BF580F0020014801F012
:1047400013BC00BF083100200120704708B540F0BD
:10475000A7F8162203464FF0FF301A6008BD00BFCD
:1047600008B540F09DF816230360FEE770B5161EED
:1047700007DD0C468D19AFF3008004F8010BA5424C
:10478000F9D1304670BD00BF4FF0FF30704700BF19
:104790004FF4005300204B60704700BF012070476A
:1047A000002070472749284AD1F8883043F4700325
:1047B00010B4C1F88830136803F00F03062B05D836
:1047C000136823F00F0343F0070313601F4B00240B
:1047D0001F4A19681C4841F0010119601C611968E1
:1047E0000A401A6003681B0705D5036823F00F030E
:1047F00043F007030360154B00221649164C174877
:104800009A61DA611A629C62D86219635A63996389
:10481000DA6319645A641868114C20F48020114935
:1048200018601A6623681940B1F1005F03D20E4B7D
:104830000122C3F808210D4B43F2D2025DF8044B6C
:104840001A60704700ED00E000200052004402585A
:104850007FEDF6EA80020101000202020000FF0182
:104860000010005C0000FFFF00800051004000527B
:1048700000B5002389B019484FF6FF721849049318
:104880000193036183610793C0E90013C0E9023219
:10489000CDE90533CDE9023304F054FB90B94FF470
:1048A000805304A90D48049304F05EFC90B90023E2
:1048B00001A90A480193039304F0E2FD28B909B065
:1048C0005DF804FBFFF78AFDE9E7FFF787FD09B014
:1048D0005DF804FBFFF782FDE9E700BF0C0F002045
:1048E0000004004010B5002384B01048C721104CCC
:1048F000312201938361C0E90041C0E90232CDE970
:10490000023304F01FFB48B9002301A907480193B3
:10491000039304F0B5FD20B904B010BDFFF75EFDB0
:10492000F2E7FFF75BFD04B010BD00BF580F002099
:1049300000140040184A0368934210B582B004D0B6
:10494000164A934210D002B010BD154BD3F8E820A0
:1049500042F00202C3F8E820D3F8E83003F0020383
:104960000093009B02B010BD0D4B372000220521A3
:10497000D3F8E84044F02004C3F8E840D3F8E83026
:1049800003F020030193019B00F0A2F8372002B04E
:10499000BDE8104000F0DAB8000400400014004008
:1049A00000440258DFF834D0FFF7FCFE0C480D49F4
:1049B0000D4A002302E0D458C4500433C4188C427A
:1049C000F9D30A4A0A4C002301E013600432A242E0
:1049D000FBD340F073F8FFF7E3FB704700000220C1
:1049E00000040020F8080020BCDB0608F8080020BE
:1049F00038410020FEE7000010B50320124C00F003
:104A000055F802F00BFE114B11499A699B69C2F3EC
:104A1000032203F00F038A5CCB5C02F01F020D49F6
:104A200003F01F03D04020FA03F308600F20236037
:104A3000FFF714FE10B10124204610BD0446FFF715
:104A4000F3FD204610BD00BF1C04002000440258A6
:104A5000AC9E040818040020034A044B11681B781C
:104A60000B441360704700BFA40F002020040020F7
:104A7000014B1868704700BFA40F002038B50446EA
:104A8000FFF7F6FF0546631C02D0044B1B781C445D
:104A9000FFF7EEFF431BA342FAD338BD20040020EA
:104AA000014B1868000C70470010005C06494FF677
:104AB000FF0C0002054BCA6800F4E06002EA0C0239
:104AC00010430343CB60704700ED00E00000FA059F
:104AD0001B4BDB68C3F3022300B5C3F1070E03F1E0
:104AE000040CBEF1040F28BF4FF0040EBCF1060FFA
:104AF0001AD9033B4FF0FF3C0CFA03FC22EA0C02EC
:104B00004FF0FF3C00280CFA0EFC21EA0C0101FAE0
:104B100003F141EA02010ADB09010A4BC9B203446D
:104B200083F800135DF804FB00221346E8E700F069
:104B30000F000901044BC9B2034419765DF804FB68
:104B400000ED00E000E100E0FCEC00E0002807DB05
:104B5000012300F01F01034A40098B4042F8203036
:104B6000704700BF00E100E0BFF35F8F044B0021FE
:104B70005A6A22F480325A62C3F89410704700BF18
:104B800000ED00E0064B40F00100C3F894005A6AC3
:104B900042F480325A62BFF34F8FBFF36F8F70477A
:104BA00000ED00E0174A4378C2F89830017821B34D
:104BB000436800B5C2F89C30C37A90F80CC01B065D
:104BC00090F80FE043EA0C7390F80AC00B43817B26
:104BD00043EACC4390F80DC043EA8C4390F809C0F7
:104BE00043EA4143017A43EA0E4343EA0C2343EA92
:104BF0004103C2F8A0305DF804FBC2F89C10C2F873
:104C0000A010704700ED00E0002835D038B590F8CE
:104C10006130044603F0FF024BB323680220626850
:104C200084F86100E1691D6814481143A2682840B6
:104C3000E5680143A06919600243596B10480840B8
:104C4000104902435A631A6C1140D4E90402294303
:104C500052051964596B42EA0052002021F44011B8
:104C60000A435A630123606684F8613038BD80F8D6
:104C70006020FEF73DFED0E701207047BFFFF8FF40
:104C8000F8FEFFFF0000FFFF90F86020012A65D0CA
:104C90000346C1EBC100022203EB800070B4012483
:104CA00083F8612083F86040826BC46A056B12054B
:104CB000A4F1090C42EA0542C56BBCF1010F42EABE
:104CC000040242EA455222D9456B42EA056281B9A3
:104CD00018682349456A9C6A29400A4342628461F4
:104CE00000220121104683F8611083F8602070BC17
:104CF00070470B2C1C6829D1E5691A492940056CBD
:104D0000806A41EA85410A43E2612061E8E7446B39
:104D100004F07F44224361B918681149466A5C6B0C
:104D200031409D6A24F07F440A4342628561846277
:104D3000D6E71C680A49E56929400A43416B806A45
:104D400021F07F41E26120612162C9E7E569044900
:104D5000806A29400A43E2612061C1E7022070476E
:104D6000F0FFCC00F0FFC0002DE9F04F0C6883B0DD
:104D7000002C00F0A6804FF0000C8E4F63460122FD
:104D80009A4012EA040E00F095804D6805F0030980
:104D900009F1FF36012E40F29780B9F1030F40F080
:104DA000D18009FA0CF26FEA0208066815F4403F58
:104DB00006EA080842EA080202607BD0D7F8F4202D
:104DC00023F0030803F0030942F0020208F1B0489F
:104DD0004FEA8909C7F8F42008F58068D7F8F4206D
:104DE00002F002020192019A0F22D8F8086002FA3A
:104DF00009F226EA0202704EB04229D006F580661A
:104E0000B04200F0AC806D4EB04200F0AE806C4E0F
:104E1000B04200F09E806B4EB04200F0B2806A4E0D
:104E2000B04200F0B480694EB04200F0A480684EF9
:104E3000B04200F0B280674EB04200F0B480664EDF
:104E4000B0420CBF09260A2606FA09F942EA09020D
:104E5000C8F808204FF0B042EE026FEA0E08126860
:104E60004FF0B04654BF08EA02024EEA0202326036
:104E7000AA0276684FF0B04254BF08EA06064EEA2E
:104E800006065660D2F88460AA034FF0B04254BFC1
:104E900008EA06064EEA0606ED034FF0B045C2F8F2
:104EA0008460D2F8802054BF08EA02024EEA02026F
:104EB000C5F8802001330CF1020C34FA03F27FF4C0
:104EC0005EAF03B0BDE8F08F4FF00308866808FAC4
:104ED0000CF826EA080ACE686FEA080806FA0CF60B
:104EE00046EA0A068660C5F30016D0F804A09E4084
:104EF0002AEA020232434260C268B9F1020F8E68A8
:104F000002EA080206FA0CF646EA020609FA0CF270
:104F1000C6607FF44AAF03F007064FEAD3094FEAB1
:104F2000860B0F2600EB890906FA0BF6D9F820A0AC
:104F30002AEA060A0E6906FA0BF646EA0A06C9F8D4
:104F4000206032E74FF0030808FA0CF86FEA08080F
:104F5000D2E7032606FA09F942EA090278E70126B0
:104F600006FA09F942EA090272E7022606FA09F985
:104F700042EA09026CE7062606FA09F942EA090242
:104F800066E7042606FA09F942EA090260E70526FF
:104F900006FA09F942EA09025AE7072606FA09F968
:104FA00042EA090254E7082606FA09F942EA090228
:104FB0004EE700BF004402580000025800080258A3
:104FC000000C025800100258001402580018025831
:104FD000001C02580020025800240258036919429C
:104FE00014BF01200020704702B909048161704795
:104FF000704700BF4FF0B042D2F88810014200D194
:10500000704708B5C2F88800FFF7F2FF08BD00BF7F
:105010002DE9F04703684FF0200805460E46174675
:10502000986910F0020940F09E809C6914F0100409
:1050300068D010223C46CA46DA61711C9A6963D175
:10504000900600F19380BAF1000F04D19C69A1068B
:10505000FCD5C3F81C8049F0040401219A69D005ED
:1050600030D54FF48071560544F00104D96104D560
:105070004FF4806144F00804D961910504D54FF4E0
:10508000007244F00204DA619A69900701D50022A7
:105090009A629A69D10703D49A6942F001029A612F
:1050A0005A68002134482026024001205A606B6C67
:1050B00085F840101C436C6485F8416085F8421007
:1050C000BDE8F0875005D3D49205D8D40029DBD1B0
:1050D000721CA5D0FFF7CCFCC01B2B68B04201D8D6
:1050E000002E9DD19A6912F0020299D16B6C202199
:1050F000012085F840200B436B6485F8411085F84A
:105100004220DDE72146A9E792062FD4BAF1000F2D
:10511000A1D1FFF7ADFC001B2B68864201D3002E06
:105120008BD1586895F842209969D2B209040BD501
:10513000410409D4202A07D05A6842F480425A60B8
:10514000FFF796FC2B6804469A6990063FF575AF09
:10515000FFF78EFC001B2B681928F5D94FF02009AA
:105160004FF0010A69E70020BDE8F087BAF1000FAF
:105170003FF46FAF6FE700BF00E800FE03682DE962
:10518000F04790469A69940665D406460F464FF05C
:1051900010099C6914F0100460D000254446C3F83F
:1051A0001C90AA46791C9A695AD190067DD4BAF10E
:1051B000000F04D19C69A106FCD52022DA6145F0DC
:1051C000040401219A69D00530D54FF4807155054A
:1051D00044F00104D96104D54FF4806144F008041F
:1051E000D961970504D54FF4007244F00204DA61E6
:1051F0009A69900701D500229A629A69D10703D46F
:105200009A6942F001029A615A68002134482025C7
:10521000024001205A60736C86F840101C4374648D
:1052200086F8415086F84210BDE8F0875005D3D487
:105230009505D8D40029DBD1FFF71AFCA0EB0800B4
:105240003368B84200D81FB99A6912F0200230D0F2
:105250009A6992069DD50020BDE8F0872146B1E706
:10526000920622D4BAF1000FA9D1FFF701FC001B6E
:105270003368874201D3002F94D1586896F84220B2
:105280009969D2B2090403D5410401D4202A1DD161
:105290009A69900686D4FFF7EBFB001B3368192848
:1052A000F6D920254FF0010A7CE7BAF1000F84D02F
:1052B00085E7736C2021012086F840200B4373643E
:1052C00086F8411086F84220BDE8F0875A6842F41B
:1052D00080425A60FFF7CCFB33680446D8E700BF32
:1052E00000E800FE00284ED010B590F8413004468A
:1052F00003F0FF02002B41D023682421626884F868
:105300004110196822F07062E06821F00101012863
:1053100019601A619A6822F400429A60A26829D042
:1053200042F4044202289A6002D14FF400625A60AB
:1053300058684FF0200C1549226901435960D9681B
:1053400021F40041D960D4E90501024342EA012277
:10535000D4E90710DA600022014310461960196889
:1053600041F001011960626484F841C0226384F84D
:10537000422010BD42F400429A60D9E780F84020F4
:10538000FEF71AFDB8E70120704700BF0080000259
:105390002DE9F047984690F84130BDF824A0202B25
:1053A0000A9F32D1089B04464BB3BAF1000F26D0B6
:1053B00090F84030012B28D001230E46914680F80A
:1053C0004030FFF755FB236805469A6911041FD545
:1053D000FFF74EFB401B23681928F6D99A6912047F
:1053E000F3D5636C2021002201200B4384F8402078
:1053F000636484F8411084F84220BDE8F0874FF4DC
:10540000007301206364BDE8F0870220BDE8F087E7
:10541000089A2121C6F30906204684F8411040214C
:105420006262002284F84210626362646D49A4F8EB
:105430002AA05A680A405FFA88F142EA01426A49A2
:10544000324311432A4659603946FFF7E1FD0028EF
:1054500075D1B8F1010F0AD04FEA192223683946F5
:1054600020469A622A46FFF7D3FD002867D15FFAEB
:1054700089F322689362781C4AD193691906FCD596
:10548000638D9BB2FF2B40F28A80536857490B40D3
:10549000574933431943FF2323855160DFF84C817B
:1054A0004FF0FF0ADFF8489104E0638D9BB2002BB8
:1054B00000F083802A4639462046FFF7A9FD0028E0
:1054C0006BD1626A216812F8010B238D88626262D7
:1054D000013B628D9BB2013A238592B26285628D57
:1054E00092B2002AE1D0002BDFD1781C2CD18B693D
:1054F0001A06FCD5638D9BB2FF2B40D94B68A4F8EC
:1055000028A003EA0803334343EA09034B60CCE7CE
:1055100093691B06B4D4FFF7ABFA401B226887429D
:1055200001D3002FA7D1936913F08003A3D1626C3C
:1055300020210A43626484F8411084F84230002339
:10554000012084F840305EE78B691B06D2D4FFF758
:105550008FFA401B2168874201D3002FC5D18B6988
:1055600013F08003C1D1626C2021012084F8403007
:105570000A43626484F8411084F8423043E7638D43
:105580009BB2DAB223854B6803EA0803334343EA4C
:10559000024343F000734B6087E7012033E7638DDC
:1055A00012489BB2D9B2238553680340334343EA80
:1055B000014343F00073536070E72A4639462046A2
:1055C000FFF7DCFD0028E8D123682021094DD961CF
:1055D0005A682A405A6084F8411084F8400084F8E0
:1055E000420010E7009800FC00200001009C00FC35
:1055F0000000FF0100E800FE2DE9F0471F4690F88B
:105600004130BDF82490202B0A9C37D1089B82465C
:105610006BB3B9F1000F2AD090F84030012B2DD098
:1056200001230E46904680F84030FFF721FADAF861
:10563000003005469A69120423D5FFF719FA401B7A
:10564000DAF800301928F5D99A691004F2D5DAF899
:1056500044302021002201200B438AF84020CAF860
:1056600044308AF841108AF84220BDE8F0874FF4B0
:1056700000730120CAF84430BDE8F0870220BDE87D
:10568000F087089A2221C6F3090650468AF841108D
:105690004021CAF8242000228AF84210CAF8342097
:1056A000CAF844208149AAF82A905A680A40F9B2F7
:1056B00042EA01422146324342F400525A602A46ED
:1056C000FFF7A6FC002840F09080012F0CD04FEA95
:1056D0001822DAF80030214650469A622A46FFF72F
:1056E00097FC002840F081805FFA88F3DAF8002008
:1056F0009362611C5FD193695B06FCD5BAF82A30CE
:105700009BB2FF2B40F2AB80536868490B4068495D
:1057100033431943FF23AAF828305160654F4FF0F7
:10572000FF09DFF89C81601C27D193695907FCD5DC
:10573000526ADAF824301A70BAF82A20DAF82430DB
:10574000013A013392B2CAF82430BAF82830AAF8E4
:105750002A20013BBAF82A209BB292B2AAF828303C
:105760000AB1002B46D0BAF82A309BB2002B00F0C9
:105770008680601CDAF80020D7D093695B07D7D405
:10578000FFF776F9401BDAF80020844201D3002CA1
:10579000C9D1936913F00403C5D1DAF8442020215C
:1057A00001208AF840300A43CAF844208AF84110A0
:1057B0008AF8423060E793695F069FD4FFF758F993
:1057C000401BDAF80020844201D3002C91D1936968
:1057D00013F040038DD1DAF8442020210A43CAF89F
:1057E00044208AF841108AF84230002301208AF8C8
:1057F000403041E7DAF80020601C10D193691906A7
:10580000FCD5BAF82A309BB2FF2B19D95368AAF8F5
:1058100028903B40334343EA08035360A3E793696E
:105820001B06EED4FFF724F9401BDAF8002084426F
:1058300001D3002CE0D1936913F08003DCD1ACE7F5
:10584000BAF82A309BB2D9B2AAF8283053683B4044
:10585000334343EA014343F00073536083E7BAF8EC
:105860002A3012489BB2D9B2AAF8283053680340B4
:10587000334343EA01431049194351604EE72A4636
:1058800021465046FFF77AFC70B9DAF80030202143
:105890000A4CD9615A6822405A608AF841108AF845
:1058A00040008AF84200E7E60120E5E6009800FCA7
:1058B0000024FF01009C00FC0024000200E800FE20
:1058C0000000FF012DE9F047002482B081460194D9
:1058D00090F8410020285DD1D9F800401E46A36908
:1058E00013F4004356D1174699F84020012A51D0AD
:1058F000C1F30902DFF88881924642EA08080122D2
:1059000089F84020242289F84120C9F84430D9F888
:105910000C30012B0CBF43464AF420536360FFF761
:10592000A7F8D9F800400546A269A36902F0200251
:1059300003F01003134343D1721C3BD1A269A16948
:1059400002F0200C01F010015CEA0103F6D0A3691B
:10595000DB0658D5A3699A06FCD51023E361202302
:10596000E361019BBB425AD0019B01330193019B30
:10597000BB42CCD320230022012089F84130D9F842
:10598000443089F8402043F02003C9F8443002B085
:10599000BDE8F087022002B0BDE8F087002EE9D014
:1059A000D9F80040A269A36902F0200203F01003B5
:1059B000134305D1FFF75CF8401BB042EED9D9E79D
:1059C000A369DB0648D5711CC4D0A3699B06C4D467
:1059D000FFF74EF8401BD9F80040864201D3002E55
:1059E000F1D1A36913F02003EDD1D9F8442020218F
:1059F000012089F840300A43C9F8442089F8411051
:105A000089F84230C7E7A3699D06FCD52022002310
:105A1000E261184689F8412089F84030BBE76368A5
:105A200043F480436360701C05D1A3699906FCD5DB
:105A30002023E36198E7A3699A06F9D4FFF718F8E1
:105A4000401BD9F80040864201D3002EEBD1A36958
:105A500013F02003E7D1C8E7771CD4D0A3699806D8
:105A6000D4D4FFF705F8401BD9F80040864201D393
:105A7000002EF1D1A36913F02003EDD1B5E700BFEB
:105A80000020000290F84120202A23D15FFA82FCF6
:105A900090F840200346012A1CD00268242000B55B
:105AA00083F841004FF0000E106820F001001060F4
:105AB000106820F480501060106801437046116037
:105AC000116841F00101116083F841C083F840E0A2
:105AD0005DF804FB0220704790F84120202A22D173
